{
  "contractName": "DealerV4",
  "abi": [
    {
      "anonymous": false,
      "inputs": [
        {
          "indexed": false,
          "internalType": "address",
          "name": "player",
          "type": "address"
        },
        {
          "indexed": false,
          "internalType": "uint256",
          "name": "profit",
          "type": "uint256"
        },
        {
          "indexed": false,
          "internalType": "uint256",
          "name": "dealerBalance",
          "type": "uint256"
        }
      ],
      "name": "PlayerWins",
      "type": "event"
    },
    {
      "anonymous": false,
      "inputs": [
        {
          "indexed": true,
          "internalType": "bytes32",
          "name": "role",
          "type": "bytes32"
        },
        {
          "indexed": true,
          "internalType": "bytes32",
          "name": "previousAdminRole",
          "type": "bytes32"
        },
        {
          "indexed": true,
          "internalType": "bytes32",
          "name": "newAdminRole",
          "type": "bytes32"
        }
      ],
      "name": "RoleAdminChanged",
      "type": "event"
    },
    {
      "anonymous": false,
      "inputs": [
        {
          "indexed": true,
          "internalType": "bytes32",
          "name": "role",
          "type": "bytes32"
        },
        {
          "indexed": true,
          "internalType": "address",
          "name": "account",
          "type": "address"
        },
        {
          "indexed": true,
          "internalType": "address",
          "name": "sender",
          "type": "address"
        }
      ],
      "name": "RoleGranted",
      "type": "event"
    },
    {
      "anonymous": false,
      "inputs": [
        {
          "indexed": true,
          "internalType": "bytes32",
          "name": "role",
          "type": "bytes32"
        },
        {
          "indexed": true,
          "internalType": "address",
          "name": "account",
          "type": "address"
        },
        {
          "indexed": true,
          "internalType": "address",
          "name": "sender",
          "type": "address"
        }
      ],
      "name": "RoleRevoked",
      "type": "event"
    },
    {
      "inputs": [],
      "name": "DEFAULT_ADMIN_ROLE",
      "outputs": [
        {
          "internalType": "bytes32",
          "name": "",
          "type": "bytes32"
        }
      ],
      "stateMutability": "view",
      "type": "function"
    },
    {
      "inputs": [
        {
          "internalType": "bytes32",
          "name": "_myid",
          "type": "bytes32"
        },
        {
          "internalType": "string",
          "name": "_result",
          "type": "string"
        }
      ],
      "name": "__callback",
      "outputs": [],
      "stateMutability": "nonpayable",
      "type": "function"
    },
    {
      "inputs": [
        {
          "internalType": "bytes32",
          "name": "_myid",
          "type": "bytes32"
        },
        {
          "internalType": "string",
          "name": "_result",
          "type": "string"
        },
        {
          "internalType": "bytes",
          "name": "_proof",
          "type": "bytes"
        }
      ],
      "name": "__callback",
      "outputs": [],
      "stateMutability": "nonpayable",
      "type": "function"
    },
    {
      "inputs": [],
      "name": "dealerBalance",
      "outputs": [
        {
          "internalType": "uint256",
          "name": "",
          "type": "uint256"
        }
      ],
      "stateMutability": "view",
      "type": "function"
    },
    {
      "inputs": [
        {
          "internalType": "bytes32",
          "name": "role",
          "type": "bytes32"
        }
      ],
      "name": "getRoleAdmin",
      "outputs": [
        {
          "internalType": "bytes32",
          "name": "",
          "type": "bytes32"
        }
      ],
      "stateMutability": "view",
      "type": "function"
    },
    {
      "inputs": [
        {
          "internalType": "bytes32",
          "name": "role",
          "type": "bytes32"
        },
        {
          "internalType": "uint256",
          "name": "index",
          "type": "uint256"
        }
      ],
      "name": "getRoleMember",
      "outputs": [
        {
          "internalType": "address",
          "name": "",
          "type": "address"
        }
      ],
      "stateMutability": "view",
      "type": "function"
    },
    {
      "inputs": [
        {
          "internalType": "bytes32",
          "name": "role",
          "type": "bytes32"
        }
      ],
      "name": "getRoleMemberCount",
      "outputs": [
        {
          "internalType": "uint256",
          "name": "",
          "type": "uint256"
        }
      ],
      "stateMutability": "view",
      "type": "function"
    },
    {
      "inputs": [
        {
          "internalType": "bytes32",
          "name": "role",
          "type": "bytes32"
        },
        {
          "internalType": "address",
          "name": "account",
          "type": "address"
        }
      ],
      "name": "grantRole",
      "outputs": [],
      "stateMutability": "nonpayable",
      "type": "function"
    },
    {
      "inputs": [
        {
          "internalType": "bytes32",
          "name": "role",
          "type": "bytes32"
        },
        {
          "internalType": "address",
          "name": "account",
          "type": "address"
        }
      ],
      "name": "hasRole",
      "outputs": [
        {
          "internalType": "bool",
          "name": "",
          "type": "bool"
        }
      ],
      "stateMutability": "view",
      "type": "function"
    },
    {
      "inputs": [
        {
          "internalType": "address",
          "name": "",
          "type": "address"
        }
      ],
      "name": "playerList",
      "outputs": [
        {
          "internalType": "address",
          "name": "playerAddress",
          "type": "address"
        },
        {
          "internalType": "uint256",
          "name": "playedGames",
          "type": "uint256"
        }
      ],
      "stateMutability": "view",
      "type": "function"
    },
    {
      "inputs": [
        {
          "internalType": "bytes32",
          "name": "role",
          "type": "bytes32"
        },
        {
          "internalType": "address",
          "name": "account",
          "type": "address"
        }
      ],
      "name": "renounceRole",
      "outputs": [],
      "stateMutability": "nonpayable",
      "type": "function"
    },
    {
      "inputs": [
        {
          "internalType": "bytes32",
          "name": "role",
          "type": "bytes32"
        },
        {
          "internalType": "address",
          "name": "account",
          "type": "address"
        }
      ],
      "name": "revokeRole",
      "outputs": [],
      "stateMutability": "nonpayable",
      "type": "function"
    },
    {
      "inputs": [],
      "name": "initialize",
      "outputs": [],
      "stateMutability": "nonpayable",
      "type": "function"
    },
    {
      "inputs": [
        {
          "internalType": "uint256",
          "name": "_bet",
          "type": "uint256"
        }
      ],
      "name": "addBet",
      "outputs": [],
      "stateMutability": "nonpayable",
      "type": "function"
    },
    {
      "inputs": [
        {
          "internalType": "uint256",
          "name": "_bet",
          "type": "uint256"
        }
      ],
      "name": "addBet2",
      "outputs": [],
      "stateMutability": "nonpayable",
      "type": "function"
    },
    {
      "inputs": [],
      "name": "returnBetWithProfit",
      "outputs": [],
      "stateMutability": "nonpayable",
      "type": "function"
    },
    {
      "inputs": [],
      "name": "showBalance",
      "outputs": [
        {
          "internalType": "uint256",
          "name": "",
          "type": "uint256"
        }
      ],
      "stateMutability": "view",
      "type": "function"
    }
  ],
  "bytecode": "0x608060405234801561001057600080fd5b506111e7806100206000396000f3fe608060405234801561001057600080fd5b506004361061010b5760003560e01c806381b2d07b116100a2578063a994dd9411610071578063a994dd94146105ae578063ca15c873146105b8578063cdaba786146105fa578063d547741f14610628578063f98be1e0146106765761010b565b806381b2d07b146104ac5780639010d07c146104ca57806391d148541461052c578063a217fddf146105905761010b565b806336568abe116100de57806336568abe146102da57806338bbfa50146103285780635e5bad7c146104845780638129fc1c146104a25761010b565b806307d8b05d14610110578063248a9ca31461018557806327dc297e146101c75780632f2ff15d1461028c575b600080fd5b6101526004803603602081101561012657600080fd5b81019080803573ffffffffffffffffffffffffffffffffffffffff1690602001909291905050506106a4565b604051808373ffffffffffffffffffffffffffffffffffffffff1681526020018281526020019250505060405180910390f35b6101b16004803603602081101561019b57600080fd5b81019080803590602001909291905050506106e8565b6040518082815260200191505060405180910390f35b61028a600480360360408110156101dd57600080fd5b81019080803590602001909291908035906020019064010000000081111561020457600080fd5b82018360208201111561021657600080fd5b8035906020019184600183028401116401000000008311171561023857600080fd5b91908080601f016020809104026020016040519081016040528093929190818152602001838380828437600081840152601f19601f820116905080830192505050505050509192919290505050610708565b005b6102d8600480360360408110156102a257600080fd5b8101908080359060200190929190803573ffffffffffffffffffffffffffffffffffffffff169060200190929190505050610762565b005b610326600480360360408110156102f057600080fd5b8101908080359060200190929190803573ffffffffffffffffffffffffffffffffffffffff1690602001909291905050506107ec565b005b6104826004803603606081101561033e57600080fd5b81019080803590602001909291908035906020019064010000000081111561036557600080fd5b82018360208201111561037757600080fd5b8035906020019184600183028401116401000000008311171561039957600080fd5b91908080601f016020809104026020016040519081016040528093929190818152602001838380828437600081840152601f19601f820116905080830192505050505050509192919290803590602001906401000000008111156103fc57600080fd5b82018360208201111561040e57600080fd5b8035906020019184600183028401116401000000008311171561043057600080fd5b91908080601f016020809104026020016040519081016040528093929190818152602001838380828437600081840152601f19601f820116905080830192505050505050509192919290505050610885565b005b61048c6108a8565b6040518082815260200191505060405180910390f35b6104aa6108ae565b005b6104b46109fa565b6040518082815260200191505060405180910390f35b610500600480360360408110156104e057600080fd5b810190808035906020019092919080359060200190929190505050610a04565b604051808273ffffffffffffffffffffffffffffffffffffffff16815260200191505060405180910390f35b6105786004803603604081101561054257600080fd5b8101908080359060200190929190803573ffffffffffffffffffffffffffffffffffffffff169060200190929190505050610a36565b60405180821515815260200191505060405180910390f35b610598610a68565b6040518082815260200191505060405180910390f35b6105b6610a6f565b005b6105e4600480360360208110156105ce57600080fd5b8101908080359060200190929190505050610a86565b6040518082815260200191505060405180910390f35b6106266004803603602081101561061057600080fd5b8101908080359060200190929190505050610aad565b005b6106746004803603604081101561063e57600080fd5b8101908080359060200190929190803573ffffffffffffffffffffffffffffffffffffffff169060200190929190505050610bfd565b005b6106a26004803603602081101561068c57600080fd5b8101908080359060200190929190505050610c87565b005b603d6020528060005260406000206000915090508060000160009054906101000a900473ffffffffffffffffffffffffffffffffffffffff16908060010154905082565b600060386000838152602001908152602001600020600201549050919050565b61075e8282600067ffffffffffffffff8111801561072557600080fd5b506040519080825280601f01601f1916602001820160405280156107585781602001600182028036833780820191505090505b50610885565b5050565b6107896038600084815260200190815260200160002060020154610784610caf565b610a36565b6107de576040517f08c379a000000000000000000000000000000000000000000000000000000000815260040180806020018281038252602f8152602001806110f6602f913960400191505060405180910390fd5b6107e88282610cb7565b5050565b6107f4610caf565b73ffffffffffffffffffffffffffffffffffffffff168173ffffffffffffffffffffffffffffffffffffffff1614610877576040517f08c379a000000000000000000000000000000000000000000000000000000000815260040180806020018281038252602f815260200180611183602f913960400191505060405180910390fd5b6108818282610d4b565b5050565b6000801b600360008060001b815260200190815260200160002081905550505050565b60395481565b600560019054906101000a900460ff16806108cd57506108cc610ddf565b5b806108e55750600560009054906101000a900460ff16155b61093a576040517f08c379a000000000000000000000000000000000000000000000000000000000815260040180806020018281038252602e815260200180611155602e913960400191505060405180910390fd5b6000600560019054906101000a900460ff16159050801561098c576001600560016101000a81548160ff0219169083151502179055506001600560006101000a81548160ff0219169083151502179055505b602860398190555033603c60006101000a81548173ffffffffffffffffffffffffffffffffffffffff021916908373ffffffffffffffffffffffffffffffffffffffff16021790555080156109f7576000600560016101000a81548160ff0219169083151502179055505b50565b6000603954905090565b6000610a2e8260386000868152602001908152602001600020600001610df690919063ffffffff16565b905092915050565b6000610a608260386000868152602001908152602001600020600001610e1090919063ffffffff16565b905092915050565b6000801b81565b6002603a5402603960008282540392505081905550565b6000610aa660386000848152602001908152602001600020600001610e40565b9050919050565b603c60009054906101000a900473ffffffffffffffffffffffffffffffffffffffff1673ffffffffffffffffffffffffffffffffffffffff163373ffffffffffffffffffffffffffffffffffffffff1614610b0757600080fd5b610b1081610e55565b610b1957600080fd5b806039600082825401925050819055506001603b6000828254019250508190555060405180604001604052803373ffffffffffffffffffffffffffffffffffffffff168152602001603b54815250603d60003373ffffffffffffffffffffffffffffffffffffffff1673ffffffffffffffffffffffffffffffffffffffff16815260200190815260200160002060008201518160000160006101000a81548173ffffffffffffffffffffffffffffffffffffffff021916908373ffffffffffffffffffffffffffffffffffffffff1602179055506020820151816001015590505050565b610c246038600084815260200190815260200160002060020154610c1f610caf565b610a36565b610c79576040517f08c379a00000000000000000000000000000000000000000000000000000000081526004018080602001828103825260308152602001806111256030913960400191505060405180910390fd5b610c838282610d4b565b5050565b610c9081610e55565b610c9957600080fd5b6002810260396000828254019250508190555050565b600033905090565b610cdf8160386000858152602001908152602001600020600001610e6490919063ffffffff16565b15610d4757610cec610caf565b73ffffffffffffffffffffffffffffffffffffffff168173ffffffffffffffffffffffffffffffffffffffff16837f2f8788117e7eff1d82e926ec794901d17c78024a50270940304540a733656f0d60405160405180910390a45b5050565b610d738160386000858152602001908152602001600020600001610e9490919063ffffffff16565b15610ddb57610d80610caf565b73ffffffffffffffffffffffffffffffffffffffff168173ffffffffffffffffffffffffffffffffffffffff16837ff6391f5c32d9c69d2a47ea670b442974b53935d1edc7fd64eb21e047a839171b60405160405180910390a45b5050565b6000803090506000813b9050600081149250505090565b6000610e058360000183610ec4565b60001c905092915050565b6000610e38836000018373ffffffffffffffffffffffffffffffffffffffff1660001b610f47565b905092915050565b6000610e4e82600001610f6a565b9050919050565b60008160395410159050919050565b6000610e8c836000018373ffffffffffffffffffffffffffffffffffffffff1660001b610f7b565b905092915050565b6000610ebc836000018373ffffffffffffffffffffffffffffffffffffffff1660001b610feb565b905092915050565b600081836000018054905011610f25576040517f08c379a00000000000000000000000000000000000000000000000000000000081526004018080602001828103825260228152602001806110d46022913960400191505060405180910390fd5b826000018281548110610f3457fe5b9060005260206000200154905092915050565b600080836001016000848152602001908152602001600020541415905092915050565b600081600001805490509050919050565b6000610f878383610f47565b610fe0578260000182908060018154018082558091505060019003906000526020600020016000909190919091505582600001805490508360010160008481526020019081526020016000208190555060019050610fe5565b600090505b92915050565b600080836001016000848152602001908152602001600020549050600081146110c7576000600182039050600060018660000180549050039050600086600001828154811061103657fe5b906000526020600020015490508087600001848154811061105357fe5b906000526020600020018190555060018301876001016000838152602001908152602001600020819055508660000180548061108b57fe5b600190038181906000526020600020016000905590558660010160008781526020019081526020016000206000905560019450505050506110cd565b60009150505b9291505056fe456e756d657261626c655365743a20696e646578206f7574206f6620626f756e6473416363657373436f6e74726f6c3a2073656e646572206d75737420626520616e2061646d696e20746f206772616e74416363657373436f6e74726f6c3a2073656e646572206d75737420626520616e2061646d696e20746f207265766f6b65436f6e747261637420696e7374616e63652068617320616c7265616479206265656e20696e697469616c697a6564416363657373436f6e74726f6c3a2063616e206f6e6c792072656e6f756e636520726f6c657320666f722073656c66a26469706673582212206b312eb83e7caa6fc1c08cadd3c3e24274fd091b06be9714766938cf267d292c64736f6c634300060c0033",
  "immutableReferences": {},
  "source": "pragma solidity ^0.6.0;\nimport \"./provableAPI.sol\";\nimport \"@openzeppelin/upgrades-core/contracts/Initializable.sol\";\nimport \"@openzeppelin/contracts/access/AccessControl.sol\";\n\ncontract DealerV4 is usingProvable, Initializable, AccessControl {\n    uint256 public dealerBalance;\n    uint256 bet;\n    uint256 playedGames;\n    address player;\n\n    function initialize() public initializer {\n        dealerBalance = 40;\n        player = msg.sender;\n    }\n\n    event PlayerWins(address player, uint256 profit, uint256 dealerBalance);\n\n    mapping(address => PlayerData) public playerList;\n\n    struct PlayerData {\n        address playerAddress;\n        uint256 playedGames;\n    }\n\n    modifier onlyPlayer() {\n        require(msg.sender == player);\n        _;\n    }\n\n    function addBet(uint256 _bet) public onlyPlayer {\n        require(checkIfBalanceIsEnough(_bet));\n        dealerBalance += _bet;\n        playedGames += 1;\n        playerList[msg.sender] = PlayerData(msg.sender, playedGames);\n    }\n\n    function addBet2(uint256 _bet) public {\n        require(checkIfBalanceIsEnough(_bet));\n        dealerBalance += _bet * 2;\n    }\n\n    function returnBetWithProfit() public {\n        dealerBalance -= bet * 2;\n    }\n\n    function showBalance() public view returns (uint256) {\n        return dealerBalance;\n    }\n\n    function checkIfBalanceIsEnough(uint256 _bet) private view returns (bool) {\n        return dealerBalance >= _bet;\n    }\n}\n\ncontract PolarBetV4 is DealerV4 {\n    uint256 dealerDiceResult;\n    uint256 userDiceResult;\n    bytes32 public queryId;\n\n    // constructor() public {\n    //     provable_setProof(proofType_Ledger);\n    // }\n\n    function initialize2() public payable initializer {\n        provable_setProof(proofType_Ledger);\n    }\n\n    function __callback(\n        bytes32 _queryId,\n        string memory _result,\n        bytes memory _proof\n    ) public override {\n        require(msg.sender == provable_cbAddress());\n        if (\n            provable_randomDS_proofVerify__returnCode(\n                _queryId,\n                _result,\n                _proof\n            ) == 0\n        )\n            userDiceResult =\n                uint8(uint256(keccak256(abi.encodePacked(_result))) % 5) +\n                1;\n        else revert(\"error message\");\n    }\n\n    function getRandom(uint8 nrBytes) public payable {\n        // not supported in remix\n        queryId = provable_newRandomDSQuery(\n            0, // QUERY_EXECUTION_DELAY\n            nrBytes, // NUM_RANDOM_BYTES_REQUESTED\n            200000 // GAS_FOR_CALLBACK\n        );\n    }\n\n    function getRandomNumber() private view returns (uint8) {\n        return\n            uint8(\n                uint256(\n                    keccak256(\n                        abi.encodePacked(\n                            block.timestamp,\n                            block.coinbase,\n                            block.difficulty\n                        )\n                    )\n                ) % 6\n            ) + 1;\n    }\n\n    function rollDice() public payable {\n        dealerDiceResult = getRandomNumber();\n        getRandom(1);\n    }\n\n    function getDiceResultOfDealer() public view returns (uint256) {\n        return dealerDiceResult;\n    }\n\n    function getDiceResultOfUser() public view returns (uint256) {\n        return userDiceResult;\n    }\n\n    function payOut() public {\n        if (dealerDiceResult < userDiceResult) {\n            returnBetWithProfit();\n            emit PlayerWins(player, bet, dealerBalance);\n        }\n        resetBetAndDiceResults();\n    }\n\n    function resetBetAndDiceResults() private {\n        dealerDiceResult = 0;\n        userDiceResult = 0;\n        bet = 0;\n    }\n}\n",
  "sourcePath": "/Users/rowin/Documents/projects/Koios/polarbet/contracts/PolarBetV4.sol",
  "compiler": {
    "name": "solc",
    "version": "0.6.12+commit.27d51765.Emscripten.clang"
  },
  "schemaVersion": "3.3.3",
  "updatedAt": "2021-01-20T12:31:00.046Z",
  "devdoc": {
    "kind": "dev",
    "methods": {
      "__callback(bytes32,string)": {
        "details": "The following `__callback` functions are just placeholders ideally      meant to be defined in child contract when proofs are used.      The function bodies simply silence compiler warnings."
      },
      "getRoleAdmin(bytes32)": {
        "details": "Returns the admin role that controls `role`. See {grantRole} and {revokeRole}. To change a role's admin, use {_setRoleAdmin}."
      },
      "getRoleMember(bytes32,uint256)": {
        "details": "Returns one of the accounts that have `role`. `index` must be a value between 0 and {getRoleMemberCount}, non-inclusive. Role bearers are not sorted in any particular way, and their ordering may change at any point. WARNING: When using {getRoleMember} and {getRoleMemberCount}, make sure you perform all queries on the same block. See the following https://forum.openzeppelin.com/t/iterating-over-elements-on-enumerableset-in-openzeppelin-contracts/2296[forum post] for more information."
      },
      "getRoleMemberCount(bytes32)": {
        "details": "Returns the number of accounts that have `role`. Can be used together with {getRoleMember} to enumerate all bearers of a role."
      },
      "grantRole(bytes32,address)": {
        "details": "Grants `role` to `account`. If `account` had not been already granted `role`, emits a {RoleGranted} event. Requirements: - the caller must have ``role``'s admin role."
      },
      "hasRole(bytes32,address)": {
        "details": "Returns `true` if `account` has been granted `role`."
      },
      "renounceRole(bytes32,address)": {
        "details": "Revokes `role` from the calling account. Roles are often managed via {grantRole} and {revokeRole}: this function's purpose is to provide a mechanism for accounts to lose their privileges if they are compromised (such as when a trusted device is misplaced). If the calling account had been granted `role`, emits a {RoleRevoked} event. Requirements: - the caller must be `account`."
      },
      "revokeRole(bytes32,address)": {
        "details": "Revokes `role` from `account`. If `account` had been granted `role`, emits a {RoleRevoked} event. Requirements: - the caller must have ``role``'s admin role."
      }
    },
    "version": 1
  },
  "userdoc": {
    "kind": "user",
    "methods": {},
    "version": 1
  }
}