{
  "contractName": "DealerV2",
  "abi": [
    {
      "anonymous": false,
      "inputs": [
        {
          "indexed": false,
          "internalType": "address",
          "name": "player",
          "type": "address"
        },
        {
          "indexed": false,
          "internalType": "uint256",
          "name": "profit",
          "type": "uint256"
        },
        {
          "indexed": false,
          "internalType": "uint256",
          "name": "dealerBalance",
          "type": "uint256"
        }
      ],
      "name": "PlayerWins",
      "type": "event"
    },
    {
      "inputs": [
        {
          "internalType": "bytes32",
          "name": "_myid",
          "type": "bytes32"
        },
        {
          "internalType": "string",
          "name": "_result",
          "type": "string"
        }
      ],
      "name": "__callback",
      "outputs": [],
      "stateMutability": "nonpayable",
      "type": "function"
    },
    {
      "inputs": [
        {
          "internalType": "bytes32",
          "name": "_myid",
          "type": "bytes32"
        },
        {
          "internalType": "string",
          "name": "_result",
          "type": "string"
        },
        {
          "internalType": "bytes",
          "name": "_proof",
          "type": "bytes"
        }
      ],
      "name": "__callback",
      "outputs": [],
      "stateMutability": "nonpayable",
      "type": "function"
    },
    {
      "inputs": [],
      "name": "dealerBalance",
      "outputs": [
        {
          "internalType": "uint256",
          "name": "",
          "type": "uint256"
        }
      ],
      "stateMutability": "view",
      "type": "function"
    },
    {
      "inputs": [
        {
          "internalType": "address",
          "name": "",
          "type": "address"
        }
      ],
      "name": "playerList",
      "outputs": [
        {
          "internalType": "address",
          "name": "playerAddress",
          "type": "address"
        },
        {
          "internalType": "uint256",
          "name": "playedGames",
          "type": "uint256"
        }
      ],
      "stateMutability": "view",
      "type": "function"
    },
    {
      "inputs": [],
      "name": "initialize",
      "outputs": [],
      "stateMutability": "nonpayable",
      "type": "function"
    },
    {
      "inputs": [
        {
          "internalType": "uint256",
          "name": "_bet",
          "type": "uint256"
        }
      ],
      "name": "addBet",
      "outputs": [],
      "stateMutability": "nonpayable",
      "type": "function"
    },
    {
      "inputs": [
        {
          "internalType": "uint256",
          "name": "_bet",
          "type": "uint256"
        }
      ],
      "name": "addBet2",
      "outputs": [],
      "stateMutability": "nonpayable",
      "type": "function"
    },
    {
      "inputs": [],
      "name": "returnBetWithProfit",
      "outputs": [],
      "stateMutability": "nonpayable",
      "type": "function"
    },
    {
      "inputs": [],
      "name": "showBalance",
      "outputs": [
        {
          "internalType": "uint256",
          "name": "",
          "type": "uint256"
        }
      ],
      "stateMutability": "view",
      "type": "function"
    }
  ],
  "bytecode": "0x608060405234801561001057600080fd5b5061086a806100206000396000f3fe608060405234801561001057600080fd5b50600436106100935760003560e01c80638129fc1c116100665780638129fc1c1461034c57806381b2d07b14610356578063a994dd9414610374578063cdaba7861461037e578063f98be1e0146103ac57610093565b806307d8b05d1461009857806327dc297e1461010d57806338bbfa50146101d25780635e5bad7c1461032e575b600080fd5b6100da600480360360208110156100ae57600080fd5b81019080803573ffffffffffffffffffffffffffffffffffffffff1690602001909291905050506103da565b604051808373ffffffffffffffffffffffffffffffffffffffff1681526020018281526020019250505060405180910390f35b6101d06004803603604081101561012357600080fd5b81019080803590602001909291908035906020019064010000000081111561014a57600080fd5b82018360208201111561015c57600080fd5b8035906020019184600183028401116401000000008311171561017e57600080fd5b91908080601f016020809104026020016040519081016040528093929190818152602001838380828437600081840152601f19601f82011690508083019250505050505050919291929050505061041e565b005b61032c600480360360608110156101e857600080fd5b81019080803590602001909291908035906020019064010000000081111561020f57600080fd5b82018360208201111561022157600080fd5b8035906020019184600183028401116401000000008311171561024357600080fd5b91908080601f016020809104026020016040519081016040528093929190818152602001838380828437600081840152601f19601f820116905080830192505050505050509192919290803590602001906401000000008111156102a657600080fd5b8201836020820111156102b857600080fd5b803590602001918460018302840111640100000000831117156102da57600080fd5b91908080601f016020809104026020016040519081016040528093929190818152602001838380828437600081840152601f19601f820116905080830192505050505050509192919290505050610478565b005b61033661049b565b6040518082815260200191505060405180910390f35b6103546104a1565b005b61035e6105ed565b6040518082815260200191505060405180910390f35b61037c6105f7565b005b6103aa6004803603602081101561039457600080fd5b810190808035906020019092919050505061060e565b005b6103d8600480360360208110156103c257600080fd5b810190808035906020019092919050505061075e565b005b603c6020528060005260406000206000915090508060000160009054906101000a900473ffffffffffffffffffffffffffffffffffffffff16908060010154905082565b6104748282600067ffffffffffffffff8111801561043b57600080fd5b506040519080825280601f01601f19166020018201604052801561046e5781602001600182028036833780820191505090505b50610478565b5050565b6000801b600360008060001b815260200190815260200160002081905550505050565b60385481565b600560019054906101000a900460ff16806104c057506104bf6107e0565b5b806104d85750600560009054906101000a900460ff16155b61052d576040517f08c379a000000000000000000000000000000000000000000000000000000000815260040180806020018281038252602e815260200180610807602e913960400191505060405180910390fd5b6000600560019054906101000a900460ff16159050801561057f576001600560016101000a81548160ff0219169083151502179055506001600560006101000a81548160ff0219169083151502179055505b600a60388190555033603b60006101000a81548173ffffffffffffffffffffffffffffffffffffffff021916908373ffffffffffffffffffffffffffffffffffffffff16021790555080156105ea576000600560016101000a81548160ff0219169083151502179055505b50565b6000603854905090565b600260395402603860008282540392505081905550565b603b60009054906101000a900473ffffffffffffffffffffffffffffffffffffffff1673ffffffffffffffffffffffffffffffffffffffff163373ffffffffffffffffffffffffffffffffffffffff161461066857600080fd5b610671816107f7565b61067a57600080fd5b806038600082825401925050819055506001603a6000828254019250508190555060405180604001604052803373ffffffffffffffffffffffffffffffffffffffff168152602001603a54815250603c60003373ffffffffffffffffffffffffffffffffffffffff1673ffffffffffffffffffffffffffffffffffffffff16815260200190815260200160002060008201518160000160006101000a81548173ffffffffffffffffffffffffffffffffffffffff021916908373ffffffffffffffffffffffffffffffffffffffff1602179055506020820151816001015590505050565b603b60009054906101000a900473ffffffffffffffffffffffffffffffffffffffff1673ffffffffffffffffffffffffffffffffffffffff163373ffffffffffffffffffffffffffffffffffffffff16146107b857600080fd5b6107c1816107f7565b6107ca57600080fd5b6002810260386000828254019250508190555050565b6000803090506000813b9050600081149250505090565b6000816038541015905091905056fe436f6e747261637420696e7374616e63652068617320616c7265616479206265656e20696e697469616c697a6564a264697066735822122038a9353d062a63ab4ba072147b23a926e45208a5e5a0f1313d28360bf1b0672f64736f6c634300060c0033",
  "immutableReferences": {},
  "source": "pragma solidity ^0.6.0;\nimport \"./provableAPI.sol\";\nimport \"@openzeppelin/upgrades-core/contracts/Initializable.sol\";\n\n\ncontract DealerV2 is usingProvable, Initializable  {\n    uint public dealerBalance;\n    uint bet;\n    uint playedGames;\n    address player;\n    \n    function initialize() public initializer {\n        dealerBalance = 10;\n        player = msg.sender;\n    }   \n    \n    event PlayerWins(\n        address player,\n        uint profit,\n        uint dealerBalance\n        );\n    \n    mapping(address => PlayerData) public playerList;\n    \n    struct PlayerData {\n        address playerAddress;\n        uint playedGames;\n    }\n    \n    modifier onlyPlayer() {\n        require(msg.sender == player);\n        _;\n    }\n    \n    function addBet(uint _bet) public onlyPlayer {\n        require(checkIfBalanceIsEnough(_bet));\n            dealerBalance += _bet;\n            playedGames += 1;\n            playerList[msg.sender] = PlayerData(msg.sender, playedGames);\n    }\n\n    function addBet2(uint _bet) public onlyPlayer {\n        require(checkIfBalanceIsEnough(_bet));\n            dealerBalance += _bet * 2;\n    }\n    \n    \n    function returnBetWithProfit() public {\n        dealerBalance -= bet * 2; \n    }\n    \n    function showBalance() public view returns (uint) {\n        return dealerBalance; \n    }\n    \n    function checkIfBalanceIsEnough(uint _bet) private view returns (bool) {\n        return dealerBalance >= _bet; \n    }\n}\n\ncontract PolarBetV2 is DealerV2 {\n    uint dealerDiceResult;\n    uint userDiceResult;\n    bytes32 public queryId;\n    \n    \n    // constructor() public { \n    //     provable_setProof(proofType_Ledger); \n    // }\n\n    function initialize2() public initializer {\n        provable_setProof(proofType_Ledger); \n    }   \n    \n    \n    function __callback(bytes32  _queryId,string memory _result,bytes memory _proof ) override public {\n        require(msg.sender == provable_cbAddress());\n        if (provable_randomDS_proofVerify__returnCode(_queryId,_result,_proof)== 0)\n            userDiceResult = uint8(uint256(keccak256(abi.encodePacked(_result)))% 5) + 1;\n        else\n            revert(\"error message\");\n}\n    \n    function getRandom(uint8 nrBytes) public payable { // not supported in remix\n        queryId=provable_newRandomDSQuery(\n            0,          // QUERY_EXECUTION_DELAY\n            nrBytes,    // NUM_RANDOM_BYTES_REQUESTED\n            200000      // GAS_FOR_CALLBACK\n        );\n    }\n    \n    function getRandomNumber() private view returns (uint8) {\n        return uint8(uint256(keccak256(abi.encodePacked(block.timestamp, block.coinbase, block.difficulty)))%6) + 1;\n    }\n    \n    function rollDice() public payable {\n        dealerDiceResult = getRandomNumber();\n        getRandom(1);\n    }\n\n    function getDiceResultOfDealer() public view returns (uint) {\n        return dealerDiceResult;\n    }\n    \n    function getDiceResultOfUser() public view returns (uint) {\n        return userDiceResult;\n    }\n    \n    function payOut() public  {\n        if (dealerDiceResult < userDiceResult) {\n            returnBetWithProfit();\n            emit PlayerWins(player, bet, dealerBalance);\n        }  \n        resetBetAndDiceResults();\n    }\n    \n    function resetBetAndDiceResults() private {\n        dealerDiceResult = 0;\n        userDiceResult = 0;\n        bet = 0; \n    }\n}",
  "sourcePath": "/Users/rowin/Documents/projects/Koios/polarbet/contracts/PolarBetV2.sol",
  "compiler": {
    "name": "solc",
    "version": "0.6.12+commit.27d51765.Emscripten.clang"
  },
  "schemaVersion": "3.3.3",
  "updatedAt": "2021-01-21T11:45:41.076Z",
  "devdoc": {
    "kind": "dev",
    "methods": {
      "__callback(bytes32,string)": {
        "details": "The following `__callback` functions are just placeholders ideally      meant to be defined in child contract when proofs are used.      The function bodies simply silence compiler warnings."
      }
    },
    "version": 1
  },
  "userdoc": {
    "kind": "user",
    "methods": {},
    "version": 1
  }
}