{
  "contractName": "DealerV5",
  "abi": [
    {
      "anonymous": false,
      "inputs": [
        {
          "indexed": false,
          "internalType": "address",
          "name": "player",
          "type": "address"
        },
        {
          "indexed": false,
          "internalType": "uint256",
          "name": "profit",
          "type": "uint256"
        },
        {
          "indexed": false,
          "internalType": "uint256",
          "name": "dealerBalance",
          "type": "uint256"
        }
      ],
      "name": "PlayerWins",
      "type": "event"
    },
    {
      "stateMutability": "payable",
      "type": "fallback"
    },
    {
      "inputs": [
        {
          "internalType": "bytes32",
          "name": "_myid",
          "type": "bytes32"
        },
        {
          "internalType": "string",
          "name": "_result",
          "type": "string"
        }
      ],
      "name": "__callback",
      "outputs": [],
      "stateMutability": "nonpayable",
      "type": "function"
    },
    {
      "inputs": [
        {
          "internalType": "bytes32",
          "name": "_myid",
          "type": "bytes32"
        },
        {
          "internalType": "string",
          "name": "_result",
          "type": "string"
        },
        {
          "internalType": "bytes",
          "name": "_proof",
          "type": "bytes"
        }
      ],
      "name": "__callback",
      "outputs": [],
      "stateMutability": "nonpayable",
      "type": "function"
    },
    {
      "inputs": [],
      "name": "dealerBalance",
      "outputs": [
        {
          "internalType": "uint256",
          "name": "",
          "type": "uint256"
        }
      ],
      "stateMutability": "view",
      "type": "function"
    },
    {
      "inputs": [
        {
          "internalType": "address",
          "name": "",
          "type": "address"
        }
      ],
      "name": "playerList",
      "outputs": [
        {
          "internalType": "address",
          "name": "playerAddress",
          "type": "address"
        },
        {
          "internalType": "uint256",
          "name": "playedGames",
          "type": "uint256"
        }
      ],
      "stateMutability": "view",
      "type": "function"
    },
    {
      "stateMutability": "payable",
      "type": "receive"
    },
    {
      "inputs": [],
      "name": "initialize",
      "outputs": [],
      "stateMutability": "nonpayable",
      "type": "function"
    },
    {
      "inputs": [
        {
          "internalType": "uint256",
          "name": "_bet",
          "type": "uint256"
        }
      ],
      "name": "addBet",
      "outputs": [],
      "stateMutability": "nonpayable",
      "type": "function"
    },
    {
      "inputs": [
        {
          "internalType": "uint256",
          "name": "_bet",
          "type": "uint256"
        }
      ],
      "name": "addBet2",
      "outputs": [],
      "stateMutability": "nonpayable",
      "type": "function"
    },
    {
      "inputs": [],
      "name": "returnBetWithProfit",
      "outputs": [],
      "stateMutability": "nonpayable",
      "type": "function"
    },
    {
      "inputs": [],
      "name": "showBalance",
      "outputs": [
        {
          "internalType": "uint256",
          "name": "",
          "type": "uint256"
        }
      ],
      "stateMutability": "view",
      "type": "function"
    }
  ],
  "bytecode": "0x608060405234801561001057600080fd5b506108da806100206000396000f3fe60806040526004361061008a5760003560e01c80638129fc1c116100595780638129fc1c1461037b57806381b2d07b14610392578063a994dd94146103bd578063cdaba786146103d4578063f98be1e01461040f57610091565b806307d8b05d1461009357806327dc297e1461011557806338bbfa50146101e75780635e5bad7c1461035057610091565b3661009157005b005b34801561009f57600080fd5b506100e2600480360360208110156100b657600080fd5b81019080803573ffffffffffffffffffffffffffffffffffffffff16906020019092919050505061044a565b604051808373ffffffffffffffffffffffffffffffffffffffff1681526020018281526020019250505060405180910390f35b34801561012157600080fd5b506101e56004803603604081101561013857600080fd5b81019080803590602001909291908035906020019064010000000081111561015f57600080fd5b82018360208201111561017157600080fd5b8035906020019184600183028401116401000000008311171561019357600080fd5b91908080601f016020809104026020016040519081016040528093929190818152602001838380828437600081840152601f19601f82011690508083019250505050505050919291929050505061048e565b005b3480156101f357600080fd5b5061034e6004803603606081101561020a57600080fd5b81019080803590602001909291908035906020019064010000000081111561023157600080fd5b82018360208201111561024357600080fd5b8035906020019184600183028401116401000000008311171561026557600080fd5b91908080601f016020809104026020016040519081016040528093929190818152602001838380828437600081840152601f19601f820116905080830192505050505050509192919290803590602001906401000000008111156102c857600080fd5b8201836020820111156102da57600080fd5b803590602001918460018302840111640100000000831117156102fc57600080fd5b91908080601f016020809104026020016040519081016040528093929190818152602001838380828437600081840152601f19601f8201169050808301925050505050505091929192905050506104e8565b005b34801561035c57600080fd5b5061036561050b565b6040518082815260200191505060405180910390f35b34801561038757600080fd5b50610390610511565b005b34801561039e57600080fd5b506103a761065d565b6040518082815260200191505060405180910390f35b3480156103c957600080fd5b506103d2610667565b005b3480156103e057600080fd5b5061040d600480360360208110156103f757600080fd5b810190808035906020019092919050505061067e565b005b34801561041b57600080fd5b506104486004803603602081101561043257600080fd5b81019080803590602001909291905050506107ce565b005b603c6020528060005260406000206000915090508060000160009054906101000a900473ffffffffffffffffffffffffffffffffffffffff16908060010154905082565b6104e48282600067ffffffffffffffff811180156104ab57600080fd5b506040519080825280601f01601f1916602001820160405280156104de5781602001600182028036833780820191505090505b506104e8565b5050565b6000801b600360008060001b815260200190815260200160002081905550505050565b60385481565b600560019054906101000a900460ff1680610530575061052f610850565b5b806105485750600560009054906101000a900460ff16155b61059d576040517f08c379a000000000000000000000000000000000000000000000000000000000815260040180806020018281038252602e815260200180610877602e913960400191505060405180910390fd5b6000600560019054906101000a900460ff1615905080156105ef576001600560016101000a81548160ff0219169083151502179055506001600560006101000a81548160ff0219169083151502179055505b600a60388190555033603b60006101000a81548173ffffffffffffffffffffffffffffffffffffffff021916908373ffffffffffffffffffffffffffffffffffffffff160217905550801561065a576000600560016101000a81548160ff0219169083151502179055505b50565b6000603854905090565b600260395402603860008282540392505081905550565b603b60009054906101000a900473ffffffffffffffffffffffffffffffffffffffff1673ffffffffffffffffffffffffffffffffffffffff163373ffffffffffffffffffffffffffffffffffffffff16146106d857600080fd5b6106e181610867565b6106ea57600080fd5b806038600082825401925050819055506001603a6000828254019250508190555060405180604001604052803373ffffffffffffffffffffffffffffffffffffffff168152602001603a54815250603c60003373ffffffffffffffffffffffffffffffffffffffff1673ffffffffffffffffffffffffffffffffffffffff16815260200190815260200160002060008201518160000160006101000a81548173ffffffffffffffffffffffffffffffffffffffff021916908373ffffffffffffffffffffffffffffffffffffffff1602179055506020820151816001015590505050565b603b60009054906101000a900473ffffffffffffffffffffffffffffffffffffffff1673ffffffffffffffffffffffffffffffffffffffff163373ffffffffffffffffffffffffffffffffffffffff161461082857600080fd5b61083181610867565b61083a57600080fd5b6002810260386000828254019250508190555050565b6000803090506000813b9050600081149250505090565b6000816038541015905091905056fe436f6e747261637420696e7374616e63652068617320616c7265616479206265656e20696e697469616c697a6564a2646970667358221220ee5ddeba82b3d9f1c335c92d660d8989343993c5b95b017fbf196615db1d3dd864736f6c634300060c0033",
  "immutableReferences": {},
  "source": "pragma solidity ^0.6.0;\n\n/// @title PolarBet\n/// @author R. van Amsterdam\n/// @notice This contract is for testing purposes only\n\nimport \"./provableAPI.sol\";\nimport \"@openzeppelin/upgrades-core/contracts/Initializable.sol\";\n\ncontract DealerV5 is usingProvable, Initializable {\n    uint256 public dealerBalance;\n    uint256 bet;\n    uint256 playedGames;\n    address player;\n\n    function initialize() public initializer {\n        dealerBalance = 10;\n        player = msg.sender;\n    }\n\n    fallback() external payable {}\n\n    receive() external payable {}\n\n    event PlayerWins(address player, uint256 profit, uint256 dealerBalance);\n\n    mapping(address => PlayerData) public playerList;\n\n    struct PlayerData {\n        address playerAddress;\n        uint256 playedGames;\n    }\n\n    modifier onlyPlayer() {\n        require(msg.sender == player);\n        _;\n    }\n\n    function addBet(uint256 _bet) public onlyPlayer {\n        require(checkIfBalanceIsEnough(_bet));\n        dealerBalance += _bet;\n        playedGames += 1;\n        playerList[msg.sender] = PlayerData(msg.sender, playedGames);\n    }\n\n    function addBet2(uint256 _bet) public onlyPlayer {\n        require(checkIfBalanceIsEnough(_bet));\n        dealerBalance += _bet * 2;\n    }\n\n    function returnBetWithProfit() public {\n        dealerBalance -= bet * 2;\n    }\n\n    function showBalance() public view returns (uint256) {\n        return dealerBalance;\n    }\n\n    function checkIfBalanceIsEnough(uint256 _bet) private view returns (bool) {\n        return dealerBalance >= _bet;\n    }\n}\n\ncontract PolarBetV5 is DealerV5 {\n    uint256 public dealerDiceResult;\n    uint256 public userDiceResult;\n    bytes32 public queryId;\n    bytes public getRandomResult;\n\n    // constructor() public {\n    //     provable_setProof(proofType_Ledger);\n    // }\n\n    function initialize2() public initializer {\n        provable_setProof(proofType_Ledger);\n    }\n\n    /// @notice Returns random result from oracle.\n    /// @dev Set random bytes as variable from Provable oracle.\n    function __callback(bytes32  _queryId,string memory _result,bytes memory _proof ) override public {\n        require(msg.sender == provable_cbAddress());\n        if (provable_randomDS_proofVerify__returnCode(_queryId,_result,_proof)== 0)\n            getRandomResult = bytes(_result);\n        else\n            getRandomResult=\"Error\";\n    }\n    \n    function GetRandom(uint8 nrbytes) public payable { // not supported in remix\n        queryId=provable_newRandomDSQuery(\n            0,          // QUERY_EXECUTION_DELAY\n            nrbytes,    // NUM_RANDOM_BYTES_REQUESTED\n            200000      // GAS_FOR_CALLBACK\n        );\n    }\n\n    function getRandomNumber() private view returns (uint8) {\n        return\n            uint8(\n                uint256(\n                    keccak256(\n                        abi.encodePacked(\n                            block.timestamp,\n                            block.coinbase,\n                            block.difficulty\n                        )\n                    )\n                ) % 6\n            ) + 1;\n    }\n\n    function rollDice() public payable {\n        dealerDiceResult = getRandomNumber();\n        GetRandom(1);\n    }\n\n    function getDiceResultOfDealer() public view returns (uint256) {\n        return dealerDiceResult;\n    }\n\n    function getDiceResultOfUser() public payable {\n        userDiceResult =\n            uint8(uint256(keccak256(abi.encodePacked(getRandomResult))) % 5) +\n            1;\n    }\n\n    function payOut() public {\n        if (dealerDiceResult < userDiceResult) {\n            returnBetWithProfit();\n            emit PlayerWins(player, bet, dealerBalance);\n        }\n        resetBetAndDiceResults();\n    }\n\n    function resetBetAndDiceResults() private {\n        dealerDiceResult = 0;\n        userDiceResult = 0;\n        getRandomResult = \"\";\n        bet = 0;\n        queryId = \"\";\n    }\n}\n\n",
  "sourcePath": "/Users/rowin/Documents/projects/Koios/polarbet/contracts/PolarBetV5.sol",
  "compiler": {
    "name": "solc",
    "version": "0.6.12+commit.27d51765.Emscripten.clang"
  },
  "schemaVersion": "3.3.3",
  "updatedAt": "2021-01-29T21:20:01.160Z",
  "devdoc": {
    "kind": "dev",
    "methods": {
      "__callback(bytes32,string)": {
        "details": "The following `__callback` functions are just placeholders ideally      meant to be defined in child contract when proofs are used.      The function bodies simply silence compiler warnings."
      }
    },
    "version": 1
  },
  "userdoc": {
    "kind": "user",
    "methods": {},
    "version": 1
  }
}