{
  "contractName": "Dealer",
  "abi": [
    {
      "anonymous": false,
      "inputs": [
        {
          "indexed": false,
          "internalType": "address",
          "name": "player",
          "type": "address"
        },
        {
          "indexed": false,
          "internalType": "uint256",
          "name": "profit",
          "type": "uint256"
        },
        {
          "indexed": false,
          "internalType": "uint256",
          "name": "dealerBalance",
          "type": "uint256"
        }
      ],
      "name": "PlayerWins",
      "type": "event"
    },
    {
      "inputs": [
        {
          "internalType": "bytes32",
          "name": "_myid",
          "type": "bytes32"
        },
        {
          "internalType": "string",
          "name": "_result",
          "type": "string"
        }
      ],
      "name": "__callback",
      "outputs": [],
      "stateMutability": "nonpayable",
      "type": "function"
    },
    {
      "inputs": [
        {
          "internalType": "bytes32",
          "name": "_myid",
          "type": "bytes32"
        },
        {
          "internalType": "string",
          "name": "_result",
          "type": "string"
        },
        {
          "internalType": "bytes",
          "name": "_proof",
          "type": "bytes"
        }
      ],
      "name": "__callback",
      "outputs": [],
      "stateMutability": "nonpayable",
      "type": "function"
    },
    {
      "inputs": [],
      "name": "dealerBalance",
      "outputs": [
        {
          "internalType": "uint256",
          "name": "",
          "type": "uint256"
        }
      ],
      "stateMutability": "view",
      "type": "function"
    },
    {
      "inputs": [
        {
          "internalType": "address",
          "name": "",
          "type": "address"
        }
      ],
      "name": "playerList",
      "outputs": [
        {
          "internalType": "address",
          "name": "playerAddress",
          "type": "address"
        },
        {
          "internalType": "uint256",
          "name": "playedGames",
          "type": "uint256"
        }
      ],
      "stateMutability": "view",
      "type": "function"
    },
    {
      "inputs": [],
      "name": "initialize",
      "outputs": [],
      "stateMutability": "nonpayable",
      "type": "function"
    },
    {
      "inputs": [
        {
          "internalType": "uint256",
          "name": "_bet",
          "type": "uint256"
        }
      ],
      "name": "addBet",
      "outputs": [],
      "stateMutability": "nonpayable",
      "type": "function"
    },
    {
      "inputs": [],
      "name": "returnBetWithProfit",
      "outputs": [],
      "stateMutability": "nonpayable",
      "type": "function"
    },
    {
      "inputs": [],
      "name": "showBalance",
      "outputs": [
        {
          "internalType": "uint256",
          "name": "",
          "type": "uint256"
        }
      ],
      "stateMutability": "view",
      "type": "function"
    }
  ],
  "bytecode": "0x608060405234801561001057600080fd5b506107b8806100206000396000f3fe608060405234801561001057600080fd5b50600436106100885760003560e01c80638129fc1c1161005b5780638129fc1c1461034157806381b2d07b1461034b578063a994dd9414610369578063cdaba7861461037357610088565b806307d8b05d1461008d57806327dc297e1461010257806338bbfa50146101c75780635e5bad7c14610323575b600080fd5b6100cf600480360360208110156100a357600080fd5b81019080803573ffffffffffffffffffffffffffffffffffffffff1690602001909291905050506103a1565b604051808373ffffffffffffffffffffffffffffffffffffffff1681526020018281526020019250505060405180910390f35b6101c56004803603604081101561011857600080fd5b81019080803590602001909291908035906020019064010000000081111561013f57600080fd5b82018360208201111561015157600080fd5b8035906020019184600183028401116401000000008311171561017357600080fd5b91908080601f016020809104026020016040519081016040528093929190818152602001838380828437600081840152601f19601f8201169050808301925050505050505091929192905050506103e5565b005b610321600480360360608110156101dd57600080fd5b81019080803590602001909291908035906020019064010000000081111561020457600080fd5b82018360208201111561021657600080fd5b8035906020019184600183028401116401000000008311171561023857600080fd5b91908080601f016020809104026020016040519081016040528093929190818152602001838380828437600081840152601f19601f8201169050808301925050505050505091929192908035906020019064010000000081111561029b57600080fd5b8201836020820111156102ad57600080fd5b803590602001918460018302840111640100000000831117156102cf57600080fd5b91908080601f016020809104026020016040519081016040528093929190818152602001838380828437600081840152601f19601f82011690508083019250505050505050919291929050505061043f565b005b61032b610462565b6040518082815260200191505060405180910390f35b610349610468565b005b6103536105b4565b6040518082815260200191505060405180910390f35b6103716105be565b005b61039f6004803603602081101561038957600080fd5b81019080803590602001909291905050506105d5565b005b603c6020528060005260406000206000915090508060000160009054906101000a900473ffffffffffffffffffffffffffffffffffffffff16908060010154905082565b61043b8282600067ffffffffffffffff8111801561040257600080fd5b506040519080825280601f01601f1916602001820160405280156104355781602001600182028036833780820191505090505b5061043f565b5050565b6000801b600360008060001b815260200190815260200160002081905550505050565b60385481565b600560019054906101000a900460ff1680610487575061048661072e565b5b8061049f5750600560009054906101000a900460ff16155b6104f4576040517f08c379a000000000000000000000000000000000000000000000000000000000815260040180806020018281038252602e815260200180610755602e913960400191505060405180910390fd5b6000600560019054906101000a900460ff161590508015610546576001600560016101000a81548160ff0219169083151502179055506001600560006101000a81548160ff0219169083151502179055505b600a60388190555033603b60006101000a81548173ffffffffffffffffffffffffffffffffffffffff021916908373ffffffffffffffffffffffffffffffffffffffff16021790555080156105b1576000600560016101000a81548160ff0219169083151502179055505b50565b6000603854905090565b600260395402603860008282540392505081905550565b603b60009054906101000a900473ffffffffffffffffffffffffffffffffffffffff1673ffffffffffffffffffffffffffffffffffffffff163373ffffffffffffffffffffffffffffffffffffffff161461062f57600080fd5b61063881610745565b61064157600080fd5b806039819055506039546038600082825401925050819055506001603a6000828254019250508190555060405180604001604052803373ffffffffffffffffffffffffffffffffffffffff168152602001603a54815250603c60003373ffffffffffffffffffffffffffffffffffffffff1673ffffffffffffffffffffffffffffffffffffffff16815260200190815260200160002060008201518160000160006101000a81548173ffffffffffffffffffffffffffffffffffffffff021916908373ffffffffffffffffffffffffffffffffffffffff1602179055506020820151816001015590505050565b6000803090506000813b9050600081149250505090565b6000816038541015905091905056fe436f6e747261637420696e7374616e63652068617320616c7265616479206265656e20696e697469616c697a6564a2646970667358221220a261735296757f3d04d79c69c05f73ebbf43cbf39d820baf91ed369150eba5ea64736f6c634300060c0033",
  "immutableReferences": {},
  "source": "pragma solidity ^0.6.0;\nimport \"./provableAPI.sol\";\nimport \"@openzeppelin/upgrades-core/contracts/Initializable.sol\";\n\n\ncontract Dealer is usingProvable, Initializable  {\n    uint public dealerBalance;\n    uint bet;\n    uint playedGames;\n    address player;\n    \n    // constructor() public {\n    //     dealerBalance = 10;\n    //      player = msg.sender;\n    // }\n\n    function initialize() public initializer {\n        dealerBalance = 10;\n        player = msg.sender;\n    }   \n    \n    event PlayerWins(\n        address player,\n        uint profit,\n        uint dealerBalance\n        );\n    \n    mapping(address => PlayerData) public playerList;\n    \n    struct PlayerData {\n        address playerAddress;\n        uint playedGames;\n    }\n    \n    modifier onlyPlayer() {\n        require(msg.sender == player);\n        _;\n    }\n    \n    function addBet(uint _bet) public onlyPlayer {\n        require(checkIfBalanceIsEnough(_bet));\n            bet = _bet;\n            dealerBalance += bet;\n            playedGames += 1;\n            playerList[msg.sender] = PlayerData(msg.sender, playedGames);\n    }\n    \n    \n    function returnBetWithProfit() public {\n        dealerBalance -= bet * 2; \n    }\n    \n    function showBalance() public view returns (uint) {\n        return dealerBalance; \n    }\n    \n    function checkIfBalanceIsEnough(uint _bet) private view returns (bool) {\n        return dealerBalance >= _bet; \n    }\n}\n\ncontract PolarBet is Dealer {\n    uint dealerDiceResult;\n    uint userDiceResult;\n    bytes32 public queryId;\n    \n    \n    // constructor() public { \n    //     provable_setProof(proofType_Ledger); \n    // }\n\n    function initialize2() public initializer {\n        provable_setProof(proofType_Ledger); \n    }   \n    \n    \n    function __callback(bytes32  _queryId,string memory _result,bytes memory _proof ) override public {\n        require(msg.sender == provable_cbAddress());\n        if (provable_randomDS_proofVerify__returnCode(_queryId,_result,_proof)== 0)\n            userDiceResult = uint8(uint256(keccak256(abi.encodePacked(_result)))% 5) + 1;\n        else\n            revert(\"error message\");\n}\n    \n    function getRandom(uint8 nrBytes) public payable { // not supported in remix\n        queryId=provable_newRandomDSQuery(\n            0,          // QUERY_EXECUTION_DELAY\n            nrBytes,    // NUM_RANDOM_BYTES_REQUESTED\n            200000      // GAS_FOR_CALLBACK\n        );\n    }\n    \n    function getRandomNumber() private view returns (uint8) {\n        return uint8(uint256(keccak256(abi.encodePacked(block.timestamp, block.coinbase, block.difficulty)))%6) + 1;\n    }\n    \n    function rollDice() public payable {\n        dealerDiceResult = getRandomNumber();\n        getRandom(1);\n    }\n\n    function getDiceResultOfDealer() public view returns (uint) {\n        return dealerDiceResult;\n    }\n    \n    function getDiceResultOfUser() public view returns (uint) {\n        return userDiceResult;\n    }\n    \n    function payOut() public  {\n        if (dealerDiceResult < userDiceResult) {\n            returnBetWithProfit();\n            emit PlayerWins(player, bet, dealerBalance);\n        }  \n        resetBetAndDiceResults();\n    }\n    \n    function resetBetAndDiceResults() private {\n        dealerDiceResult = 0;\n        userDiceResult = 0;\n        bet = 0; \n    }\n}",
  "sourcePath": "/Users/rowin/Documents/projects/Koios/polarbet/contracts/PolarBet.sol",
  "compiler": {
    "name": "solc",
    "version": "0.6.12+commit.27d51765.Emscripten.clang"
  },
  "schemaVersion": "3.3.2",
  "updatedAt": "2021-01-04T12:23:19.299Z",
  "devdoc": {
    "kind": "dev",
    "methods": {
      "__callback(bytes32,string)": {
        "details": "The following `__callback` functions are just placeholders ideally      meant to be defined in child contract when proofs are used.      The function bodies simply silence compiler warnings."
      }
    },
    "version": 1
  },
  "userdoc": {
    "kind": "user",
    "methods": {},
    "version": 1
  }
}