{
  "contractName": "PolarBetV4",
  "abi": [
    {
      "anonymous": false,
      "inputs": [
        {
          "indexed": false,
          "internalType": "address",
          "name": "player",
          "type": "address"
        },
        {
          "indexed": false,
          "internalType": "uint256",
          "name": "profit",
          "type": "uint256"
        },
        {
          "indexed": false,
          "internalType": "uint256",
          "name": "dealerBalance",
          "type": "uint256"
        }
      ],
      "name": "PlayerWins",
      "type": "event"
    },
    {
      "stateMutability": "payable",
      "type": "fallback",
      "payable": true
    },
    {
      "inputs": [
        {
          "internalType": "uint256",
          "name": "_bet",
          "type": "uint256"
        }
      ],
      "name": "addBet",
      "outputs": [],
      "stateMutability": "nonpayable",
      "type": "function"
    },
    {
      "inputs": [
        {
          "internalType": "uint256",
          "name": "_bet",
          "type": "uint256"
        }
      ],
      "name": "addBet2",
      "outputs": [],
      "stateMutability": "nonpayable",
      "type": "function"
    },
    {
      "inputs": [],
      "name": "dealerBalance",
      "outputs": [
        {
          "internalType": "uint256",
          "name": "",
          "type": "uint256"
        }
      ],
      "stateMutability": "view",
      "type": "function",
      "constant": true
    },
    {
      "inputs": [],
      "name": "initialize",
      "outputs": [],
      "stateMutability": "nonpayable",
      "type": "function"
    },
    {
      "inputs": [
        {
          "internalType": "address",
          "name": "",
          "type": "address"
        }
      ],
      "name": "playerList",
      "outputs": [
        {
          "internalType": "address",
          "name": "playerAddress",
          "type": "address"
        },
        {
          "internalType": "uint256",
          "name": "playedGames",
          "type": "uint256"
        }
      ],
      "stateMutability": "view",
      "type": "function",
      "constant": true
    },
    {
      "inputs": [],
      "name": "queryId",
      "outputs": [
        {
          "internalType": "bytes32",
          "name": "",
          "type": "bytes32"
        }
      ],
      "stateMutability": "view",
      "type": "function",
      "constant": true
    },
    {
      "inputs": [],
      "name": "returnBetWithProfit",
      "outputs": [],
      "stateMutability": "nonpayable",
      "type": "function"
    },
    {
      "inputs": [],
      "name": "showBalance",
      "outputs": [
        {
          "internalType": "uint256",
          "name": "",
          "type": "uint256"
        }
      ],
      "stateMutability": "view",
      "type": "function",
      "constant": true
    },
    {
      "stateMutability": "payable",
      "type": "receive",
      "payable": true
    },
    {
      "inputs": [],
      "name": "initialize2",
      "outputs": [],
      "stateMutability": "nonpayable",
      "type": "function"
    },
    {
      "inputs": [
        {
          "internalType": "bytes32",
          "name": "_myid",
          "type": "bytes32"
        },
        {
          "internalType": "string",
          "name": "_result",
          "type": "string"
        }
      ],
      "name": "__callback",
      "outputs": [],
      "stateMutability": "nonpayable",
      "type": "function"
    },
    {
      "inputs": [
        {
          "internalType": "bytes32",
          "name": "_queryId",
          "type": "bytes32"
        },
        {
          "internalType": "string",
          "name": "_result",
          "type": "string"
        },
        {
          "internalType": "bytes",
          "name": "_proof",
          "type": "bytes"
        }
      ],
      "name": "__callback",
      "outputs": [],
      "stateMutability": "nonpayable",
      "type": "function"
    },
    {
      "inputs": [
        {
          "internalType": "uint8",
          "name": "nrBytes",
          "type": "uint8"
        }
      ],
      "name": "getRandom",
      "outputs": [],
      "stateMutability": "payable",
      "type": "function",
      "payable": true
    },
    {
      "inputs": [],
      "name": "rollDice",
      "outputs": [],
      "stateMutability": "payable",
      "type": "function",
      "payable": true
    },
    {
      "inputs": [],
      "name": "getDiceResultOfDealer",
      "outputs": [
        {
          "internalType": "uint256",
          "name": "",
          "type": "uint256"
        }
      ],
      "stateMutability": "view",
      "type": "function",
      "constant": true
    },
    {
      "inputs": [],
      "name": "getDiceResultOfUser",
      "outputs": [
        {
          "internalType": "uint256",
          "name": "",
          "type": "uint256"
        }
      ],
      "stateMutability": "view",
      "type": "function",
      "constant": true
    },
    {
      "inputs": [],
      "name": "payOut",
      "outputs": [],
      "stateMutability": "nonpayable",
      "type": "function"
    }
  ],
  "bytecode": "0x608060405234801561001057600080fd5b506141d5806100206000396000f3fe6080604052600436106100f75760003560e01c80638129fc1c1161008a578063c205240311610059578063c2052403146104e9578063cdaba78614610500578063f637d8801461053b578063f98be1e014610566576100fe565b80638129fc1c1461048657806381b2d07b1461049d578063837e7cc6146104c8578063a994dd94146104d2576100fe565b8063472abf68116100c6578063472abf68146103e8578063485e7475146103ff5780635e5bad7c1461042a5780637e4a6a5e14610455576100fe565b806307d8b05d1461010057806327dc297e1461018257806338bbfa50146102545780633f1be4d4146103bd576100fe565b366100fe57005b005b34801561010c57600080fd5b5061014f6004803603602081101561012357600080fd5b81019080803573ffffffffffffffffffffffffffffffffffffffff1690602001909291905050506105a1565b604051808373ffffffffffffffffffffffffffffffffffffffff1681526020018281526020019250505060405180910390f35b34801561018e57600080fd5b50610252600480360360408110156101a557600080fd5b8101908080359060200190929190803590602001906401000000008111156101cc57600080fd5b8201836020820111156101de57600080fd5b8035906020019184600183028401116401000000008311171561020057600080fd5b91908080601f016020809104026020016040519081016040528093929190818152602001838380828437600081840152601f19601f8201169050808301925050505050505091929192905050506105e5565b005b34801561026057600080fd5b506103bb6004803603606081101561027757600080fd5b81019080803590602001909291908035906020019064010000000081111561029e57600080fd5b8201836020820111156102b057600080fd5b803590602001918460018302840111640100000000831117156102d257600080fd5b91908080601f016020809104026020016040519081016040528093929190818152602001838380828437600081840152601f19601f8201169050808301925050505050505091929192908035906020019064010000000081111561033557600080fd5b82018360208201111561034757600080fd5b8035906020019184600183028401116401000000008311171561036957600080fd5b91908080601f016020809104026020016040519081016040528093929190818152602001838380828437600081840152601f19601f82011690508083019250505050505050919291929050505061063f565b005b3480156103c957600080fd5b506103d2610797565b6040518082815260200191505060405180910390f35b3480156103f457600080fd5b506103fd61079d565b005b34801561040b57600080fd5b506104146108ad565b6040518082815260200191505060405180910390f35b34801561043657600080fd5b5061043f6108b7565b6040518082815260200191505060405180910390f35b6104846004803603602081101561046b57600080fd5b81019080803560ff1690602001909291905050506108bd565b005b34801561049257600080fd5b5061049b6108d8565b005b3480156104a957600080fd5b506104b2610a24565b6040518082815260200191505060405180910390f35b6104d0610a2e565b005b3480156104de57600080fd5b506104e7610a4b565b005b3480156104f557600080fd5b506104fe610a62565b005b34801561050c57600080fd5b506105396004803603602081101561052357600080fd5b8101908080359060200190929190505050610b04565b005b34801561054757600080fd5b50610550610c54565b6040518082815260200191505060405180910390f35b34801561057257600080fd5b5061059f6004803603602081101561058957600080fd5b8101908080359060200190929190505050610c5e565b005b603c6020528060005260406000206000915090508060000160009054906101000a900473ffffffffffffffffffffffffffffffffffffffff16908060010154905082565b61063b8282600067ffffffffffffffff8111801561060257600080fd5b506040519080825280601f01601f1916602001820160405280156106355781602001600182028036833780820191505090505b5061063f565b5050565b610647610ce0565b73ffffffffffffffffffffffffffffffffffffffff163373ffffffffffffffffffffffffffffffffffffffff161461067e57600080fd5b600061068b848484610ffd565b60ff1614156107245760016005836040516020018082805190602001908083835b602083106106cf57805182526020820191506020810190506020830392506106ac565b6001836020036101000a0380198251168184511680821785525050505050509050019150506040516020818303038152906040528051906020012060001c8161071457fe5b060160ff16603e81905550610792565b6040517f08c379a000000000000000000000000000000000000000000000000000000000815260040180806020018281038252600d8152602001807f6572726f72206d6573736167650000000000000000000000000000000000000081525060200191505060405180910390fd5b505050565b603f5481565b600560019054906101000a900460ff16806107bc57506107bb61112d565b5b806107d45750600560009054906101000a900460ff16155b610829576040517f08c379a000000000000000000000000000000000000000000000000000000000815260040180806020018281038252602e815260200180614132602e913960400191505060405180910390fd5b6000600560019054906101000a900460ff16159050801561087b576001600560016101000a81548160ff0219169083151502179055506001600560006101000a81548160ff0219169083151502179055505b610888603060f81b611144565b80156108aa576000600560016101000a81548160ff0219169083151502179055505b50565b6000603d54905090565b60385481565b6108cf60008260ff1662030d40611468565b603f8190555050565b600560019054906101000a900460ff16806108f757506108f661112d565b5b8061090f5750600560009054906101000a900460ff16155b610964576040517f08c379a000000000000000000000000000000000000000000000000000000000815260040180806020018281038252602e815260200180614132602e913960400191505060405180910390fd5b6000600560019054906101000a900460ff1615905080156109b6576001600560016101000a81548160ff0219169083151502179055506001600560006101000a81548160ff0219169083151502179055505b600a60388190555033603b60006101000a81548173ffffffffffffffffffffffffffffffffffffffff021916908373ffffffffffffffffffffffffffffffffffffffff1602179055508015610a21576000600560016101000a81548160ff0219169083151502179055505b50565b6000603854905090565b610a36611a8d565b60ff16603d81905550610a4960016108bd565b565b600260395402603860008282540392505081905550565b603e54603d541015610afa57610a76610a4b565b7f1346ef089488831ddd390d36e94e4a0341136af2f1357d621b103c39c4523e73603b60009054906101000a900473ffffffffffffffffffffffffffffffffffffffff16603954603854604051808473ffffffffffffffffffffffffffffffffffffffff168152602001838152602001828152602001935050505060405180910390a15b610b02611af4565b565b603b60009054906101000a900473ffffffffffffffffffffffffffffffffffffffff1673ffffffffffffffffffffffffffffffffffffffff163373ffffffffffffffffffffffffffffffffffffffff1614610b5e57600080fd5b610b6781611b0e565b610b7057600080fd5b806038600082825401925050819055506001603a6000828254019250508190555060405180604001604052803373ffffffffffffffffffffffffffffffffffffffff168152602001603a54815250603c60003373ffffffffffffffffffffffffffffffffffffffff1673ffffffffffffffffffffffffffffffffffffffff16815260200190815260200160002060008201518160000160006101000a81548173ffffffffffffffffffffffffffffffffffffffff021916908373ffffffffffffffffffffffffffffffffffffffff1602179055506020820151816001015590505050565b6000603e54905090565b603b60009054906101000a900473ffffffffffffffffffffffffffffffffffffffff1673ffffffffffffffffffffffffffffffffffffffff163373ffffffffffffffffffffffffffffffffffffffff1614610cb857600080fd5b610cc181611b0e565b610cca57600080fd5b6002810260386000828254019250508190555050565b60008073ffffffffffffffffffffffffffffffffffffffff16600160009054906101000a900473ffffffffffffffffffffffffffffffffffffffff1673ffffffffffffffffffffffffffffffffffffffff161480610d6857506000610d66600160009054906101000a900473ffffffffffffffffffffffffffffffffffffffff16611b1d565b145b15610d7957610d776000611b28565b505b600160009054906101000a900473ffffffffffffffffffffffffffffffffffffffff1673ffffffffffffffffffffffffffffffffffffffff166338cc48316040518163ffffffff1660e01b8152600401602060405180830381600087803b158015610de357600080fd5b505af1158015610df7573d6000803e3d6000fd5b505050506040513d6020811015610e0d57600080fd5b810190808051906020019092919050505073ffffffffffffffffffffffffffffffffffffffff1660008054906101000a900473ffffffffffffffffffffffffffffffffffffffff1673ffffffffffffffffffffffffffffffffffffffff1614610f5557600160009054906101000a900473ffffffffffffffffffffffffffffffffffffffff1673ffffffffffffffffffffffffffffffffffffffff166338cc48316040518163ffffffff1660e01b8152600401602060405180830381600087803b158015610eda57600080fd5b505af1158015610eee573d6000803e3d6000fd5b505050506040513d6020811015610f0457600080fd5b81019080805190602001909291905050506000806101000a81548173ffffffffffffffffffffffffffffffffffffffff021916908373ffffffffffffffffffffffffffffffffffffffff1602179055505b60008054906101000a900473ffffffffffffffffffffffffffffffffffffffff1673ffffffffffffffffffffffffffffffffffffffff1663c281d19e6040518163ffffffff1660e01b8152600401602060405180830381600087803b158015610fbd57600080fd5b505af1158015610fd1573d6000803e3d6000fd5b505050506040513d6020811015610fe757600080fd5b8101908080519060200190929190505050905090565b60007f4c000000000000000000000000000000000000000000000000000000000000008260008151811061102d57fe5b602001015160f81c60f81b7effffffffffffffffffffffffffffffffffffffffffffffffffffffffffffff19161415806110c057507f50000000000000000000000000000000000000000000000000000000000000008260018151811061109057fe5b602001015160f81c60f81b7effffffffffffffffffffffffffffffffffffffffffffffffffffffffffffff191614155b806110ec5750600160ff16826002815181106110d857fe5b602001015160f81c60f81b60f81c60ff1614155b156110fa5760019050611126565b600061110f83868661110a611b39565b611bdb565b905080611120576002915050611126565b60009150505b9392505050565b6000803090506000813b9050600081149250505090565b600073ffffffffffffffffffffffffffffffffffffffff16600160009054906101000a900473ffffffffffffffffffffffffffffffffffffffff1673ffffffffffffffffffffffffffffffffffffffff1614806111cb575060006111c9600160009054906101000a900473ffffffffffffffffffffffffffffffffffffffff16611b1d565b145b156111dc576111da6000611b28565b505b600160009054906101000a900473ffffffffffffffffffffffffffffffffffffffff1673ffffffffffffffffffffffffffffffffffffffff166338cc48316040518163ffffffff1660e01b8152600401602060405180830381600087803b15801561124657600080fd5b505af115801561125a573d6000803e3d6000fd5b505050506040513d602081101561127057600080fd5b810190808051906020019092919050505073ffffffffffffffffffffffffffffffffffffffff1660008054906101000a900473ffffffffffffffffffffffffffffffffffffffff1673ffffffffffffffffffffffffffffffffffffffff16146113b857600160009054906101000a900473ffffffffffffffffffffffffffffffffffffffff1673ffffffffffffffffffffffffffffffffffffffff166338cc48316040518163ffffffff1660e01b8152600401602060405180830381600087803b15801561133d57600080fd5b505af1158015611351573d6000803e3d6000fd5b505050506040513d602081101561136757600080fd5b81019080805190602001909291905050506000806101000a81548173ffffffffffffffffffffffffffffffffffffffff021916908373ffffffffffffffffffffffffffffffffffffffff1602179055505b60008054906101000a900473ffffffffffffffffffffffffffffffffffffffff1673ffffffffffffffffffffffffffffffffffffffff1663688dcfd7826040518263ffffffff1660e01b815260040180827effffffffffffffffffffffffffffffffffffffffffffffffffffffffffffff19168152602001915050600060405180830381600087803b15801561144d57600080fd5b505af1158015611461573d6000803e3d6000fd5b5050505050565b6000808311801561147a575060208311155b61148357600080fd5b600a840293506060600167ffffffffffffffff811180156114a357600080fd5b506040519080825280601f01601f1916602001820160405280156114d65781602001600182028036833780820191505090505b5090508360f81b816000815181106114ea57fe5b60200101907effffffffffffffffffffffffffffffffffffffffffffffffffffffffffffff1916908160001a9053506060602067ffffffffffffffff8111801561153357600080fd5b506040519080825280601f01601f1916602001820160405280156115665781602001600182028036833780820191505090505b5090506060602067ffffffffffffffff8111801561158357600080fd5b506040519080825280601f01601f1916602001820160405280156115b65781602001600182028036833780820191505090505b50905060006115c36122fa565b9050602083524241186001430340186020840152602082528060208301526060602067ffffffffffffffff811180156115fb57600080fd5b506040519080825280601f01601f19166020018201604052801561162e5781602001600182028036833780820191505090505b5090508860208201526060600867ffffffffffffffff8111801561165157600080fd5b506040519080825280601f01601f1916602001820160405280156116845781602001600182028036833780820191505090505b5090506116978260186008846000612615565b506116a0614053565b604051806080016040528087815260200188815260200186815260200184815250905060006117056040518060400160405280600681526020017f72616e646f6d0000000000000000000000000000000000000000000000000000815250838c612674565b90506060600867ffffffffffffffff8111801561172157600080fd5b506040519080825280601f01601f1916602001820160405280156117545781602001600182028036833780820191505090505b50905060208401517f0100000000000000000000000000000000000000000000000000000000000000810460278301537e01000000000000000000000000000000000000000000000000000000000000810460268301537d010000000000000000000000000000000000000000000000000000000000810460258301537c0100000000000000000000000000000000000000000000000000000000810460248301537b01000000000000000000000000000000000000000000000000000000810460238301537a010000000000000000000000000000000000000000000000000000810460228301537901000000000000000000000000000000000000000000000000008104602183015378010000000000000000000000000000000000000000000000008104602083015350611a7a82828560016004811061189357fe5b60200201516002876000600481106118a757fe5b60200201516040518082805190602001908083835b602083106118df57805182526020820191506020810190506020830392506118bc565b6001836020036101000a038019825116818451168082178552505050505050905001915050602060405180830381855afa158015611921573d6000803e3d6000fd5b5050506040513d602081101561193657600080fd5b81019080805190602001909291905050508760026004811061195457fe5b60200201516040516020018085805190602001908083835b6020831061198f578051825260208201915060208101905060208303925061196c565b6001836020036101000a03801982511681845116808217855250505050505090500184805190602001908083835b602083106119e057805182526020820191506020810190506020830392506119bd565b6001836020036101000a03801982511681845116808217855250505050505090500183815260200182805190602001908083835b60208310611a375780518252602082019150602081019050602083039250611a14565b6001836020036101000a038019825116818451168082178552505050505050905001945050505050604051602081830303815290604052805190602001206129f7565b8199505050505050505050509392505050565b600060016006424144604051602001808481526020018373ffffffffffffffffffffffffffffffffffffffff1660601b815260140182815260200193505050506040516020818303038152906040528051906020012060001c81611aed57fe5b0601905090565b6000603d819055506000603e819055506000603981905550565b60008160385410159050919050565b6000813b9050919050565b6000611b32612a13565b9050919050565b606060028054600181600116156101000203166002900480601f016020809104026020016040519081016040528092919081815260200182805460018160011615610100020316600290048015611bd15780601f10611ba657610100808354040283529160200191611bd1565b820191906000526020600020905b815481529060010190602001808311611bb457829003601f168201915b5050505050905090565b6000806020600287604581518110611bef57fe5b602001015160f81c60f81b60f81c60ff16016044010190506060602067ffffffffffffffff81118015611c2157600080fd5b506040519080825280601f01601f191660200182016040528015611c545781602001600182028036833780820191505090505b509050611c6687836020846000612615565b50600284876040516020018083805190602001908083835b60208310611ca15780518252602082019150602081019050602083039250611c7e565b6001836020036101000a038019825116818451168082178552505050505050905001828152602001925050506040516020818303038152906040526040518082805190602001908083835b60208310611d0f5780518252602082019150602081019050602083039250611cec565b6001836020036101000a038019825116818451168082178552505050505050905001915050602060405180830381855afa158015611d51573d6000803e3d6000fd5b5050506040513d6020811015611d6657600080fd5b81019080805190602001909291905050506040516020018082815260200191505060405160208183030381529060405280519060200120818051906020012014611db5576000925050506122f2565b60606002886001604986010181518110611dcb57fe5b602001015160f81c60f81b60f81c60ff160167ffffffffffffffff81118015611df357600080fd5b506040519080825280601f01601f191660200182016040528015611e265781602001600182028036833780820191505090505b509050611e3b88604985018351846000612615565b50611f066002826040518082805190602001908083835b60208310611e755780518252602082019150602081019050602083039250611e52565b6001836020036101000a038019825116818451168082178552505050505050905001915050602060405180830381855afa158015611eb7573d6000803e3d6000fd5b5050506040513d6020811015611ecc57600080fd5b8101908080519060200190929190505050878a6008602088010181518110611ef057fe5b602001015160f81c60f81b60f81c60ff16612f6a565b611f1657600093505050506122f2565b6060602967ffffffffffffffff81118015611f3057600080fd5b506040519080825280601f01601f191660200182016040528015611f635781602001600182028036833780820191505090505b509050611f7889602086016029846000612615565b506060604067ffffffffffffffff81118015611f9357600080fd5b506040519080825280601f01601f191660200182016040528015611fc65781602001600182028036833780820191505090505b5090506000604184516029602089010101019050611fec8b604083036040856000612615565b5060006002836040518082805190602001908083835b602083106120255780518252602082019150602081019050602083039250612002565b6001836020036101000a038019825116818451168082178552505050505050905001915050602060405180830381855afa158015612067573d6000803e3d6000fd5b5050506040513d602081101561207c57600080fd5b8101908080519060200190929190505050905083816040516020018083805190602001908083835b602083106120c757805182526020820191506020810190506020830392506120a4565b6001836020036101000a0380198251168184511680821785525050505050509050018281526020019250505060405160208183030381529060405280519060200120600360008d815260200190815260200160002054141561213f57600360008c81526020019081526020016000206000905561214f565b60009750505050505050506122f2565b6060604967ffffffffffffffff8111801561216957600080fd5b506040519080825280601f01601f19166020018201604052801561219c5781602001600182028036833780820191505090505b5090506121ae8d896049846000612615565b506122576002826040518082805190602001908083835b602083106121e857805182526020820191506020810190506020830392506121c5565b6001836020036101000a038019825116818451168082178552505050505050905001915050602060405180830381855afa15801561222a573d6000803e3d6000fd5b5050506040513d602081101561223f57600080fd5b81019080805190602001909291905050508786613017565b61226c576000985050505050505050506122f2565b6004600083815260200190815260200160002060009054906101000a900460ff166122c65761229b8d84613203565b6004600084815260200190815260200160002060006101000a81548160ff0219169083151502179055505b6004600083815260200190815260200160002060009054906101000a900460ff16985050505050505050505b949350505050565b60008073ffffffffffffffffffffffffffffffffffffffff16600160009054906101000a900473ffffffffffffffffffffffffffffffffffffffff1673ffffffffffffffffffffffffffffffffffffffff16148061238257506000612380600160009054906101000a900473ffffffffffffffffffffffffffffffffffffffff16611b1d565b145b15612393576123916000611b28565b505b600160009054906101000a900473ffffffffffffffffffffffffffffffffffffffff1673ffffffffffffffffffffffffffffffffffffffff166338cc48316040518163ffffffff1660e01b8152600401602060405180830381600087803b1580156123fd57600080fd5b505af1158015612411573d6000803e3d6000fd5b505050506040513d602081101561242757600080fd5b810190808051906020019092919050505073ffffffffffffffffffffffffffffffffffffffff1660008054906101000a900473ffffffffffffffffffffffffffffffffffffffff1673ffffffffffffffffffffffffffffffffffffffff161461256f57600160009054906101000a900473ffffffffffffffffffffffffffffffffffffffff1673ffffffffffffffffffffffffffffffffffffffff166338cc48316040518163ffffffff1660e01b8152600401602060405180830381600087803b1580156124f457600080fd5b505af1158015612508573d6000803e3d6000fd5b505050506040513d602081101561251e57600080fd5b81019080805190602001909291905050506000806101000a81548173ffffffffffffffffffffffffffffffffffffffff021916908373ffffffffffffffffffffffffffffffffffffffff1602179055505b60008054906101000a900473ffffffffffffffffffffffffffffffffffffffff1673ffffffffffffffffffffffffffffffffffffffff1663abaa5f3e6040518163ffffffff1660e01b815260040160206040518083038186803b1580156125d557600080fd5b505afa1580156125e9573d6000803e3d6000fd5b505050506040513d60208110156125ff57600080fd5b8101908080519060200190929190505050905090565b606060008285019050808451101561262c57600080fd5b600086602001905060008460200190505b868860200101821015612665578189015180828801525060208201915060208101905061263d565b85935050505095945050505050565b60008073ffffffffffffffffffffffffffffffffffffffff16600160009054906101000a900473ffffffffffffffffffffffffffffffffffffffff1673ffffffffffffffffffffffffffffffffffffffff1614806126fc575060006126fa600160009054906101000a900473ffffffffffffffffffffffffffffffffffffffff16611b1d565b145b1561270d5761270b6000611b28565b505b600160009054906101000a900473ffffffffffffffffffffffffffffffffffffffff1673ffffffffffffffffffffffffffffffffffffffff166338cc48316040518163ffffffff1660e01b8152600401602060405180830381600087803b15801561277757600080fd5b505af115801561278b573d6000803e3d6000fd5b505050506040513d60208110156127a157600080fd5b810190808051906020019092919050505073ffffffffffffffffffffffffffffffffffffffff1660008054906101000a900473ffffffffffffffffffffffffffffffffffffffff1673ffffffffffffffffffffffffffffffffffffffff16146128e957600160009054906101000a900473ffffffffffffffffffffffffffffffffffffffff1673ffffffffffffffffffffffffffffffffffffffff166338cc48316040518163ffffffff1660e01b8152600401602060405180830381600087803b15801561286e57600080fd5b505af1158015612882573d6000803e3d6000fd5b505050506040513d602081101561289857600080fd5b81019080805190602001909291905050506000806101000a81548173ffffffffffffffffffffffffffffffffffffffff021916908373ffffffffffffffffffffffffffffffffffffffff1602179055505b6060600467ffffffffffffffff8111801561290357600080fd5b5060405190808252806020026020018201604052801561293757816020015b60608152602001906001900390816129225790505b5090508360006004811061294757fe5b60200201518160008151811061295957fe5b60200260200101819052508360016004811061297157fe5b60200201518160018151811061298357fe5b60200260200101819052508360026004811061299b57fe5b6020020151816002815181106129ad57fe5b6020026020010181905250836003600481106129c557fe5b6020020151816003815181106129d757fe5b60200260200101819052506129ed85828561368f565b9150509392505050565b8060036000848152602001908152602001600020819055505050565b600080612a33731d3b2638a7cc9f2cb3d298a3da7a90b67e5506ed611b1d565b1115612ad557731d3b2638a7cc9f2cb3d298a3da7a90b67e5506ed600160006101000a81548173ffffffffffffffffffffffffffffffffffffffff021916908373ffffffffffffffffffffffffffffffffffffffff160217905550612acc6040518060400160405280600b81526020017f6574685f6d61696e6e6574000000000000000000000000000000000000000000815250613bef565b60019050612f67565b6000612af473c03a2615d5efaf5f49f60b7bb6583eaec212fdf1611b1d565b1115612b965773c03a2615d5efaf5f49f60b7bb6583eaec212fdf1600160006101000a81548173ffffffffffffffffffffffffffffffffffffffff021916908373ffffffffffffffffffffffffffffffffffffffff160217905550612b8d6040518060400160405280600c81526020017f6574685f726f707374656e330000000000000000000000000000000000000000815250613bef565b60019050612f67565b6000612bb573b7a07bcf2ba2f2703b24c0691b5278999c59ac7e611b1d565b1115612c575773b7a07bcf2ba2f2703b24c0691b5278999c59ac7e600160006101000a81548173ffffffffffffffffffffffffffffffffffffffff021916908373ffffffffffffffffffffffffffffffffffffffff160217905550612c4e6040518060400160405280600981526020017f6574685f6b6f76616e0000000000000000000000000000000000000000000000815250613bef565b60019050612f67565b6000612c7673146500cfd35b22e4a392fe0adc06de1a1368ed48611b1d565b1115612d185773146500cfd35b22e4a392fe0adc06de1a1368ed48600160006101000a81548173ffffffffffffffffffffffffffffffffffffffff021916908373ffffffffffffffffffffffffffffffffffffffff160217905550612d0f6040518060400160405280600b81526020017f6574685f72696e6b656279000000000000000000000000000000000000000000815250613bef565b60019050612f67565b6000612d3773a2998efd205fb9d4b4963afb70778d6354ad3a41611b1d565b1115612dd95773a2998efd205fb9d4b4963afb70778d6354ad3a41600160006101000a81548173ffffffffffffffffffffffffffffffffffffffff021916908373ffffffffffffffffffffffffffffffffffffffff160217905550612dd06040518060400160405280600a81526020017f6574685f676f65726c6900000000000000000000000000000000000000000000815250613bef565b60019050612f67565b6000612df8736f485c8bf6fc43ea212e93bbf8ce046c7f1cb475611b1d565b1115612e5c57736f485c8bf6fc43ea212e93bbf8ce046c7f1cb475600160006101000a81548173ffffffffffffffffffffffffffffffffffffffff021916908373ffffffffffffffffffffffffffffffffffffffff16021790555060019050612f67565b6000612e7b7320e12a1f859b3feae5fb2a0a32c18f5a65555bbf611b1d565b1115612edf577320e12a1f859b3feae5fb2a0a32c18f5a65555bbf600160006101000a81548173ffffffffffffffffffffffffffffffffffffffff021916908373ffffffffffffffffffffffffffffffffffffffff16021790555060019050612f67565b6000612efe7351efaf4c8b3c9afbd5ab9f4bbc82784ab6ef8faa611b1d565b1115612f62577351efaf4c8b3c9afbd5ab9f4bbc82784ab6ef8faa600160006101000a81548173ffffffffffffffffffffffffffffffffffffffff021916908373ffffffffffffffffffffffffffffffffffffffff16021790555060019050612f67565b600090505b90565b6000806001905082845114612f7e57600080fd5b60005b8381101561300b57848181518110612f9557fe5b602001015160f81c60f81b7effffffffffffffffffffffffffffffffffffffffffffffffffffffffffffff1916868260208110612fce57fe5b1a60f81b7effffffffffffffffffffffffffffffffffffffffffffffffffffffffffffff191614612ffe57600091505b8080600101915050612f81565b50809150509392505050565b60008060008060006060602067ffffffffffffffff8111801561303957600080fd5b506040519080825280601f01601f19166020018201604052801561306c5781602001600182028036833780820191505090505b509050600060208960038151811061308057fe5b602001015160f81c60f81b60f81c60ff160360040190506130a689826020856000612615565b91506060602067ffffffffffffffff811180156130c257600080fd5b506040519080825280601f01601f1916602001820160405280156130f55781602001600182028036833780820191505090505b5090506022820191506131318a60208c600186038151811061311357fe5b602001015160f81c60f81b60f81c60ff160384016020846000612615565b9050602083015194506020810151935061314e8b601b8787613c09565b80975081985050508573ffffffffffffffffffffffffffffffffffffffff16898051906020012060001c73ffffffffffffffffffffffffffffffffffffffff1614156131a45760019750505050505050506131fc565b6131b18b601c8787613c09565b80975081985050508573ffffffffffffffffffffffffffffffffffffffff16898051906020012060001c73ffffffffffffffffffffffffffffffffffffffff16149750505050505050505b9392505050565b6000806060600285600186018151811061321957fe5b602001015160f81c60f81b60f81c60ff160167ffffffffffffffff8111801561324157600080fd5b506040519080825280601f01601f1916602001820160405280156132745781602001600182028036833780820191505090505b50905061328685858351846000612615565b506060604067ffffffffffffffff811180156132a157600080fd5b506040519080825280601f01601f1916602001820160405280156132d45781602001600182028036833780820191505090505b5090506132e78660046040846000612615565b506060606267ffffffffffffffff8111801561330257600080fd5b506040519080825280601f01601f1916602001820160405280156133355781602001600182028036833780820191505090505b509050600160f81b8160008151811061334a57fe5b60200101907effffffffffffffffffffffffffffffffffffffffffffffffffffffffffffff1916908160001a90535061338b87604188036041846001612615565b5060606040518060400160405280602081526020017ffd94fa71bc0ba10d39d464d0d8f465efeef0a2764e3887fcc9df41ded20f505c81525090506133d68160006020856042612615565b5061347f6002836040518082805190602001908083835b6020831061341057805182526020820191506020810190506020830392506133ed565b6001836020036101000a038019825116818451168082178552505050505050905001915050602060405180830381855afa158015613452573d6000803e3d6000fd5b5050506040513d602081101561346757600080fd5b81019080805190602001909291905050508585613017565b94508461349457600095505050505050613689565b60606040518060600160405280604081526020016141606040913990506060604267ffffffffffffffff811180156134cb57600080fd5b506040519080825280601f01601f1916602001820160405280156134fe5781602001600182028036833780820191505090505b50905060fe60f81b8160008151811061351357fe5b60200101907effffffffffffffffffffffffffffffffffffffffffffffffffffffffffffff1916908160001a9053506135528a60036041846001612615565b50606060028b60458151811061356457fe5b602001015160f81c60f81b60f81c60ff160167ffffffffffffffff8111801561358c57600080fd5b506040519080825280601f01601f1916602001820160405280156135bf5781602001600182028036833780820191505090505b5090506135d28b60448351846000612615565b5061367b6002836040518082805190602001908083835b6020831061360c57805182526020820191506020810190506020830392506135e9565b6001836020036101000a038019825116818451168082178552505050505050905001915050602060405180830381855afa15801561364e573d6000803e3d6000fd5b5050506040513d602081101561366357600080fd5b81019080805190602001909291905050508285613017565b975087985050505050505050505b92915050565b60008073ffffffffffffffffffffffffffffffffffffffff16600160009054906101000a900473ffffffffffffffffffffffffffffffffffffffff1673ffffffffffffffffffffffffffffffffffffffff16148061371757506000613715600160009054906101000a900473ffffffffffffffffffffffffffffffffffffffff16611b1d565b145b15613728576137266000611b28565b505b600160009054906101000a900473ffffffffffffffffffffffffffffffffffffffff1673ffffffffffffffffffffffffffffffffffffffff166338cc48316040518163ffffffff1660e01b8152600401602060405180830381600087803b15801561379257600080fd5b505af11580156137a6573d6000803e3d6000fd5b505050506040513d60208110156137bc57600080fd5b810190808051906020019092919050505073ffffffffffffffffffffffffffffffffffffffff1660008054906101000a900473ffffffffffffffffffffffffffffffffffffffff1673ffffffffffffffffffffffffffffffffffffffff161461390457600160009054906101000a900473ffffffffffffffffffffffffffffffffffffffff1673ffffffffffffffffffffffffffffffffffffffff166338cc48316040518163ffffffff1660e01b8152600401602060405180830381600087803b15801561388957600080fd5b505af115801561389d573d6000803e3d6000fd5b505050506040513d60208110156138b357600080fd5b81019080805190602001909291905050506000806101000a81548173ffffffffffffffffffffffffffffffffffffffff021916908373ffffffffffffffffffffffffffffffffffffffff1602179055505b60008060009054906101000a900473ffffffffffffffffffffffffffffffffffffffff1673ffffffffffffffffffffffffffffffffffffffff16632ef3accc86856040518363ffffffff1660e01b81526004018080602001838152602001828103825284818151815260200191508051906020019080838360005b8381101561399a57808201518184015260208101905061397f565b50505050905090810190601f1680156139c75780820380516001836020036101000a031916815260200191505b509350505050602060405180830381600087803b1580156139e757600080fd5b505af11580156139fb573d6000803e3d6000fd5b505050506040513d6020811015613a1157600080fd5b81019080805190602001909291905050509050823a02670de0b6b3a764000001811115613a44576000801b915050613be8565b6060613a4f85613c4d565b905060008054906101000a900473ffffffffffffffffffffffffffffffffffffffff1673ffffffffffffffffffffffffffffffffffffffff1663c55c1cb68360008985896040518663ffffffff1660e01b8152600401808581526020018060200180602001848152602001838103835286818151815260200191508051906020019080838360005b83811015613af2578082015181840152602081019050613ad7565b50505050905090810190601f168015613b1f5780820380516001836020036101000a031916815260200191505b50838103825285818151815260200191508051906020019080838360005b83811015613b58578082015181840152602081019050613b3d565b50505050905090810190601f168015613b855780820380516001836020036101000a031916815260200191505b5096505050505050506020604051808303818588803b158015613ba757600080fd5b505af1158015613bbb573d6000803e3d6000fd5b50505050506040513d6020811015613bd257600080fd5b8101908080519060200190929190505050925050505b9392505050565b8060029080519060200190613c0592919061407a565b5050565b60008060008060405188815287602082015286604082015285606082015260208160808360006001610bb8f192508051915050818193509350505094509492505050565b6060613c57613cca565b613c5f6140fa565b613c6b81610400613cd6565b613c7481613d20565b60005b8351811015613cb357613ca6848281518110613c8f57fe5b602002602001015183613d2e90919063ffffffff16565b8080600101915050613c77565b50613cbd81613d53565b8060000151915050919050565b60405180590338823950565b6000819050600060208281613ce757fe5b0614613d005760208181613cf757fe5b06602003810190505b808360200181815250506040518084526000815281810160405250505050565b613d2b816004613d61565b50565b613d3b8260028351613d82565b613d4e8183613ec290919063ffffffff16565b505050565b613d5e816007613d61565b50565b613d7e601f60058360ff16901b1783613f6d90919063ffffffff16565b5050565b60178111613dae57613da98160058460ff16901b60ff161784613f6d90919063ffffffff16565b613ebd565b60ff8111613def57613dd3601860058460ff16901b1784613f6d90919063ffffffff16565b613de981600185613fad9092919063ffffffff16565b50613ebc565b61ffff8111613e3157613e15601960058460ff16901b1784613f6d90919063ffffffff16565b613e2b81600285613fad9092919063ffffffff16565b50613ebb565b63ffffffff8111613e7557613e59601a60058460ff16901b1784613f6d90919063ffffffff16565b613e6f81600485613fad9092919063ffffffff16565b50613eba565b67ffffffffffffffff8111613eb957613ea1601b60058460ff16901b1784613f6d90919063ffffffff16565b613eb781600885613fad9092919063ffffffff16565b505b5b5b5b5b505050565b613eca6140fa565b82602001518360000151518351011115613efa57613ef9836002613ef386602001518651614014565b02614030565b5b60008060008451905085518051602081830101945086518101825260208701935050505b60208110613f415781518352602083019250602082019150602081039050613f1e565b60006001826020036101000a039050801983511681855116818117865250508694505050505092915050565b81602001516001836000015151011115613f9357613f92826002846020015102614030565b5b815180516020818301018381536001820183525050505050565b613fb56140fa565b836020015184600001515183011115613fe357613fe2846002613fdc876020015186614014565b02614030565b5b60006001836101000a0390508451805184818301018684198251161781528582018352505050849150509392505050565b6000818311156140265782905061402a565b8190505b92915050565b6060826000015190506140438383613cd6565b61404d8382613ec2565b50505050565b60405180608001604052806004905b60608152602001906001900390816140625790505090565b828054600181600116156101000203166002900490600052602060002090601f016020900481019282601f106140bb57805160ff19168380011785556140e9565b828001600101855582156140e9579182015b828111156140e85782518255916020019190600101906140cd565b5b5090506140f69190614114565b5090565b604051806040016040528060608152602001600081525090565b5b8082111561412d576000816000905550600101614115565b509056fe436f6e747261637420696e7374616e63652068617320616c7265616479206265656e20696e697469616c697a65647fb956469c5c9b89840d55b43537e66a98dd4811ea0a27224272c2e5622911e8537a2f8e86a46baec82864e98dd01e9ccc2f8bc5dfc9cbe5a91a290498dd96e4a2646970667358221220e62eef6c7357ba1839a2ad144bf99ae99b0b851ca601e78ab9262911777d049a64736f6c634300060c0033",
  "immutableReferences": {},
  "source": "pragma solidity ^0.6.0;\nimport \"./provableAPI.sol\";\nimport \"@openzeppelin/upgrades-core/contracts/Initializable.sol\";\n\n\ncontract DealerV4 is usingProvable, Initializable  {\n    uint public dealerBalance;\n    uint bet;\n    uint playedGames;\n    address player;\n    \n    function initialize() public initializer {\n        dealerBalance = 10;\n        player = msg.sender;\n    }\n\n    fallback() external payable {}\n    receive() external payable {}\n    \n    event PlayerWins(\n        address player,\n        uint profit,\n        uint dealerBalance\n        );\n    \n    mapping(address => PlayerData) public playerList;\n    \n    struct PlayerData {\n        address playerAddress;\n        uint playedGames;\n    }\n    \n    modifier onlyPlayer() {\n        require(msg.sender == player);\n        _;\n    }\n    \n    function addBet(uint _bet) public onlyPlayer {\n        require(checkIfBalanceIsEnough(_bet));\n            dealerBalance += _bet;\n            playedGames += 1;\n            playerList[msg.sender] = PlayerData(msg.sender, playedGames);\n    }\n\n    function addBet2(uint _bet) public onlyPlayer {\n        require(checkIfBalanceIsEnough(_bet));\n            dealerBalance += _bet * 2;\n    }\n    \n    \n    function returnBetWithProfit() public {\n        dealerBalance -= bet * 2; \n    }\n    \n    function showBalance() public view returns (uint) {\n        return dealerBalance; \n    }\n    \n    function checkIfBalanceIsEnough(uint _bet) private view returns (bool) {\n        return dealerBalance >= _bet; \n    }\n}\n\ncontract PolarBetV4 is DealerV4 {\n    uint dealerDiceResult;\n    uint userDiceResult;\n    bytes32 public queryId;\n    \n    \n    // constructor() public { \n    //     provable_setProof(proofType_Ledger); \n    // }\n\n    function initialize2() public initializer {\n        provable_setProof(proofType_Ledger); \n    }   \n    \n    \n    function __callback(bytes32  _queryId,string memory _result,bytes memory _proof ) override public {\n        require(msg.sender == provable_cbAddress());\n        if (provable_randomDS_proofVerify__returnCode(_queryId,_result,_proof)== 0)\n            userDiceResult = uint8(uint256(keccak256(abi.encodePacked(_result)))% 5) + 1;\n        else\n            revert(\"error message\");\n}\n    \n    function getRandom(uint8 nrBytes) public payable { // not supported in remix\n        queryId=provable_newRandomDSQuery(\n            0,          // QUERY_EXECUTION_DELAY\n            nrBytes,    // NUM_RANDOM_BYTES_REQUESTED\n            200000      // GAS_FOR_CALLBACK\n        );\n    }\n    \n    function getRandomNumber() private view returns (uint8) {\n        return uint8(uint256(keccak256(abi.encodePacked(block.timestamp, block.coinbase, block.difficulty)))%6) + 1;\n    }\n    \n    function rollDice() public payable {\n        dealerDiceResult = getRandomNumber();\n        getRandom(1);\n    }\n\n    function getDiceResultOfDealer() public view returns (uint) {\n        return dealerDiceResult;\n    }\n    \n    function getDiceResultOfUser() public view returns (uint) {\n        return userDiceResult;\n    }\n    \n    function payOut() public  {\n        if (dealerDiceResult < userDiceResult) {\n            returnBetWithProfit();\n            emit PlayerWins(player, bet, dealerBalance);\n        }  \n        resetBetAndDiceResults();\n    }\n    \n    function resetBetAndDiceResults() private {\n        dealerDiceResult = 0;\n        userDiceResult = 0;\n        bet = 0; \n    }\n}",
  "sourcePath": "/Users/rowin/Documents/projects/Koios/polarbet/contracts/PolarBetV4.sol",
  "compiler": {
    "name": "solc",
    "version": "0.6.12+commit.27d51765.Emscripten.clang"
  },
  "schemaVersion": "3.3.3",
  "updatedAt": "2021-01-20T14:03:17.542Z",
  "networkType": "ethereum",
  "devdoc": {
    "kind": "dev",
    "methods": {
      "__callback(bytes32,string)": {
        "details": "The following `__callback` functions are just placeholders ideally      meant to be defined in child contract when proofs are used.      The function bodies simply silence compiler warnings."
      }
    },
    "version": 1
  },
  "userdoc": {
    "kind": "user",
    "methods": {},
    "version": 1
  }
}