{
  "contractName": "PolarBetV2",
  "abi": [
    {
      "anonymous": false,
      "inputs": [
        {
          "indexed": false,
          "internalType": "address",
          "name": "player",
          "type": "address"
        },
        {
          "indexed": false,
          "internalType": "uint256",
          "name": "profit",
          "type": "uint256"
        },
        {
          "indexed": false,
          "internalType": "uint256",
          "name": "dealerBalance",
          "type": "uint256"
        }
      ],
      "name": "PlayerWins",
      "type": "event"
    },
    {
      "inputs": [
        {
          "internalType": "uint256",
          "name": "_bet",
          "type": "uint256"
        }
      ],
      "name": "addBet",
      "outputs": [],
      "stateMutability": "nonpayable",
      "type": "function"
    },
    {
      "inputs": [
        {
          "internalType": "uint256",
          "name": "_bet",
          "type": "uint256"
        }
      ],
      "name": "addBet2",
      "outputs": [],
      "stateMutability": "nonpayable",
      "type": "function"
    },
    {
      "inputs": [],
      "name": "dealerBalance",
      "outputs": [
        {
          "internalType": "uint256",
          "name": "",
          "type": "uint256"
        }
      ],
      "stateMutability": "view",
      "type": "function",
      "constant": true
    },
    {
      "inputs": [],
      "name": "initialize",
      "outputs": [],
      "stateMutability": "nonpayable",
      "type": "function"
    },
    {
      "inputs": [
        {
          "internalType": "address",
          "name": "",
          "type": "address"
        }
      ],
      "name": "playerList",
      "outputs": [
        {
          "internalType": "address",
          "name": "playerAddress",
          "type": "address"
        },
        {
          "internalType": "uint256",
          "name": "playedGames",
          "type": "uint256"
        }
      ],
      "stateMutability": "view",
      "type": "function",
      "constant": true
    },
    {
      "inputs": [],
      "name": "queryId",
      "outputs": [
        {
          "internalType": "bytes32",
          "name": "",
          "type": "bytes32"
        }
      ],
      "stateMutability": "view",
      "type": "function",
      "constant": true
    },
    {
      "inputs": [],
      "name": "returnBetWithProfit",
      "outputs": [],
      "stateMutability": "nonpayable",
      "type": "function"
    },
    {
      "inputs": [],
      "name": "showBalance",
      "outputs": [
        {
          "internalType": "uint256",
          "name": "",
          "type": "uint256"
        }
      ],
      "stateMutability": "view",
      "type": "function",
      "constant": true
    },
    {
      "inputs": [],
      "name": "initialize2",
      "outputs": [],
      "stateMutability": "nonpayable",
      "type": "function"
    },
    {
      "inputs": [
        {
          "internalType": "bytes32",
          "name": "_myid",
          "type": "bytes32"
        },
        {
          "internalType": "string",
          "name": "_result",
          "type": "string"
        }
      ],
      "name": "__callback",
      "outputs": [],
      "stateMutability": "nonpayable",
      "type": "function"
    },
    {
      "inputs": [
        {
          "internalType": "bytes32",
          "name": "_queryId",
          "type": "bytes32"
        },
        {
          "internalType": "string",
          "name": "_result",
          "type": "string"
        },
        {
          "internalType": "bytes",
          "name": "_proof",
          "type": "bytes"
        }
      ],
      "name": "__callback",
      "outputs": [],
      "stateMutability": "nonpayable",
      "type": "function"
    },
    {
      "inputs": [
        {
          "internalType": "uint8",
          "name": "nrBytes",
          "type": "uint8"
        }
      ],
      "name": "getRandom",
      "outputs": [],
      "stateMutability": "payable",
      "type": "function",
      "payable": true
    },
    {
      "inputs": [],
      "name": "rollDice",
      "outputs": [],
      "stateMutability": "payable",
      "type": "function",
      "payable": true
    },
    {
      "inputs": [],
      "name": "getDiceResultOfDealer",
      "outputs": [
        {
          "internalType": "uint256",
          "name": "",
          "type": "uint256"
        }
      ],
      "stateMutability": "view",
      "type": "function",
      "constant": true
    },
    {
      "inputs": [],
      "name": "getDiceResultOfUser",
      "outputs": [
        {
          "internalType": "uint256",
          "name": "",
          "type": "uint256"
        }
      ],
      "stateMutability": "view",
      "type": "function",
      "constant": true
    },
    {
      "inputs": [],
      "name": "payOut",
      "outputs": [],
      "stateMutability": "nonpayable",
      "type": "function"
    }
  ],
  "bytecode": "0x608060405234801561001057600080fd5b506141cd806100206000396000f3fe6080604052600436106100f35760003560e01c80638129fc1c1161008a578063c205240311610059578063c2052403146104e1578063cdaba786146104f8578063f637d88014610533578063f98be1e01461055e576100f3565b80638129fc1c1461047e57806381b2d07b14610495578063837e7cc6146104c0578063a994dd94146104ca576100f3565b8063472abf68116100c6578063472abf68146103e0578063485e7475146103f75780635e5bad7c146104225780637e4a6a5e1461044d576100f3565b806307d8b05d146100f857806327dc297e1461017a57806338bbfa501461024c5780633f1be4d4146103b5575b600080fd5b34801561010457600080fd5b506101476004803603602081101561011b57600080fd5b81019080803573ffffffffffffffffffffffffffffffffffffffff169060200190929190505050610599565b604051808373ffffffffffffffffffffffffffffffffffffffff1681526020018281526020019250505060405180910390f35b34801561018657600080fd5b5061024a6004803603604081101561019d57600080fd5b8101908080359060200190929190803590602001906401000000008111156101c457600080fd5b8201836020820111156101d657600080fd5b803590602001918460018302840111640100000000831117156101f857600080fd5b91908080601f016020809104026020016040519081016040528093929190818152602001838380828437600081840152601f19601f8201169050808301925050505050505091929192905050506105dd565b005b34801561025857600080fd5b506103b36004803603606081101561026f57600080fd5b81019080803590602001909291908035906020019064010000000081111561029657600080fd5b8201836020820111156102a857600080fd5b803590602001918460018302840111640100000000831117156102ca57600080fd5b91908080601f016020809104026020016040519081016040528093929190818152602001838380828437600081840152601f19601f8201169050808301925050505050505091929192908035906020019064010000000081111561032d57600080fd5b82018360208201111561033f57600080fd5b8035906020019184600183028401116401000000008311171561036157600080fd5b91908080601f016020809104026020016040519081016040528093929190818152602001838380828437600081840152601f19601f820116905080830192505050505050509192919290505050610637565b005b3480156103c157600080fd5b506103ca61078f565b6040518082815260200191505060405180910390f35b3480156103ec57600080fd5b506103f5610795565b005b34801561040357600080fd5b5061040c6108a5565b6040518082815260200191505060405180910390f35b34801561042e57600080fd5b506104376108af565b6040518082815260200191505060405180910390f35b61047c6004803603602081101561046357600080fd5b81019080803560ff1690602001909291905050506108b5565b005b34801561048a57600080fd5b506104936108d0565b005b3480156104a157600080fd5b506104aa610a1c565b6040518082815260200191505060405180910390f35b6104c8610a26565b005b3480156104d657600080fd5b506104df610a43565b005b3480156104ed57600080fd5b506104f6610a5a565b005b34801561050457600080fd5b506105316004803603602081101561051b57600080fd5b8101908080359060200190929190505050610afc565b005b34801561053f57600080fd5b50610548610c4c565b6040518082815260200191505060405180910390f35b34801561056a57600080fd5b506105976004803603602081101561058157600080fd5b8101908080359060200190929190505050610c56565b005b603c6020528060005260406000206000915090508060000160009054906101000a900473ffffffffffffffffffffffffffffffffffffffff16908060010154905082565b6106338282600067ffffffffffffffff811180156105fa57600080fd5b506040519080825280601f01601f19166020018201604052801561062d5781602001600182028036833780820191505090505b50610637565b5050565b61063f610cd8565b73ffffffffffffffffffffffffffffffffffffffff163373ffffffffffffffffffffffffffffffffffffffff161461067657600080fd5b6000610683848484610ff5565b60ff16141561071c5760016005836040516020018082805190602001908083835b602083106106c757805182526020820191506020810190506020830392506106a4565b6001836020036101000a0380198251168184511680821785525050505050509050019150506040516020818303038152906040528051906020012060001c8161070c57fe5b060160ff16603e8190555061078a565b6040517f08c379a000000000000000000000000000000000000000000000000000000000815260040180806020018281038252600d8152602001807f6572726f72206d6573736167650000000000000000000000000000000000000081525060200191505060405180910390fd5b505050565b603f5481565b600560019054906101000a900460ff16806107b457506107b3611125565b5b806107cc5750600560009054906101000a900460ff16155b610821576040517f08c379a000000000000000000000000000000000000000000000000000000000815260040180806020018281038252602e81526020018061412a602e913960400191505060405180910390fd5b6000600560019054906101000a900460ff161590508015610873576001600560016101000a81548160ff0219169083151502179055506001600560006101000a81548160ff0219169083151502179055505b610880603060f81b61113c565b80156108a2576000600560016101000a81548160ff0219169083151502179055505b50565b6000603d54905090565b60385481565b6108c760008260ff1662030d40611460565b603f8190555050565b600560019054906101000a900460ff16806108ef57506108ee611125565b5b806109075750600560009054906101000a900460ff16155b61095c576040517f08c379a000000000000000000000000000000000000000000000000000000000815260040180806020018281038252602e81526020018061412a602e913960400191505060405180910390fd5b6000600560019054906101000a900460ff1615905080156109ae576001600560016101000a81548160ff0219169083151502179055506001600560006101000a81548160ff0219169083151502179055505b600a60388190555033603b60006101000a81548173ffffffffffffffffffffffffffffffffffffffff021916908373ffffffffffffffffffffffffffffffffffffffff1602179055508015610a19576000600560016101000a81548160ff0219169083151502179055505b50565b6000603854905090565b610a2e611a85565b60ff16603d81905550610a4160016108b5565b565b600260395402603860008282540392505081905550565b603e54603d541015610af257610a6e610a43565b7f1346ef089488831ddd390d36e94e4a0341136af2f1357d621b103c39c4523e73603b60009054906101000a900473ffffffffffffffffffffffffffffffffffffffff16603954603854604051808473ffffffffffffffffffffffffffffffffffffffff168152602001838152602001828152602001935050505060405180910390a15b610afa611aec565b565b603b60009054906101000a900473ffffffffffffffffffffffffffffffffffffffff1673ffffffffffffffffffffffffffffffffffffffff163373ffffffffffffffffffffffffffffffffffffffff1614610b5657600080fd5b610b5f81611b06565b610b6857600080fd5b806038600082825401925050819055506001603a6000828254019250508190555060405180604001604052803373ffffffffffffffffffffffffffffffffffffffff168152602001603a54815250603c60003373ffffffffffffffffffffffffffffffffffffffff1673ffffffffffffffffffffffffffffffffffffffff16815260200190815260200160002060008201518160000160006101000a81548173ffffffffffffffffffffffffffffffffffffffff021916908373ffffffffffffffffffffffffffffffffffffffff1602179055506020820151816001015590505050565b6000603e54905090565b603b60009054906101000a900473ffffffffffffffffffffffffffffffffffffffff1673ffffffffffffffffffffffffffffffffffffffff163373ffffffffffffffffffffffffffffffffffffffff1614610cb057600080fd5b610cb981611b06565b610cc257600080fd5b6002810260386000828254019250508190555050565b60008073ffffffffffffffffffffffffffffffffffffffff16600160009054906101000a900473ffffffffffffffffffffffffffffffffffffffff1673ffffffffffffffffffffffffffffffffffffffff161480610d6057506000610d5e600160009054906101000a900473ffffffffffffffffffffffffffffffffffffffff16611b15565b145b15610d7157610d6f6000611b20565b505b600160009054906101000a900473ffffffffffffffffffffffffffffffffffffffff1673ffffffffffffffffffffffffffffffffffffffff166338cc48316040518163ffffffff1660e01b8152600401602060405180830381600087803b158015610ddb57600080fd5b505af1158015610def573d6000803e3d6000fd5b505050506040513d6020811015610e0557600080fd5b810190808051906020019092919050505073ffffffffffffffffffffffffffffffffffffffff1660008054906101000a900473ffffffffffffffffffffffffffffffffffffffff1673ffffffffffffffffffffffffffffffffffffffff1614610f4d57600160009054906101000a900473ffffffffffffffffffffffffffffffffffffffff1673ffffffffffffffffffffffffffffffffffffffff166338cc48316040518163ffffffff1660e01b8152600401602060405180830381600087803b158015610ed257600080fd5b505af1158015610ee6573d6000803e3d6000fd5b505050506040513d6020811015610efc57600080fd5b81019080805190602001909291905050506000806101000a81548173ffffffffffffffffffffffffffffffffffffffff021916908373ffffffffffffffffffffffffffffffffffffffff1602179055505b60008054906101000a900473ffffffffffffffffffffffffffffffffffffffff1673ffffffffffffffffffffffffffffffffffffffff1663c281d19e6040518163ffffffff1660e01b8152600401602060405180830381600087803b158015610fb557600080fd5b505af1158015610fc9573d6000803e3d6000fd5b505050506040513d6020811015610fdf57600080fd5b8101908080519060200190929190505050905090565b60007f4c000000000000000000000000000000000000000000000000000000000000008260008151811061102557fe5b602001015160f81c60f81b7effffffffffffffffffffffffffffffffffffffffffffffffffffffffffffff19161415806110b857507f50000000000000000000000000000000000000000000000000000000000000008260018151811061108857fe5b602001015160f81c60f81b7effffffffffffffffffffffffffffffffffffffffffffffffffffffffffffff191614155b806110e45750600160ff16826002815181106110d057fe5b602001015160f81c60f81b60f81c60ff1614155b156110f2576001905061111e565b6000611107838686611102611b31565b611bd3565b90508061111857600291505061111e565b60009150505b9392505050565b6000803090506000813b9050600081149250505090565b600073ffffffffffffffffffffffffffffffffffffffff16600160009054906101000a900473ffffffffffffffffffffffffffffffffffffffff1673ffffffffffffffffffffffffffffffffffffffff1614806111c3575060006111c1600160009054906101000a900473ffffffffffffffffffffffffffffffffffffffff16611b15565b145b156111d4576111d26000611b20565b505b600160009054906101000a900473ffffffffffffffffffffffffffffffffffffffff1673ffffffffffffffffffffffffffffffffffffffff166338cc48316040518163ffffffff1660e01b8152600401602060405180830381600087803b15801561123e57600080fd5b505af1158015611252573d6000803e3d6000fd5b505050506040513d602081101561126857600080fd5b810190808051906020019092919050505073ffffffffffffffffffffffffffffffffffffffff1660008054906101000a900473ffffffffffffffffffffffffffffffffffffffff1673ffffffffffffffffffffffffffffffffffffffff16146113b057600160009054906101000a900473ffffffffffffffffffffffffffffffffffffffff1673ffffffffffffffffffffffffffffffffffffffff166338cc48316040518163ffffffff1660e01b8152600401602060405180830381600087803b15801561133557600080fd5b505af1158015611349573d6000803e3d6000fd5b505050506040513d602081101561135f57600080fd5b81019080805190602001909291905050506000806101000a81548173ffffffffffffffffffffffffffffffffffffffff021916908373ffffffffffffffffffffffffffffffffffffffff1602179055505b60008054906101000a900473ffffffffffffffffffffffffffffffffffffffff1673ffffffffffffffffffffffffffffffffffffffff1663688dcfd7826040518263ffffffff1660e01b815260040180827effffffffffffffffffffffffffffffffffffffffffffffffffffffffffffff19168152602001915050600060405180830381600087803b15801561144557600080fd5b505af1158015611459573d6000803e3d6000fd5b5050505050565b60008083118015611472575060208311155b61147b57600080fd5b600a840293506060600167ffffffffffffffff8111801561149b57600080fd5b506040519080825280601f01601f1916602001820160405280156114ce5781602001600182028036833780820191505090505b5090508360f81b816000815181106114e257fe5b60200101907effffffffffffffffffffffffffffffffffffffffffffffffffffffffffffff1916908160001a9053506060602067ffffffffffffffff8111801561152b57600080fd5b506040519080825280601f01601f19166020018201604052801561155e5781602001600182028036833780820191505090505b5090506060602067ffffffffffffffff8111801561157b57600080fd5b506040519080825280601f01601f1916602001820160405280156115ae5781602001600182028036833780820191505090505b50905060006115bb6122f2565b9050602083524241186001430340186020840152602082528060208301526060602067ffffffffffffffff811180156115f357600080fd5b506040519080825280601f01601f1916602001820160405280156116265781602001600182028036833780820191505090505b5090508860208201526060600867ffffffffffffffff8111801561164957600080fd5b506040519080825280601f01601f19166020018201604052801561167c5781602001600182028036833780820191505090505b50905061168f826018600884600061260d565b5061169861404b565b604051806080016040528087815260200188815260200186815260200184815250905060006116fd6040518060400160405280600681526020017f72616e646f6d0000000000000000000000000000000000000000000000000000815250838c61266c565b90506060600867ffffffffffffffff8111801561171957600080fd5b506040519080825280601f01601f19166020018201604052801561174c5781602001600182028036833780820191505090505b50905060208401517f0100000000000000000000000000000000000000000000000000000000000000810460278301537e01000000000000000000000000000000000000000000000000000000000000810460268301537d010000000000000000000000000000000000000000000000000000000000810460258301537c0100000000000000000000000000000000000000000000000000000000810460248301537b01000000000000000000000000000000000000000000000000000000810460238301537a010000000000000000000000000000000000000000000000000000810460228301537901000000000000000000000000000000000000000000000000008104602183015378010000000000000000000000000000000000000000000000008104602083015350611a7282828560016004811061188b57fe5b602002015160028760006004811061189f57fe5b60200201516040518082805190602001908083835b602083106118d757805182526020820191506020810190506020830392506118b4565b6001836020036101000a038019825116818451168082178552505050505050905001915050602060405180830381855afa158015611919573d6000803e3d6000fd5b5050506040513d602081101561192e57600080fd5b81019080805190602001909291905050508760026004811061194c57fe5b60200201516040516020018085805190602001908083835b602083106119875780518252602082019150602081019050602083039250611964565b6001836020036101000a03801982511681845116808217855250505050505090500184805190602001908083835b602083106119d857805182526020820191506020810190506020830392506119b5565b6001836020036101000a03801982511681845116808217855250505050505090500183815260200182805190602001908083835b60208310611a2f5780518252602082019150602081019050602083039250611a0c565b6001836020036101000a038019825116818451168082178552505050505050905001945050505050604051602081830303815290604052805190602001206129ef565b8199505050505050505050509392505050565b600060016006424144604051602001808481526020018373ffffffffffffffffffffffffffffffffffffffff1660601b815260140182815260200193505050506040516020818303038152906040528051906020012060001c81611ae557fe5b0601905090565b6000603d819055506000603e819055506000603981905550565b60008160385410159050919050565b6000813b9050919050565b6000611b2a612a0b565b9050919050565b606060028054600181600116156101000203166002900480601f016020809104026020016040519081016040528092919081815260200182805460018160011615610100020316600290048015611bc95780601f10611b9e57610100808354040283529160200191611bc9565b820191906000526020600020905b815481529060010190602001808311611bac57829003601f168201915b5050505050905090565b6000806020600287604581518110611be757fe5b602001015160f81c60f81b60f81c60ff16016044010190506060602067ffffffffffffffff81118015611c1957600080fd5b506040519080825280601f01601f191660200182016040528015611c4c5781602001600182028036833780820191505090505b509050611c5e8783602084600061260d565b50600284876040516020018083805190602001908083835b60208310611c995780518252602082019150602081019050602083039250611c76565b6001836020036101000a038019825116818451168082178552505050505050905001828152602001925050506040516020818303038152906040526040518082805190602001908083835b60208310611d075780518252602082019150602081019050602083039250611ce4565b6001836020036101000a038019825116818451168082178552505050505050905001915050602060405180830381855afa158015611d49573d6000803e3d6000fd5b5050506040513d6020811015611d5e57600080fd5b81019080805190602001909291905050506040516020018082815260200191505060405160208183030381529060405280519060200120818051906020012014611dad576000925050506122ea565b60606002886001604986010181518110611dc357fe5b602001015160f81c60f81b60f81c60ff160167ffffffffffffffff81118015611deb57600080fd5b506040519080825280601f01601f191660200182016040528015611e1e5781602001600182028036833780820191505090505b509050611e338860498501835184600061260d565b50611efe6002826040518082805190602001908083835b60208310611e6d5780518252602082019150602081019050602083039250611e4a565b6001836020036101000a038019825116818451168082178552505050505050905001915050602060405180830381855afa158015611eaf573d6000803e3d6000fd5b5050506040513d6020811015611ec457600080fd5b8101908080519060200190929190505050878a6008602088010181518110611ee857fe5b602001015160f81c60f81b60f81c60ff16612f62565b611f0e57600093505050506122ea565b6060602967ffffffffffffffff81118015611f2857600080fd5b506040519080825280601f01601f191660200182016040528015611f5b5781602001600182028036833780820191505090505b509050611f708960208601602984600061260d565b506060604067ffffffffffffffff81118015611f8b57600080fd5b506040519080825280601f01601f191660200182016040528015611fbe5781602001600182028036833780820191505090505b5090506000604184516029602089010101019050611fe48b60408303604085600061260d565b5060006002836040518082805190602001908083835b6020831061201d5780518252602082019150602081019050602083039250611ffa565b6001836020036101000a038019825116818451168082178552505050505050905001915050602060405180830381855afa15801561205f573d6000803e3d6000fd5b5050506040513d602081101561207457600080fd5b8101908080519060200190929190505050905083816040516020018083805190602001908083835b602083106120bf578051825260208201915060208101905060208303925061209c565b6001836020036101000a0380198251168184511680821785525050505050509050018281526020019250505060405160208183030381529060405280519060200120600360008d815260200190815260200160002054141561213757600360008c815260200190815260200160002060009055612147565b60009750505050505050506122ea565b6060604967ffffffffffffffff8111801561216157600080fd5b506040519080825280601f01601f1916602001820160405280156121945781602001600182028036833780820191505090505b5090506121a68d89604984600061260d565b5061224f6002826040518082805190602001908083835b602083106121e057805182526020820191506020810190506020830392506121bd565b6001836020036101000a038019825116818451168082178552505050505050905001915050602060405180830381855afa158015612222573d6000803e3d6000fd5b5050506040513d602081101561223757600080fd5b8101908080519060200190929190505050878661300f565b612264576000985050505050505050506122ea565b6004600083815260200190815260200160002060009054906101000a900460ff166122be576122938d846131fb565b6004600084815260200190815260200160002060006101000a81548160ff0219169083151502179055505b6004600083815260200190815260200160002060009054906101000a900460ff16985050505050505050505b949350505050565b60008073ffffffffffffffffffffffffffffffffffffffff16600160009054906101000a900473ffffffffffffffffffffffffffffffffffffffff1673ffffffffffffffffffffffffffffffffffffffff16148061237a57506000612378600160009054906101000a900473ffffffffffffffffffffffffffffffffffffffff16611b15565b145b1561238b576123896000611b20565b505b600160009054906101000a900473ffffffffffffffffffffffffffffffffffffffff1673ffffffffffffffffffffffffffffffffffffffff166338cc48316040518163ffffffff1660e01b8152600401602060405180830381600087803b1580156123f557600080fd5b505af1158015612409573d6000803e3d6000fd5b505050506040513d602081101561241f57600080fd5b810190808051906020019092919050505073ffffffffffffffffffffffffffffffffffffffff1660008054906101000a900473ffffffffffffffffffffffffffffffffffffffff1673ffffffffffffffffffffffffffffffffffffffff161461256757600160009054906101000a900473ffffffffffffffffffffffffffffffffffffffff1673ffffffffffffffffffffffffffffffffffffffff166338cc48316040518163ffffffff1660e01b8152600401602060405180830381600087803b1580156124ec57600080fd5b505af1158015612500573d6000803e3d6000fd5b505050506040513d602081101561251657600080fd5b81019080805190602001909291905050506000806101000a81548173ffffffffffffffffffffffffffffffffffffffff021916908373ffffffffffffffffffffffffffffffffffffffff1602179055505b60008054906101000a900473ffffffffffffffffffffffffffffffffffffffff1673ffffffffffffffffffffffffffffffffffffffff1663abaa5f3e6040518163ffffffff1660e01b815260040160206040518083038186803b1580156125cd57600080fd5b505afa1580156125e1573d6000803e3d6000fd5b505050506040513d60208110156125f757600080fd5b8101908080519060200190929190505050905090565b606060008285019050808451101561262457600080fd5b600086602001905060008460200190505b86886020010182101561265d5781890151808288015250602082019150602081019050612635565b85935050505095945050505050565b60008073ffffffffffffffffffffffffffffffffffffffff16600160009054906101000a900473ffffffffffffffffffffffffffffffffffffffff1673ffffffffffffffffffffffffffffffffffffffff1614806126f4575060006126f2600160009054906101000a900473ffffffffffffffffffffffffffffffffffffffff16611b15565b145b15612705576127036000611b20565b505b600160009054906101000a900473ffffffffffffffffffffffffffffffffffffffff1673ffffffffffffffffffffffffffffffffffffffff166338cc48316040518163ffffffff1660e01b8152600401602060405180830381600087803b15801561276f57600080fd5b505af1158015612783573d6000803e3d6000fd5b505050506040513d602081101561279957600080fd5b810190808051906020019092919050505073ffffffffffffffffffffffffffffffffffffffff1660008054906101000a900473ffffffffffffffffffffffffffffffffffffffff1673ffffffffffffffffffffffffffffffffffffffff16146128e157600160009054906101000a900473ffffffffffffffffffffffffffffffffffffffff1673ffffffffffffffffffffffffffffffffffffffff166338cc48316040518163ffffffff1660e01b8152600401602060405180830381600087803b15801561286657600080fd5b505af115801561287a573d6000803e3d6000fd5b505050506040513d602081101561289057600080fd5b81019080805190602001909291905050506000806101000a81548173ffffffffffffffffffffffffffffffffffffffff021916908373ffffffffffffffffffffffffffffffffffffffff1602179055505b6060600467ffffffffffffffff811180156128fb57600080fd5b5060405190808252806020026020018201604052801561292f57816020015b606081526020019060019003908161291a5790505b5090508360006004811061293f57fe5b60200201518160008151811061295157fe5b60200260200101819052508360016004811061296957fe5b60200201518160018151811061297b57fe5b60200260200101819052508360026004811061299357fe5b6020020151816002815181106129a557fe5b6020026020010181905250836003600481106129bd57fe5b6020020151816003815181106129cf57fe5b60200260200101819052506129e5858285613687565b9150509392505050565b8060036000848152602001908152602001600020819055505050565b600080612a2b731d3b2638a7cc9f2cb3d298a3da7a90b67e5506ed611b15565b1115612acd57731d3b2638a7cc9f2cb3d298a3da7a90b67e5506ed600160006101000a81548173ffffffffffffffffffffffffffffffffffffffff021916908373ffffffffffffffffffffffffffffffffffffffff160217905550612ac46040518060400160405280600b81526020017f6574685f6d61696e6e6574000000000000000000000000000000000000000000815250613be7565b60019050612f5f565b6000612aec73c03a2615d5efaf5f49f60b7bb6583eaec212fdf1611b15565b1115612b8e5773c03a2615d5efaf5f49f60b7bb6583eaec212fdf1600160006101000a81548173ffffffffffffffffffffffffffffffffffffffff021916908373ffffffffffffffffffffffffffffffffffffffff160217905550612b856040518060400160405280600c81526020017f6574685f726f707374656e330000000000000000000000000000000000000000815250613be7565b60019050612f5f565b6000612bad73b7a07bcf2ba2f2703b24c0691b5278999c59ac7e611b15565b1115612c4f5773b7a07bcf2ba2f2703b24c0691b5278999c59ac7e600160006101000a81548173ffffffffffffffffffffffffffffffffffffffff021916908373ffffffffffffffffffffffffffffffffffffffff160217905550612c466040518060400160405280600981526020017f6574685f6b6f76616e0000000000000000000000000000000000000000000000815250613be7565b60019050612f5f565b6000612c6e73146500cfd35b22e4a392fe0adc06de1a1368ed48611b15565b1115612d105773146500cfd35b22e4a392fe0adc06de1a1368ed48600160006101000a81548173ffffffffffffffffffffffffffffffffffffffff021916908373ffffffffffffffffffffffffffffffffffffffff160217905550612d076040518060400160405280600b81526020017f6574685f72696e6b656279000000000000000000000000000000000000000000815250613be7565b60019050612f5f565b6000612d2f73a2998efd205fb9d4b4963afb70778d6354ad3a41611b15565b1115612dd15773a2998efd205fb9d4b4963afb70778d6354ad3a41600160006101000a81548173ffffffffffffffffffffffffffffffffffffffff021916908373ffffffffffffffffffffffffffffffffffffffff160217905550612dc86040518060400160405280600a81526020017f6574685f676f65726c6900000000000000000000000000000000000000000000815250613be7565b60019050612f5f565b6000612df0736f485c8bf6fc43ea212e93bbf8ce046c7f1cb475611b15565b1115612e5457736f485c8bf6fc43ea212e93bbf8ce046c7f1cb475600160006101000a81548173ffffffffffffffffffffffffffffffffffffffff021916908373ffffffffffffffffffffffffffffffffffffffff16021790555060019050612f5f565b6000612e737320e12a1f859b3feae5fb2a0a32c18f5a65555bbf611b15565b1115612ed7577320e12a1f859b3feae5fb2a0a32c18f5a65555bbf600160006101000a81548173ffffffffffffffffffffffffffffffffffffffff021916908373ffffffffffffffffffffffffffffffffffffffff16021790555060019050612f5f565b6000612ef67351efaf4c8b3c9afbd5ab9f4bbc82784ab6ef8faa611b15565b1115612f5a577351efaf4c8b3c9afbd5ab9f4bbc82784ab6ef8faa600160006101000a81548173ffffffffffffffffffffffffffffffffffffffff021916908373ffffffffffffffffffffffffffffffffffffffff16021790555060019050612f5f565b600090505b90565b6000806001905082845114612f7657600080fd5b60005b8381101561300357848181518110612f8d57fe5b602001015160f81c60f81b7effffffffffffffffffffffffffffffffffffffffffffffffffffffffffffff1916868260208110612fc657fe5b1a60f81b7effffffffffffffffffffffffffffffffffffffffffffffffffffffffffffff191614612ff657600091505b8080600101915050612f79565b50809150509392505050565b60008060008060006060602067ffffffffffffffff8111801561303157600080fd5b506040519080825280601f01601f1916602001820160405280156130645781602001600182028036833780820191505090505b509050600060208960038151811061307857fe5b602001015160f81c60f81b60f81c60ff1603600401905061309e8982602085600061260d565b91506060602067ffffffffffffffff811180156130ba57600080fd5b506040519080825280601f01601f1916602001820160405280156130ed5781602001600182028036833780820191505090505b5090506022820191506131298a60208c600186038151811061310b57fe5b602001015160f81c60f81b60f81c60ff16038401602084600061260d565b905060208301519450602081015193506131468b601b8787613c01565b80975081985050508573ffffffffffffffffffffffffffffffffffffffff16898051906020012060001c73ffffffffffffffffffffffffffffffffffffffff16141561319c5760019750505050505050506131f4565b6131a98b601c8787613c01565b80975081985050508573ffffffffffffffffffffffffffffffffffffffff16898051906020012060001c73ffffffffffffffffffffffffffffffffffffffff16149750505050505050505b9392505050565b6000806060600285600186018151811061321157fe5b602001015160f81c60f81b60f81c60ff160167ffffffffffffffff8111801561323957600080fd5b506040519080825280601f01601f19166020018201604052801561326c5781602001600182028036833780820191505090505b50905061327e8585835184600061260d565b506060604067ffffffffffffffff8111801561329957600080fd5b506040519080825280601f01601f1916602001820160405280156132cc5781602001600182028036833780820191505090505b5090506132df866004604084600061260d565b506060606267ffffffffffffffff811180156132fa57600080fd5b506040519080825280601f01601f19166020018201604052801561332d5781602001600182028036833780820191505090505b509050600160f81b8160008151811061334257fe5b60200101907effffffffffffffffffffffffffffffffffffffffffffffffffffffffffffff1916908160001a9053506133838760418803604184600161260d565b5060606040518060400160405280602081526020017ffd94fa71bc0ba10d39d464d0d8f465efeef0a2764e3887fcc9df41ded20f505c81525090506133ce816000602085604261260d565b506134776002836040518082805190602001908083835b6020831061340857805182526020820191506020810190506020830392506133e5565b6001836020036101000a038019825116818451168082178552505050505050905001915050602060405180830381855afa15801561344a573d6000803e3d6000fd5b5050506040513d602081101561345f57600080fd5b8101908080519060200190929190505050858561300f565b94508461348c57600095505050505050613681565b60606040518060600160405280604081526020016141586040913990506060604267ffffffffffffffff811180156134c357600080fd5b506040519080825280601f01601f1916602001820160405280156134f65781602001600182028036833780820191505090505b50905060fe60f81b8160008151811061350b57fe5b60200101907effffffffffffffffffffffffffffffffffffffffffffffffffffffffffffff1916908160001a90535061354a8a6003604184600161260d565b50606060028b60458151811061355c57fe5b602001015160f81c60f81b60f81c60ff160167ffffffffffffffff8111801561358457600080fd5b506040519080825280601f01601f1916602001820160405280156135b75781602001600182028036833780820191505090505b5090506135ca8b6044835184600061260d565b506136736002836040518082805190602001908083835b6020831061360457805182526020820191506020810190506020830392506135e1565b6001836020036101000a038019825116818451168082178552505050505050905001915050602060405180830381855afa158015613646573d6000803e3d6000fd5b5050506040513d602081101561365b57600080fd5b8101908080519060200190929190505050828561300f565b975087985050505050505050505b92915050565b60008073ffffffffffffffffffffffffffffffffffffffff16600160009054906101000a900473ffffffffffffffffffffffffffffffffffffffff1673ffffffffffffffffffffffffffffffffffffffff16148061370f5750600061370d600160009054906101000a900473ffffffffffffffffffffffffffffffffffffffff16611b15565b145b156137205761371e6000611b20565b505b600160009054906101000a900473ffffffffffffffffffffffffffffffffffffffff1673ffffffffffffffffffffffffffffffffffffffff166338cc48316040518163ffffffff1660e01b8152600401602060405180830381600087803b15801561378a57600080fd5b505af115801561379e573d6000803e3d6000fd5b505050506040513d60208110156137b457600080fd5b810190808051906020019092919050505073ffffffffffffffffffffffffffffffffffffffff1660008054906101000a900473ffffffffffffffffffffffffffffffffffffffff1673ffffffffffffffffffffffffffffffffffffffff16146138fc57600160009054906101000a900473ffffffffffffffffffffffffffffffffffffffff1673ffffffffffffffffffffffffffffffffffffffff166338cc48316040518163ffffffff1660e01b8152600401602060405180830381600087803b15801561388157600080fd5b505af1158015613895573d6000803e3d6000fd5b505050506040513d60208110156138ab57600080fd5b81019080805190602001909291905050506000806101000a81548173ffffffffffffffffffffffffffffffffffffffff021916908373ffffffffffffffffffffffffffffffffffffffff1602179055505b60008060009054906101000a900473ffffffffffffffffffffffffffffffffffffffff1673ffffffffffffffffffffffffffffffffffffffff16632ef3accc86856040518363ffffffff1660e01b81526004018080602001838152602001828103825284818151815260200191508051906020019080838360005b83811015613992578082015181840152602081019050613977565b50505050905090810190601f1680156139bf5780820380516001836020036101000a031916815260200191505b509350505050602060405180830381600087803b1580156139df57600080fd5b505af11580156139f3573d6000803e3d6000fd5b505050506040513d6020811015613a0957600080fd5b81019080805190602001909291905050509050823a02670de0b6b3a764000001811115613a3c576000801b915050613be0565b6060613a4785613c45565b905060008054906101000a900473ffffffffffffffffffffffffffffffffffffffff1673ffffffffffffffffffffffffffffffffffffffff1663c55c1cb68360008985896040518663ffffffff1660e01b8152600401808581526020018060200180602001848152602001838103835286818151815260200191508051906020019080838360005b83811015613aea578082015181840152602081019050613acf565b50505050905090810190601f168015613b175780820380516001836020036101000a031916815260200191505b50838103825285818151815260200191508051906020019080838360005b83811015613b50578082015181840152602081019050613b35565b50505050905090810190601f168015613b7d5780820380516001836020036101000a031916815260200191505b5096505050505050506020604051808303818588803b158015613b9f57600080fd5b505af1158015613bb3573d6000803e3d6000fd5b50505050506040513d6020811015613bca57600080fd5b8101908080519060200190929190505050925050505b9392505050565b8060029080519060200190613bfd929190614072565b5050565b60008060008060405188815287602082015286604082015285606082015260208160808360006001610bb8f192508051915050818193509350505094509492505050565b6060613c4f613cc2565b613c576140f2565b613c6381610400613cce565b613c6c81613d18565b60005b8351811015613cab57613c9e848281518110613c8757fe5b602002602001015183613d2690919063ffffffff16565b8080600101915050613c6f565b50613cb581613d4b565b8060000151915050919050565b60405180590338823950565b6000819050600060208281613cdf57fe5b0614613cf85760208181613cef57fe5b06602003810190505b808360200181815250506040518084526000815281810160405250505050565b613d23816004613d59565b50565b613d338260028351613d7a565b613d468183613eba90919063ffffffff16565b505050565b613d56816007613d59565b50565b613d76601f60058360ff16901b1783613f6590919063ffffffff16565b5050565b60178111613da657613da18160058460ff16901b60ff161784613f6590919063ffffffff16565b613eb5565b60ff8111613de757613dcb601860058460ff16901b1784613f6590919063ffffffff16565b613de181600185613fa59092919063ffffffff16565b50613eb4565b61ffff8111613e2957613e0d601960058460ff16901b1784613f6590919063ffffffff16565b613e2381600285613fa59092919063ffffffff16565b50613eb3565b63ffffffff8111613e6d57613e51601a60058460ff16901b1784613f6590919063ffffffff16565b613e6781600485613fa59092919063ffffffff16565b50613eb2565b67ffffffffffffffff8111613eb157613e99601b60058460ff16901b1784613f6590919063ffffffff16565b613eaf81600885613fa59092919063ffffffff16565b505b5b5b5b5b505050565b613ec26140f2565b82602001518360000151518351011115613ef257613ef1836002613eeb8660200151865161400c565b02614028565b5b60008060008451905085518051602081830101945086518101825260208701935050505b60208110613f395781518352602083019250602082019150602081039050613f16565b60006001826020036101000a039050801983511681855116818117865250508694505050505092915050565b81602001516001836000015151011115613f8b57613f8a826002846020015102614028565b5b815180516020818301018381536001820183525050505050565b613fad6140f2565b836020015184600001515183011115613fdb57613fda846002613fd487602001518661400c565b02614028565b5b60006001836101000a0390508451805184818301018684198251161781528582018352505050849150509392505050565b60008183111561401e57829050614022565b8190505b92915050565b60608260000151905061403b8383613cce565b6140458382613eba565b50505050565b60405180608001604052806004905b606081526020019060019003908161405a5790505090565b828054600181600116156101000203166002900490600052602060002090601f016020900481019282601f106140b357805160ff19168380011785556140e1565b828001600101855582156140e1579182015b828111156140e05782518255916020019190600101906140c5565b5b5090506140ee919061410c565b5090565b604051806040016040528060608152602001600081525090565b5b8082111561412557600081600090555060010161410d565b509056fe436f6e747261637420696e7374616e63652068617320616c7265616479206265656e20696e697469616c697a65647fb956469c5c9b89840d55b43537e66a98dd4811ea0a27224272c2e5622911e8537a2f8e86a46baec82864e98dd01e9ccc2f8bc5dfc9cbe5a91a290498dd96e4a2646970667358221220f0b5642b5cd5318dcd4096ed3404d2112a727376f5e651f0ef11e55b171624bd64736f6c634300060c0033",
  "immutableReferences": {},
  "source": "pragma solidity ^0.6.0;\nimport \"./provableAPI.sol\";\nimport \"@openzeppelin/upgrades-core/contracts/Initializable.sol\";\n\n\ncontract DealerV2 is usingProvable, Initializable  {\n    uint public dealerBalance;\n    uint bet;\n    uint playedGames;\n    address player;\n    \n    function initialize() public initializer {\n        dealerBalance = 10;\n        player = msg.sender;\n    }   \n    \n    event PlayerWins(\n        address player,\n        uint profit,\n        uint dealerBalance\n        );\n    \n    mapping(address => PlayerData) public playerList;\n    \n    struct PlayerData {\n        address playerAddress;\n        uint playedGames;\n    }\n    \n    modifier onlyPlayer() {\n        require(msg.sender == player);\n        _;\n    }\n    \n    function addBet(uint _bet) public onlyPlayer {\n        require(checkIfBalanceIsEnough(_bet));\n            dealerBalance += _bet;\n            playedGames += 1;\n            playerList[msg.sender] = PlayerData(msg.sender, playedGames);\n    }\n\n    function addBet2(uint _bet) public onlyPlayer {\n        require(checkIfBalanceIsEnough(_bet));\n            dealerBalance += _bet * 2;\n    }\n    \n    \n    function returnBetWithProfit() public {\n        dealerBalance -= bet * 2; \n    }\n    \n    function showBalance() public view returns (uint) {\n        return dealerBalance; \n    }\n    \n    function checkIfBalanceIsEnough(uint _bet) private view returns (bool) {\n        return dealerBalance >= _bet; \n    }\n}\n\ncontract PolarBetV2 is DealerV2 {\n    uint dealerDiceResult;\n    uint userDiceResult;\n    bytes32 public queryId;\n    \n    \n    // constructor() public { \n    //     provable_setProof(proofType_Ledger); \n    // }\n\n    function initialize2() public initializer {\n        provable_setProof(proofType_Ledger); \n    }   \n    \n    \n    function __callback(bytes32  _queryId,string memory _result,bytes memory _proof ) override public {\n        require(msg.sender == provable_cbAddress());\n        if (provable_randomDS_proofVerify__returnCode(_queryId,_result,_proof)== 0)\n            userDiceResult = uint8(uint256(keccak256(abi.encodePacked(_result)))% 5) + 1;\n        else\n            revert(\"error message\");\n}\n    \n    function getRandom(uint8 nrBytes) public payable { // not supported in remix\n        queryId=provable_newRandomDSQuery(\n            0,          // QUERY_EXECUTION_DELAY\n            nrBytes,    // NUM_RANDOM_BYTES_REQUESTED\n            200000      // GAS_FOR_CALLBACK\n        );\n    }\n    \n    function getRandomNumber() private view returns (uint8) {\n        return uint8(uint256(keccak256(abi.encodePacked(block.timestamp, block.coinbase, block.difficulty)))%6) + 1;\n    }\n    \n    function rollDice() public payable {\n        dealerDiceResult = getRandomNumber();\n        getRandom(1);\n    }\n\n    function getDiceResultOfDealer() public view returns (uint) {\n        return dealerDiceResult;\n    }\n    \n    function getDiceResultOfUser() public view returns (uint) {\n        return userDiceResult;\n    }\n    \n    function payOut() public  {\n        if (dealerDiceResult < userDiceResult) {\n            returnBetWithProfit();\n            emit PlayerWins(player, bet, dealerBalance);\n        }  \n        resetBetAndDiceResults();\n    }\n    \n    function resetBetAndDiceResults() private {\n        dealerDiceResult = 0;\n        userDiceResult = 0;\n        bet = 0; \n    }\n}",
  "sourcePath": "/Users/rowin/Documents/projects/Koios/polarbet/contracts/PolarBetV2.sol",
  "compiler": {
    "name": "solc",
    "version": "0.6.12+commit.27d51765.Emscripten.clang"
  },
  "schemaVersion": "3.3.3",
  "updatedAt": "2021-01-28T16:07:23.946Z",
  "networkType": "ethereum",
  "devdoc": {
    "kind": "dev",
    "methods": {
      "__callback(bytes32,string)": {
        "details": "The following `__callback` functions are just placeholders ideally      meant to be defined in child contract when proofs are used.      The function bodies simply silence compiler warnings."
      }
    },
    "version": 1
  },
  "userdoc": {
    "kind": "user",
    "methods": {},
    "version": 1
  }
}