{
  "contractName": "PolarBetV4",
  "abi": [
    {
      "anonymous": false,
      "inputs": [
        {
          "indexed": false,
          "internalType": "address",
          "name": "player",
          "type": "address"
        },
        {
          "indexed": false,
          "internalType": "uint256",
          "name": "profit",
          "type": "uint256"
        },
        {
          "indexed": false,
          "internalType": "uint256",
          "name": "dealerBalance",
          "type": "uint256"
        }
      ],
      "name": "PlayerWins",
      "type": "event"
    },
    {
      "anonymous": false,
      "inputs": [
        {
          "indexed": true,
          "internalType": "bytes32",
          "name": "role",
          "type": "bytes32"
        },
        {
          "indexed": true,
          "internalType": "bytes32",
          "name": "previousAdminRole",
          "type": "bytes32"
        },
        {
          "indexed": true,
          "internalType": "bytes32",
          "name": "newAdminRole",
          "type": "bytes32"
        }
      ],
      "name": "RoleAdminChanged",
      "type": "event"
    },
    {
      "anonymous": false,
      "inputs": [
        {
          "indexed": true,
          "internalType": "bytes32",
          "name": "role",
          "type": "bytes32"
        },
        {
          "indexed": true,
          "internalType": "address",
          "name": "account",
          "type": "address"
        },
        {
          "indexed": true,
          "internalType": "address",
          "name": "sender",
          "type": "address"
        }
      ],
      "name": "RoleGranted",
      "type": "event"
    },
    {
      "anonymous": false,
      "inputs": [
        {
          "indexed": true,
          "internalType": "bytes32",
          "name": "role",
          "type": "bytes32"
        },
        {
          "indexed": true,
          "internalType": "address",
          "name": "account",
          "type": "address"
        },
        {
          "indexed": true,
          "internalType": "address",
          "name": "sender",
          "type": "address"
        }
      ],
      "name": "RoleRevoked",
      "type": "event"
    },
    {
      "inputs": [],
      "name": "DEFAULT_ADMIN_ROLE",
      "outputs": [
        {
          "internalType": "bytes32",
          "name": "",
          "type": "bytes32"
        }
      ],
      "stateMutability": "view",
      "type": "function"
    },
    {
      "inputs": [
        {
          "internalType": "uint256",
          "name": "_bet",
          "type": "uint256"
        }
      ],
      "name": "addBet",
      "outputs": [],
      "stateMutability": "nonpayable",
      "type": "function"
    },
    {
      "inputs": [
        {
          "internalType": "uint256",
          "name": "_bet",
          "type": "uint256"
        }
      ],
      "name": "addBet2",
      "outputs": [],
      "stateMutability": "nonpayable",
      "type": "function"
    },
    {
      "inputs": [],
      "name": "dealerBalance",
      "outputs": [
        {
          "internalType": "uint256",
          "name": "",
          "type": "uint256"
        }
      ],
      "stateMutability": "view",
      "type": "function"
    },
    {
      "inputs": [
        {
          "internalType": "bytes32",
          "name": "role",
          "type": "bytes32"
        }
      ],
      "name": "getRoleAdmin",
      "outputs": [
        {
          "internalType": "bytes32",
          "name": "",
          "type": "bytes32"
        }
      ],
      "stateMutability": "view",
      "type": "function"
    },
    {
      "inputs": [
        {
          "internalType": "bytes32",
          "name": "role",
          "type": "bytes32"
        },
        {
          "internalType": "uint256",
          "name": "index",
          "type": "uint256"
        }
      ],
      "name": "getRoleMember",
      "outputs": [
        {
          "internalType": "address",
          "name": "",
          "type": "address"
        }
      ],
      "stateMutability": "view",
      "type": "function"
    },
    {
      "inputs": [
        {
          "internalType": "bytes32",
          "name": "role",
          "type": "bytes32"
        }
      ],
      "name": "getRoleMemberCount",
      "outputs": [
        {
          "internalType": "uint256",
          "name": "",
          "type": "uint256"
        }
      ],
      "stateMutability": "view",
      "type": "function"
    },
    {
      "inputs": [
        {
          "internalType": "bytes32",
          "name": "role",
          "type": "bytes32"
        },
        {
          "internalType": "address",
          "name": "account",
          "type": "address"
        }
      ],
      "name": "grantRole",
      "outputs": [],
      "stateMutability": "nonpayable",
      "type": "function"
    },
    {
      "inputs": [
        {
          "internalType": "bytes32",
          "name": "role",
          "type": "bytes32"
        },
        {
          "internalType": "address",
          "name": "account",
          "type": "address"
        }
      ],
      "name": "hasRole",
      "outputs": [
        {
          "internalType": "bool",
          "name": "",
          "type": "bool"
        }
      ],
      "stateMutability": "view",
      "type": "function"
    },
    {
      "inputs": [],
      "name": "initialize",
      "outputs": [],
      "stateMutability": "nonpayable",
      "type": "function"
    },
    {
      "inputs": [
        {
          "internalType": "address",
          "name": "",
          "type": "address"
        }
      ],
      "name": "playerList",
      "outputs": [
        {
          "internalType": "address",
          "name": "playerAddress",
          "type": "address"
        },
        {
          "internalType": "uint256",
          "name": "playedGames",
          "type": "uint256"
        }
      ],
      "stateMutability": "view",
      "type": "function"
    },
    {
      "inputs": [],
      "name": "queryId",
      "outputs": [
        {
          "internalType": "bytes32",
          "name": "",
          "type": "bytes32"
        }
      ],
      "stateMutability": "view",
      "type": "function"
    },
    {
      "inputs": [
        {
          "internalType": "bytes32",
          "name": "role",
          "type": "bytes32"
        },
        {
          "internalType": "address",
          "name": "account",
          "type": "address"
        }
      ],
      "name": "renounceRole",
      "outputs": [],
      "stateMutability": "nonpayable",
      "type": "function"
    },
    {
      "inputs": [],
      "name": "returnBetWithProfit",
      "outputs": [],
      "stateMutability": "nonpayable",
      "type": "function"
    },
    {
      "inputs": [
        {
          "internalType": "bytes32",
          "name": "role",
          "type": "bytes32"
        },
        {
          "internalType": "address",
          "name": "account",
          "type": "address"
        }
      ],
      "name": "revokeRole",
      "outputs": [],
      "stateMutability": "nonpayable",
      "type": "function"
    },
    {
      "inputs": [],
      "name": "showBalance",
      "outputs": [
        {
          "internalType": "uint256",
          "name": "",
          "type": "uint256"
        }
      ],
      "stateMutability": "view",
      "type": "function"
    },
    {
      "inputs": [],
      "name": "initialize2",
      "outputs": [],
      "stateMutability": "payable",
      "type": "function"
    },
    {
      "inputs": [
        {
          "internalType": "bytes32",
          "name": "_myid",
          "type": "bytes32"
        },
        {
          "internalType": "string",
          "name": "_result",
          "type": "string"
        }
      ],
      "name": "__callback",
      "outputs": [],
      "stateMutability": "nonpayable",
      "type": "function"
    },
    {
      "inputs": [
        {
          "internalType": "bytes32",
          "name": "_queryId",
          "type": "bytes32"
        },
        {
          "internalType": "string",
          "name": "_result",
          "type": "string"
        },
        {
          "internalType": "bytes",
          "name": "_proof",
          "type": "bytes"
        }
      ],
      "name": "__callback",
      "outputs": [],
      "stateMutability": "nonpayable",
      "type": "function"
    },
    {
      "inputs": [
        {
          "internalType": "uint8",
          "name": "nrBytes",
          "type": "uint8"
        }
      ],
      "name": "getRandom",
      "outputs": [],
      "stateMutability": "payable",
      "type": "function"
    },
    {
      "inputs": [],
      "name": "rollDice",
      "outputs": [],
      "stateMutability": "payable",
      "type": "function"
    },
    {
      "inputs": [],
      "name": "getDiceResultOfDealer",
      "outputs": [
        {
          "internalType": "uint256",
          "name": "",
          "type": "uint256"
        }
      ],
      "stateMutability": "view",
      "type": "function"
    },
    {
      "inputs": [],
      "name": "getDiceResultOfUser",
      "outputs": [
        {
          "internalType": "uint256",
          "name": "",
          "type": "uint256"
        }
      ],
      "stateMutability": "view",
      "type": "function"
    },
    {
      "inputs": [],
      "name": "payOut",
      "outputs": [],
      "stateMutability": "nonpayable",
      "type": "function"
    }
  ],
  "bytecode": "0x608060405234801561001057600080fd5b50614b85806100206000396000f3fe60806040526004361061014b5760003560e01c806381b2d07b116100b6578063c20524031161006f578063c20524031461073c578063ca15c87314610753578063cdaba786146107a2578063d547741f146107dd578063f637d88014610838578063f98be1e0146108635761014b565b806381b2d07b146105e5578063837e7cc6146106105780639010d07c1461061a57806391d1485414610689578063a217fddf146106fa578063a994dd94146107255761014b565b80633f1be4d4116101085780633f1be4d414610512578063472abf681461053d578063485e7475146105475780635e5bad7c146105725780637e4a6a5e1461059d5780638129fc1c146105ce5761014b565b806307d8b05d14610150578063248a9ca3146101d257806327dc297e146102215780632f2ff15d146102f357806336568abe1461034e57806338bbfa50146103a9575b600080fd5b34801561015c57600080fd5b5061019f6004803603602081101561017357600080fd5b81019080803573ffffffffffffffffffffffffffffffffffffffff16906020019092919050505061089e565b604051808373ffffffffffffffffffffffffffffffffffffffff1681526020018281526020019250505060405180910390f35b3480156101de57600080fd5b5061020b600480360360208110156101f557600080fd5b81019080803590602001909291905050506108e2565b6040518082815260200191505060405180910390f35b34801561022d57600080fd5b506102f16004803603604081101561024457600080fd5b81019080803590602001909291908035906020019064010000000081111561026b57600080fd5b82018360208201111561027d57600080fd5b8035906020019184600183028401116401000000008311171561029f57600080fd5b91908080601f016020809104026020016040519081016040528093929190818152602001838380828437600081840152601f19601f820116905080830192505050505050509192919290505050610902565b005b3480156102ff57600080fd5b5061034c6004803603604081101561031657600080fd5b8101908080359060200190929190803573ffffffffffffffffffffffffffffffffffffffff16906020019092919050505061095c565b005b34801561035a57600080fd5b506103a76004803603604081101561037157600080fd5b8101908080359060200190929190803573ffffffffffffffffffffffffffffffffffffffff1690602001909291905050506109e6565b005b3480156103b557600080fd5b50610510600480360360608110156103cc57600080fd5b8101908080359060200190929190803590602001906401000000008111156103f357600080fd5b82018360208201111561040557600080fd5b8035906020019184600183028401116401000000008311171561042757600080fd5b91908080601f016020809104026020016040519081016040528093929190818152602001838380828437600081840152601f19601f8201169050808301925050505050505091929192908035906020019064010000000081111561048a57600080fd5b82018360208201111561049c57600080fd5b803590602001918460018302840111640100000000831117156104be57600080fd5b91908080601f016020809104026020016040519081016040528093929190818152602001838380828437600081840152601f19601f820116905080830192505050505050509192919290505050610a7f565b005b34801561051e57600080fd5b50610527610bd7565b6040518082815260200191505060405180910390f35b610545610bdd565b005b34801561055357600080fd5b5061055c610ced565b6040518082815260200191505060405180910390f35b34801561057e57600080fd5b50610587610cf7565b6040518082815260200191505060405180910390f35b6105cc600480360360208110156105b357600080fd5b81019080803560ff169060200190929190505050610cfd565b005b3480156105da57600080fd5b506105e3610d18565b005b3480156105f157600080fd5b506105fa610e64565b6040518082815260200191505060405180910390f35b610618610e6e565b005b34801561062657600080fd5b5061065d6004803603604081101561063d57600080fd5b810190808035906020019092919080359060200190929190505050610e8b565b604051808273ffffffffffffffffffffffffffffffffffffffff16815260200191505060405180910390f35b34801561069557600080fd5b506106e2600480360360408110156106ac57600080fd5b8101908080359060200190929190803573ffffffffffffffffffffffffffffffffffffffff169060200190929190505050610ebd565b60405180821515815260200191505060405180910390f35b34801561070657600080fd5b5061070f610eef565b6040518082815260200191505060405180910390f35b34801561073157600080fd5b5061073a610ef6565b005b34801561074857600080fd5b50610751610f0d565b005b34801561075f57600080fd5b5061078c6004803603602081101561077657600080fd5b8101908080359060200190929190505050610faf565b6040518082815260200191505060405180910390f35b3480156107ae57600080fd5b506107db600480360360208110156107c557600080fd5b8101908080359060200190929190505050610fd6565b005b3480156107e957600080fd5b506108366004803603604081101561080057600080fd5b8101908080359060200190929190803573ffffffffffffffffffffffffffffffffffffffff169060200190929190505050611126565b005b34801561084457600080fd5b5061084d6111b0565b6040518082815260200191505060405180910390f35b34801561086f57600080fd5b5061089c6004803603602081101561088657600080fd5b81019080803590602001909291905050506111ba565b005b603d6020528060005260406000206000915090508060000160009054906101000a900473ffffffffffffffffffffffffffffffffffffffff16908060010154905082565b600060386000838152602001908152602001600020600201549050919050565b6109588282600067ffffffffffffffff8111801561091f57600080fd5b506040519080825280601f01601f1916602001820160405280156109525781602001600182028036833780820191505090505b50610a7f565b5050565b610983603860008481526020019081526020016000206002015461097e6111e2565b610ebd565b6109d8576040517f08c379a000000000000000000000000000000000000000000000000000000000815260040180806020018281038252602f815260200180614a54602f913960400191505060405180910390fd5b6109e282826111ea565b5050565b6109ee6111e2565b73ffffffffffffffffffffffffffffffffffffffff168173ffffffffffffffffffffffffffffffffffffffff1614610a71576040517f08c379a000000000000000000000000000000000000000000000000000000000815260040180806020018281038252602f815260200180614b21602f913960400191505060405180910390fd5b610a7b828261127e565b5050565b610a87611312565b73ffffffffffffffffffffffffffffffffffffffff163373ffffffffffffffffffffffffffffffffffffffff1614610abe57600080fd5b6000610acb84848461162f565b60ff161415610b645760016005836040516020018082805190602001908083835b60208310610b0f5780518252602082019150602081019050602083039250610aec565b6001836020036101000a0380198251168184511680821785525050505050509050019150506040516020818303038152906040528051906020012060001c81610b5457fe5b060160ff16603f81905550610bd2565b6040517f08c379a000000000000000000000000000000000000000000000000000000000815260040180806020018281038252600d8152602001807f6572726f72206d6573736167650000000000000000000000000000000000000081525060200191505060405180910390fd5b505050565b60405481565b600560019054906101000a900460ff1680610bfc5750610bfb61175f565b5b80610c145750600560009054906101000a900460ff16155b610c69576040517f08c379a000000000000000000000000000000000000000000000000000000000815260040180806020018281038252602e815260200180614ab3602e913960400191505060405180910390fd5b6000600560019054906101000a900460ff161590508015610cbb576001600560016101000a81548160ff0219169083151502179055506001600560006101000a81548160ff0219169083151502179055505b610cc8603060f81b611776565b8015610cea576000600560016101000a81548160ff0219169083151502179055505b50565b6000603e54905090565b60395481565b610d0f60008260ff1662030d40611a9a565b60408190555050565b600560019054906101000a900460ff1680610d375750610d3661175f565b5b80610d4f5750600560009054906101000a900460ff16155b610da4576040517f08c379a000000000000000000000000000000000000000000000000000000000815260040180806020018281038252602e815260200180614ab3602e913960400191505060405180910390fd5b6000600560019054906101000a900460ff161590508015610df6576001600560016101000a81548160ff0219169083151502179055506001600560006101000a81548160ff0219169083151502179055505b602860398190555033603c60006101000a81548173ffffffffffffffffffffffffffffffffffffffff021916908373ffffffffffffffffffffffffffffffffffffffff1602179055508015610e61576000600560016101000a81548160ff0219169083151502179055505b50565b6000603954905090565b610e766120bf565b60ff16603e81905550610e896001610cfd565b565b6000610eb5826038600086815260200190815260200160002060000161212690919063ffffffff16565b905092915050565b6000610ee7826038600086815260200190815260200160002060000161214090919063ffffffff16565b905092915050565b6000801b81565b6002603a5402603960008282540392505081905550565b603f54603e541015610fa557610f21610ef6565b7f1346ef089488831ddd390d36e94e4a0341136af2f1357d621b103c39c4523e73603c60009054906101000a900473ffffffffffffffffffffffffffffffffffffffff16603a54603954604051808473ffffffffffffffffffffffffffffffffffffffff168152602001838152602001828152602001935050505060405180910390a15b610fad612170565b565b6000610fcf6038600084815260200190815260200160002060000161218a565b9050919050565b603c60009054906101000a900473ffffffffffffffffffffffffffffffffffffffff1673ffffffffffffffffffffffffffffffffffffffff163373ffffffffffffffffffffffffffffffffffffffff161461103057600080fd5b6110398161219f565b61104257600080fd5b806039600082825401925050819055506001603b6000828254019250508190555060405180604001604052803373ffffffffffffffffffffffffffffffffffffffff168152602001603b54815250603d60003373ffffffffffffffffffffffffffffffffffffffff1673ffffffffffffffffffffffffffffffffffffffff16815260200190815260200160002060008201518160000160006101000a81548173ffffffffffffffffffffffffffffffffffffffff021916908373ffffffffffffffffffffffffffffffffffffffff1602179055506020820151816001015590505050565b61114d60386000848152602001908152602001600020600201546111486111e2565b610ebd565b6111a2576040517f08c379a0000000000000000000000000000000000000000000000000000000008152600401808060200182810382526030815260200180614a836030913960400191505060405180910390fd5b6111ac828261127e565b5050565b6000603f54905090565b6111c38161219f565b6111cc57600080fd5b6002810260396000828254019250508190555050565b600033905090565b61121281603860008581526020019081526020016000206000016121ae90919063ffffffff16565b1561127a5761121f6111e2565b73ffffffffffffffffffffffffffffffffffffffff168173ffffffffffffffffffffffffffffffffffffffff16837f2f8788117e7eff1d82e926ec794901d17c78024a50270940304540a733656f0d60405160405180910390a45b5050565b6112a681603860008581526020019081526020016000206000016121de90919063ffffffff16565b1561130e576112b36111e2565b73ffffffffffffffffffffffffffffffffffffffff168173ffffffffffffffffffffffffffffffffffffffff16837ff6391f5c32d9c69d2a47ea670b442974b53935d1edc7fd64eb21e047a839171b60405160405180910390a45b5050565b60008073ffffffffffffffffffffffffffffffffffffffff16600160009054906101000a900473ffffffffffffffffffffffffffffffffffffffff1673ffffffffffffffffffffffffffffffffffffffff16148061139a57506000611398600160009054906101000a900473ffffffffffffffffffffffffffffffffffffffff1661220e565b145b156113ab576113a96000612219565b505b600160009054906101000a900473ffffffffffffffffffffffffffffffffffffffff1673ffffffffffffffffffffffffffffffffffffffff166338cc48316040518163ffffffff1660e01b8152600401602060405180830381600087803b15801561141557600080fd5b505af1158015611429573d6000803e3d6000fd5b505050506040513d602081101561143f57600080fd5b810190808051906020019092919050505073ffffffffffffffffffffffffffffffffffffffff1660008054906101000a900473ffffffffffffffffffffffffffffffffffffffff1673ffffffffffffffffffffffffffffffffffffffff161461158757600160009054906101000a900473ffffffffffffffffffffffffffffffffffffffff1673ffffffffffffffffffffffffffffffffffffffff166338cc48316040518163ffffffff1660e01b8152600401602060405180830381600087803b15801561150c57600080fd5b505af1158015611520573d6000803e3d6000fd5b505050506040513d602081101561153657600080fd5b81019080805190602001909291905050506000806101000a81548173ffffffffffffffffffffffffffffffffffffffff021916908373ffffffffffffffffffffffffffffffffffffffff1602179055505b60008054906101000a900473ffffffffffffffffffffffffffffffffffffffff1673ffffffffffffffffffffffffffffffffffffffff1663c281d19e6040518163ffffffff1660e01b8152600401602060405180830381600087803b1580156115ef57600080fd5b505af1158015611603573d6000803e3d6000fd5b505050506040513d602081101561161957600080fd5b8101908080519060200190929190505050905090565b60007f4c000000000000000000000000000000000000000000000000000000000000008260008151811061165f57fe5b602001015160f81c60f81b7effffffffffffffffffffffffffffffffffffffffffffffffffffffffffffff19161415806116f257507f5000000000000000000000000000000000000000000000000000000000000000826001815181106116c257fe5b602001015160f81c60f81b7effffffffffffffffffffffffffffffffffffffffffffffffffffffffffffff191614155b8061171e5750600160ff168260028151811061170a57fe5b602001015160f81c60f81b60f81c60ff1614155b1561172c5760019050611758565b600061174183868661173c61222a565b6122cc565b905080611752576002915050611758565b60009150505b9392505050565b6000803090506000813b9050600081149250505090565b600073ffffffffffffffffffffffffffffffffffffffff16600160009054906101000a900473ffffffffffffffffffffffffffffffffffffffff1673ffffffffffffffffffffffffffffffffffffffff1614806117fd575060006117fb600160009054906101000a900473ffffffffffffffffffffffffffffffffffffffff1661220e565b145b1561180e5761180c6000612219565b505b600160009054906101000a900473ffffffffffffffffffffffffffffffffffffffff1673ffffffffffffffffffffffffffffffffffffffff166338cc48316040518163ffffffff1660e01b8152600401602060405180830381600087803b15801561187857600080fd5b505af115801561188c573d6000803e3d6000fd5b505050506040513d60208110156118a257600080fd5b810190808051906020019092919050505073ffffffffffffffffffffffffffffffffffffffff1660008054906101000a900473ffffffffffffffffffffffffffffffffffffffff1673ffffffffffffffffffffffffffffffffffffffff16146119ea57600160009054906101000a900473ffffffffffffffffffffffffffffffffffffffff1673ffffffffffffffffffffffffffffffffffffffff166338cc48316040518163ffffffff1660e01b8152600401602060405180830381600087803b15801561196f57600080fd5b505af1158015611983573d6000803e3d6000fd5b505050506040513d602081101561199957600080fd5b81019080805190602001909291905050506000806101000a81548173ffffffffffffffffffffffffffffffffffffffff021916908373ffffffffffffffffffffffffffffffffffffffff1602179055505b60008054906101000a900473ffffffffffffffffffffffffffffffffffffffff1673ffffffffffffffffffffffffffffffffffffffff1663688dcfd7826040518263ffffffff1660e01b815260040180827effffffffffffffffffffffffffffffffffffffffffffffffffffffffffffff19168152602001915050600060405180830381600087803b158015611a7f57600080fd5b505af1158015611a93573d6000803e3d6000fd5b5050505050565b60008083118015611aac575060208311155b611ab557600080fd5b600a840293506060600167ffffffffffffffff81118015611ad557600080fd5b506040519080825280601f01601f191660200182016040528015611b085781602001600182028036833780820191505090505b5090508360f81b81600081518110611b1c57fe5b60200101907effffffffffffffffffffffffffffffffffffffffffffffffffffffffffffff1916908160001a9053506060602067ffffffffffffffff81118015611b6557600080fd5b506040519080825280601f01601f191660200182016040528015611b985781602001600182028036833780820191505090505b5090506060602067ffffffffffffffff81118015611bb557600080fd5b506040519080825280601f01601f191660200182016040528015611be85781602001600182028036833780820191505090505b5090506000611bf56129eb565b9050602083524241186001430340186020840152602082528060208301526060602067ffffffffffffffff81118015611c2d57600080fd5b506040519080825280601f01601f191660200182016040528015611c605781602001600182028036833780820191505090505b5090508860208201526060600867ffffffffffffffff81118015611c8357600080fd5b506040519080825280601f01601f191660200182016040528015611cb65781602001600182028036833780820191505090505b509050611cc98260186008846000612d06565b50611cd2614953565b60405180608001604052808781526020018881526020018681526020018481525090506000611d376040518060400160405280600681526020017f72616e646f6d0000000000000000000000000000000000000000000000000000815250838c612d65565b90506060600867ffffffffffffffff81118015611d5357600080fd5b506040519080825280601f01601f191660200182016040528015611d865781602001600182028036833780820191505090505b50905060208401517f0100000000000000000000000000000000000000000000000000000000000000810460278301537e01000000000000000000000000000000000000000000000000000000000000810460268301537d010000000000000000000000000000000000000000000000000000000000810460258301537c0100000000000000000000000000000000000000000000000000000000810460248301537b01000000000000000000000000000000000000000000000000000000810460238301537a0100000000000000000000000000000000000000000000000000008104602283015379010000000000000000000000000000000000000000000000000081046021830153780100000000000000000000000000000000000000000000000081046020830153506120ac828285600160048110611ec557fe5b6020020151600287600060048110611ed957fe5b60200201516040518082805190602001908083835b60208310611f115780518252602082019150602081019050602083039250611eee565b6001836020036101000a038019825116818451168082178552505050505050905001915050602060405180830381855afa158015611f53573d6000803e3d6000fd5b5050506040513d6020811015611f6857600080fd5b810190808051906020019092919050505087600260048110611f8657fe5b60200201516040516020018085805190602001908083835b60208310611fc15780518252602082019150602081019050602083039250611f9e565b6001836020036101000a03801982511681845116808217855250505050505090500184805190602001908083835b602083106120125780518252602082019150602081019050602083039250611fef565b6001836020036101000a03801982511681845116808217855250505050505090500183815260200182805190602001908083835b602083106120695780518252602082019150602081019050602083039250612046565b6001836020036101000a038019825116818451168082178552505050505050905001945050505050604051602081830303815290604052805190602001206130e8565b8199505050505050505050509392505050565b600060016006424144604051602001808481526020018373ffffffffffffffffffffffffffffffffffffffff1660601b815260140182815260200193505050506040516020818303038152906040528051906020012060001c8161211f57fe5b0601905090565b60006121358360000183613104565b60001c905092915050565b6000612168836000018373ffffffffffffffffffffffffffffffffffffffff1660001b613187565b905092915050565b6000603e819055506000603f819055506000603a81905550565b6000612198826000016131aa565b9050919050565b60008160395410159050919050565b60006121d6836000018373ffffffffffffffffffffffffffffffffffffffff1660001b6131bb565b905092915050565b6000612206836000018373ffffffffffffffffffffffffffffffffffffffff1660001b61322b565b905092915050565b6000813b9050919050565b6000612223613313565b9050919050565b606060028054600181600116156101000203166002900480601f0160208091040260200160405190810160405280929190818152602001828054600181600116156101000203166002900480156122c25780601f10612297576101008083540402835291602001916122c2565b820191906000526020600020905b8154815290600101906020018083116122a557829003601f168201915b5050505050905090565b60008060206002876045815181106122e057fe5b602001015160f81c60f81b60f81c60ff16016044010190506060602067ffffffffffffffff8111801561231257600080fd5b506040519080825280601f01601f1916602001820160405280156123455781602001600182028036833780820191505090505b50905061235787836020846000612d06565b50600284876040516020018083805190602001908083835b60208310612392578051825260208201915060208101905060208303925061236f565b6001836020036101000a038019825116818451168082178552505050505050905001828152602001925050506040516020818303038152906040526040518082805190602001908083835b6020831061240057805182526020820191506020810190506020830392506123dd565b6001836020036101000a038019825116818451168082178552505050505050905001915050602060405180830381855afa158015612442573d6000803e3d6000fd5b5050506040513d602081101561245757600080fd5b810190808051906020019092919050505060405160200180828152602001915050604051602081830303815290604052805190602001208180519060200120146124a6576000925050506129e3565b606060028860016049860101815181106124bc57fe5b602001015160f81c60f81b60f81c60ff160167ffffffffffffffff811180156124e457600080fd5b506040519080825280601f01601f1916602001820160405280156125175781602001600182028036833780820191505090505b50905061252c88604985018351846000612d06565b506125f76002826040518082805190602001908083835b602083106125665780518252602082019150602081019050602083039250612543565b6001836020036101000a038019825116818451168082178552505050505050905001915050602060405180830381855afa1580156125a8573d6000803e3d6000fd5b5050506040513d60208110156125bd57600080fd5b8101908080519060200190929190505050878a60086020880101815181106125e157fe5b602001015160f81c60f81b60f81c60ff1661386a565b61260757600093505050506129e3565b6060602967ffffffffffffffff8111801561262157600080fd5b506040519080825280601f01601f1916602001820160405280156126545781602001600182028036833780820191505090505b50905061266989602086016029846000612d06565b506060604067ffffffffffffffff8111801561268457600080fd5b506040519080825280601f01601f1916602001820160405280156126b75781602001600182028036833780820191505090505b50905060006041845160296020890101010190506126dd8b604083036040856000612d06565b5060006002836040518082805190602001908083835b6020831061271657805182526020820191506020810190506020830392506126f3565b6001836020036101000a038019825116818451168082178552505050505050905001915050602060405180830381855afa158015612758573d6000803e3d6000fd5b5050506040513d602081101561276d57600080fd5b8101908080519060200190929190505050905083816040516020018083805190602001908083835b602083106127b85780518252602082019150602081019050602083039250612795565b6001836020036101000a0380198251168184511680821785525050505050509050018281526020019250505060405160208183030381529060405280519060200120600360008d815260200190815260200160002054141561283057600360008c815260200190815260200160002060009055612840565b60009750505050505050506129e3565b6060604967ffffffffffffffff8111801561285a57600080fd5b506040519080825280601f01601f19166020018201604052801561288d5781602001600182028036833780820191505090505b50905061289f8d896049846000612d06565b506129486002826040518082805190602001908083835b602083106128d957805182526020820191506020810190506020830392506128b6565b6001836020036101000a038019825116818451168082178552505050505050905001915050602060405180830381855afa15801561291b573d6000803e3d6000fd5b5050506040513d602081101561293057600080fd5b81019080805190602001909291905050508786613917565b61295d576000985050505050505050506129e3565b6004600083815260200190815260200160002060009054906101000a900460ff166129b75761298c8d84613b03565b6004600084815260200190815260200160002060006101000a81548160ff0219169083151502179055505b6004600083815260200190815260200160002060009054906101000a900460ff16985050505050505050505b949350505050565b60008073ffffffffffffffffffffffffffffffffffffffff16600160009054906101000a900473ffffffffffffffffffffffffffffffffffffffff1673ffffffffffffffffffffffffffffffffffffffff161480612a7357506000612a71600160009054906101000a900473ffffffffffffffffffffffffffffffffffffffff1661220e565b145b15612a8457612a826000612219565b505b600160009054906101000a900473ffffffffffffffffffffffffffffffffffffffff1673ffffffffffffffffffffffffffffffffffffffff166338cc48316040518163ffffffff1660e01b8152600401602060405180830381600087803b158015612aee57600080fd5b505af1158015612b02573d6000803e3d6000fd5b505050506040513d6020811015612b1857600080fd5b810190808051906020019092919050505073ffffffffffffffffffffffffffffffffffffffff1660008054906101000a900473ffffffffffffffffffffffffffffffffffffffff1673ffffffffffffffffffffffffffffffffffffffff1614612c6057600160009054906101000a900473ffffffffffffffffffffffffffffffffffffffff1673ffffffffffffffffffffffffffffffffffffffff166338cc48316040518163ffffffff1660e01b8152600401602060405180830381600087803b158015612be557600080fd5b505af1158015612bf9573d6000803e3d6000fd5b505050506040513d6020811015612c0f57600080fd5b81019080805190602001909291905050506000806101000a81548173ffffffffffffffffffffffffffffffffffffffff021916908373ffffffffffffffffffffffffffffffffffffffff1602179055505b60008054906101000a900473ffffffffffffffffffffffffffffffffffffffff1673ffffffffffffffffffffffffffffffffffffffff1663abaa5f3e6040518163ffffffff1660e01b815260040160206040518083038186803b158015612cc657600080fd5b505afa158015612cda573d6000803e3d6000fd5b505050506040513d6020811015612cf057600080fd5b8101908080519060200190929190505050905090565b6060600082850190508084511015612d1d57600080fd5b600086602001905060008460200190505b868860200101821015612d565781890151808288015250602082019150602081019050612d2e565b85935050505095945050505050565b60008073ffffffffffffffffffffffffffffffffffffffff16600160009054906101000a900473ffffffffffffffffffffffffffffffffffffffff1673ffffffffffffffffffffffffffffffffffffffff161480612ded57506000612deb600160009054906101000a900473ffffffffffffffffffffffffffffffffffffffff1661220e565b145b15612dfe57612dfc6000612219565b505b600160009054906101000a900473ffffffffffffffffffffffffffffffffffffffff1673ffffffffffffffffffffffffffffffffffffffff166338cc48316040518163ffffffff1660e01b8152600401602060405180830381600087803b158015612e6857600080fd5b505af1158015612e7c573d6000803e3d6000fd5b505050506040513d6020811015612e9257600080fd5b810190808051906020019092919050505073ffffffffffffffffffffffffffffffffffffffff1660008054906101000a900473ffffffffffffffffffffffffffffffffffffffff1673ffffffffffffffffffffffffffffffffffffffff1614612fda57600160009054906101000a900473ffffffffffffffffffffffffffffffffffffffff1673ffffffffffffffffffffffffffffffffffffffff166338cc48316040518163ffffffff1660e01b8152600401602060405180830381600087803b158015612f5f57600080fd5b505af1158015612f73573d6000803e3d6000fd5b505050506040513d6020811015612f8957600080fd5b81019080805190602001909291905050506000806101000a81548173ffffffffffffffffffffffffffffffffffffffff021916908373ffffffffffffffffffffffffffffffffffffffff1602179055505b6060600467ffffffffffffffff81118015612ff457600080fd5b5060405190808252806020026020018201604052801561302857816020015b60608152602001906001900390816130135790505b5090508360006004811061303857fe5b60200201518160008151811061304a57fe5b60200260200101819052508360016004811061306257fe5b60200201518160018151811061307457fe5b60200260200101819052508360026004811061308c57fe5b60200201518160028151811061309e57fe5b6020026020010181905250836003600481106130b657fe5b6020020151816003815181106130c857fe5b60200260200101819052506130de858285613f8f565b9150509392505050565b8060036000848152602001908152602001600020819055505050565b600081836000018054905011613165576040517f08c379a0000000000000000000000000000000000000000000000000000000008152600401808060200182810382526022815260200180614a326022913960400191505060405180910390fd5b82600001828154811061317457fe5b9060005260206000200154905092915050565b600080836001016000848152602001908152602001600020541415905092915050565b600081600001805490509050919050565b60006131c78383613187565b613220578260000182908060018154018082558091505060019003906000526020600020016000909190919091505582600001805490508360010160008481526020019081526020016000208190555060019050613225565b600090505b92915050565b60008083600101600084815260200190815260200160002054905060008114613307576000600182039050600060018660000180549050039050600086600001828154811061327657fe5b906000526020600020015490508087600001848154811061329357fe5b90600052602060002001819055506001830187600101600083815260200190815260200160002081905550866000018054806132cb57fe5b6001900381819060005260206000200160009055905586600101600087815260200190815260200160002060009055600194505050505061330d565b60009150505b92915050565b600080613333731d3b2638a7cc9f2cb3d298a3da7a90b67e5506ed61220e565b11156133d557731d3b2638a7cc9f2cb3d298a3da7a90b67e5506ed600160006101000a81548173ffffffffffffffffffffffffffffffffffffffff021916908373ffffffffffffffffffffffffffffffffffffffff1602179055506133cc6040518060400160405280600b81526020017f6574685f6d61696e6e65740000000000000000000000000000000000000000008152506144ef565b60019050613867565b60006133f473c03a2615d5efaf5f49f60b7bb6583eaec212fdf161220e565b11156134965773c03a2615d5efaf5f49f60b7bb6583eaec212fdf1600160006101000a81548173ffffffffffffffffffffffffffffffffffffffff021916908373ffffffffffffffffffffffffffffffffffffffff16021790555061348d6040518060400160405280600c81526020017f6574685f726f707374656e3300000000000000000000000000000000000000008152506144ef565b60019050613867565b60006134b573b7a07bcf2ba2f2703b24c0691b5278999c59ac7e61220e565b11156135575773b7a07bcf2ba2f2703b24c0691b5278999c59ac7e600160006101000a81548173ffffffffffffffffffffffffffffffffffffffff021916908373ffffffffffffffffffffffffffffffffffffffff16021790555061354e6040518060400160405280600981526020017f6574685f6b6f76616e00000000000000000000000000000000000000000000008152506144ef565b60019050613867565b600061357673146500cfd35b22e4a392fe0adc06de1a1368ed4861220e565b11156136185773146500cfd35b22e4a392fe0adc06de1a1368ed48600160006101000a81548173ffffffffffffffffffffffffffffffffffffffff021916908373ffffffffffffffffffffffffffffffffffffffff16021790555061360f6040518060400160405280600b81526020017f6574685f72696e6b6562790000000000000000000000000000000000000000008152506144ef565b60019050613867565b600061363773a2998efd205fb9d4b4963afb70778d6354ad3a4161220e565b11156136d95773a2998efd205fb9d4b4963afb70778d6354ad3a41600160006101000a81548173ffffffffffffffffffffffffffffffffffffffff021916908373ffffffffffffffffffffffffffffffffffffffff1602179055506136d06040518060400160405280600a81526020017f6574685f676f65726c69000000000000000000000000000000000000000000008152506144ef565b60019050613867565b60006136f8736f485c8bf6fc43ea212e93bbf8ce046c7f1cb47561220e565b111561375c57736f485c8bf6fc43ea212e93bbf8ce046c7f1cb475600160006101000a81548173ffffffffffffffffffffffffffffffffffffffff021916908373ffffffffffffffffffffffffffffffffffffffff16021790555060019050613867565b600061377b7320e12a1f859b3feae5fb2a0a32c18f5a65555bbf61220e565b11156137df577320e12a1f859b3feae5fb2a0a32c18f5a65555bbf600160006101000a81548173ffffffffffffffffffffffffffffffffffffffff021916908373ffffffffffffffffffffffffffffffffffffffff16021790555060019050613867565b60006137fe7351efaf4c8b3c9afbd5ab9f4bbc82784ab6ef8faa61220e565b1115613862577351efaf4c8b3c9afbd5ab9f4bbc82784ab6ef8faa600160006101000a81548173ffffffffffffffffffffffffffffffffffffffff021916908373ffffffffffffffffffffffffffffffffffffffff16021790555060019050613867565b600090505b90565b600080600190508284511461387e57600080fd5b60005b8381101561390b5784818151811061389557fe5b602001015160f81c60f81b7effffffffffffffffffffffffffffffffffffffffffffffffffffffffffffff19168682602081106138ce57fe5b1a60f81b7effffffffffffffffffffffffffffffffffffffffffffffffffffffffffffff1916146138fe57600091505b8080600101915050613881565b50809150509392505050565b60008060008060006060602067ffffffffffffffff8111801561393957600080fd5b506040519080825280601f01601f19166020018201604052801561396c5781602001600182028036833780820191505090505b509050600060208960038151811061398057fe5b602001015160f81c60f81b60f81c60ff160360040190506139a689826020856000612d06565b91506060602067ffffffffffffffff811180156139c257600080fd5b506040519080825280601f01601f1916602001820160405280156139f55781602001600182028036833780820191505090505b509050602282019150613a318a60208c6001860381518110613a1357fe5b602001015160f81c60f81b60f81c60ff160384016020846000612d06565b90506020830151945060208101519350613a4e8b601b8787614509565b80975081985050508573ffffffffffffffffffffffffffffffffffffffff16898051906020012060001c73ffffffffffffffffffffffffffffffffffffffff161415613aa4576001975050505050505050613afc565b613ab18b601c8787614509565b80975081985050508573ffffffffffffffffffffffffffffffffffffffff16898051906020012060001c73ffffffffffffffffffffffffffffffffffffffff16149750505050505050505b9392505050565b60008060606002856001860181518110613b1957fe5b602001015160f81c60f81b60f81c60ff160167ffffffffffffffff81118015613b4157600080fd5b506040519080825280601f01601f191660200182016040528015613b745781602001600182028036833780820191505090505b509050613b8685858351846000612d06565b506060604067ffffffffffffffff81118015613ba157600080fd5b506040519080825280601f01601f191660200182016040528015613bd45781602001600182028036833780820191505090505b509050613be78660046040846000612d06565b506060606267ffffffffffffffff81118015613c0257600080fd5b506040519080825280601f01601f191660200182016040528015613c355781602001600182028036833780820191505090505b509050600160f81b81600081518110613c4a57fe5b60200101907effffffffffffffffffffffffffffffffffffffffffffffffffffffffffffff1916908160001a905350613c8b87604188036041846001612d06565b5060606040518060400160405280602081526020017ffd94fa71bc0ba10d39d464d0d8f465efeef0a2764e3887fcc9df41ded20f505c8152509050613cd68160006020856042612d06565b50613d7f6002836040518082805190602001908083835b60208310613d105780518252602082019150602081019050602083039250613ced565b6001836020036101000a038019825116818451168082178552505050505050905001915050602060405180830381855afa158015613d52573d6000803e3d6000fd5b5050506040513d6020811015613d6757600080fd5b81019080805190602001909291905050508585613917565b945084613d9457600095505050505050613f89565b6060604051806060016040528060408152602001614ae16040913990506060604267ffffffffffffffff81118015613dcb57600080fd5b506040519080825280601f01601f191660200182016040528015613dfe5781602001600182028036833780820191505090505b50905060fe60f81b81600081518110613e1357fe5b60200101907effffffffffffffffffffffffffffffffffffffffffffffffffffffffffffff1916908160001a905350613e528a60036041846001612d06565b50606060028b604581518110613e6457fe5b602001015160f81c60f81b60f81c60ff160167ffffffffffffffff81118015613e8c57600080fd5b506040519080825280601f01601f191660200182016040528015613ebf5781602001600182028036833780820191505090505b509050613ed28b60448351846000612d06565b50613f7b6002836040518082805190602001908083835b60208310613f0c5780518252602082019150602081019050602083039250613ee9565b6001836020036101000a038019825116818451168082178552505050505050905001915050602060405180830381855afa158015613f4e573d6000803e3d6000fd5b5050506040513d6020811015613f6357600080fd5b81019080805190602001909291905050508285613917565b975087985050505050505050505b92915050565b60008073ffffffffffffffffffffffffffffffffffffffff16600160009054906101000a900473ffffffffffffffffffffffffffffffffffffffff1673ffffffffffffffffffffffffffffffffffffffff16148061401757506000614015600160009054906101000a900473ffffffffffffffffffffffffffffffffffffffff1661220e565b145b15614028576140266000612219565b505b600160009054906101000a900473ffffffffffffffffffffffffffffffffffffffff1673ffffffffffffffffffffffffffffffffffffffff166338cc48316040518163ffffffff1660e01b8152600401602060405180830381600087803b15801561409257600080fd5b505af11580156140a6573d6000803e3d6000fd5b505050506040513d60208110156140bc57600080fd5b810190808051906020019092919050505073ffffffffffffffffffffffffffffffffffffffff1660008054906101000a900473ffffffffffffffffffffffffffffffffffffffff1673ffffffffffffffffffffffffffffffffffffffff161461420457600160009054906101000a900473ffffffffffffffffffffffffffffffffffffffff1673ffffffffffffffffffffffffffffffffffffffff166338cc48316040518163ffffffff1660e01b8152600401602060405180830381600087803b15801561418957600080fd5b505af115801561419d573d6000803e3d6000fd5b505050506040513d60208110156141b357600080fd5b81019080805190602001909291905050506000806101000a81548173ffffffffffffffffffffffffffffffffffffffff021916908373ffffffffffffffffffffffffffffffffffffffff1602179055505b60008060009054906101000a900473ffffffffffffffffffffffffffffffffffffffff1673ffffffffffffffffffffffffffffffffffffffff16632ef3accc86856040518363ffffffff1660e01b81526004018080602001838152602001828103825284818151815260200191508051906020019080838360005b8381101561429a57808201518184015260208101905061427f565b50505050905090810190601f1680156142c75780820380516001836020036101000a031916815260200191505b509350505050602060405180830381600087803b1580156142e757600080fd5b505af11580156142fb573d6000803e3d6000fd5b505050506040513d602081101561431157600080fd5b81019080805190602001909291905050509050823a02670de0b6b3a764000001811115614344576000801b9150506144e8565b606061434f8561454d565b905060008054906101000a900473ffffffffffffffffffffffffffffffffffffffff1673ffffffffffffffffffffffffffffffffffffffff1663c55c1cb68360008985896040518663ffffffff1660e01b8152600401808581526020018060200180602001848152602001838103835286818151815260200191508051906020019080838360005b838110156143f25780820151818401526020810190506143d7565b50505050905090810190601f16801561441f5780820380516001836020036101000a031916815260200191505b50838103825285818151815260200191508051906020019080838360005b8381101561445857808201518184015260208101905061443d565b50505050905090810190601f1680156144855780820380516001836020036101000a031916815260200191505b5096505050505050506020604051808303818588803b1580156144a757600080fd5b505af11580156144bb573d6000803e3d6000fd5b50505050506040513d60208110156144d257600080fd5b8101908080519060200190929190505050925050505b9392505050565b806002908051906020019061450592919061497a565b5050565b60008060008060405188815287602082015286604082015285606082015260208160808360006001610bb8f192508051915050818193509350505094509492505050565b60606145576145ca565b61455f6149fa565b61456b816104006145d6565b61457481614620565b60005b83518110156145b3576145a684828151811061458f57fe5b60200260200101518361462e90919063ffffffff16565b8080600101915050614577565b506145bd81614653565b8060000151915050919050565b60405180590338823950565b60008190506000602082816145e757fe5b061461460057602081816145f757fe5b06602003810190505b808360200181815250506040518084526000815281810160405250505050565b61462b816004614661565b50565b61463b8260028351614682565b61464e81836147c290919063ffffffff16565b505050565b61465e816007614661565b50565b61467e601f60058360ff16901b178361486d90919063ffffffff16565b5050565b601781116146ae576146a98160058460ff16901b60ff16178461486d90919063ffffffff16565b6147bd565b60ff81116146ef576146d3601860058460ff16901b178461486d90919063ffffffff16565b6146e9816001856148ad9092919063ffffffff16565b506147bc565b61ffff811161473157614715601960058460ff16901b178461486d90919063ffffffff16565b61472b816002856148ad9092919063ffffffff16565b506147bb565b63ffffffff811161477557614759601a60058460ff16901b178461486d90919063ffffffff16565b61476f816004856148ad9092919063ffffffff16565b506147ba565b67ffffffffffffffff81116147b9576147a1601b60058460ff16901b178461486d90919063ffffffff16565b6147b7816008856148ad9092919063ffffffff16565b505b5b5b5b5b505050565b6147ca6149fa565b826020015183600001515183510111156147fa576147f98360026147f386602001518651614914565b02614930565b5b60008060008451905085518051602081830101945086518101825260208701935050505b60208110614841578151835260208301925060208201915060208103905061481e565b60006001826020036101000a039050801983511681855116818117865250508694505050505092915050565b8160200151600183600001515101111561489357614892826002846020015102614930565b5b815180516020818301018381536001820183525050505050565b6148b56149fa565b8360200151846000015151830111156148e3576148e28460026148dc876020015186614914565b02614930565b5b60006001836101000a0390508451805184818301018684198251161781528582018352505050849150509392505050565b6000818311156149265782905061492a565b8190505b92915050565b60608260000151905061494383836145d6565b61494d83826147c2565b50505050565b60405180608001604052806004905b60608152602001906001900390816149625790505090565b828054600181600116156101000203166002900490600052602060002090601f016020900481019282601f106149bb57805160ff19168380011785556149e9565b828001600101855582156149e9579182015b828111156149e85782518255916020019190600101906149cd565b5b5090506149f69190614a14565b5090565b604051806040016040528060608152602001600081525090565b5b80821115614a2d576000816000905550600101614a15565b509056fe456e756d657261626c655365743a20696e646578206f7574206f6620626f756e6473416363657373436f6e74726f6c3a2073656e646572206d75737420626520616e2061646d696e20746f206772616e74416363657373436f6e74726f6c3a2073656e646572206d75737420626520616e2061646d696e20746f207265766f6b65436f6e747261637420696e7374616e63652068617320616c7265616479206265656e20696e697469616c697a65647fb956469c5c9b89840d55b43537e66a98dd4811ea0a27224272c2e5622911e8537a2f8e86a46baec82864e98dd01e9ccc2f8bc5dfc9cbe5a91a290498dd96e4416363657373436f6e74726f6c3a2063616e206f6e6c792072656e6f756e636520726f6c657320666f722073656c66a26469706673582212204bdd3442b0188e5b6df10b9ad39d02e5220615188a14a6cadcfb67b79c9e247f64736f6c634300060c0033",
  "immutableReferences": {},
  "source": "pragma solidity ^0.6.0;\nimport \"./provableAPI.sol\";\nimport \"@openzeppelin/upgrades-core/contracts/Initializable.sol\";\nimport \"@openzeppelin/contracts/access/AccessControl.sol\";\n\ncontract DealerV4 is usingProvable, Initializable, AccessControl {\n    uint256 public dealerBalance;\n    uint256 bet;\n    uint256 playedGames;\n    address player;\n\n    function initialize() public initializer {\n        dealerBalance = 40;\n        player = msg.sender;\n    }\n\n    event PlayerWins(address player, uint256 profit, uint256 dealerBalance);\n\n    mapping(address => PlayerData) public playerList;\n\n    struct PlayerData {\n        address playerAddress;\n        uint256 playedGames;\n    }\n\n    modifier onlyPlayer() {\n        require(msg.sender == player);\n        _;\n    }\n\n    function addBet(uint256 _bet) public onlyPlayer {\n        require(checkIfBalanceIsEnough(_bet));\n        dealerBalance += _bet;\n        playedGames += 1;\n        playerList[msg.sender] = PlayerData(msg.sender, playedGames);\n    }\n\n    function addBet2(uint256 _bet) public {\n        require(checkIfBalanceIsEnough(_bet));\n        dealerBalance += _bet * 2;\n    }\n\n    function returnBetWithProfit() public {\n        dealerBalance -= bet * 2;\n    }\n\n    function showBalance() public view returns (uint256) {\n        return dealerBalance;\n    }\n\n    function checkIfBalanceIsEnough(uint256 _bet) private view returns (bool) {\n        return dealerBalance >= _bet;\n    }\n}\n\ncontract PolarBetV4 is DealerV4 {\n    uint256 dealerDiceResult;\n    uint256 userDiceResult;\n    bytes32 public queryId;\n\n    // constructor() public {\n    //     provable_setProof(proofType_Ledger);\n    // }\n\n    function initialize2() public payable initializer {\n        provable_setProof(proofType_Ledger);\n    }\n\n    function __callback(\n        bytes32 _queryId,\n        string memory _result,\n        bytes memory _proof\n    ) public override {\n        require(msg.sender == provable_cbAddress());\n        if (\n            provable_randomDS_proofVerify__returnCode(\n                _queryId,\n                _result,\n                _proof\n            ) == 0\n        )\n            userDiceResult =\n                uint8(uint256(keccak256(abi.encodePacked(_result))) % 5) +\n                1;\n        else revert(\"error message\");\n    }\n\n    function getRandom(uint8 nrBytes) public payable {\n        // not supported in remix\n        queryId = provable_newRandomDSQuery(\n            0, // QUERY_EXECUTION_DELAY\n            nrBytes, // NUM_RANDOM_BYTES_REQUESTED\n            200000 // GAS_FOR_CALLBACK\n        );\n    }\n\n    function getRandomNumber() private view returns (uint8) {\n        return\n            uint8(\n                uint256(\n                    keccak256(\n                        abi.encodePacked(\n                            block.timestamp,\n                            block.coinbase,\n                            block.difficulty\n                        )\n                    )\n                ) % 6\n            ) + 1;\n    }\n\n    function rollDice() public payable {\n        dealerDiceResult = getRandomNumber();\n        getRandom(1);\n    }\n\n    function getDiceResultOfDealer() public view returns (uint256) {\n        return dealerDiceResult;\n    }\n\n    function getDiceResultOfUser() public view returns (uint256) {\n        return userDiceResult;\n    }\n\n    function payOut() public {\n        if (dealerDiceResult < userDiceResult) {\n            returnBetWithProfit();\n            emit PlayerWins(player, bet, dealerBalance);\n        }\n        resetBetAndDiceResults();\n    }\n\n    function resetBetAndDiceResults() private {\n        dealerDiceResult = 0;\n        userDiceResult = 0;\n        bet = 0;\n    }\n}\n",
  "sourcePath": "/Users/rowin/Documents/projects/Koios/polarbet/contracts/PolarBetV4.sol",
  "compiler": {
    "name": "solc",
    "version": "0.6.12+commit.27d51765.Emscripten.clang"
  },
  "schemaVersion": "3.3.3",
  "updatedAt": "2021-01-20T12:31:00.159Z",
  "devdoc": {
    "kind": "dev",
    "methods": {
      "__callback(bytes32,string)": {
        "details": "The following `__callback` functions are just placeholders ideally      meant to be defined in child contract when proofs are used.      The function bodies simply silence compiler warnings."
      },
      "getRoleAdmin(bytes32)": {
        "details": "Returns the admin role that controls `role`. See {grantRole} and {revokeRole}. To change a role's admin, use {_setRoleAdmin}."
      },
      "getRoleMember(bytes32,uint256)": {
        "details": "Returns one of the accounts that have `role`. `index` must be a value between 0 and {getRoleMemberCount}, non-inclusive. Role bearers are not sorted in any particular way, and their ordering may change at any point. WARNING: When using {getRoleMember} and {getRoleMemberCount}, make sure you perform all queries on the same block. See the following https://forum.openzeppelin.com/t/iterating-over-elements-on-enumerableset-in-openzeppelin-contracts/2296[forum post] for more information."
      },
      "getRoleMemberCount(bytes32)": {
        "details": "Returns the number of accounts that have `role`. Can be used together with {getRoleMember} to enumerate all bearers of a role."
      },
      "grantRole(bytes32,address)": {
        "details": "Grants `role` to `account`. If `account` had not been already granted `role`, emits a {RoleGranted} event. Requirements: - the caller must have ``role``'s admin role."
      },
      "hasRole(bytes32,address)": {
        "details": "Returns `true` if `account` has been granted `role`."
      },
      "renounceRole(bytes32,address)": {
        "details": "Revokes `role` from the calling account. Roles are often managed via {grantRole} and {revokeRole}: this function's purpose is to provide a mechanism for accounts to lose their privileges if they are compromised (such as when a trusted device is misplaced). If the calling account had been granted `role`, emits a {RoleRevoked} event. Requirements: - the caller must be `account`."
      },
      "revokeRole(bytes32,address)": {
        "details": "Revokes `role` from `account`. If `account` had been granted `role`, emits a {RoleRevoked} event. Requirements: - the caller must have ``role``'s admin role."
      }
    },
    "version": 1
  },
  "userdoc": {
    "kind": "user",
    "methods": {},
    "version": 1
  }
}