{
  "contractName": "PolarBetV4",
  "abi": [
    {
      "anonymous": false,
      "inputs": [
        {
          "indexed": false,
          "internalType": "address",
          "name": "player",
          "type": "address"
        },
        {
          "indexed": false,
          "internalType": "uint256",
          "name": "profit",
          "type": "uint256"
        },
        {
          "indexed": false,
          "internalType": "uint256",
          "name": "dealerBalance",
          "type": "uint256"
        }
      ],
      "name": "PlayerWins",
      "type": "event"
    },
    {
      "stateMutability": "payable",
      "type": "fallback",
      "payable": true
    },
    {
      "inputs": [
        {
          "internalType": "uint256",
          "name": "_bet",
          "type": "uint256"
        }
      ],
      "name": "addBet",
      "outputs": [],
      "stateMutability": "nonpayable",
      "type": "function"
    },
    {
      "inputs": [
        {
          "internalType": "uint256",
          "name": "_bet",
          "type": "uint256"
        }
      ],
      "name": "addBet2",
      "outputs": [],
      "stateMutability": "nonpayable",
      "type": "function"
    },
    {
      "inputs": [],
      "name": "dealerBalance",
      "outputs": [
        {
          "internalType": "uint256",
          "name": "",
          "type": "uint256"
        }
      ],
      "stateMutability": "view",
      "type": "function",
      "constant": true
    },
    {
      "inputs": [],
      "name": "dealerDiceResult",
      "outputs": [
        {
          "internalType": "uint256",
          "name": "",
          "type": "uint256"
        }
      ],
      "stateMutability": "view",
      "type": "function",
      "constant": true
    },
    {
      "inputs": [],
      "name": "getRandomResult",
      "outputs": [
        {
          "internalType": "bytes",
          "name": "",
          "type": "bytes"
        }
      ],
      "stateMutability": "view",
      "type": "function",
      "constant": true
    },
    {
      "inputs": [],
      "name": "initialize",
      "outputs": [],
      "stateMutability": "nonpayable",
      "type": "function"
    },
    {
      "inputs": [
        {
          "internalType": "address",
          "name": "",
          "type": "address"
        }
      ],
      "name": "playerList",
      "outputs": [
        {
          "internalType": "address",
          "name": "playerAddress",
          "type": "address"
        },
        {
          "internalType": "uint256",
          "name": "playedGames",
          "type": "uint256"
        }
      ],
      "stateMutability": "view",
      "type": "function",
      "constant": true
    },
    {
      "inputs": [],
      "name": "queryId",
      "outputs": [
        {
          "internalType": "bytes32",
          "name": "",
          "type": "bytes32"
        }
      ],
      "stateMutability": "view",
      "type": "function",
      "constant": true
    },
    {
      "inputs": [],
      "name": "returnBetWithProfit",
      "outputs": [],
      "stateMutability": "nonpayable",
      "type": "function"
    },
    {
      "inputs": [],
      "name": "showBalance",
      "outputs": [
        {
          "internalType": "uint256",
          "name": "",
          "type": "uint256"
        }
      ],
      "stateMutability": "view",
      "type": "function",
      "constant": true
    },
    {
      "inputs": [],
      "name": "userDiceResult",
      "outputs": [
        {
          "internalType": "uint256",
          "name": "",
          "type": "uint256"
        }
      ],
      "stateMutability": "view",
      "type": "function",
      "constant": true
    },
    {
      "stateMutability": "payable",
      "type": "receive",
      "payable": true
    },
    {
      "inputs": [],
      "name": "initialize2",
      "outputs": [],
      "stateMutability": "nonpayable",
      "type": "function"
    },
    {
      "inputs": [
        {
          "internalType": "bytes32",
          "name": "_myid",
          "type": "bytes32"
        },
        {
          "internalType": "string",
          "name": "_result",
          "type": "string"
        }
      ],
      "name": "__callback",
      "outputs": [],
      "stateMutability": "nonpayable",
      "type": "function"
    },
    {
      "inputs": [
        {
          "internalType": "bytes32",
          "name": "_queryId",
          "type": "bytes32"
        },
        {
          "internalType": "string",
          "name": "_result",
          "type": "string"
        },
        {
          "internalType": "bytes",
          "name": "_proof",
          "type": "bytes"
        }
      ],
      "name": "__callback",
      "outputs": [],
      "stateMutability": "nonpayable",
      "type": "function"
    },
    {
      "inputs": [
        {
          "internalType": "uint8",
          "name": "nrBytes",
          "type": "uint8"
        }
      ],
      "name": "getRandom",
      "outputs": [],
      "stateMutability": "payable",
      "type": "function",
      "payable": true
    },
    {
      "inputs": [],
      "name": "rollDice",
      "outputs": [],
      "stateMutability": "payable",
      "type": "function",
      "payable": true
    },
    {
      "inputs": [],
      "name": "getDiceResultOfDealer",
      "outputs": [
        {
          "internalType": "uint256",
          "name": "",
          "type": "uint256"
        }
      ],
      "stateMutability": "view",
      "type": "function",
      "constant": true
    },
    {
      "inputs": [],
      "name": "getDiceResultOfUser",
      "outputs": [],
      "stateMutability": "payable",
      "type": "function",
      "payable": true
    },
    {
      "inputs": [],
      "name": "payOut",
      "outputs": [],
      "stateMutability": "nonpayable",
      "type": "function"
    }
  ],
  "bytecode": "0x608060405234801561001057600080fd5b50614404806100206000396000f3fe6080604052600436106101185760003560e01c80637e4a6a5e116100a0578063c205240311610064578063c2052403146105c5578063c369b866146105dc578063cdaba78614610607578063f637d88014610642578063f98be1e01461064c5761011f565b80637e4a6a5e146105315780638129fc1c1461056257806381b2d07b14610579578063837e7cc6146105a4578063a994dd94146105ae5761011f565b80633f1be4d4116100e75780633f1be4d414610409578063472abf6814610434578063485e74751461044b5780635e5bad7c146104765780637390c786146104a15761011f565b806306701be01461012157806307d8b05d1461014c57806327dc297e146101ce57806338bbfa50146102a05761011f565b3661011f57005b005b34801561012d57600080fd5b50610136610687565b6040518082815260200191505060405180910390f35b34801561015857600080fd5b5061019b6004803603602081101561016f57600080fd5b81019080803573ffffffffffffffffffffffffffffffffffffffff16906020019092919050505061068d565b604051808373ffffffffffffffffffffffffffffffffffffffff1681526020018281526020019250505060405180910390f35b3480156101da57600080fd5b5061029e600480360360408110156101f157600080fd5b81019080803590602001909291908035906020019064010000000081111561021857600080fd5b82018360208201111561022a57600080fd5b8035906020019184600183028401116401000000008311171561024c57600080fd5b91908080601f016020809104026020016040519081016040528093929190818152602001838380828437600081840152601f19601f8201169050808301925050505050505091929192905050506106d1565b005b3480156102ac57600080fd5b50610407600480360360608110156102c357600080fd5b8101908080359060200190929190803590602001906401000000008111156102ea57600080fd5b8201836020820111156102fc57600080fd5b8035906020019184600183028401116401000000008311171561031e57600080fd5b91908080601f016020809104026020016040519081016040528093929190818152602001838380828437600081840152601f19601f8201169050808301925050505050505091929192908035906020019064010000000081111561038157600080fd5b82018360208201111561039357600080fd5b803590602001918460018302840111640100000000831117156103b557600080fd5b91908080601f016020809104026020016040519081016040528093929190818152602001838380828437600081840152601f19601f82011690508083019250505050505050919291929050505061072b565b005b34801561041557600080fd5b5061041e61080f565b6040518082815260200191505060405180910390f35b34801561044057600080fd5b50610449610815565b005b34801561045757600080fd5b50610460610925565b6040518082815260200191505060405180910390f35b34801561048257600080fd5b5061048b61092f565b6040518082815260200191505060405180910390f35b3480156104ad57600080fd5b506104b6610935565b6040518080602001828103825283818151815260200191508051906020019080838360005b838110156104f65780820151818401526020810190506104db565b50505050905090810190601f1680156105235780820380516001836020036101000a031916815260200191505b509250505060405180910390f35b6105606004803603602081101561054757600080fd5b81019080803560ff1690602001909291905050506109d3565b005b34801561056e57600080fd5b506105776109ee565b005b34801561058557600080fd5b5061058e610b3a565b6040518082815260200191505060405180910390f35b6105ac610b44565b005b3480156105ba57600080fd5b506105c3610b61565b005b3480156105d157600080fd5b506105da610b78565b005b3480156105e857600080fd5b506105f1610c1a565b6040518082815260200191505060405180910390f35b34801561061357600080fd5b506106406004803603602081101561062a57600080fd5b8101908080359060200190929190505050610c20565b005b61064a610d70565b005b34801561065857600080fd5b506106856004803603602081101561066f57600080fd5b8101908080359060200190929190505050610e05565b005b603e5481565b603c6020528060005260406000206000915090508060000160009054906101000a900473ffffffffffffffffffffffffffffffffffffffff16908060010154905082565b6107278282600067ffffffffffffffff811180156106ee57600080fd5b506040519080825280601f01601f1916602001820160405280156107215781602001600182028036833780820191505090505b5061072b565b5050565b610733610e87565b73ffffffffffffffffffffffffffffffffffffffff163373ffffffffffffffffffffffffffffffffffffffff161461076a57600080fd5b60006107778484846111a4565b60ff16141561079c578160409080519060200190610796929190614202565b5061080a565b6040517f08c379a000000000000000000000000000000000000000000000000000000000815260040180806020018281038252600d8152602001807f6572726f72206d6573736167650000000000000000000000000000000000000081525060200191505060405180910390fd5b505050565b603f5481565b600560019054906101000a900460ff168061083457506108336112d4565b5b8061084c5750600560009054906101000a900460ff16155b6108a1576040517f08c379a000000000000000000000000000000000000000000000000000000000815260040180806020018281038252602e815260200180614361602e913960400191505060405180910390fd5b6000600560019054906101000a900460ff1615905080156108f3576001600560016101000a81548160ff0219169083151502179055506001600560006101000a81548160ff0219169083151502179055505b610900603060f81b6112eb565b8015610922576000600560016101000a81548160ff0219169083151502179055505b50565b6000603d54905090565b60385481565b60408054600181600116156101000203166002900480601f0160208091040260200160405190810160405280929190818152602001828054600181600116156101000203166002900480156109cb5780601f106109a0576101008083540402835291602001916109cb565b820191906000526020600020905b8154815290600101906020018083116109ae57829003601f168201915b505050505081565b6109e560008260ff1662030d4061160f565b603f8190555050565b600560019054906101000a900460ff1680610a0d5750610a0c6112d4565b5b80610a255750600560009054906101000a900460ff16155b610a7a576040517f08c379a000000000000000000000000000000000000000000000000000000000815260040180806020018281038252602e815260200180614361602e913960400191505060405180910390fd5b6000600560019054906101000a900460ff161590508015610acc576001600560016101000a81548160ff0219169083151502179055506001600560006101000a81548160ff0219169083151502179055505b600a60388190555033603b60006101000a81548173ffffffffffffffffffffffffffffffffffffffff021916908373ffffffffffffffffffffffffffffffffffffffff1602179055508015610b37576000600560016101000a81548160ff0219169083151502179055505b50565b6000603854905090565b610b4c611c34565b60ff16603d81905550610b5f60016109d3565b565b600260395402603860008282540392505081905550565b603e54603d541015610c1057610b8c610b61565b7f1346ef089488831ddd390d36e94e4a0341136af2f1357d621b103c39c4523e73603b60009054906101000a900473ffffffffffffffffffffffffffffffffffffffff16603954603854604051808473ffffffffffffffffffffffffffffffffffffffff168152602001838152602001828152602001935050505060405180910390a15b610c18611c9b565b565b603d5481565b603b60009054906101000a900473ffffffffffffffffffffffffffffffffffffffff1673ffffffffffffffffffffffffffffffffffffffff163373ffffffffffffffffffffffffffffffffffffffff1614610c7a57600080fd5b610c8381611cbd565b610c8c57600080fd5b806038600082825401925050819055506001603a6000828254019250508190555060405180604001604052803373ffffffffffffffffffffffffffffffffffffffff168152602001603a54815250603c60003373ffffffffffffffffffffffffffffffffffffffff1673ffffffffffffffffffffffffffffffffffffffff16815260200190815260200160002060008201518160000160006101000a81548173ffffffffffffffffffffffffffffffffffffffff021916908373ffffffffffffffffffffffffffffffffffffffff1602179055506020820151816001015590505050565b60016005604080516020018082805460018160011615610100020316600290048015610dd35780601f10610db1576101008083540402835291820191610dd3565b820191906000526020600020905b815481529060010190602001808311610dbf575b50509150506040516020818303038152906040528051906020012060001c81610df857fe5b060160ff16603e81905550565b603b60009054906101000a900473ffffffffffffffffffffffffffffffffffffffff1673ffffffffffffffffffffffffffffffffffffffff163373ffffffffffffffffffffffffffffffffffffffff1614610e5f57600080fd5b610e6881611cbd565b610e7157600080fd5b6002810260386000828254019250508190555050565b60008073ffffffffffffffffffffffffffffffffffffffff16600160009054906101000a900473ffffffffffffffffffffffffffffffffffffffff1673ffffffffffffffffffffffffffffffffffffffff161480610f0f57506000610f0d600160009054906101000a900473ffffffffffffffffffffffffffffffffffffffff16611ccc565b145b15610f2057610f1e6000611cd7565b505b600160009054906101000a900473ffffffffffffffffffffffffffffffffffffffff1673ffffffffffffffffffffffffffffffffffffffff166338cc48316040518163ffffffff1660e01b8152600401602060405180830381600087803b158015610f8a57600080fd5b505af1158015610f9e573d6000803e3d6000fd5b505050506040513d6020811015610fb457600080fd5b810190808051906020019092919050505073ffffffffffffffffffffffffffffffffffffffff1660008054906101000a900473ffffffffffffffffffffffffffffffffffffffff1673ffffffffffffffffffffffffffffffffffffffff16146110fc57600160009054906101000a900473ffffffffffffffffffffffffffffffffffffffff1673ffffffffffffffffffffffffffffffffffffffff166338cc48316040518163ffffffff1660e01b8152600401602060405180830381600087803b15801561108157600080fd5b505af1158015611095573d6000803e3d6000fd5b505050506040513d60208110156110ab57600080fd5b81019080805190602001909291905050506000806101000a81548173ffffffffffffffffffffffffffffffffffffffff021916908373ffffffffffffffffffffffffffffffffffffffff1602179055505b60008054906101000a900473ffffffffffffffffffffffffffffffffffffffff1673ffffffffffffffffffffffffffffffffffffffff1663c281d19e6040518163ffffffff1660e01b8152600401602060405180830381600087803b15801561116457600080fd5b505af1158015611178573d6000803e3d6000fd5b505050506040513d602081101561118e57600080fd5b8101908080519060200190929190505050905090565b60007f4c00000000000000000000000000000000000000000000000000000000000000826000815181106111d457fe5b602001015160f81c60f81b7effffffffffffffffffffffffffffffffffffffffffffffffffffffffffffff191614158061126757507f50000000000000000000000000000000000000000000000000000000000000008260018151811061123757fe5b602001015160f81c60f81b7effffffffffffffffffffffffffffffffffffffffffffffffffffffffffffff191614155b806112935750600160ff168260028151811061127f57fe5b602001015160f81c60f81b60f81c60ff1614155b156112a157600190506112cd565b60006112b68386866112b1611ce8565b611d8a565b9050806112c75760029150506112cd565b60009150505b9392505050565b6000803090506000813b9050600081149250505090565b600073ffffffffffffffffffffffffffffffffffffffff16600160009054906101000a900473ffffffffffffffffffffffffffffffffffffffff1673ffffffffffffffffffffffffffffffffffffffff16148061137257506000611370600160009054906101000a900473ffffffffffffffffffffffffffffffffffffffff16611ccc565b145b15611383576113816000611cd7565b505b600160009054906101000a900473ffffffffffffffffffffffffffffffffffffffff1673ffffffffffffffffffffffffffffffffffffffff166338cc48316040518163ffffffff1660e01b8152600401602060405180830381600087803b1580156113ed57600080fd5b505af1158015611401573d6000803e3d6000fd5b505050506040513d602081101561141757600080fd5b810190808051906020019092919050505073ffffffffffffffffffffffffffffffffffffffff1660008054906101000a900473ffffffffffffffffffffffffffffffffffffffff1673ffffffffffffffffffffffffffffffffffffffff161461155f57600160009054906101000a900473ffffffffffffffffffffffffffffffffffffffff1673ffffffffffffffffffffffffffffffffffffffff166338cc48316040518163ffffffff1660e01b8152600401602060405180830381600087803b1580156114e457600080fd5b505af11580156114f8573d6000803e3d6000fd5b505050506040513d602081101561150e57600080fd5b81019080805190602001909291905050506000806101000a81548173ffffffffffffffffffffffffffffffffffffffff021916908373ffffffffffffffffffffffffffffffffffffffff1602179055505b60008054906101000a900473ffffffffffffffffffffffffffffffffffffffff1673ffffffffffffffffffffffffffffffffffffffff1663688dcfd7826040518263ffffffff1660e01b815260040180827effffffffffffffffffffffffffffffffffffffffffffffffffffffffffffff19168152602001915050600060405180830381600087803b1580156115f457600080fd5b505af1158015611608573d6000803e3d6000fd5b5050505050565b60008083118015611621575060208311155b61162a57600080fd5b600a840293506060600167ffffffffffffffff8111801561164a57600080fd5b506040519080825280601f01601f19166020018201604052801561167d5781602001600182028036833780820191505090505b5090508360f81b8160008151811061169157fe5b60200101907effffffffffffffffffffffffffffffffffffffffffffffffffffffffffffff1916908160001a9053506060602067ffffffffffffffff811180156116da57600080fd5b506040519080825280601f01601f19166020018201604052801561170d5781602001600182028036833780820191505090505b5090506060602067ffffffffffffffff8111801561172a57600080fd5b506040519080825280601f01601f19166020018201604052801561175d5781602001600182028036833780820191505090505b509050600061176a6124a9565b9050602083524241186001430340186020840152602082528060208301526060602067ffffffffffffffff811180156117a257600080fd5b506040519080825280601f01601f1916602001820160405280156117d55781602001600182028036833780820191505090505b5090508860208201526060600867ffffffffffffffff811180156117f857600080fd5b506040519080825280601f01601f19166020018201604052801561182b5781602001600182028036833780820191505090505b50905061183e82601860088460006127c4565b50611847614282565b604051806080016040528087815260200188815260200186815260200184815250905060006118ac6040518060400160405280600681526020017f72616e646f6d0000000000000000000000000000000000000000000000000000815250838c612823565b90506060600867ffffffffffffffff811180156118c857600080fd5b506040519080825280601f01601f1916602001820160405280156118fb5781602001600182028036833780820191505090505b50905060208401517f0100000000000000000000000000000000000000000000000000000000000000810460278301537e01000000000000000000000000000000000000000000000000000000000000810460268301537d010000000000000000000000000000000000000000000000000000000000810460258301537c0100000000000000000000000000000000000000000000000000000000810460248301537b01000000000000000000000000000000000000000000000000000000810460238301537a010000000000000000000000000000000000000000000000000000810460228301537901000000000000000000000000000000000000000000000000008104602183015378010000000000000000000000000000000000000000000000008104602083015350611c21828285600160048110611a3a57fe5b6020020151600287600060048110611a4e57fe5b60200201516040518082805190602001908083835b60208310611a865780518252602082019150602081019050602083039250611a63565b6001836020036101000a038019825116818451168082178552505050505050905001915050602060405180830381855afa158015611ac8573d6000803e3d6000fd5b5050506040513d6020811015611add57600080fd5b810190808051906020019092919050505087600260048110611afb57fe5b60200201516040516020018085805190602001908083835b60208310611b365780518252602082019150602081019050602083039250611b13565b6001836020036101000a03801982511681845116808217855250505050505090500184805190602001908083835b60208310611b875780518252602082019150602081019050602083039250611b64565b6001836020036101000a03801982511681845116808217855250505050505090500183815260200182805190602001908083835b60208310611bde5780518252602082019150602081019050602083039250611bbb565b6001836020036101000a03801982511681845116808217855250505050505090500194505050505060405160208183030381529060405280519060200120612ba6565b8199505050505050505050509392505050565b600060016006424144604051602001808481526020018373ffffffffffffffffffffffffffffffffffffffff1660601b815260140182815260200193505050506040516020818303038152906040528051906020012060001c81611c9457fe5b0601905090565b6000603d819055506000603e8190555060006039819055506000603f81905550565b60008160385410159050919050565b6000813b9050919050565b6000611ce1612bc2565b9050919050565b606060028054600181600116156101000203166002900480601f016020809104026020016040519081016040528092919081815260200182805460018160011615610100020316600290048015611d805780601f10611d5557610100808354040283529160200191611d80565b820191906000526020600020905b815481529060010190602001808311611d6357829003601f168201915b5050505050905090565b6000806020600287604581518110611d9e57fe5b602001015160f81c60f81b60f81c60ff16016044010190506060602067ffffffffffffffff81118015611dd057600080fd5b506040519080825280601f01601f191660200182016040528015611e035781602001600182028036833780820191505090505b509050611e15878360208460006127c4565b50600284876040516020018083805190602001908083835b60208310611e505780518252602082019150602081019050602083039250611e2d565b6001836020036101000a038019825116818451168082178552505050505050905001828152602001925050506040516020818303038152906040526040518082805190602001908083835b60208310611ebe5780518252602082019150602081019050602083039250611e9b565b6001836020036101000a038019825116818451168082178552505050505050905001915050602060405180830381855afa158015611f00573d6000803e3d6000fd5b5050506040513d6020811015611f1557600080fd5b81019080805190602001909291905050506040516020018082815260200191505060405160208183030381529060405280519060200120818051906020012014611f64576000925050506124a1565b60606002886001604986010181518110611f7a57fe5b602001015160f81c60f81b60f81c60ff160167ffffffffffffffff81118015611fa257600080fd5b506040519080825280601f01601f191660200182016040528015611fd55781602001600182028036833780820191505090505b509050611fea886049850183518460006127c4565b506120b56002826040518082805190602001908083835b602083106120245780518252602082019150602081019050602083039250612001565b6001836020036101000a038019825116818451168082178552505050505050905001915050602060405180830381855afa158015612066573d6000803e3d6000fd5b5050506040513d602081101561207b57600080fd5b8101908080519060200190929190505050878a600860208801018151811061209f57fe5b602001015160f81c60f81b60f81c60ff16613119565b6120c557600093505050506124a1565b6060602967ffffffffffffffff811180156120df57600080fd5b506040519080825280601f01601f1916602001820160405280156121125781602001600182028036833780820191505090505b509050612127896020860160298460006127c4565b506060604067ffffffffffffffff8111801561214257600080fd5b506040519080825280601f01601f1916602001820160405280156121755781602001600182028036833780820191505090505b509050600060418451602960208901010101905061219b8b6040830360408560006127c4565b5060006002836040518082805190602001908083835b602083106121d457805182526020820191506020810190506020830392506121b1565b6001836020036101000a038019825116818451168082178552505050505050905001915050602060405180830381855afa158015612216573d6000803e3d6000fd5b5050506040513d602081101561222b57600080fd5b8101908080519060200190929190505050905083816040516020018083805190602001908083835b602083106122765780518252602082019150602081019050602083039250612253565b6001836020036101000a0380198251168184511680821785525050505050509050018281526020019250505060405160208183030381529060405280519060200120600360008d81526020019081526020016000205414156122ee57600360008c8152602001908152602001600020600090556122fe565b60009750505050505050506124a1565b6060604967ffffffffffffffff8111801561231857600080fd5b506040519080825280601f01601f19166020018201604052801561234b5781602001600182028036833780820191505090505b50905061235d8d8960498460006127c4565b506124066002826040518082805190602001908083835b602083106123975780518252602082019150602081019050602083039250612374565b6001836020036101000a038019825116818451168082178552505050505050905001915050602060405180830381855afa1580156123d9573d6000803e3d6000fd5b5050506040513d60208110156123ee57600080fd5b810190808051906020019092919050505087866131c6565b61241b576000985050505050505050506124a1565b6004600083815260200190815260200160002060009054906101000a900460ff166124755761244a8d846133b2565b6004600084815260200190815260200160002060006101000a81548160ff0219169083151502179055505b6004600083815260200190815260200160002060009054906101000a900460ff16985050505050505050505b949350505050565b60008073ffffffffffffffffffffffffffffffffffffffff16600160009054906101000a900473ffffffffffffffffffffffffffffffffffffffff1673ffffffffffffffffffffffffffffffffffffffff1614806125315750600061252f600160009054906101000a900473ffffffffffffffffffffffffffffffffffffffff16611ccc565b145b15612542576125406000611cd7565b505b600160009054906101000a900473ffffffffffffffffffffffffffffffffffffffff1673ffffffffffffffffffffffffffffffffffffffff166338cc48316040518163ffffffff1660e01b8152600401602060405180830381600087803b1580156125ac57600080fd5b505af11580156125c0573d6000803e3d6000fd5b505050506040513d60208110156125d657600080fd5b810190808051906020019092919050505073ffffffffffffffffffffffffffffffffffffffff1660008054906101000a900473ffffffffffffffffffffffffffffffffffffffff1673ffffffffffffffffffffffffffffffffffffffff161461271e57600160009054906101000a900473ffffffffffffffffffffffffffffffffffffffff1673ffffffffffffffffffffffffffffffffffffffff166338cc48316040518163ffffffff1660e01b8152600401602060405180830381600087803b1580156126a357600080fd5b505af11580156126b7573d6000803e3d6000fd5b505050506040513d60208110156126cd57600080fd5b81019080805190602001909291905050506000806101000a81548173ffffffffffffffffffffffffffffffffffffffff021916908373ffffffffffffffffffffffffffffffffffffffff1602179055505b60008054906101000a900473ffffffffffffffffffffffffffffffffffffffff1673ffffffffffffffffffffffffffffffffffffffff1663abaa5f3e6040518163ffffffff1660e01b815260040160206040518083038186803b15801561278457600080fd5b505afa158015612798573d6000803e3d6000fd5b505050506040513d60208110156127ae57600080fd5b8101908080519060200190929190505050905090565b60606000828501905080845110156127db57600080fd5b600086602001905060008460200190505b86886020010182101561281457818901518082880152506020820191506020810190506127ec565b85935050505095945050505050565b60008073ffffffffffffffffffffffffffffffffffffffff16600160009054906101000a900473ffffffffffffffffffffffffffffffffffffffff1673ffffffffffffffffffffffffffffffffffffffff1614806128ab575060006128a9600160009054906101000a900473ffffffffffffffffffffffffffffffffffffffff16611ccc565b145b156128bc576128ba6000611cd7565b505b600160009054906101000a900473ffffffffffffffffffffffffffffffffffffffff1673ffffffffffffffffffffffffffffffffffffffff166338cc48316040518163ffffffff1660e01b8152600401602060405180830381600087803b15801561292657600080fd5b505af115801561293a573d6000803e3d6000fd5b505050506040513d602081101561295057600080fd5b810190808051906020019092919050505073ffffffffffffffffffffffffffffffffffffffff1660008054906101000a900473ffffffffffffffffffffffffffffffffffffffff1673ffffffffffffffffffffffffffffffffffffffff1614612a9857600160009054906101000a900473ffffffffffffffffffffffffffffffffffffffff1673ffffffffffffffffffffffffffffffffffffffff166338cc48316040518163ffffffff1660e01b8152600401602060405180830381600087803b158015612a1d57600080fd5b505af1158015612a31573d6000803e3d6000fd5b505050506040513d6020811015612a4757600080fd5b81019080805190602001909291905050506000806101000a81548173ffffffffffffffffffffffffffffffffffffffff021916908373ffffffffffffffffffffffffffffffffffffffff1602179055505b6060600467ffffffffffffffff81118015612ab257600080fd5b50604051908082528060200260200182016040528015612ae657816020015b6060815260200190600190039081612ad15790505b50905083600060048110612af657fe5b602002015181600081518110612b0857fe5b602002602001018190525083600160048110612b2057fe5b602002015181600181518110612b3257fe5b602002602001018190525083600260048110612b4a57fe5b602002015181600281518110612b5c57fe5b602002602001018190525083600360048110612b7457fe5b602002015181600381518110612b8657fe5b6020026020010181905250612b9c85828561383e565b9150509392505050565b8060036000848152602001908152602001600020819055505050565b600080612be2731d3b2638a7cc9f2cb3d298a3da7a90b67e5506ed611ccc565b1115612c8457731d3b2638a7cc9f2cb3d298a3da7a90b67e5506ed600160006101000a81548173ffffffffffffffffffffffffffffffffffffffff021916908373ffffffffffffffffffffffffffffffffffffffff160217905550612c7b6040518060400160405280600b81526020017f6574685f6d61696e6e6574000000000000000000000000000000000000000000815250613d9e565b60019050613116565b6000612ca373c03a2615d5efaf5f49f60b7bb6583eaec212fdf1611ccc565b1115612d455773c03a2615d5efaf5f49f60b7bb6583eaec212fdf1600160006101000a81548173ffffffffffffffffffffffffffffffffffffffff021916908373ffffffffffffffffffffffffffffffffffffffff160217905550612d3c6040518060400160405280600c81526020017f6574685f726f707374656e330000000000000000000000000000000000000000815250613d9e565b60019050613116565b6000612d6473b7a07bcf2ba2f2703b24c0691b5278999c59ac7e611ccc565b1115612e065773b7a07bcf2ba2f2703b24c0691b5278999c59ac7e600160006101000a81548173ffffffffffffffffffffffffffffffffffffffff021916908373ffffffffffffffffffffffffffffffffffffffff160217905550612dfd6040518060400160405280600981526020017f6574685f6b6f76616e0000000000000000000000000000000000000000000000815250613d9e565b60019050613116565b6000612e2573146500cfd35b22e4a392fe0adc06de1a1368ed48611ccc565b1115612ec75773146500cfd35b22e4a392fe0adc06de1a1368ed48600160006101000a81548173ffffffffffffffffffffffffffffffffffffffff021916908373ffffffffffffffffffffffffffffffffffffffff160217905550612ebe6040518060400160405280600b81526020017f6574685f72696e6b656279000000000000000000000000000000000000000000815250613d9e565b60019050613116565b6000612ee673a2998efd205fb9d4b4963afb70778d6354ad3a41611ccc565b1115612f885773a2998efd205fb9d4b4963afb70778d6354ad3a41600160006101000a81548173ffffffffffffffffffffffffffffffffffffffff021916908373ffffffffffffffffffffffffffffffffffffffff160217905550612f7f6040518060400160405280600a81526020017f6574685f676f65726c6900000000000000000000000000000000000000000000815250613d9e565b60019050613116565b6000612fa7736f485c8bf6fc43ea212e93bbf8ce046c7f1cb475611ccc565b111561300b57736f485c8bf6fc43ea212e93bbf8ce046c7f1cb475600160006101000a81548173ffffffffffffffffffffffffffffffffffffffff021916908373ffffffffffffffffffffffffffffffffffffffff16021790555060019050613116565b600061302a7320e12a1f859b3feae5fb2a0a32c18f5a65555bbf611ccc565b111561308e577320e12a1f859b3feae5fb2a0a32c18f5a65555bbf600160006101000a81548173ffffffffffffffffffffffffffffffffffffffff021916908373ffffffffffffffffffffffffffffffffffffffff16021790555060019050613116565b60006130ad7351efaf4c8b3c9afbd5ab9f4bbc82784ab6ef8faa611ccc565b1115613111577351efaf4c8b3c9afbd5ab9f4bbc82784ab6ef8faa600160006101000a81548173ffffffffffffffffffffffffffffffffffffffff021916908373ffffffffffffffffffffffffffffffffffffffff16021790555060019050613116565b600090505b90565b600080600190508284511461312d57600080fd5b60005b838110156131ba5784818151811061314457fe5b602001015160f81c60f81b7effffffffffffffffffffffffffffffffffffffffffffffffffffffffffffff191686826020811061317d57fe5b1a60f81b7effffffffffffffffffffffffffffffffffffffffffffffffffffffffffffff1916146131ad57600091505b8080600101915050613130565b50809150509392505050565b60008060008060006060602067ffffffffffffffff811180156131e857600080fd5b506040519080825280601f01601f19166020018201604052801561321b5781602001600182028036833780820191505090505b509050600060208960038151811061322f57fe5b602001015160f81c60f81b60f81c60ff16036004019050613255898260208560006127c4565b91506060602067ffffffffffffffff8111801561327157600080fd5b506040519080825280601f01601f1916602001820160405280156132a45781602001600182028036833780820191505090505b5090506022820191506132e08a60208c60018603815181106132c257fe5b602001015160f81c60f81b60f81c60ff1603840160208460006127c4565b905060208301519450602081015193506132fd8b601b8787613db8565b80975081985050508573ffffffffffffffffffffffffffffffffffffffff16898051906020012060001c73ffffffffffffffffffffffffffffffffffffffff1614156133535760019750505050505050506133ab565b6133608b601c8787613db8565b80975081985050508573ffffffffffffffffffffffffffffffffffffffff16898051906020012060001c73ffffffffffffffffffffffffffffffffffffffff16149750505050505050505b9392505050565b600080606060028560018601815181106133c857fe5b602001015160f81c60f81b60f81c60ff160167ffffffffffffffff811180156133f057600080fd5b506040519080825280601f01601f1916602001820160405280156134235781602001600182028036833780820191505090505b509050613435858583518460006127c4565b506060604067ffffffffffffffff8111801561345057600080fd5b506040519080825280601f01601f1916602001820160405280156134835781602001600182028036833780820191505090505b50905061349686600460408460006127c4565b506060606267ffffffffffffffff811180156134b157600080fd5b506040519080825280601f01601f1916602001820160405280156134e45781602001600182028036833780820191505090505b509050600160f81b816000815181106134f957fe5b60200101907effffffffffffffffffffffffffffffffffffffffffffffffffffffffffffff1916908160001a90535061353a876041880360418460016127c4565b5060606040518060400160405280602081526020017ffd94fa71bc0ba10d39d464d0d8f465efeef0a2764e3887fcc9df41ded20f505c815250905061358581600060208560426127c4565b5061362e6002836040518082805190602001908083835b602083106135bf578051825260208201915060208101905060208303925061359c565b6001836020036101000a038019825116818451168082178552505050505050905001915050602060405180830381855afa158015613601573d6000803e3d6000fd5b5050506040513d602081101561361657600080fd5b810190808051906020019092919050505085856131c6565b94508461364357600095505050505050613838565b606060405180606001604052806040815260200161438f6040913990506060604267ffffffffffffffff8111801561367a57600080fd5b506040519080825280601f01601f1916602001820160405280156136ad5781602001600182028036833780820191505090505b50905060fe60f81b816000815181106136c257fe5b60200101907effffffffffffffffffffffffffffffffffffffffffffffffffffffffffffff1916908160001a9053506137018a600360418460016127c4565b50606060028b60458151811061371357fe5b602001015160f81c60f81b60f81c60ff160167ffffffffffffffff8111801561373b57600080fd5b506040519080825280601f01601f19166020018201604052801561376e5781602001600182028036833780820191505090505b5090506137818b604483518460006127c4565b5061382a6002836040518082805190602001908083835b602083106137bb5780518252602082019150602081019050602083039250613798565b6001836020036101000a038019825116818451168082178552505050505050905001915050602060405180830381855afa1580156137fd573d6000803e3d6000fd5b5050506040513d602081101561381257600080fd5b810190808051906020019092919050505082856131c6565b975087985050505050505050505b92915050565b60008073ffffffffffffffffffffffffffffffffffffffff16600160009054906101000a900473ffffffffffffffffffffffffffffffffffffffff1673ffffffffffffffffffffffffffffffffffffffff1614806138c6575060006138c4600160009054906101000a900473ffffffffffffffffffffffffffffffffffffffff16611ccc565b145b156138d7576138d56000611cd7565b505b600160009054906101000a900473ffffffffffffffffffffffffffffffffffffffff1673ffffffffffffffffffffffffffffffffffffffff166338cc48316040518163ffffffff1660e01b8152600401602060405180830381600087803b15801561394157600080fd5b505af1158015613955573d6000803e3d6000fd5b505050506040513d602081101561396b57600080fd5b810190808051906020019092919050505073ffffffffffffffffffffffffffffffffffffffff1660008054906101000a900473ffffffffffffffffffffffffffffffffffffffff1673ffffffffffffffffffffffffffffffffffffffff1614613ab357600160009054906101000a900473ffffffffffffffffffffffffffffffffffffffff1673ffffffffffffffffffffffffffffffffffffffff166338cc48316040518163ffffffff1660e01b8152600401602060405180830381600087803b158015613a3857600080fd5b505af1158015613a4c573d6000803e3d6000fd5b505050506040513d6020811015613a6257600080fd5b81019080805190602001909291905050506000806101000a81548173ffffffffffffffffffffffffffffffffffffffff021916908373ffffffffffffffffffffffffffffffffffffffff1602179055505b60008060009054906101000a900473ffffffffffffffffffffffffffffffffffffffff1673ffffffffffffffffffffffffffffffffffffffff16632ef3accc86856040518363ffffffff1660e01b81526004018080602001838152602001828103825284818151815260200191508051906020019080838360005b83811015613b49578082015181840152602081019050613b2e565b50505050905090810190601f168015613b765780820380516001836020036101000a031916815260200191505b509350505050602060405180830381600087803b158015613b9657600080fd5b505af1158015613baa573d6000803e3d6000fd5b505050506040513d6020811015613bc057600080fd5b81019080805190602001909291905050509050823a02670de0b6b3a764000001811115613bf3576000801b915050613d97565b6060613bfe85613dfc565b905060008054906101000a900473ffffffffffffffffffffffffffffffffffffffff1673ffffffffffffffffffffffffffffffffffffffff1663c55c1cb68360008985896040518663ffffffff1660e01b8152600401808581526020018060200180602001848152602001838103835286818151815260200191508051906020019080838360005b83811015613ca1578082015181840152602081019050613c86565b50505050905090810190601f168015613cce5780820380516001836020036101000a031916815260200191505b50838103825285818151815260200191508051906020019080838360005b83811015613d07578082015181840152602081019050613cec565b50505050905090810190601f168015613d345780820380516001836020036101000a031916815260200191505b5096505050505050506020604051808303818588803b158015613d5657600080fd5b505af1158015613d6a573d6000803e3d6000fd5b50505050506040513d6020811015613d8157600080fd5b8101908080519060200190929190505050925050505b9392505050565b8060029080519060200190613db49291906142a9565b5050565b60008060008060405188815287602082015286604082015285606082015260208160808360006001610bb8f192508051915050818193509350505094509492505050565b6060613e06613e79565b613e0e614329565b613e1a81610400613e85565b613e2381613ecf565b60005b8351811015613e6257613e55848281518110613e3e57fe5b602002602001015183613edd90919063ffffffff16565b8080600101915050613e26565b50613e6c81613f02565b8060000151915050919050565b60405180590338823950565b6000819050600060208281613e9657fe5b0614613eaf5760208181613ea657fe5b06602003810190505b808360200181815250506040518084526000815281810160405250505050565b613eda816004613f10565b50565b613eea8260028351613f31565b613efd818361407190919063ffffffff16565b505050565b613f0d816007613f10565b50565b613f2d601f60058360ff16901b178361411c90919063ffffffff16565b5050565b60178111613f5d57613f588160058460ff16901b60ff16178461411c90919063ffffffff16565b61406c565b60ff8111613f9e57613f82601860058460ff16901b178461411c90919063ffffffff16565b613f988160018561415c9092919063ffffffff16565b5061406b565b61ffff8111613fe057613fc4601960058460ff16901b178461411c90919063ffffffff16565b613fda8160028561415c9092919063ffffffff16565b5061406a565b63ffffffff811161402457614008601a60058460ff16901b178461411c90919063ffffffff16565b61401e8160048561415c9092919063ffffffff16565b50614069565b67ffffffffffffffff811161406857614050601b60058460ff16901b178461411c90919063ffffffff16565b6140668160088561415c9092919063ffffffff16565b505b5b5b5b5b505050565b614079614329565b826020015183600001515183510111156140a9576140a88360026140a2866020015186516141c3565b026141df565b5b60008060008451905085518051602081830101945086518101825260208701935050505b602081106140f057815183526020830192506020820191506020810390506140cd565b60006001826020036101000a039050801983511681855116818117865250508694505050505092915050565b81602001516001836000015151011115614142576141418260028460200151026141df565b5b815180516020818301018381536001820183525050505050565b614164614329565b8360200151846000015151830111156141925761419184600261418b8760200151866141c3565b026141df565b5b60006001836101000a0390508451805184818301018684198251161781528582018352505050849150509392505050565b6000818311156141d5578290506141d9565b8190505b92915050565b6060826000015190506141f28383613e85565b6141fc8382614071565b50505050565b828054600181600116156101000203166002900490600052602060002090601f016020900481019282601f1061424357805160ff1916838001178555614271565b82800160010185558215614271579182015b82811115614270578251825591602001919060010190614255565b5b50905061427e9190614343565b5090565b60405180608001604052806004905b60608152602001906001900390816142915790505090565b828054600181600116156101000203166002900490600052602060002090601f016020900481019282601f106142ea57805160ff1916838001178555614318565b82800160010185558215614318579182015b828111156143175782518255916020019190600101906142fc565b5b5090506143259190614343565b5090565b604051806040016040528060608152602001600081525090565b5b8082111561435c576000816000905550600101614344565b509056fe436f6e747261637420696e7374616e63652068617320616c7265616479206265656e20696e697469616c697a65647fb956469c5c9b89840d55b43537e66a98dd4811ea0a27224272c2e5622911e8537a2f8e86a46baec82864e98dd01e9ccc2f8bc5dfc9cbe5a91a290498dd96e4a264697066735822122055c2d7a94deb5ded7177c89970d9b5bbcb470a9fd6085a4b2b535b14ba96db9e64736f6c634300060c0033",
  "immutableReferences": {},
  "source": "pragma solidity ^0.6.0;\nimport \"./provableAPI.sol\";\nimport \"@openzeppelin/upgrades-core/contracts/Initializable.sol\";\n\ncontract DealerV4 is usingProvable, Initializable {\n    uint256 public dealerBalance;\n    uint256 bet;\n    uint256 playedGames;\n    address player;\n\n    function initialize() public initializer {\n        dealerBalance = 10;\n        player = msg.sender;\n    }\n\n    fallback() external payable {}\n\n    receive() external payable {}\n\n    event PlayerWins(address player, uint256 profit, uint256 dealerBalance);\n\n    mapping(address => PlayerData) public playerList;\n\n    struct PlayerData {\n        address playerAddress;\n        uint256 playedGames;\n    }\n\n    modifier onlyPlayer() {\n        require(msg.sender == player);\n        _;\n    }\n\n    function addBet(uint256 _bet) public onlyPlayer {\n        require(checkIfBalanceIsEnough(_bet));\n        dealerBalance += _bet;\n        playedGames += 1;\n        playerList[msg.sender] = PlayerData(msg.sender, playedGames);\n    }\n\n    function addBet2(uint256 _bet) public onlyPlayer {\n        require(checkIfBalanceIsEnough(_bet));\n        dealerBalance += _bet * 2;\n    }\n\n    function returnBetWithProfit() public {\n        dealerBalance -= bet * 2;\n    }\n\n    function showBalance() public view returns (uint256) {\n        return dealerBalance;\n    }\n\n    function checkIfBalanceIsEnough(uint256 _bet) private view returns (bool) {\n        return dealerBalance >= _bet;\n    }\n}\n\ncontract PolarBetV4 is DealerV4 {\n    uint256 public dealerDiceResult;\n    uint256 public userDiceResult;\n    bytes32 public queryId;\n    bytes public getRandomResult;\n\n\n    // constructor() public {\n    //     provable_setProof(proofType_Ledger);\n    // }\n\n    function initialize2() public initializer {\n        provable_setProof(proofType_Ledger);\n    }\n\n\n        function __callback(bytes32  _queryId,string memory _result,bytes memory _proof ) override public {\n        require(msg.sender == provable_cbAddress());\n        if (provable_randomDS_proofVerify__returnCode(_queryId,_result,_proof)== 0)\n            getRandomResult = bytes(_result);\n        else\n            revert(\"error message\");\n}\n    \n    function getRandom(uint8 nrBytes) public payable { // not supported in remix\n        queryId=provable_newRandomDSQuery(\n            0,          // QUERY_EXECUTION_DELAY\n            nrBytes,    // NUM_RANDOM_BYTES_REQUESTED\n            200000      // GAS_FOR_CALLBACK\n        );\n    }\n\n    function getRandomNumber() private view returns (uint8) {\n        return\n            uint8(\n                uint256(\n                    keccak256(\n                        abi.encodePacked(\n                            block.timestamp,\n                            block.coinbase,\n                            block.difficulty\n                        )\n                    )\n                ) % 6\n            ) + 1;\n    }\n\n    function rollDice() public payable {\n        dealerDiceResult = getRandomNumber();\n        getRandom(1);\n    }\n\n    function getDiceResultOfDealer() public view returns (uint256) {\n        return dealerDiceResult;\n    }\n\n    function getDiceResultOfUser() public payable {\n        userDiceResult = uint8(uint256(keccak256(abi.encodePacked(getRandomResult)))% 5) + 1;\n    }\n\n    function payOut() public {\n        if (dealerDiceResult < userDiceResult) {\n            returnBetWithProfit();\n            emit PlayerWins(player, bet, dealerBalance);\n        }\n        resetBetAndDiceResults();\n    }\n\n    function resetBetAndDiceResults() private {\n        dealerDiceResult = 0;\n        userDiceResult = 0;\n        bet = 0;\n        queryId = \"\";\n    }\n}\n",
  "sourcePath": "/Users/rowin/Documents/projects/Koios/polarbet/contracts/PolarBetV4.sol",
  "compiler": {
    "name": "solc",
    "version": "0.6.12+commit.27d51765.Emscripten.clang"
  },
  "schemaVersion": "3.3.3",
  "updatedAt": "2021-01-27T12:37:32.527Z",
  "networkType": "ethereum",
  "devdoc": {
    "kind": "dev",
    "methods": {
      "__callback(bytes32,string)": {
        "details": "The following `__callback` functions are just placeholders ideally      meant to be defined in child contract when proofs are used.      The function bodies simply silence compiler warnings."
      }
    },
    "version": 1
  },
  "userdoc": {
    "kind": "user",
    "methods": {},
    "version": 1
  }
}