{
  "contractName": "PolarBetV4",
  "abi": [
    {
      "anonymous": false,
      "inputs": [
        {
          "indexed": false,
          "internalType": "address",
          "name": "player",
          "type": "address"
        },
        {
          "indexed": false,
          "internalType": "uint256",
          "name": "profit",
          "type": "uint256"
        },
        {
          "indexed": false,
          "internalType": "uint256",
          "name": "dealerBalance",
          "type": "uint256"
        }
      ],
      "name": "PlayerWins",
      "type": "event"
    },
    {
      "stateMutability": "payable",
      "type": "fallback",
      "payable": true
    },
    {
      "inputs": [
        {
          "internalType": "uint256",
          "name": "_bet",
          "type": "uint256"
        }
      ],
      "name": "addBet",
      "outputs": [],
      "stateMutability": "nonpayable",
      "type": "function"
    },
    {
      "inputs": [
        {
          "internalType": "uint256",
          "name": "_bet",
          "type": "uint256"
        }
      ],
      "name": "addBet2",
      "outputs": [],
      "stateMutability": "nonpayable",
      "type": "function"
    },
    {
      "inputs": [],
      "name": "dealerBalance",
      "outputs": [
        {
          "internalType": "uint256",
          "name": "",
          "type": "uint256"
        }
      ],
      "stateMutability": "view",
      "type": "function",
      "constant": true
    },
    {
      "inputs": [],
      "name": "dealerDiceResult",
      "outputs": [
        {
          "internalType": "uint256",
          "name": "",
          "type": "uint256"
        }
      ],
      "stateMutability": "view",
      "type": "function",
      "constant": true
    },
    {
      "inputs": [],
      "name": "initialize",
      "outputs": [],
      "stateMutability": "nonpayable",
      "type": "function"
    },
    {
      "inputs": [
        {
          "internalType": "address",
          "name": "",
          "type": "address"
        }
      ],
      "name": "playerList",
      "outputs": [
        {
          "internalType": "address",
          "name": "playerAddress",
          "type": "address"
        },
        {
          "internalType": "uint256",
          "name": "playedGames",
          "type": "uint256"
        }
      ],
      "stateMutability": "view",
      "type": "function",
      "constant": true
    },
    {
      "inputs": [],
      "name": "queryId",
      "outputs": [
        {
          "internalType": "bytes32",
          "name": "",
          "type": "bytes32"
        }
      ],
      "stateMutability": "view",
      "type": "function",
      "constant": true
    },
    {
      "inputs": [],
      "name": "returnBetWithProfit",
      "outputs": [],
      "stateMutability": "nonpayable",
      "type": "function"
    },
    {
      "inputs": [],
      "name": "showBalance",
      "outputs": [
        {
          "internalType": "uint256",
          "name": "",
          "type": "uint256"
        }
      ],
      "stateMutability": "view",
      "type": "function",
      "constant": true
    },
    {
      "inputs": [],
      "name": "userDiceResult",
      "outputs": [
        {
          "internalType": "uint256",
          "name": "",
          "type": "uint256"
        }
      ],
      "stateMutability": "view",
      "type": "function",
      "constant": true
    },
    {
      "stateMutability": "payable",
      "type": "receive",
      "payable": true
    },
    {
      "inputs": [],
      "name": "initialize2",
      "outputs": [],
      "stateMutability": "nonpayable",
      "type": "function"
    },
    {
      "inputs": [
        {
          "internalType": "bytes32",
          "name": "_myid",
          "type": "bytes32"
        },
        {
          "internalType": "string",
          "name": "_result",
          "type": "string"
        }
      ],
      "name": "__callback",
      "outputs": [],
      "stateMutability": "nonpayable",
      "type": "function"
    },
    {
      "inputs": [
        {
          "internalType": "bytes32",
          "name": "_queryId",
          "type": "bytes32"
        },
        {
          "internalType": "string",
          "name": "_result",
          "type": "string"
        },
        {
          "internalType": "bytes",
          "name": "_proof",
          "type": "bytes"
        }
      ],
      "name": "__callback",
      "outputs": [],
      "stateMutability": "nonpayable",
      "type": "function"
    },
    {
      "inputs": [
        {
          "internalType": "uint8",
          "name": "nrBytes",
          "type": "uint8"
        }
      ],
      "name": "getRandom",
      "outputs": [],
      "stateMutability": "payable",
      "type": "function",
      "payable": true
    },
    {
      "inputs": [],
      "name": "rollDice",
      "outputs": [],
      "stateMutability": "payable",
      "type": "function",
      "payable": true
    },
    {
      "inputs": [],
      "name": "getDiceResultOfDealer",
      "outputs": [
        {
          "internalType": "uint256",
          "name": "",
          "type": "uint256"
        }
      ],
      "stateMutability": "view",
      "type": "function",
      "constant": true
    },
    {
      "inputs": [],
      "name": "getDiceResultOfUser",
      "outputs": [
        {
          "internalType": "uint256",
          "name": "",
          "type": "uint256"
        }
      ],
      "stateMutability": "view",
      "type": "function",
      "constant": true
    },
    {
      "inputs": [],
      "name": "payOut",
      "outputs": [],
      "stateMutability": "nonpayable",
      "type": "function"
    }
  ],
  "bytecode": "0x608060405234801561001057600080fd5b5061424d806100206000396000f3fe60806040526004361061010d5760003560e01c80638129fc1c11610095578063c205240311610064578063c20524031461052a578063c369b86614610541578063cdaba7861461056c578063f637d880146105a7578063f98be1e0146105d257610114565b80638129fc1c146104c757806381b2d07b146104de578063837e7cc614610509578063a994dd941461051357610114565b80633f1be4d4116100dc5780633f1be4d4146103fe578063472abf6814610429578063485e7475146104405780635e5bad7c1461046b5780637e4a6a5e1461049657610114565b806306701be01461011657806307d8b05d1461014157806327dc297e146101c357806338bbfa501461029557610114565b3661011457005b005b34801561012257600080fd5b5061012b61060d565b6040518082815260200191505060405180910390f35b34801561014d57600080fd5b506101906004803603602081101561016457600080fd5b81019080803573ffffffffffffffffffffffffffffffffffffffff169060200190929190505050610613565b604051808373ffffffffffffffffffffffffffffffffffffffff1681526020018281526020019250505060405180910390f35b3480156101cf57600080fd5b50610293600480360360408110156101e657600080fd5b81019080803590602001909291908035906020019064010000000081111561020d57600080fd5b82018360208201111561021f57600080fd5b8035906020019184600183028401116401000000008311171561024157600080fd5b91908080601f016020809104026020016040519081016040528093929190818152602001838380828437600081840152601f19601f820116905080830192505050505050509192919290505050610657565b005b3480156102a157600080fd5b506103fc600480360360608110156102b857600080fd5b8101908080359060200190929190803590602001906401000000008111156102df57600080fd5b8201836020820111156102f157600080fd5b8035906020019184600183028401116401000000008311171561031357600080fd5b91908080601f016020809104026020016040519081016040528093929190818152602001838380828437600081840152601f19601f8201169050808301925050505050505091929192908035906020019064010000000081111561037657600080fd5b82018360208201111561038857600080fd5b803590602001918460018302840111640100000000831117156103aa57600080fd5b91908080601f016020809104026020016040519081016040528093929190818152602001838380828437600081840152601f19601f8201169050808301925050505050505091929192905050506106b1565b005b34801561040a57600080fd5b50610413610809565b6040518082815260200191505060405180910390f35b34801561043557600080fd5b5061043e61080f565b005b34801561044c57600080fd5b5061045561091f565b6040518082815260200191505060405180910390f35b34801561047757600080fd5b50610480610929565b6040518082815260200191505060405180910390f35b6104c5600480360360208110156104ac57600080fd5b81019080803560ff16906020019092919050505061092f565b005b3480156104d357600080fd5b506104dc61094a565b005b3480156104ea57600080fd5b506104f3610a96565b6040518082815260200191505060405180910390f35b610511610aa0565b005b34801561051f57600080fd5b50610528610abd565b005b34801561053657600080fd5b5061053f610ad4565b005b34801561054d57600080fd5b50610556610b76565b6040518082815260200191505060405180910390f35b34801561057857600080fd5b506105a56004803603602081101561058f57600080fd5b8101908080359060200190929190505050610b7c565b005b3480156105b357600080fd5b506105bc610ccc565b6040518082815260200191505060405180910390f35b3480156105de57600080fd5b5061060b600480360360208110156105f557600080fd5b8101908080359060200190929190505050610cd6565b005b603e5481565b603c6020528060005260406000206000915090508060000160009054906101000a900473ffffffffffffffffffffffffffffffffffffffff16908060010154905082565b6106ad8282600067ffffffffffffffff8111801561067457600080fd5b506040519080825280601f01601f1916602001820160405280156106a75781602001600182028036833780820191505090505b506106b1565b5050565b6106b9610d58565b73ffffffffffffffffffffffffffffffffffffffff163373ffffffffffffffffffffffffffffffffffffffff16146106f057600080fd5b60006106fd848484611075565b60ff1614156107965760016005836040516020018082805190602001908083835b60208310610741578051825260208201915060208101905060208303925061071e565b6001836020036101000a0380198251168184511680821785525050505050509050019150506040516020818303038152906040528051906020012060001c8161078657fe5b060160ff16603e81905550610804565b6040517f08c379a000000000000000000000000000000000000000000000000000000000815260040180806020018281038252600d8152602001807f6572726f72206d6573736167650000000000000000000000000000000000000081525060200191505060405180910390fd5b505050565b603f5481565b600560019054906101000a900460ff168061082e575061082d6111a5565b5b806108465750600560009054906101000a900460ff16155b61089b576040517f08c379a000000000000000000000000000000000000000000000000000000000815260040180806020018281038252602e8152602001806141aa602e913960400191505060405180910390fd5b6000600560019054906101000a900460ff1615905080156108ed576001600560016101000a81548160ff0219169083151502179055506001600560006101000a81548160ff0219169083151502179055505b6108fa603060f81b6111bc565b801561091c576000600560016101000a81548160ff0219169083151502179055505b50565b6000603d54905090565b60385481565b61094160008260ff1662030d406114e0565b603f8190555050565b600560019054906101000a900460ff168061096957506109686111a5565b5b806109815750600560009054906101000a900460ff16155b6109d6576040517f08c379a000000000000000000000000000000000000000000000000000000000815260040180806020018281038252602e8152602001806141aa602e913960400191505060405180910390fd5b6000600560019054906101000a900460ff161590508015610a28576001600560016101000a81548160ff0219169083151502179055506001600560006101000a81548160ff0219169083151502179055505b600a60388190555033603b60006101000a81548173ffffffffffffffffffffffffffffffffffffffff021916908373ffffffffffffffffffffffffffffffffffffffff1602179055508015610a93576000600560016101000a81548160ff0219169083151502179055505b50565b6000603854905090565b610aa8611b05565b60ff16603d81905550610abb600161092f565b565b600260395402603860008282540392505081905550565b603e54603d541015610b6c57610ae8610abd565b7f1346ef089488831ddd390d36e94e4a0341136af2f1357d621b103c39c4523e73603b60009054906101000a900473ffffffffffffffffffffffffffffffffffffffff16603954603854604051808473ffffffffffffffffffffffffffffffffffffffff168152602001838152602001828152602001935050505060405180910390a15b610b74611b6c565b565b603d5481565b603b60009054906101000a900473ffffffffffffffffffffffffffffffffffffffff1673ffffffffffffffffffffffffffffffffffffffff163373ffffffffffffffffffffffffffffffffffffffff1614610bd657600080fd5b610bdf81611b86565b610be857600080fd5b806038600082825401925050819055506001603a6000828254019250508190555060405180604001604052803373ffffffffffffffffffffffffffffffffffffffff168152602001603a54815250603c60003373ffffffffffffffffffffffffffffffffffffffff1673ffffffffffffffffffffffffffffffffffffffff16815260200190815260200160002060008201518160000160006101000a81548173ffffffffffffffffffffffffffffffffffffffff021916908373ffffffffffffffffffffffffffffffffffffffff1602179055506020820151816001015590505050565b6000603e54905090565b603b60009054906101000a900473ffffffffffffffffffffffffffffffffffffffff1673ffffffffffffffffffffffffffffffffffffffff163373ffffffffffffffffffffffffffffffffffffffff1614610d3057600080fd5b610d3981611b86565b610d4257600080fd5b6002810260386000828254019250508190555050565b60008073ffffffffffffffffffffffffffffffffffffffff16600160009054906101000a900473ffffffffffffffffffffffffffffffffffffffff1673ffffffffffffffffffffffffffffffffffffffff161480610de057506000610dde600160009054906101000a900473ffffffffffffffffffffffffffffffffffffffff16611b95565b145b15610df157610def6000611ba0565b505b600160009054906101000a900473ffffffffffffffffffffffffffffffffffffffff1673ffffffffffffffffffffffffffffffffffffffff166338cc48316040518163ffffffff1660e01b8152600401602060405180830381600087803b158015610e5b57600080fd5b505af1158015610e6f573d6000803e3d6000fd5b505050506040513d6020811015610e8557600080fd5b810190808051906020019092919050505073ffffffffffffffffffffffffffffffffffffffff1660008054906101000a900473ffffffffffffffffffffffffffffffffffffffff1673ffffffffffffffffffffffffffffffffffffffff1614610fcd57600160009054906101000a900473ffffffffffffffffffffffffffffffffffffffff1673ffffffffffffffffffffffffffffffffffffffff166338cc48316040518163ffffffff1660e01b8152600401602060405180830381600087803b158015610f5257600080fd5b505af1158015610f66573d6000803e3d6000fd5b505050506040513d6020811015610f7c57600080fd5b81019080805190602001909291905050506000806101000a81548173ffffffffffffffffffffffffffffffffffffffff021916908373ffffffffffffffffffffffffffffffffffffffff1602179055505b60008054906101000a900473ffffffffffffffffffffffffffffffffffffffff1673ffffffffffffffffffffffffffffffffffffffff1663c281d19e6040518163ffffffff1660e01b8152600401602060405180830381600087803b15801561103557600080fd5b505af1158015611049573d6000803e3d6000fd5b505050506040513d602081101561105f57600080fd5b8101908080519060200190929190505050905090565b60007f4c00000000000000000000000000000000000000000000000000000000000000826000815181106110a557fe5b602001015160f81c60f81b7effffffffffffffffffffffffffffffffffffffffffffffffffffffffffffff191614158061113857507f50000000000000000000000000000000000000000000000000000000000000008260018151811061110857fe5b602001015160f81c60f81b7effffffffffffffffffffffffffffffffffffffffffffffffffffffffffffff191614155b806111645750600160ff168260028151811061115057fe5b602001015160f81c60f81b60f81c60ff1614155b15611172576001905061119e565b6000611187838686611182611bb1565b611c53565b90508061119857600291505061119e565b60009150505b9392505050565b6000803090506000813b9050600081149250505090565b600073ffffffffffffffffffffffffffffffffffffffff16600160009054906101000a900473ffffffffffffffffffffffffffffffffffffffff1673ffffffffffffffffffffffffffffffffffffffff16148061124357506000611241600160009054906101000a900473ffffffffffffffffffffffffffffffffffffffff16611b95565b145b15611254576112526000611ba0565b505b600160009054906101000a900473ffffffffffffffffffffffffffffffffffffffff1673ffffffffffffffffffffffffffffffffffffffff166338cc48316040518163ffffffff1660e01b8152600401602060405180830381600087803b1580156112be57600080fd5b505af11580156112d2573d6000803e3d6000fd5b505050506040513d60208110156112e857600080fd5b810190808051906020019092919050505073ffffffffffffffffffffffffffffffffffffffff1660008054906101000a900473ffffffffffffffffffffffffffffffffffffffff1673ffffffffffffffffffffffffffffffffffffffff161461143057600160009054906101000a900473ffffffffffffffffffffffffffffffffffffffff1673ffffffffffffffffffffffffffffffffffffffff166338cc48316040518163ffffffff1660e01b8152600401602060405180830381600087803b1580156113b557600080fd5b505af11580156113c9573d6000803e3d6000fd5b505050506040513d60208110156113df57600080fd5b81019080805190602001909291905050506000806101000a81548173ffffffffffffffffffffffffffffffffffffffff021916908373ffffffffffffffffffffffffffffffffffffffff1602179055505b60008054906101000a900473ffffffffffffffffffffffffffffffffffffffff1673ffffffffffffffffffffffffffffffffffffffff1663688dcfd7826040518263ffffffff1660e01b815260040180827effffffffffffffffffffffffffffffffffffffffffffffffffffffffffffff19168152602001915050600060405180830381600087803b1580156114c557600080fd5b505af11580156114d9573d6000803e3d6000fd5b5050505050565b600080831180156114f2575060208311155b6114fb57600080fd5b600a840293506060600167ffffffffffffffff8111801561151b57600080fd5b506040519080825280601f01601f19166020018201604052801561154e5781602001600182028036833780820191505090505b5090508360f81b8160008151811061156257fe5b60200101907effffffffffffffffffffffffffffffffffffffffffffffffffffffffffffff1916908160001a9053506060602067ffffffffffffffff811180156115ab57600080fd5b506040519080825280601f01601f1916602001820160405280156115de5781602001600182028036833780820191505090505b5090506060602067ffffffffffffffff811180156115fb57600080fd5b506040519080825280601f01601f19166020018201604052801561162e5781602001600182028036833780820191505090505b509050600061163b612372565b9050602083524241186001430340186020840152602082528060208301526060602067ffffffffffffffff8111801561167357600080fd5b506040519080825280601f01601f1916602001820160405280156116a65781602001600182028036833780820191505090505b5090508860208201526060600867ffffffffffffffff811180156116c957600080fd5b506040519080825280601f01601f1916602001820160405280156116fc5781602001600182028036833780820191505090505b50905061170f826018600884600061268d565b506117186140cb565b6040518060800160405280878152602001888152602001868152602001848152509050600061177d6040518060400160405280600681526020017f72616e646f6d0000000000000000000000000000000000000000000000000000815250838c6126ec565b90506060600867ffffffffffffffff8111801561179957600080fd5b506040519080825280601f01601f1916602001820160405280156117cc5781602001600182028036833780820191505090505b50905060208401517f0100000000000000000000000000000000000000000000000000000000000000810460278301537e01000000000000000000000000000000000000000000000000000000000000810460268301537d010000000000000000000000000000000000000000000000000000000000810460258301537c0100000000000000000000000000000000000000000000000000000000810460248301537b01000000000000000000000000000000000000000000000000000000810460238301537a010000000000000000000000000000000000000000000000000000810460228301537901000000000000000000000000000000000000000000000000008104602183015378010000000000000000000000000000000000000000000000008104602083015350611af282828560016004811061190b57fe5b602002015160028760006004811061191f57fe5b60200201516040518082805190602001908083835b602083106119575780518252602082019150602081019050602083039250611934565b6001836020036101000a038019825116818451168082178552505050505050905001915050602060405180830381855afa158015611999573d6000803e3d6000fd5b5050506040513d60208110156119ae57600080fd5b8101908080519060200190929190505050876002600481106119cc57fe5b60200201516040516020018085805190602001908083835b60208310611a0757805182526020820191506020810190506020830392506119e4565b6001836020036101000a03801982511681845116808217855250505050505090500184805190602001908083835b60208310611a585780518252602082019150602081019050602083039250611a35565b6001836020036101000a03801982511681845116808217855250505050505090500183815260200182805190602001908083835b60208310611aaf5780518252602082019150602081019050602083039250611a8c565b6001836020036101000a03801982511681845116808217855250505050505090500194505050505060405160208183030381529060405280519060200120612a6f565b8199505050505050505050509392505050565b600060016006424144604051602001808481526020018373ffffffffffffffffffffffffffffffffffffffff1660601b815260140182815260200193505050506040516020818303038152906040528051906020012060001c81611b6557fe5b0601905090565b6000603d819055506000603e819055506000603981905550565b60008160385410159050919050565b6000813b9050919050565b6000611baa612a8b565b9050919050565b606060028054600181600116156101000203166002900480601f016020809104026020016040519081016040528092919081815260200182805460018160011615610100020316600290048015611c495780601f10611c1e57610100808354040283529160200191611c49565b820191906000526020600020905b815481529060010190602001808311611c2c57829003601f168201915b5050505050905090565b6000806020600287604581518110611c6757fe5b602001015160f81c60f81b60f81c60ff16016044010190506060602067ffffffffffffffff81118015611c9957600080fd5b506040519080825280601f01601f191660200182016040528015611ccc5781602001600182028036833780820191505090505b509050611cde8783602084600061268d565b50600284876040516020018083805190602001908083835b60208310611d195780518252602082019150602081019050602083039250611cf6565b6001836020036101000a038019825116818451168082178552505050505050905001828152602001925050506040516020818303038152906040526040518082805190602001908083835b60208310611d875780518252602082019150602081019050602083039250611d64565b6001836020036101000a038019825116818451168082178552505050505050905001915050602060405180830381855afa158015611dc9573d6000803e3d6000fd5b5050506040513d6020811015611dde57600080fd5b81019080805190602001909291905050506040516020018082815260200191505060405160208183030381529060405280519060200120818051906020012014611e2d5760009250505061236a565b60606002886001604986010181518110611e4357fe5b602001015160f81c60f81b60f81c60ff160167ffffffffffffffff81118015611e6b57600080fd5b506040519080825280601f01601f191660200182016040528015611e9e5781602001600182028036833780820191505090505b509050611eb38860498501835184600061268d565b50611f7e6002826040518082805190602001908083835b60208310611eed5780518252602082019150602081019050602083039250611eca565b6001836020036101000a038019825116818451168082178552505050505050905001915050602060405180830381855afa158015611f2f573d6000803e3d6000fd5b5050506040513d6020811015611f4457600080fd5b8101908080519060200190929190505050878a6008602088010181518110611f6857fe5b602001015160f81c60f81b60f81c60ff16612fe2565b611f8e576000935050505061236a565b6060602967ffffffffffffffff81118015611fa857600080fd5b506040519080825280601f01601f191660200182016040528015611fdb5781602001600182028036833780820191505090505b509050611ff08960208601602984600061268d565b506060604067ffffffffffffffff8111801561200b57600080fd5b506040519080825280601f01601f19166020018201604052801561203e5781602001600182028036833780820191505090505b50905060006041845160296020890101010190506120648b60408303604085600061268d565b5060006002836040518082805190602001908083835b6020831061209d578051825260208201915060208101905060208303925061207a565b6001836020036101000a038019825116818451168082178552505050505050905001915050602060405180830381855afa1580156120df573d6000803e3d6000fd5b5050506040513d60208110156120f457600080fd5b8101908080519060200190929190505050905083816040516020018083805190602001908083835b6020831061213f578051825260208201915060208101905060208303925061211c565b6001836020036101000a0380198251168184511680821785525050505050509050018281526020019250505060405160208183030381529060405280519060200120600360008d81526020019081526020016000205414156121b757600360008c8152602001908152602001600020600090556121c7565b600097505050505050505061236a565b6060604967ffffffffffffffff811180156121e157600080fd5b506040519080825280601f01601f1916602001820160405280156122145781602001600182028036833780820191505090505b5090506122268d89604984600061268d565b506122cf6002826040518082805190602001908083835b60208310612260578051825260208201915060208101905060208303925061223d565b6001836020036101000a038019825116818451168082178552505050505050905001915050602060405180830381855afa1580156122a2573d6000803e3d6000fd5b5050506040513d60208110156122b757600080fd5b8101908080519060200190929190505050878661308f565b6122e45760009850505050505050505061236a565b6004600083815260200190815260200160002060009054906101000a900460ff1661233e576123138d8461327b565b6004600084815260200190815260200160002060006101000a81548160ff0219169083151502179055505b6004600083815260200190815260200160002060009054906101000a900460ff16985050505050505050505b949350505050565b60008073ffffffffffffffffffffffffffffffffffffffff16600160009054906101000a900473ffffffffffffffffffffffffffffffffffffffff1673ffffffffffffffffffffffffffffffffffffffff1614806123fa575060006123f8600160009054906101000a900473ffffffffffffffffffffffffffffffffffffffff16611b95565b145b1561240b576124096000611ba0565b505b600160009054906101000a900473ffffffffffffffffffffffffffffffffffffffff1673ffffffffffffffffffffffffffffffffffffffff166338cc48316040518163ffffffff1660e01b8152600401602060405180830381600087803b15801561247557600080fd5b505af1158015612489573d6000803e3d6000fd5b505050506040513d602081101561249f57600080fd5b810190808051906020019092919050505073ffffffffffffffffffffffffffffffffffffffff1660008054906101000a900473ffffffffffffffffffffffffffffffffffffffff1673ffffffffffffffffffffffffffffffffffffffff16146125e757600160009054906101000a900473ffffffffffffffffffffffffffffffffffffffff1673ffffffffffffffffffffffffffffffffffffffff166338cc48316040518163ffffffff1660e01b8152600401602060405180830381600087803b15801561256c57600080fd5b505af1158015612580573d6000803e3d6000fd5b505050506040513d602081101561259657600080fd5b81019080805190602001909291905050506000806101000a81548173ffffffffffffffffffffffffffffffffffffffff021916908373ffffffffffffffffffffffffffffffffffffffff1602179055505b60008054906101000a900473ffffffffffffffffffffffffffffffffffffffff1673ffffffffffffffffffffffffffffffffffffffff1663abaa5f3e6040518163ffffffff1660e01b815260040160206040518083038186803b15801561264d57600080fd5b505afa158015612661573d6000803e3d6000fd5b505050506040513d602081101561267757600080fd5b8101908080519060200190929190505050905090565b60606000828501905080845110156126a457600080fd5b600086602001905060008460200190505b8688602001018210156126dd57818901518082880152506020820191506020810190506126b5565b85935050505095945050505050565b60008073ffffffffffffffffffffffffffffffffffffffff16600160009054906101000a900473ffffffffffffffffffffffffffffffffffffffff1673ffffffffffffffffffffffffffffffffffffffff16148061277457506000612772600160009054906101000a900473ffffffffffffffffffffffffffffffffffffffff16611b95565b145b15612785576127836000611ba0565b505b600160009054906101000a900473ffffffffffffffffffffffffffffffffffffffff1673ffffffffffffffffffffffffffffffffffffffff166338cc48316040518163ffffffff1660e01b8152600401602060405180830381600087803b1580156127ef57600080fd5b505af1158015612803573d6000803e3d6000fd5b505050506040513d602081101561281957600080fd5b810190808051906020019092919050505073ffffffffffffffffffffffffffffffffffffffff1660008054906101000a900473ffffffffffffffffffffffffffffffffffffffff1673ffffffffffffffffffffffffffffffffffffffff161461296157600160009054906101000a900473ffffffffffffffffffffffffffffffffffffffff1673ffffffffffffffffffffffffffffffffffffffff166338cc48316040518163ffffffff1660e01b8152600401602060405180830381600087803b1580156128e657600080fd5b505af11580156128fa573d6000803e3d6000fd5b505050506040513d602081101561291057600080fd5b81019080805190602001909291905050506000806101000a81548173ffffffffffffffffffffffffffffffffffffffff021916908373ffffffffffffffffffffffffffffffffffffffff1602179055505b6060600467ffffffffffffffff8111801561297b57600080fd5b506040519080825280602002602001820160405280156129af57816020015b606081526020019060019003908161299a5790505b509050836000600481106129bf57fe5b6020020151816000815181106129d157fe5b6020026020010181905250836001600481106129e957fe5b6020020151816001815181106129fb57fe5b602002602001018190525083600260048110612a1357fe5b602002015181600281518110612a2557fe5b602002602001018190525083600360048110612a3d57fe5b602002015181600381518110612a4f57fe5b6020026020010181905250612a65858285613707565b9150509392505050565b8060036000848152602001908152602001600020819055505050565b600080612aab731d3b2638a7cc9f2cb3d298a3da7a90b67e5506ed611b95565b1115612b4d57731d3b2638a7cc9f2cb3d298a3da7a90b67e5506ed600160006101000a81548173ffffffffffffffffffffffffffffffffffffffff021916908373ffffffffffffffffffffffffffffffffffffffff160217905550612b446040518060400160405280600b81526020017f6574685f6d61696e6e6574000000000000000000000000000000000000000000815250613c67565b60019050612fdf565b6000612b6c73c03a2615d5efaf5f49f60b7bb6583eaec212fdf1611b95565b1115612c0e5773c03a2615d5efaf5f49f60b7bb6583eaec212fdf1600160006101000a81548173ffffffffffffffffffffffffffffffffffffffff021916908373ffffffffffffffffffffffffffffffffffffffff160217905550612c056040518060400160405280600c81526020017f6574685f726f707374656e330000000000000000000000000000000000000000815250613c67565b60019050612fdf565b6000612c2d73b7a07bcf2ba2f2703b24c0691b5278999c59ac7e611b95565b1115612ccf5773b7a07bcf2ba2f2703b24c0691b5278999c59ac7e600160006101000a81548173ffffffffffffffffffffffffffffffffffffffff021916908373ffffffffffffffffffffffffffffffffffffffff160217905550612cc66040518060400160405280600981526020017f6574685f6b6f76616e0000000000000000000000000000000000000000000000815250613c67565b60019050612fdf565b6000612cee73146500cfd35b22e4a392fe0adc06de1a1368ed48611b95565b1115612d905773146500cfd35b22e4a392fe0adc06de1a1368ed48600160006101000a81548173ffffffffffffffffffffffffffffffffffffffff021916908373ffffffffffffffffffffffffffffffffffffffff160217905550612d876040518060400160405280600b81526020017f6574685f72696e6b656279000000000000000000000000000000000000000000815250613c67565b60019050612fdf565b6000612daf73a2998efd205fb9d4b4963afb70778d6354ad3a41611b95565b1115612e515773a2998efd205fb9d4b4963afb70778d6354ad3a41600160006101000a81548173ffffffffffffffffffffffffffffffffffffffff021916908373ffffffffffffffffffffffffffffffffffffffff160217905550612e486040518060400160405280600a81526020017f6574685f676f65726c6900000000000000000000000000000000000000000000815250613c67565b60019050612fdf565b6000612e70736f485c8bf6fc43ea212e93bbf8ce046c7f1cb475611b95565b1115612ed457736f485c8bf6fc43ea212e93bbf8ce046c7f1cb475600160006101000a81548173ffffffffffffffffffffffffffffffffffffffff021916908373ffffffffffffffffffffffffffffffffffffffff16021790555060019050612fdf565b6000612ef37320e12a1f859b3feae5fb2a0a32c18f5a65555bbf611b95565b1115612f57577320e12a1f859b3feae5fb2a0a32c18f5a65555bbf600160006101000a81548173ffffffffffffffffffffffffffffffffffffffff021916908373ffffffffffffffffffffffffffffffffffffffff16021790555060019050612fdf565b6000612f767351efaf4c8b3c9afbd5ab9f4bbc82784ab6ef8faa611b95565b1115612fda577351efaf4c8b3c9afbd5ab9f4bbc82784ab6ef8faa600160006101000a81548173ffffffffffffffffffffffffffffffffffffffff021916908373ffffffffffffffffffffffffffffffffffffffff16021790555060019050612fdf565b600090505b90565b6000806001905082845114612ff657600080fd5b60005b838110156130835784818151811061300d57fe5b602001015160f81c60f81b7effffffffffffffffffffffffffffffffffffffffffffffffffffffffffffff191686826020811061304657fe5b1a60f81b7effffffffffffffffffffffffffffffffffffffffffffffffffffffffffffff19161461307657600091505b8080600101915050612ff9565b50809150509392505050565b60008060008060006060602067ffffffffffffffff811180156130b157600080fd5b506040519080825280601f01601f1916602001820160405280156130e45781602001600182028036833780820191505090505b50905060006020896003815181106130f857fe5b602001015160f81c60f81b60f81c60ff1603600401905061311e8982602085600061268d565b91506060602067ffffffffffffffff8111801561313a57600080fd5b506040519080825280601f01601f19166020018201604052801561316d5781602001600182028036833780820191505090505b5090506022820191506131a98a60208c600186038151811061318b57fe5b602001015160f81c60f81b60f81c60ff16038401602084600061268d565b905060208301519450602081015193506131c68b601b8787613c81565b80975081985050508573ffffffffffffffffffffffffffffffffffffffff16898051906020012060001c73ffffffffffffffffffffffffffffffffffffffff16141561321c576001975050505050505050613274565b6132298b601c8787613c81565b80975081985050508573ffffffffffffffffffffffffffffffffffffffff16898051906020012060001c73ffffffffffffffffffffffffffffffffffffffff16149750505050505050505b9392505050565b6000806060600285600186018151811061329157fe5b602001015160f81c60f81b60f81c60ff160167ffffffffffffffff811180156132b957600080fd5b506040519080825280601f01601f1916602001820160405280156132ec5781602001600182028036833780820191505090505b5090506132fe8585835184600061268d565b506060604067ffffffffffffffff8111801561331957600080fd5b506040519080825280601f01601f19166020018201604052801561334c5781602001600182028036833780820191505090505b50905061335f866004604084600061268d565b506060606267ffffffffffffffff8111801561337a57600080fd5b506040519080825280601f01601f1916602001820160405280156133ad5781602001600182028036833780820191505090505b509050600160f81b816000815181106133c257fe5b60200101907effffffffffffffffffffffffffffffffffffffffffffffffffffffffffffff1916908160001a9053506134038760418803604184600161268d565b5060606040518060400160405280602081526020017ffd94fa71bc0ba10d39d464d0d8f465efeef0a2764e3887fcc9df41ded20f505c815250905061344e816000602085604261268d565b506134f76002836040518082805190602001908083835b602083106134885780518252602082019150602081019050602083039250613465565b6001836020036101000a038019825116818451168082178552505050505050905001915050602060405180830381855afa1580156134ca573d6000803e3d6000fd5b5050506040513d60208110156134df57600080fd5b8101908080519060200190929190505050858561308f565b94508461350c57600095505050505050613701565b60606040518060600160405280604081526020016141d86040913990506060604267ffffffffffffffff8111801561354357600080fd5b506040519080825280601f01601f1916602001820160405280156135765781602001600182028036833780820191505090505b50905060fe60f81b8160008151811061358b57fe5b60200101907effffffffffffffffffffffffffffffffffffffffffffffffffffffffffffff1916908160001a9053506135ca8a6003604184600161268d565b50606060028b6045815181106135dc57fe5b602001015160f81c60f81b60f81c60ff160167ffffffffffffffff8111801561360457600080fd5b506040519080825280601f01601f1916602001820160405280156136375781602001600182028036833780820191505090505b50905061364a8b6044835184600061268d565b506136f36002836040518082805190602001908083835b602083106136845780518252602082019150602081019050602083039250613661565b6001836020036101000a038019825116818451168082178552505050505050905001915050602060405180830381855afa1580156136c6573d6000803e3d6000fd5b5050506040513d60208110156136db57600080fd5b8101908080519060200190929190505050828561308f565b975087985050505050505050505b92915050565b60008073ffffffffffffffffffffffffffffffffffffffff16600160009054906101000a900473ffffffffffffffffffffffffffffffffffffffff1673ffffffffffffffffffffffffffffffffffffffff16148061378f5750600061378d600160009054906101000a900473ffffffffffffffffffffffffffffffffffffffff16611b95565b145b156137a05761379e6000611ba0565b505b600160009054906101000a900473ffffffffffffffffffffffffffffffffffffffff1673ffffffffffffffffffffffffffffffffffffffff166338cc48316040518163ffffffff1660e01b8152600401602060405180830381600087803b15801561380a57600080fd5b505af115801561381e573d6000803e3d6000fd5b505050506040513d602081101561383457600080fd5b810190808051906020019092919050505073ffffffffffffffffffffffffffffffffffffffff1660008054906101000a900473ffffffffffffffffffffffffffffffffffffffff1673ffffffffffffffffffffffffffffffffffffffff161461397c57600160009054906101000a900473ffffffffffffffffffffffffffffffffffffffff1673ffffffffffffffffffffffffffffffffffffffff166338cc48316040518163ffffffff1660e01b8152600401602060405180830381600087803b15801561390157600080fd5b505af1158015613915573d6000803e3d6000fd5b505050506040513d602081101561392b57600080fd5b81019080805190602001909291905050506000806101000a81548173ffffffffffffffffffffffffffffffffffffffff021916908373ffffffffffffffffffffffffffffffffffffffff1602179055505b60008060009054906101000a900473ffffffffffffffffffffffffffffffffffffffff1673ffffffffffffffffffffffffffffffffffffffff16632ef3accc86856040518363ffffffff1660e01b81526004018080602001838152602001828103825284818151815260200191508051906020019080838360005b83811015613a125780820151818401526020810190506139f7565b50505050905090810190601f168015613a3f5780820380516001836020036101000a031916815260200191505b509350505050602060405180830381600087803b158015613a5f57600080fd5b505af1158015613a73573d6000803e3d6000fd5b505050506040513d6020811015613a8957600080fd5b81019080805190602001909291905050509050823a02670de0b6b3a764000001811115613abc576000801b915050613c60565b6060613ac785613cc5565b905060008054906101000a900473ffffffffffffffffffffffffffffffffffffffff1673ffffffffffffffffffffffffffffffffffffffff1663c55c1cb68360008985896040518663ffffffff1660e01b8152600401808581526020018060200180602001848152602001838103835286818151815260200191508051906020019080838360005b83811015613b6a578082015181840152602081019050613b4f565b50505050905090810190601f168015613b975780820380516001836020036101000a031916815260200191505b50838103825285818151815260200191508051906020019080838360005b83811015613bd0578082015181840152602081019050613bb5565b50505050905090810190601f168015613bfd5780820380516001836020036101000a031916815260200191505b5096505050505050506020604051808303818588803b158015613c1f57600080fd5b505af1158015613c33573d6000803e3d6000fd5b50505050506040513d6020811015613c4a57600080fd5b8101908080519060200190929190505050925050505b9392505050565b8060029080519060200190613c7d9291906140f2565b5050565b60008060008060405188815287602082015286604082015285606082015260208160808360006001610bb8f192508051915050818193509350505094509492505050565b6060613ccf613d42565b613cd7614172565b613ce381610400613d4e565b613cec81613d98565b60005b8351811015613d2b57613d1e848281518110613d0757fe5b602002602001015183613da690919063ffffffff16565b8080600101915050613cef565b50613d3581613dcb565b8060000151915050919050565b60405180590338823950565b6000819050600060208281613d5f57fe5b0614613d785760208181613d6f57fe5b06602003810190505b808360200181815250506040518084526000815281810160405250505050565b613da3816004613dd9565b50565b613db38260028351613dfa565b613dc68183613f3a90919063ffffffff16565b505050565b613dd6816007613dd9565b50565b613df6601f60058360ff16901b1783613fe590919063ffffffff16565b5050565b60178111613e2657613e218160058460ff16901b60ff161784613fe590919063ffffffff16565b613f35565b60ff8111613e6757613e4b601860058460ff16901b1784613fe590919063ffffffff16565b613e61816001856140259092919063ffffffff16565b50613f34565b61ffff8111613ea957613e8d601960058460ff16901b1784613fe590919063ffffffff16565b613ea3816002856140259092919063ffffffff16565b50613f33565b63ffffffff8111613eed57613ed1601a60058460ff16901b1784613fe590919063ffffffff16565b613ee7816004856140259092919063ffffffff16565b50613f32565b67ffffffffffffffff8111613f3157613f19601b60058460ff16901b1784613fe590919063ffffffff16565b613f2f816008856140259092919063ffffffff16565b505b5b5b5b5b505050565b613f42614172565b82602001518360000151518351011115613f7257613f71836002613f6b8660200151865161408c565b026140a8565b5b60008060008451905085518051602081830101945086518101825260208701935050505b60208110613fb95781518352602083019250602082019150602081039050613f96565b60006001826020036101000a039050801983511681855116818117865250508694505050505092915050565b8160200151600183600001515101111561400b5761400a8260028460200151026140a8565b5b815180516020818301018381536001820183525050505050565b61402d614172565b83602001518460000151518301111561405b5761405a84600261405487602001518661408c565b026140a8565b5b60006001836101000a0390508451805184818301018684198251161781528582018352505050849150509392505050565b60008183111561409e578290506140a2565b8190505b92915050565b6060826000015190506140bb8383613d4e565b6140c58382613f3a565b50505050565b60405180608001604052806004905b60608152602001906001900390816140da5790505090565b828054600181600116156101000203166002900490600052602060002090601f016020900481019282601f1061413357805160ff1916838001178555614161565b82800160010185558215614161579182015b82811115614160578251825591602001919060010190614145565b5b50905061416e919061418c565b5090565b604051806040016040528060608152602001600081525090565b5b808211156141a557600081600090555060010161418d565b509056fe436f6e747261637420696e7374616e63652068617320616c7265616479206265656e20696e697469616c697a65647fb956469c5c9b89840d55b43537e66a98dd4811ea0a27224272c2e5622911e8537a2f8e86a46baec82864e98dd01e9ccc2f8bc5dfc9cbe5a91a290498dd96e4a2646970667358221220a2292cac9a94bdd538ca24b5ed84d3e7af5d7fcb6439bf4280bd0ec463a94b3c64736f6c634300060c0033",
  "immutableReferences": {},
  "source": "pragma solidity ^0.6.0;\nimport \"./provableAPI.sol\";\nimport \"@openzeppelin/upgrades-core/contracts/Initializable.sol\";\n\ncontract DealerV4 is usingProvable, Initializable {\n    uint256 public dealerBalance;\n    uint256 bet;\n    uint256 playedGames;\n    address player;\n\n    function initialize() public initializer {\n        dealerBalance = 10;\n        player = msg.sender;\n    }\n\n    fallback() external payable {}\n\n    receive() external payable {}\n\n    event PlayerWins(address player, uint256 profit, uint256 dealerBalance);\n\n    mapping(address => PlayerData) public playerList;\n\n    struct PlayerData {\n        address playerAddress;\n        uint256 playedGames;\n    }\n\n    modifier onlyPlayer() {\n        require(msg.sender == player);\n        _;\n    }\n\n    function addBet(uint256 _bet) public onlyPlayer {\n        require(checkIfBalanceIsEnough(_bet));\n        dealerBalance += _bet;\n        playedGames += 1;\n        playerList[msg.sender] = PlayerData(msg.sender, playedGames);\n    }\n\n    function addBet2(uint256 _bet) public onlyPlayer {\n        require(checkIfBalanceIsEnough(_bet));\n        dealerBalance += _bet * 2;\n    }\n\n    function returnBetWithProfit() public {\n        dealerBalance -= bet * 2;\n    }\n\n    function showBalance() public view returns (uint256) {\n        return dealerBalance;\n    }\n\n    function checkIfBalanceIsEnough(uint256 _bet) private view returns (bool) {\n        return dealerBalance >= _bet;\n    }\n}\n\ncontract PolarBetV4 is DealerV4 {\n    uint256 public dealerDiceResult;\n    uint256 public userDiceResult;\n    bytes32 public queryId;\n\n    // constructor() public {\n    //     provable_setProof(proofType_Ledger);\n    // }\n\n    function initialize2() public initializer {\n        provable_setProof(proofType_Ledger);\n    }\n\n    function __callback(\n        bytes32 _queryId,\n        string memory _result,\n        bytes memory _proof\n    ) public override {\n        require(msg.sender == provable_cbAddress());\n        if (\n            provable_randomDS_proofVerify__returnCode(\n                _queryId,\n                _result,\n                _proof\n            ) == 0\n        )\n            userDiceResult =\n                uint8(uint256(keccak256(abi.encodePacked(_result))) % 5) +\n                1;\n        else revert(\"error message\");\n    }\n\n    function getRandom(uint8 nrBytes) public payable {\n        // not supported in remix\n        queryId = provable_newRandomDSQuery(\n            0, // QUERY_EXECUTION_DELAY\n            nrBytes, // NUM_RANDOM_BYTES_REQUESTED\n            200000 // GAS_FOR_CALLBACK\n        );\n    }\n\n    function getRandomNumber() private view returns (uint8) {\n        return\n            uint8(\n                uint256(\n                    keccak256(\n                        abi.encodePacked(\n                            block.timestamp,\n                            block.coinbase,\n                            block.difficulty\n                        )\n                    )\n                ) % 6\n            ) + 1;\n    }\n\n    function rollDice() public payable {\n        dealerDiceResult = getRandomNumber();\n        getRandom(1);\n    }\n\n    function getDiceResultOfDealer() public view returns (uint256) {\n        return dealerDiceResult;\n    }\n\n    function getDiceResultOfUser() public view returns (uint256) {\n        return userDiceResult;\n    }\n\n    function payOut() public {\n        if (dealerDiceResult < userDiceResult) {\n            returnBetWithProfit();\n            emit PlayerWins(player, bet, dealerBalance);\n        }\n        resetBetAndDiceResults();\n    }\n\n    function resetBetAndDiceResults() private {\n        dealerDiceResult = 0;\n        userDiceResult = 0;\n        bet = 0;\n    }\n}\n",
  "sourcePath": "/Users/rowin/Documents/projects/Koios/polarbet/contracts/PolarBetV4.sol",
  "compiler": {
    "name": "solc",
    "version": "0.6.12+commit.27d51765.Emscripten.clang"
  },
  "schemaVersion": "3.3.3",
  "updatedAt": "2021-01-21T16:08:02.111Z",
  "networkType": "ethereum",
  "devdoc": {
    "kind": "dev",
    "methods": {
      "__callback(bytes32,string)": {
        "details": "The following `__callback` functions are just placeholders ideally      meant to be defined in child contract when proofs are used.      The function bodies simply silence compiler warnings."
      }
    },
    "version": 1
  },
  "userdoc": {
    "kind": "user",
    "methods": {},
    "version": 1
  }
}