{
  "contractName": "PolarBetV3",
  "abi": [
    {
      "anonymous": false,
      "inputs": [
        {
          "indexed": false,
          "internalType": "address",
          "name": "player",
          "type": "address"
        },
        {
          "indexed": false,
          "internalType": "uint256",
          "name": "profit",
          "type": "uint256"
        },
        {
          "indexed": false,
          "internalType": "uint256",
          "name": "dealerBalance",
          "type": "uint256"
        }
      ],
      "name": "PlayerWins",
      "type": "event"
    },
    {
      "inputs": [
        {
          "internalType": "uint256",
          "name": "_bet",
          "type": "uint256"
        }
      ],
      "name": "addBet",
      "outputs": [],
      "stateMutability": "nonpayable",
      "type": "function"
    },
    {
      "inputs": [
        {
          "internalType": "uint256",
          "name": "_bet",
          "type": "uint256"
        }
      ],
      "name": "addBet2",
      "outputs": [],
      "stateMutability": "nonpayable",
      "type": "function"
    },
    {
      "inputs": [],
      "name": "dealerBalance",
      "outputs": [
        {
          "internalType": "uint256",
          "name": "",
          "type": "uint256"
        }
      ],
      "stateMutability": "view",
      "type": "function",
      "constant": true
    },
    {
      "inputs": [],
      "name": "dealerDiceResult",
      "outputs": [
        {
          "internalType": "uint256",
          "name": "",
          "type": "uint256"
        }
      ],
      "stateMutability": "view",
      "type": "function",
      "constant": true
    },
    {
      "inputs": [],
      "name": "initialize",
      "outputs": [],
      "stateMutability": "nonpayable",
      "type": "function"
    },
    {
      "inputs": [
        {
          "internalType": "address",
          "name": "",
          "type": "address"
        }
      ],
      "name": "playerList",
      "outputs": [
        {
          "internalType": "address",
          "name": "playerAddress",
          "type": "address"
        },
        {
          "internalType": "uint256",
          "name": "playedGames",
          "type": "uint256"
        }
      ],
      "stateMutability": "view",
      "type": "function",
      "constant": true
    },
    {
      "inputs": [],
      "name": "queryId",
      "outputs": [
        {
          "internalType": "bytes32",
          "name": "",
          "type": "bytes32"
        }
      ],
      "stateMutability": "view",
      "type": "function",
      "constant": true
    },
    {
      "inputs": [],
      "name": "returnBetWithProfit",
      "outputs": [],
      "stateMutability": "nonpayable",
      "type": "function"
    },
    {
      "inputs": [],
      "name": "userDiceResult",
      "outputs": [
        {
          "internalType": "uint256",
          "name": "",
          "type": "uint256"
        }
      ],
      "stateMutability": "view",
      "type": "function",
      "constant": true
    },
    {
      "inputs": [],
      "name": "initialize2",
      "outputs": [],
      "stateMutability": "nonpayable",
      "type": "function"
    },
    {
      "inputs": [
        {
          "internalType": "bytes32",
          "name": "_myid",
          "type": "bytes32"
        },
        {
          "internalType": "string",
          "name": "_result",
          "type": "string"
        }
      ],
      "name": "__callback",
      "outputs": [],
      "stateMutability": "nonpayable",
      "type": "function"
    },
    {
      "inputs": [
        {
          "internalType": "bytes32",
          "name": "_queryId",
          "type": "bytes32"
        },
        {
          "internalType": "string",
          "name": "_result",
          "type": "string"
        },
        {
          "internalType": "bytes",
          "name": "_proof",
          "type": "bytes"
        }
      ],
      "name": "__callback",
      "outputs": [],
      "stateMutability": "nonpayable",
      "type": "function"
    },
    {
      "inputs": [
        {
          "internalType": "uint8",
          "name": "nrBytes",
          "type": "uint8"
        }
      ],
      "name": "getRandom",
      "outputs": [],
      "stateMutability": "payable",
      "type": "function",
      "payable": true
    },
    {
      "inputs": [],
      "name": "rollDice",
      "outputs": [],
      "stateMutability": "payable",
      "type": "function",
      "payable": true
    },
    {
      "inputs": [],
      "name": "payOut",
      "outputs": [],
      "stateMutability": "nonpayable",
      "type": "function"
    }
  ],
  "bytecode": "0x608060405234801561001057600080fd5b50614185806100206000396000f3fe6080604052600436106100e85760003560e01c80637e4a6a5e1161008a578063c205240311610059578063c2052403146104ab578063c369b866146104c2578063cdaba786146104ed578063f98be1e014610528576100e8565b80637e4a6a5e146104425780638129fc1c14610473578063837e7cc61461048a578063a994dd9414610494576100e8565b806338bbfa50116100c657806338bbfa501461026c5780633f1be4d4146103d5578063472abf68146104005780635e5bad7c14610417576100e8565b806306701be0146100ed57806307d8b05d1461011857806327dc297e1461019a575b600080fd5b3480156100f957600080fd5b50610102610563565b6040518082815260200191505060405180910390f35b34801561012457600080fd5b506101676004803603602081101561013b57600080fd5b81019080803573ffffffffffffffffffffffffffffffffffffffff169060200190929190505050610569565b604051808373ffffffffffffffffffffffffffffffffffffffff1681526020018281526020019250505060405180910390f35b3480156101a657600080fd5b5061026a600480360360408110156101bd57600080fd5b8101908080359060200190929190803590602001906401000000008111156101e457600080fd5b8201836020820111156101f657600080fd5b8035906020019184600183028401116401000000008311171561021857600080fd5b91908080601f016020809104026020016040519081016040528093929190818152602001838380828437600081840152601f19601f8201169050808301925050505050505091929192905050506105ad565b005b34801561027857600080fd5b506103d36004803603606081101561028f57600080fd5b8101908080359060200190929190803590602001906401000000008111156102b657600080fd5b8201836020820111156102c857600080fd5b803590602001918460018302840111640100000000831117156102ea57600080fd5b91908080601f016020809104026020016040519081016040528093929190818152602001838380828437600081840152601f19601f8201169050808301925050505050505091929192908035906020019064010000000081111561034d57600080fd5b82018360208201111561035f57600080fd5b8035906020019184600183028401116401000000008311171561038157600080fd5b91908080601f016020809104026020016040519081016040528093929190818152602001838380828437600081840152601f19601f820116905080830192505050505050509192919290505050610607565b005b3480156103e157600080fd5b506103ea61075f565b6040518082815260200191505060405180910390f35b34801561040c57600080fd5b50610415610765565b005b34801561042357600080fd5b5061042c610875565b6040518082815260200191505060405180910390f35b6104716004803603602081101561045857600080fd5b81019080803560ff16906020019092919050505061087b565b005b34801561047f57600080fd5b50610488610896565b005b6104926109e2565b005b3480156104a057600080fd5b506104a96109ff565b005b3480156104b757600080fd5b506104c0610a16565b005b3480156104ce57600080fd5b506104d7610ab8565b6040518082815260200191505060405180910390f35b3480156104f957600080fd5b506105266004803603602081101561051057600080fd5b8101908080359060200190929190505050610abe565b005b34801561053457600080fd5b506105616004803603602081101561054b57600080fd5b8101908080359060200190929190505050610c0e565b005b603e5481565b603c6020528060005260406000206000915090508060000160009054906101000a900473ffffffffffffffffffffffffffffffffffffffff16908060010154905082565b6106038282600067ffffffffffffffff811180156105ca57600080fd5b506040519080825280601f01601f1916602001820160405280156105fd5781602001600182028036833780820191505090505b50610607565b5050565b61060f610c90565b73ffffffffffffffffffffffffffffffffffffffff163373ffffffffffffffffffffffffffffffffffffffff161461064657600080fd5b6000610653848484610fad565b60ff1614156106ec5760016005836040516020018082805190602001908083835b602083106106975780518252602082019150602081019050602083039250610674565b6001836020036101000a0380198251168184511680821785525050505050509050019150506040516020818303038152906040528051906020012060001c816106dc57fe5b060160ff16603e8190555061075a565b6040517f08c379a000000000000000000000000000000000000000000000000000000000815260040180806020018281038252600d8152602001807f6572726f72206d6573736167650000000000000000000000000000000000000081525060200191505060405180910390fd5b505050565b603f5481565b600560019054906101000a900460ff168061078457506107836110dd565b5b8061079c5750600560009054906101000a900460ff16155b6107f1576040517f08c379a000000000000000000000000000000000000000000000000000000000815260040180806020018281038252602e8152602001806140e2602e913960400191505060405180910390fd5b6000600560019054906101000a900460ff161590508015610843576001600560016101000a81548160ff0219169083151502179055506001600560006101000a81548160ff0219169083151502179055505b610850603060f81b6110f4565b8015610872576000600560016101000a81548160ff0219169083151502179055505b50565b60385481565b61088d60008260ff1662030d40611418565b603f8190555050565b600560019054906101000a900460ff16806108b557506108b46110dd565b5b806108cd5750600560009054906101000a900460ff16155b610922576040517f08c379a000000000000000000000000000000000000000000000000000000000815260040180806020018281038252602e8152602001806140e2602e913960400191505060405180910390fd5b6000600560019054906101000a900460ff161590508015610974576001600560016101000a81548160ff0219169083151502179055506001600560006101000a81548160ff0219169083151502179055505b600a60388190555033603b60006101000a81548173ffffffffffffffffffffffffffffffffffffffff021916908373ffffffffffffffffffffffffffffffffffffffff16021790555080156109df576000600560016101000a81548160ff0219169083151502179055505b50565b6109ea611a3d565b60ff16603d819055506109fd600161087b565b565b600260395402603860008282540392505081905550565b603e54603d541015610aae57610a2a6109ff565b7f1346ef089488831ddd390d36e94e4a0341136af2f1357d621b103c39c4523e73603b60009054906101000a900473ffffffffffffffffffffffffffffffffffffffff16603954603854604051808473ffffffffffffffffffffffffffffffffffffffff168152602001838152602001828152602001935050505060405180910390a15b610ab6611aa4565b565b603d5481565b603b60009054906101000a900473ffffffffffffffffffffffffffffffffffffffff1673ffffffffffffffffffffffffffffffffffffffff163373ffffffffffffffffffffffffffffffffffffffff1614610b1857600080fd5b610b2181611abe565b610b2a57600080fd5b806038600082825401925050819055506001603a6000828254019250508190555060405180604001604052803373ffffffffffffffffffffffffffffffffffffffff168152602001603a54815250603c60003373ffffffffffffffffffffffffffffffffffffffff1673ffffffffffffffffffffffffffffffffffffffff16815260200190815260200160002060008201518160000160006101000a81548173ffffffffffffffffffffffffffffffffffffffff021916908373ffffffffffffffffffffffffffffffffffffffff1602179055506020820151816001015590505050565b603b60009054906101000a900473ffffffffffffffffffffffffffffffffffffffff1673ffffffffffffffffffffffffffffffffffffffff163373ffffffffffffffffffffffffffffffffffffffff1614610c6857600080fd5b610c7181611abe565b610c7a57600080fd5b6002810260386000828254019250508190555050565b60008073ffffffffffffffffffffffffffffffffffffffff16600160009054906101000a900473ffffffffffffffffffffffffffffffffffffffff1673ffffffffffffffffffffffffffffffffffffffff161480610d1857506000610d16600160009054906101000a900473ffffffffffffffffffffffffffffffffffffffff16611acd565b145b15610d2957610d276000611ad8565b505b600160009054906101000a900473ffffffffffffffffffffffffffffffffffffffff1673ffffffffffffffffffffffffffffffffffffffff166338cc48316040518163ffffffff1660e01b8152600401602060405180830381600087803b158015610d9357600080fd5b505af1158015610da7573d6000803e3d6000fd5b505050506040513d6020811015610dbd57600080fd5b810190808051906020019092919050505073ffffffffffffffffffffffffffffffffffffffff1660008054906101000a900473ffffffffffffffffffffffffffffffffffffffff1673ffffffffffffffffffffffffffffffffffffffff1614610f0557600160009054906101000a900473ffffffffffffffffffffffffffffffffffffffff1673ffffffffffffffffffffffffffffffffffffffff166338cc48316040518163ffffffff1660e01b8152600401602060405180830381600087803b158015610e8a57600080fd5b505af1158015610e9e573d6000803e3d6000fd5b505050506040513d6020811015610eb457600080fd5b81019080805190602001909291905050506000806101000a81548173ffffffffffffffffffffffffffffffffffffffff021916908373ffffffffffffffffffffffffffffffffffffffff1602179055505b60008054906101000a900473ffffffffffffffffffffffffffffffffffffffff1673ffffffffffffffffffffffffffffffffffffffff1663c281d19e6040518163ffffffff1660e01b8152600401602060405180830381600087803b158015610f6d57600080fd5b505af1158015610f81573d6000803e3d6000fd5b505050506040513d6020811015610f9757600080fd5b8101908080519060200190929190505050905090565b60007f4c0000000000000000000000000000000000000000000000000000000000000082600081518110610fdd57fe5b602001015160f81c60f81b7effffffffffffffffffffffffffffffffffffffffffffffffffffffffffffff191614158061107057507f50000000000000000000000000000000000000000000000000000000000000008260018151811061104057fe5b602001015160f81c60f81b7effffffffffffffffffffffffffffffffffffffffffffffffffffffffffffff191614155b8061109c5750600160ff168260028151811061108857fe5b602001015160f81c60f81b60f81c60ff1614155b156110aa57600190506110d6565b60006110bf8386866110ba611ae9565b611b8b565b9050806110d05760029150506110d6565b60009150505b9392505050565b6000803090506000813b9050600081149250505090565b600073ffffffffffffffffffffffffffffffffffffffff16600160009054906101000a900473ffffffffffffffffffffffffffffffffffffffff1673ffffffffffffffffffffffffffffffffffffffff16148061117b57506000611179600160009054906101000a900473ffffffffffffffffffffffffffffffffffffffff16611acd565b145b1561118c5761118a6000611ad8565b505b600160009054906101000a900473ffffffffffffffffffffffffffffffffffffffff1673ffffffffffffffffffffffffffffffffffffffff166338cc48316040518163ffffffff1660e01b8152600401602060405180830381600087803b1580156111f657600080fd5b505af115801561120a573d6000803e3d6000fd5b505050506040513d602081101561122057600080fd5b810190808051906020019092919050505073ffffffffffffffffffffffffffffffffffffffff1660008054906101000a900473ffffffffffffffffffffffffffffffffffffffff1673ffffffffffffffffffffffffffffffffffffffff161461136857600160009054906101000a900473ffffffffffffffffffffffffffffffffffffffff1673ffffffffffffffffffffffffffffffffffffffff166338cc48316040518163ffffffff1660e01b8152600401602060405180830381600087803b1580156112ed57600080fd5b505af1158015611301573d6000803e3d6000fd5b505050506040513d602081101561131757600080fd5b81019080805190602001909291905050506000806101000a81548173ffffffffffffffffffffffffffffffffffffffff021916908373ffffffffffffffffffffffffffffffffffffffff1602179055505b60008054906101000a900473ffffffffffffffffffffffffffffffffffffffff1673ffffffffffffffffffffffffffffffffffffffff1663688dcfd7826040518263ffffffff1660e01b815260040180827effffffffffffffffffffffffffffffffffffffffffffffffffffffffffffff19168152602001915050600060405180830381600087803b1580156113fd57600080fd5b505af1158015611411573d6000803e3d6000fd5b5050505050565b6000808311801561142a575060208311155b61143357600080fd5b600a840293506060600167ffffffffffffffff8111801561145357600080fd5b506040519080825280601f01601f1916602001820160405280156114865781602001600182028036833780820191505090505b5090508360f81b8160008151811061149a57fe5b60200101907effffffffffffffffffffffffffffffffffffffffffffffffffffffffffffff1916908160001a9053506060602067ffffffffffffffff811180156114e357600080fd5b506040519080825280601f01601f1916602001820160405280156115165781602001600182028036833780820191505090505b5090506060602067ffffffffffffffff8111801561153357600080fd5b506040519080825280601f01601f1916602001820160405280156115665781602001600182028036833780820191505090505b50905060006115736122aa565b9050602083524241186001430340186020840152602082528060208301526060602067ffffffffffffffff811180156115ab57600080fd5b506040519080825280601f01601f1916602001820160405280156115de5781602001600182028036833780820191505090505b5090508860208201526060600867ffffffffffffffff8111801561160157600080fd5b506040519080825280601f01601f1916602001820160405280156116345781602001600182028036833780820191505090505b50905061164782601860088460006125c5565b50611650614003565b604051806080016040528087815260200188815260200186815260200184815250905060006116b56040518060400160405280600681526020017f72616e646f6d0000000000000000000000000000000000000000000000000000815250838c612624565b90506060600867ffffffffffffffff811180156116d157600080fd5b506040519080825280601f01601f1916602001820160405280156117045781602001600182028036833780820191505090505b50905060208401517f0100000000000000000000000000000000000000000000000000000000000000810460278301537e01000000000000000000000000000000000000000000000000000000000000810460268301537d010000000000000000000000000000000000000000000000000000000000810460258301537c0100000000000000000000000000000000000000000000000000000000810460248301537b01000000000000000000000000000000000000000000000000000000810460238301537a010000000000000000000000000000000000000000000000000000810460228301537901000000000000000000000000000000000000000000000000008104602183015378010000000000000000000000000000000000000000000000008104602083015350611a2a82828560016004811061184357fe5b602002015160028760006004811061185757fe5b60200201516040518082805190602001908083835b6020831061188f578051825260208201915060208101905060208303925061186c565b6001836020036101000a038019825116818451168082178552505050505050905001915050602060405180830381855afa1580156118d1573d6000803e3d6000fd5b5050506040513d60208110156118e657600080fd5b81019080805190602001909291905050508760026004811061190457fe5b60200201516040516020018085805190602001908083835b6020831061193f578051825260208201915060208101905060208303925061191c565b6001836020036101000a03801982511681845116808217855250505050505090500184805190602001908083835b60208310611990578051825260208201915060208101905060208303925061196d565b6001836020036101000a03801982511681845116808217855250505050505090500183815260200182805190602001908083835b602083106119e757805182526020820191506020810190506020830392506119c4565b6001836020036101000a038019825116818451168082178552505050505050905001945050505050604051602081830303815290604052805190602001206129a7565b8199505050505050505050509392505050565b600060016006424144604051602001808481526020018373ffffffffffffffffffffffffffffffffffffffff1660601b815260140182815260200193505050506040516020818303038152906040528051906020012060001c81611a9d57fe5b0601905090565b6000603d819055506000603e819055506000603981905550565b60008160385410159050919050565b6000813b9050919050565b6000611ae26129c3565b9050919050565b606060028054600181600116156101000203166002900480601f016020809104026020016040519081016040528092919081815260200182805460018160011615610100020316600290048015611b815780601f10611b5657610100808354040283529160200191611b81565b820191906000526020600020905b815481529060010190602001808311611b6457829003601f168201915b5050505050905090565b6000806020600287604581518110611b9f57fe5b602001015160f81c60f81b60f81c60ff16016044010190506060602067ffffffffffffffff81118015611bd157600080fd5b506040519080825280601f01601f191660200182016040528015611c045781602001600182028036833780820191505090505b509050611c16878360208460006125c5565b50600284876040516020018083805190602001908083835b60208310611c515780518252602082019150602081019050602083039250611c2e565b6001836020036101000a038019825116818451168082178552505050505050905001828152602001925050506040516020818303038152906040526040518082805190602001908083835b60208310611cbf5780518252602082019150602081019050602083039250611c9c565b6001836020036101000a038019825116818451168082178552505050505050905001915050602060405180830381855afa158015611d01573d6000803e3d6000fd5b5050506040513d6020811015611d1657600080fd5b81019080805190602001909291905050506040516020018082815260200191505060405160208183030381529060405280519060200120818051906020012014611d65576000925050506122a2565b60606002886001604986010181518110611d7b57fe5b602001015160f81c60f81b60f81c60ff160167ffffffffffffffff81118015611da357600080fd5b506040519080825280601f01601f191660200182016040528015611dd65781602001600182028036833780820191505090505b509050611deb886049850183518460006125c5565b50611eb66002826040518082805190602001908083835b60208310611e255780518252602082019150602081019050602083039250611e02565b6001836020036101000a038019825116818451168082178552505050505050905001915050602060405180830381855afa158015611e67573d6000803e3d6000fd5b5050506040513d6020811015611e7c57600080fd5b8101908080519060200190929190505050878a6008602088010181518110611ea057fe5b602001015160f81c60f81b60f81c60ff16612f1a565b611ec657600093505050506122a2565b6060602967ffffffffffffffff81118015611ee057600080fd5b506040519080825280601f01601f191660200182016040528015611f135781602001600182028036833780820191505090505b509050611f28896020860160298460006125c5565b506060604067ffffffffffffffff81118015611f4357600080fd5b506040519080825280601f01601f191660200182016040528015611f765781602001600182028036833780820191505090505b5090506000604184516029602089010101019050611f9c8b6040830360408560006125c5565b5060006002836040518082805190602001908083835b60208310611fd55780518252602082019150602081019050602083039250611fb2565b6001836020036101000a038019825116818451168082178552505050505050905001915050602060405180830381855afa158015612017573d6000803e3d6000fd5b5050506040513d602081101561202c57600080fd5b8101908080519060200190929190505050905083816040516020018083805190602001908083835b602083106120775780518252602082019150602081019050602083039250612054565b6001836020036101000a0380198251168184511680821785525050505050509050018281526020019250505060405160208183030381529060405280519060200120600360008d81526020019081526020016000205414156120ef57600360008c8152602001908152602001600020600090556120ff565b60009750505050505050506122a2565b6060604967ffffffffffffffff8111801561211957600080fd5b506040519080825280601f01601f19166020018201604052801561214c5781602001600182028036833780820191505090505b50905061215e8d8960498460006125c5565b506122076002826040518082805190602001908083835b602083106121985780518252602082019150602081019050602083039250612175565b6001836020036101000a038019825116818451168082178552505050505050905001915050602060405180830381855afa1580156121da573d6000803e3d6000fd5b5050506040513d60208110156121ef57600080fd5b81019080805190602001909291905050508786612fc7565b61221c576000985050505050505050506122a2565b6004600083815260200190815260200160002060009054906101000a900460ff166122765761224b8d846131b3565b6004600084815260200190815260200160002060006101000a81548160ff0219169083151502179055505b6004600083815260200190815260200160002060009054906101000a900460ff16985050505050505050505b949350505050565b60008073ffffffffffffffffffffffffffffffffffffffff16600160009054906101000a900473ffffffffffffffffffffffffffffffffffffffff1673ffffffffffffffffffffffffffffffffffffffff16148061233257506000612330600160009054906101000a900473ffffffffffffffffffffffffffffffffffffffff16611acd565b145b15612343576123416000611ad8565b505b600160009054906101000a900473ffffffffffffffffffffffffffffffffffffffff1673ffffffffffffffffffffffffffffffffffffffff166338cc48316040518163ffffffff1660e01b8152600401602060405180830381600087803b1580156123ad57600080fd5b505af11580156123c1573d6000803e3d6000fd5b505050506040513d60208110156123d757600080fd5b810190808051906020019092919050505073ffffffffffffffffffffffffffffffffffffffff1660008054906101000a900473ffffffffffffffffffffffffffffffffffffffff1673ffffffffffffffffffffffffffffffffffffffff161461251f57600160009054906101000a900473ffffffffffffffffffffffffffffffffffffffff1673ffffffffffffffffffffffffffffffffffffffff166338cc48316040518163ffffffff1660e01b8152600401602060405180830381600087803b1580156124a457600080fd5b505af11580156124b8573d6000803e3d6000fd5b505050506040513d60208110156124ce57600080fd5b81019080805190602001909291905050506000806101000a81548173ffffffffffffffffffffffffffffffffffffffff021916908373ffffffffffffffffffffffffffffffffffffffff1602179055505b60008054906101000a900473ffffffffffffffffffffffffffffffffffffffff1673ffffffffffffffffffffffffffffffffffffffff1663abaa5f3e6040518163ffffffff1660e01b815260040160206040518083038186803b15801561258557600080fd5b505afa158015612599573d6000803e3d6000fd5b505050506040513d60208110156125af57600080fd5b8101908080519060200190929190505050905090565b60606000828501905080845110156125dc57600080fd5b600086602001905060008460200190505b86886020010182101561261557818901518082880152506020820191506020810190506125ed565b85935050505095945050505050565b60008073ffffffffffffffffffffffffffffffffffffffff16600160009054906101000a900473ffffffffffffffffffffffffffffffffffffffff1673ffffffffffffffffffffffffffffffffffffffff1614806126ac575060006126aa600160009054906101000a900473ffffffffffffffffffffffffffffffffffffffff16611acd565b145b156126bd576126bb6000611ad8565b505b600160009054906101000a900473ffffffffffffffffffffffffffffffffffffffff1673ffffffffffffffffffffffffffffffffffffffff166338cc48316040518163ffffffff1660e01b8152600401602060405180830381600087803b15801561272757600080fd5b505af115801561273b573d6000803e3d6000fd5b505050506040513d602081101561275157600080fd5b810190808051906020019092919050505073ffffffffffffffffffffffffffffffffffffffff1660008054906101000a900473ffffffffffffffffffffffffffffffffffffffff1673ffffffffffffffffffffffffffffffffffffffff161461289957600160009054906101000a900473ffffffffffffffffffffffffffffffffffffffff1673ffffffffffffffffffffffffffffffffffffffff166338cc48316040518163ffffffff1660e01b8152600401602060405180830381600087803b15801561281e57600080fd5b505af1158015612832573d6000803e3d6000fd5b505050506040513d602081101561284857600080fd5b81019080805190602001909291905050506000806101000a81548173ffffffffffffffffffffffffffffffffffffffff021916908373ffffffffffffffffffffffffffffffffffffffff1602179055505b6060600467ffffffffffffffff811180156128b357600080fd5b506040519080825280602002602001820160405280156128e757816020015b60608152602001906001900390816128d25790505b509050836000600481106128f757fe5b60200201518160008151811061290957fe5b60200260200101819052508360016004811061292157fe5b60200201518160018151811061293357fe5b60200260200101819052508360026004811061294b57fe5b60200201518160028151811061295d57fe5b60200260200101819052508360036004811061297557fe5b60200201518160038151811061298757fe5b602002602001018190525061299d85828561363f565b9150509392505050565b8060036000848152602001908152602001600020819055505050565b6000806129e3731d3b2638a7cc9f2cb3d298a3da7a90b67e5506ed611acd565b1115612a8557731d3b2638a7cc9f2cb3d298a3da7a90b67e5506ed600160006101000a81548173ffffffffffffffffffffffffffffffffffffffff021916908373ffffffffffffffffffffffffffffffffffffffff160217905550612a7c6040518060400160405280600b81526020017f6574685f6d61696e6e6574000000000000000000000000000000000000000000815250613b9f565b60019050612f17565b6000612aa473c03a2615d5efaf5f49f60b7bb6583eaec212fdf1611acd565b1115612b465773c03a2615d5efaf5f49f60b7bb6583eaec212fdf1600160006101000a81548173ffffffffffffffffffffffffffffffffffffffff021916908373ffffffffffffffffffffffffffffffffffffffff160217905550612b3d6040518060400160405280600c81526020017f6574685f726f707374656e330000000000000000000000000000000000000000815250613b9f565b60019050612f17565b6000612b6573b7a07bcf2ba2f2703b24c0691b5278999c59ac7e611acd565b1115612c075773b7a07bcf2ba2f2703b24c0691b5278999c59ac7e600160006101000a81548173ffffffffffffffffffffffffffffffffffffffff021916908373ffffffffffffffffffffffffffffffffffffffff160217905550612bfe6040518060400160405280600981526020017f6574685f6b6f76616e0000000000000000000000000000000000000000000000815250613b9f565b60019050612f17565b6000612c2673146500cfd35b22e4a392fe0adc06de1a1368ed48611acd565b1115612cc85773146500cfd35b22e4a392fe0adc06de1a1368ed48600160006101000a81548173ffffffffffffffffffffffffffffffffffffffff021916908373ffffffffffffffffffffffffffffffffffffffff160217905550612cbf6040518060400160405280600b81526020017f6574685f72696e6b656279000000000000000000000000000000000000000000815250613b9f565b60019050612f17565b6000612ce773a2998efd205fb9d4b4963afb70778d6354ad3a41611acd565b1115612d895773a2998efd205fb9d4b4963afb70778d6354ad3a41600160006101000a81548173ffffffffffffffffffffffffffffffffffffffff021916908373ffffffffffffffffffffffffffffffffffffffff160217905550612d806040518060400160405280600a81526020017f6574685f676f65726c6900000000000000000000000000000000000000000000815250613b9f565b60019050612f17565b6000612da8736f485c8bf6fc43ea212e93bbf8ce046c7f1cb475611acd565b1115612e0c57736f485c8bf6fc43ea212e93bbf8ce046c7f1cb475600160006101000a81548173ffffffffffffffffffffffffffffffffffffffff021916908373ffffffffffffffffffffffffffffffffffffffff16021790555060019050612f17565b6000612e2b7320e12a1f859b3feae5fb2a0a32c18f5a65555bbf611acd565b1115612e8f577320e12a1f859b3feae5fb2a0a32c18f5a65555bbf600160006101000a81548173ffffffffffffffffffffffffffffffffffffffff021916908373ffffffffffffffffffffffffffffffffffffffff16021790555060019050612f17565b6000612eae7351efaf4c8b3c9afbd5ab9f4bbc82784ab6ef8faa611acd565b1115612f12577351efaf4c8b3c9afbd5ab9f4bbc82784ab6ef8faa600160006101000a81548173ffffffffffffffffffffffffffffffffffffffff021916908373ffffffffffffffffffffffffffffffffffffffff16021790555060019050612f17565b600090505b90565b6000806001905082845114612f2e57600080fd5b60005b83811015612fbb57848181518110612f4557fe5b602001015160f81c60f81b7effffffffffffffffffffffffffffffffffffffffffffffffffffffffffffff1916868260208110612f7e57fe5b1a60f81b7effffffffffffffffffffffffffffffffffffffffffffffffffffffffffffff191614612fae57600091505b8080600101915050612f31565b50809150509392505050565b60008060008060006060602067ffffffffffffffff81118015612fe957600080fd5b506040519080825280601f01601f19166020018201604052801561301c5781602001600182028036833780820191505090505b509050600060208960038151811061303057fe5b602001015160f81c60f81b60f81c60ff16036004019050613056898260208560006125c5565b91506060602067ffffffffffffffff8111801561307257600080fd5b506040519080825280601f01601f1916602001820160405280156130a55781602001600182028036833780820191505090505b5090506022820191506130e18a60208c60018603815181106130c357fe5b602001015160f81c60f81b60f81c60ff1603840160208460006125c5565b905060208301519450602081015193506130fe8b601b8787613bb9565b80975081985050508573ffffffffffffffffffffffffffffffffffffffff16898051906020012060001c73ffffffffffffffffffffffffffffffffffffffff1614156131545760019750505050505050506131ac565b6131618b601c8787613bb9565b80975081985050508573ffffffffffffffffffffffffffffffffffffffff16898051906020012060001c73ffffffffffffffffffffffffffffffffffffffff16149750505050505050505b9392505050565b600080606060028560018601815181106131c957fe5b602001015160f81c60f81b60f81c60ff160167ffffffffffffffff811180156131f157600080fd5b506040519080825280601f01601f1916602001820160405280156132245781602001600182028036833780820191505090505b509050613236858583518460006125c5565b506060604067ffffffffffffffff8111801561325157600080fd5b506040519080825280601f01601f1916602001820160405280156132845781602001600182028036833780820191505090505b50905061329786600460408460006125c5565b506060606267ffffffffffffffff811180156132b257600080fd5b506040519080825280601f01601f1916602001820160405280156132e55781602001600182028036833780820191505090505b509050600160f81b816000815181106132fa57fe5b60200101907effffffffffffffffffffffffffffffffffffffffffffffffffffffffffffff1916908160001a90535061333b876041880360418460016125c5565b5060606040518060400160405280602081526020017ffd94fa71bc0ba10d39d464d0d8f465efeef0a2764e3887fcc9df41ded20f505c815250905061338681600060208560426125c5565b5061342f6002836040518082805190602001908083835b602083106133c0578051825260208201915060208101905060208303925061339d565b6001836020036101000a038019825116818451168082178552505050505050905001915050602060405180830381855afa158015613402573d6000803e3d6000fd5b5050506040513d602081101561341757600080fd5b81019080805190602001909291905050508585612fc7565b94508461344457600095505050505050613639565b60606040518060600160405280604081526020016141106040913990506060604267ffffffffffffffff8111801561347b57600080fd5b506040519080825280601f01601f1916602001820160405280156134ae5781602001600182028036833780820191505090505b50905060fe60f81b816000815181106134c357fe5b60200101907effffffffffffffffffffffffffffffffffffffffffffffffffffffffffffff1916908160001a9053506135028a600360418460016125c5565b50606060028b60458151811061351457fe5b602001015160f81c60f81b60f81c60ff160167ffffffffffffffff8111801561353c57600080fd5b506040519080825280601f01601f19166020018201604052801561356f5781602001600182028036833780820191505090505b5090506135828b604483518460006125c5565b5061362b6002836040518082805190602001908083835b602083106135bc5780518252602082019150602081019050602083039250613599565b6001836020036101000a038019825116818451168082178552505050505050905001915050602060405180830381855afa1580156135fe573d6000803e3d6000fd5b5050506040513d602081101561361357600080fd5b81019080805190602001909291905050508285612fc7565b975087985050505050505050505b92915050565b60008073ffffffffffffffffffffffffffffffffffffffff16600160009054906101000a900473ffffffffffffffffffffffffffffffffffffffff1673ffffffffffffffffffffffffffffffffffffffff1614806136c7575060006136c5600160009054906101000a900473ffffffffffffffffffffffffffffffffffffffff16611acd565b145b156136d8576136d66000611ad8565b505b600160009054906101000a900473ffffffffffffffffffffffffffffffffffffffff1673ffffffffffffffffffffffffffffffffffffffff166338cc48316040518163ffffffff1660e01b8152600401602060405180830381600087803b15801561374257600080fd5b505af1158015613756573d6000803e3d6000fd5b505050506040513d602081101561376c57600080fd5b810190808051906020019092919050505073ffffffffffffffffffffffffffffffffffffffff1660008054906101000a900473ffffffffffffffffffffffffffffffffffffffff1673ffffffffffffffffffffffffffffffffffffffff16146138b457600160009054906101000a900473ffffffffffffffffffffffffffffffffffffffff1673ffffffffffffffffffffffffffffffffffffffff166338cc48316040518163ffffffff1660e01b8152600401602060405180830381600087803b15801561383957600080fd5b505af115801561384d573d6000803e3d6000fd5b505050506040513d602081101561386357600080fd5b81019080805190602001909291905050506000806101000a81548173ffffffffffffffffffffffffffffffffffffffff021916908373ffffffffffffffffffffffffffffffffffffffff1602179055505b60008060009054906101000a900473ffffffffffffffffffffffffffffffffffffffff1673ffffffffffffffffffffffffffffffffffffffff16632ef3accc86856040518363ffffffff1660e01b81526004018080602001838152602001828103825284818151815260200191508051906020019080838360005b8381101561394a57808201518184015260208101905061392f565b50505050905090810190601f1680156139775780820380516001836020036101000a031916815260200191505b509350505050602060405180830381600087803b15801561399757600080fd5b505af11580156139ab573d6000803e3d6000fd5b505050506040513d60208110156139c157600080fd5b81019080805190602001909291905050509050823a02670de0b6b3a7640000018111156139f4576000801b915050613b98565b60606139ff85613bfd565b905060008054906101000a900473ffffffffffffffffffffffffffffffffffffffff1673ffffffffffffffffffffffffffffffffffffffff1663c55c1cb68360008985896040518663ffffffff1660e01b8152600401808581526020018060200180602001848152602001838103835286818151815260200191508051906020019080838360005b83811015613aa2578082015181840152602081019050613a87565b50505050905090810190601f168015613acf5780820380516001836020036101000a031916815260200191505b50838103825285818151815260200191508051906020019080838360005b83811015613b08578082015181840152602081019050613aed565b50505050905090810190601f168015613b355780820380516001836020036101000a031916815260200191505b5096505050505050506020604051808303818588803b158015613b5757600080fd5b505af1158015613b6b573d6000803e3d6000fd5b50505050506040513d6020811015613b8257600080fd5b8101908080519060200190929190505050925050505b9392505050565b8060029080519060200190613bb592919061402a565b5050565b60008060008060405188815287602082015286604082015285606082015260208160808360006001610bb8f192508051915050818193509350505094509492505050565b6060613c07613c7a565b613c0f6140aa565b613c1b81610400613c86565b613c2481613cd0565b60005b8351811015613c6357613c56848281518110613c3f57fe5b602002602001015183613cde90919063ffffffff16565b8080600101915050613c27565b50613c6d81613d03565b8060000151915050919050565b60405180590338823950565b6000819050600060208281613c9757fe5b0614613cb05760208181613ca757fe5b06602003810190505b808360200181815250506040518084526000815281810160405250505050565b613cdb816004613d11565b50565b613ceb8260028351613d32565b613cfe8183613e7290919063ffffffff16565b505050565b613d0e816007613d11565b50565b613d2e601f60058360ff16901b1783613f1d90919063ffffffff16565b5050565b60178111613d5e57613d598160058460ff16901b60ff161784613f1d90919063ffffffff16565b613e6d565b60ff8111613d9f57613d83601860058460ff16901b1784613f1d90919063ffffffff16565b613d9981600185613f5d9092919063ffffffff16565b50613e6c565b61ffff8111613de157613dc5601960058460ff16901b1784613f1d90919063ffffffff16565b613ddb81600285613f5d9092919063ffffffff16565b50613e6b565b63ffffffff8111613e2557613e09601a60058460ff16901b1784613f1d90919063ffffffff16565b613e1f81600485613f5d9092919063ffffffff16565b50613e6a565b67ffffffffffffffff8111613e6957613e51601b60058460ff16901b1784613f1d90919063ffffffff16565b613e6781600885613f5d9092919063ffffffff16565b505b5b5b5b5b505050565b613e7a6140aa565b82602001518360000151518351011115613eaa57613ea9836002613ea386602001518651613fc4565b02613fe0565b5b60008060008451905085518051602081830101945086518101825260208701935050505b60208110613ef15781518352602083019250602082019150602081039050613ece565b60006001826020036101000a039050801983511681855116818117865250508694505050505092915050565b81602001516001836000015151011115613f4357613f42826002846020015102613fe0565b5b815180516020818301018381536001820183525050505050565b613f656140aa565b836020015184600001515183011115613f9357613f92846002613f8c876020015186613fc4565b02613fe0565b5b60006001836101000a0390508451805184818301018684198251161781528582018352505050849150509392505050565b600081831115613fd657829050613fda565b8190505b92915050565b606082600001519050613ff38383613c86565b613ffd8382613e72565b50505050565b60405180608001604052806004905b60608152602001906001900390816140125790505090565b828054600181600116156101000203166002900490600052602060002090601f016020900481019282601f1061406b57805160ff1916838001178555614099565b82800160010185558215614099579182015b8281111561409857825182559160200191906001019061407d565b5b5090506140a691906140c4565b5090565b604051806040016040528060608152602001600081525090565b5b808211156140dd5760008160009055506001016140c5565b509056fe436f6e747261637420696e7374616e63652068617320616c7265616479206265656e20696e697469616c697a65647fb956469c5c9b89840d55b43537e66a98dd4811ea0a27224272c2e5622911e8537a2f8e86a46baec82864e98dd01e9ccc2f8bc5dfc9cbe5a91a290498dd96e4a2646970667358221220b245f1bcbc2560ded21426355df60d5763f76bca3b2adc4004538fc2661e23ae64736f6c634300060c0033",
  "immutableReferences": {},
  "source": "pragma solidity ^0.6.0;\nimport \"./provableAPI.sol\";\nimport \"@openzeppelin/upgrades-core/contracts/Initializable.sol\";\n\n\ncontract DealerV3 is usingProvable, Initializable  {\n    uint public dealerBalance;\n    uint bet;\n    uint playedGames;\n    address player;\n    \n    function initialize() public initializer {\n        dealerBalance = 10;\n        player = msg.sender;\n    }   \n    \n    event PlayerWins(\n        address player,\n        uint profit,\n        uint dealerBalance\n        );\n    \n    mapping(address => PlayerData) public playerList;\n    \n    struct PlayerData {\n        address playerAddress;\n        uint playedGames;\n    }\n    \n    modifier onlyPlayer() {\n        require(msg.sender == player);\n        _;\n    }\n    \n    function addBet(uint _bet) public onlyPlayer {\n        require(checkIfBalanceIsEnough(_bet));\n            dealerBalance += _bet;\n            playedGames += 1;\n            playerList[msg.sender] = PlayerData(msg.sender, playedGames);\n    }\n\n    function addBet2(uint _bet) public onlyPlayer {\n        require(checkIfBalanceIsEnough(_bet));\n            dealerBalance += _bet * 2;\n    }\n    \n    \n    function returnBetWithProfit() public {\n        dealerBalance -= bet * 2; \n    }\n    \n    function checkIfBalanceIsEnough(uint _bet) private view returns (bool) {\n        return dealerBalance >= _bet; \n    }\n}\n\ncontract PolarBetV3 is DealerV3 {\n    uint public dealerDiceResult;\n    uint public userDiceResult;\n    bytes32 public queryId;\n\n    function initialize2() public initializer {\n        provable_setProof(proofType_Ledger); \n    }   \n    \n    function __callback(bytes32  _queryId,string memory _result,bytes memory _proof ) override public {\n        require(msg.sender == provable_cbAddress());\n        if (provable_randomDS_proofVerify__returnCode(_queryId,_result,_proof)== 0)\n            userDiceResult = uint8(uint256(keccak256(abi.encodePacked(_result)))% 5) + 1;\n        else\n            revert(\"error message\");\n}\n    \n    function getRandom(uint8 nrBytes) public payable { // not supported in remix\n        queryId=provable_newRandomDSQuery(\n            0,          // QUERY_EXECUTION_DELAY\n            nrBytes,    // NUM_RANDOM_BYTES_REQUESTED\n            200000      // GAS_FOR_CALLBACK\n        );\n    }\n    \n    function getRandomNumber() private view returns (uint8) {\n        return uint8(uint256(keccak256(abi.encodePacked(block.timestamp, block.coinbase, block.difficulty)))%6) + 1;\n    }\n    \n    function rollDice() public payable {\n        dealerDiceResult = getRandomNumber();\n        getRandom(1);\n    }\n    \n    function payOut() public  {\n        if (dealerDiceResult < userDiceResult) {\n            returnBetWithProfit();\n            emit PlayerWins(player, bet, dealerBalance);\n        }  \n        resetBetAndDiceResults();\n    }\n    \n    function resetBetAndDiceResults() private {\n        dealerDiceResult = 0;\n        userDiceResult = 0;\n        bet = 0; \n    }\n}",
  "sourcePath": "/Users/rowin/Documents/projects/Koios/polarbet/contracts/PolarBetV3.sol",
  "compiler": {
    "name": "solc",
    "version": "0.6.12+commit.27d51765.Emscripten.clang"
  },
  "schemaVersion": "3.3.3",
  "updatedAt": "2021-01-05T12:42:25.559Z",
  "networkType": "ethereum",
  "devdoc": {
    "kind": "dev",
    "methods": {
      "__callback(bytes32,string)": {
        "details": "The following `__callback` functions are just placeholders ideally      meant to be defined in child contract when proofs are used.      The function bodies simply silence compiler warnings."
      }
    },
    "version": 1
  },
  "userdoc": {
    "kind": "user",
    "methods": {},
    "version": 1
  }
}