{
  "contractName": "PolarBetV5",
  "abi": [
    {
      "anonymous": false,
      "inputs": [
        {
          "indexed": false,
          "internalType": "address",
          "name": "player",
          "type": "address"
        },
        {
          "indexed": false,
          "internalType": "uint256",
          "name": "profit",
          "type": "uint256"
        },
        {
          "indexed": false,
          "internalType": "uint256",
          "name": "dealerBalance",
          "type": "uint256"
        }
      ],
      "name": "PlayerWins",
      "type": "event"
    },
    {
      "stateMutability": "payable",
      "type": "fallback",
      "payable": true
    },
    {
      "inputs": [
        {
          "internalType": "uint256",
          "name": "_bet",
          "type": "uint256"
        }
      ],
      "name": "addBet",
      "outputs": [],
      "stateMutability": "nonpayable",
      "type": "function"
    },
    {
      "inputs": [
        {
          "internalType": "uint256",
          "name": "_bet",
          "type": "uint256"
        }
      ],
      "name": "addBet2",
      "outputs": [],
      "stateMutability": "nonpayable",
      "type": "function"
    },
    {
      "inputs": [],
      "name": "dealerBalance",
      "outputs": [
        {
          "internalType": "uint256",
          "name": "",
          "type": "uint256"
        }
      ],
      "stateMutability": "view",
      "type": "function",
      "constant": true
    },
    {
      "inputs": [],
      "name": "dealerDiceResult",
      "outputs": [
        {
          "internalType": "uint256",
          "name": "",
          "type": "uint256"
        }
      ],
      "stateMutability": "view",
      "type": "function",
      "constant": true
    },
    {
      "inputs": [],
      "name": "getRandomResult",
      "outputs": [
        {
          "internalType": "bytes",
          "name": "",
          "type": "bytes"
        }
      ],
      "stateMutability": "view",
      "type": "function",
      "constant": true
    },
    {
      "inputs": [],
      "name": "initialize",
      "outputs": [],
      "stateMutability": "nonpayable",
      "type": "function"
    },
    {
      "inputs": [
        {
          "internalType": "address",
          "name": "",
          "type": "address"
        }
      ],
      "name": "playerList",
      "outputs": [
        {
          "internalType": "address",
          "name": "playerAddress",
          "type": "address"
        },
        {
          "internalType": "uint256",
          "name": "playedGames",
          "type": "uint256"
        }
      ],
      "stateMutability": "view",
      "type": "function",
      "constant": true
    },
    {
      "inputs": [],
      "name": "queryId",
      "outputs": [
        {
          "internalType": "bytes32",
          "name": "",
          "type": "bytes32"
        }
      ],
      "stateMutability": "view",
      "type": "function",
      "constant": true
    },
    {
      "inputs": [],
      "name": "returnBetWithProfit",
      "outputs": [],
      "stateMutability": "nonpayable",
      "type": "function"
    },
    {
      "inputs": [],
      "name": "showBalance",
      "outputs": [
        {
          "internalType": "uint256",
          "name": "",
          "type": "uint256"
        }
      ],
      "stateMutability": "view",
      "type": "function",
      "constant": true
    },
    {
      "inputs": [],
      "name": "userDiceResult",
      "outputs": [
        {
          "internalType": "uint256",
          "name": "",
          "type": "uint256"
        }
      ],
      "stateMutability": "view",
      "type": "function",
      "constant": true
    },
    {
      "stateMutability": "payable",
      "type": "receive",
      "payable": true
    },
    {
      "inputs": [],
      "name": "initialize2",
      "outputs": [],
      "stateMutability": "nonpayable",
      "type": "function"
    },
    {
      "inputs": [
        {
          "internalType": "bytes32",
          "name": "_myid",
          "type": "bytes32"
        },
        {
          "internalType": "string",
          "name": "_result",
          "type": "string"
        }
      ],
      "name": "__callback",
      "outputs": [],
      "stateMutability": "nonpayable",
      "type": "function"
    },
    {
      "inputs": [
        {
          "internalType": "bytes32",
          "name": "_queryId",
          "type": "bytes32"
        },
        {
          "internalType": "string",
          "name": "_result",
          "type": "string"
        },
        {
          "internalType": "bytes",
          "name": "_proof",
          "type": "bytes"
        }
      ],
      "name": "__callback",
      "outputs": [],
      "stateMutability": "nonpayable",
      "type": "function"
    },
    {
      "inputs": [
        {
          "internalType": "uint8",
          "name": "nrbytes",
          "type": "uint8"
        }
      ],
      "name": "GetRandom",
      "outputs": [],
      "stateMutability": "payable",
      "type": "function",
      "payable": true
    },
    {
      "inputs": [],
      "name": "rollDice",
      "outputs": [],
      "stateMutability": "payable",
      "type": "function",
      "payable": true
    },
    {
      "inputs": [],
      "name": "getDiceResultOfDealer",
      "outputs": [
        {
          "internalType": "uint256",
          "name": "",
          "type": "uint256"
        }
      ],
      "stateMutability": "view",
      "type": "function",
      "constant": true
    },
    {
      "inputs": [],
      "name": "getDiceResultOfUser",
      "outputs": [],
      "stateMutability": "payable",
      "type": "function",
      "payable": true
    },
    {
      "inputs": [],
      "name": "payOut",
      "outputs": [],
      "stateMutability": "nonpayable",
      "type": "function"
    }
  ],
  "bytecode": "0x608060405234801561001057600080fd5b50614489806100206000396000f3fe6080604052600436106101185760003560e01c80637390c786116100a0578063c205240311610064578063c2052403146105c5578063c369b866146105dc578063cdaba78614610607578063f637d88014610642578063f98be1e01461064c5761011f565b80637390c786146104d25780638129fc1c1461056257806381b2d07b14610579578063837e7cc6146105a4578063a994dd94146105ae5761011f565b80633f1be4d4116100e75780633f1be4d414610409578063446dd97114610434578063472abf6814610465578063485e74751461047c5780635e5bad7c146104a75761011f565b806306701be01461012157806307d8b05d1461014c57806327dc297e146101ce57806338bbfa50146102a05761011f565b3661011f57005b005b34801561012d57600080fd5b50610136610687565b6040518082815260200191505060405180910390f35b34801561015857600080fd5b5061019b6004803603602081101561016f57600080fd5b81019080803573ffffffffffffffffffffffffffffffffffffffff16906020019092919050505061068d565b604051808373ffffffffffffffffffffffffffffffffffffffff1681526020018281526020019250505060405180910390f35b3480156101da57600080fd5b5061029e600480360360408110156101f157600080fd5b81019080803590602001909291908035906020019064010000000081111561021857600080fd5b82018360208201111561022a57600080fd5b8035906020019184600183028401116401000000008311171561024c57600080fd5b91908080601f016020809104026020016040519081016040528093929190818152602001838380828437600081840152601f19601f8201169050808301925050505050505091929192905050506106d1565b005b3480156102ac57600080fd5b50610407600480360360608110156102c357600080fd5b8101908080359060200190929190803590602001906401000000008111156102ea57600080fd5b8201836020820111156102fc57600080fd5b8035906020019184600183028401116401000000008311171561031e57600080fd5b91908080601f016020809104026020016040519081016040528093929190818152602001838380828437600081840152601f19601f8201169050808301925050505050505091929192908035906020019064010000000081111561038157600080fd5b82018360208201111561039357600080fd5b803590602001918460018302840111640100000000831117156103b557600080fd5b91908080601f016020809104026020016040519081016040528093929190818152602001838380828437600081840152601f19601f82011690508083019250505050505050919291929050505061072b565b005b34801561041557600080fd5b5061041e6107ee565b6040518082815260200191505060405180910390f35b6104636004803603602081101561044a57600080fd5b81019080803560ff1690602001909291905050506107f4565b005b34801561047157600080fd5b5061047a61080f565b005b34801561048857600080fd5b5061049161091f565b6040518082815260200191505060405180910390f35b3480156104b357600080fd5b506104bc610929565b6040518082815260200191505060405180910390f35b3480156104de57600080fd5b506104e761092f565b6040518080602001828103825283818151815260200191508051906020019080838360005b8381101561052757808201518184015260208101905061050c565b50505050905090810190601f1680156105545780820380516001836020036101000a031916815260200191505b509250505060405180910390f35b34801561056e57600080fd5b506105776109cd565b005b34801561058557600080fd5b5061058e610b19565b6040518082815260200191505060405180910390f35b6105ac610b23565b005b3480156105ba57600080fd5b506105c3610b40565b005b3480156105d157600080fd5b506105da610b57565b005b3480156105e857600080fd5b506105f1610bf9565b6040518082815260200191505060405180910390f35b34801561061357600080fd5b506106406004803603602081101561062a57600080fd5b8101908080359060200190929190505050610bff565b005b61064a610d4f565b005b34801561065857600080fd5b506106856004803603602081101561066f57600080fd5b8101908080359060200190929190505050610de4565b005b603e5481565b603c6020528060005260406000206000915090508060000160009054906101000a900473ffffffffffffffffffffffffffffffffffffffff16908060010154905082565b6107278282600067ffffffffffffffff811180156106ee57600080fd5b506040519080825280601f01601f1916602001820160405280156107215781602001600182028036833780820191505090505b5061072b565b5050565b610733610e66565b73ffffffffffffffffffffffffffffffffffffffff163373ffffffffffffffffffffffffffffffffffffffff161461076a57600080fd5b6000610777848484611183565b60ff16141561079c578160409080519060200190610796929190614207565b506107e9565b6040518060400160405280600581526020017f4572726f72000000000000000000000000000000000000000000000000000000815250604090805190602001906107e7929190614287565b505b505050565b603f5481565b61080660008260ff1662030d406112b3565b603f8190555050565b600560019054906101000a900460ff168061082e575061082d6118d8565b5b806108465750600560009054906101000a900460ff16155b61089b576040517f08c379a000000000000000000000000000000000000000000000000000000000815260040180806020018281038252602e8152602001806143e6602e913960400191505060405180910390fd5b6000600560019054906101000a900460ff1615905080156108ed576001600560016101000a81548160ff0219169083151502179055506001600560006101000a81548160ff0219169083151502179055505b6108fa603060f81b6118ef565b801561091c576000600560016101000a81548160ff0219169083151502179055505b50565b6000603d54905090565b60385481565b60408054600181600116156101000203166002900480601f0160208091040260200160405190810160405280929190818152602001828054600181600116156101000203166002900480156109c55780601f1061099a576101008083540402835291602001916109c5565b820191906000526020600020905b8154815290600101906020018083116109a857829003601f168201915b505050505081565b600560019054906101000a900460ff16806109ec57506109eb6118d8565b5b80610a045750600560009054906101000a900460ff16155b610a59576040517f08c379a000000000000000000000000000000000000000000000000000000000815260040180806020018281038252602e8152602001806143e6602e913960400191505060405180910390fd5b6000600560019054906101000a900460ff161590508015610aab576001600560016101000a81548160ff0219169083151502179055506001600560006101000a81548160ff0219169083151502179055505b600a60388190555033603b60006101000a81548173ffffffffffffffffffffffffffffffffffffffff021916908373ffffffffffffffffffffffffffffffffffffffff1602179055508015610b16576000600560016101000a81548160ff0219169083151502179055505b50565b6000603854905090565b610b2b611c13565b60ff16603d81905550610b3e60016107f4565b565b600260395402603860008282540392505081905550565b603e54603d541015610bef57610b6b610b40565b7f1346ef089488831ddd390d36e94e4a0341136af2f1357d621b103c39c4523e73603b60009054906101000a900473ffffffffffffffffffffffffffffffffffffffff16603954603854604051808473ffffffffffffffffffffffffffffffffffffffff168152602001838152602001828152602001935050505060405180910390a15b610bf7611c7a565b565b603d5481565b603b60009054906101000a900473ffffffffffffffffffffffffffffffffffffffff1673ffffffffffffffffffffffffffffffffffffffff163373ffffffffffffffffffffffffffffffffffffffff1614610c5957600080fd5b610c6281611cc2565b610c6b57600080fd5b806038600082825401925050819055506001603a6000828254019250508190555060405180604001604052803373ffffffffffffffffffffffffffffffffffffffff168152602001603a54815250603c60003373ffffffffffffffffffffffffffffffffffffffff1673ffffffffffffffffffffffffffffffffffffffff16815260200190815260200160002060008201518160000160006101000a81548173ffffffffffffffffffffffffffffffffffffffff021916908373ffffffffffffffffffffffffffffffffffffffff1602179055506020820151816001015590505050565b60016005604080516020018082805460018160011615610100020316600290048015610db25780601f10610d90576101008083540402835291820191610db2565b820191906000526020600020905b815481529060010190602001808311610d9e575b50509150506040516020818303038152906040528051906020012060001c81610dd757fe5b060160ff16603e81905550565b603b60009054906101000a900473ffffffffffffffffffffffffffffffffffffffff1673ffffffffffffffffffffffffffffffffffffffff163373ffffffffffffffffffffffffffffffffffffffff1614610e3e57600080fd5b610e4781611cc2565b610e5057600080fd5b6002810260386000828254019250508190555050565b60008073ffffffffffffffffffffffffffffffffffffffff16600160009054906101000a900473ffffffffffffffffffffffffffffffffffffffff1673ffffffffffffffffffffffffffffffffffffffff161480610eee57506000610eec600160009054906101000a900473ffffffffffffffffffffffffffffffffffffffff16611cd1565b145b15610eff57610efd6000611cdc565b505b600160009054906101000a900473ffffffffffffffffffffffffffffffffffffffff1673ffffffffffffffffffffffffffffffffffffffff166338cc48316040518163ffffffff1660e01b8152600401602060405180830381600087803b158015610f6957600080fd5b505af1158015610f7d573d6000803e3d6000fd5b505050506040513d6020811015610f9357600080fd5b810190808051906020019092919050505073ffffffffffffffffffffffffffffffffffffffff1660008054906101000a900473ffffffffffffffffffffffffffffffffffffffff1673ffffffffffffffffffffffffffffffffffffffff16146110db57600160009054906101000a900473ffffffffffffffffffffffffffffffffffffffff1673ffffffffffffffffffffffffffffffffffffffff166338cc48316040518163ffffffff1660e01b8152600401602060405180830381600087803b15801561106057600080fd5b505af1158015611074573d6000803e3d6000fd5b505050506040513d602081101561108a57600080fd5b81019080805190602001909291905050506000806101000a81548173ffffffffffffffffffffffffffffffffffffffff021916908373ffffffffffffffffffffffffffffffffffffffff1602179055505b60008054906101000a900473ffffffffffffffffffffffffffffffffffffffff1673ffffffffffffffffffffffffffffffffffffffff1663c281d19e6040518163ffffffff1660e01b8152600401602060405180830381600087803b15801561114357600080fd5b505af1158015611157573d6000803e3d6000fd5b505050506040513d602081101561116d57600080fd5b8101908080519060200190929190505050905090565b60007f4c00000000000000000000000000000000000000000000000000000000000000826000815181106111b357fe5b602001015160f81c60f81b7effffffffffffffffffffffffffffffffffffffffffffffffffffffffffffff191614158061124657507f50000000000000000000000000000000000000000000000000000000000000008260018151811061121657fe5b602001015160f81c60f81b7effffffffffffffffffffffffffffffffffffffffffffffffffffffffffffff191614155b806112725750600160ff168260028151811061125e57fe5b602001015160f81c60f81b60f81c60ff1614155b1561128057600190506112ac565b6000611295838686611290611ced565b611d8f565b9050806112a65760029150506112ac565b60009150505b9392505050565b600080831180156112c5575060208311155b6112ce57600080fd5b600a840293506060600167ffffffffffffffff811180156112ee57600080fd5b506040519080825280601f01601f1916602001820160405280156113215781602001600182028036833780820191505090505b5090508360f81b8160008151811061133557fe5b60200101907effffffffffffffffffffffffffffffffffffffffffffffffffffffffffffff1916908160001a9053506060602067ffffffffffffffff8111801561137e57600080fd5b506040519080825280601f01601f1916602001820160405280156113b15781602001600182028036833780820191505090505b5090506060602067ffffffffffffffff811180156113ce57600080fd5b506040519080825280601f01601f1916602001820160405280156114015781602001600182028036833780820191505090505b509050600061140e6124ae565b9050602083524241186001430340186020840152602082528060208301526060602067ffffffffffffffff8111801561144657600080fd5b506040519080825280601f01601f1916602001820160405280156114795781602001600182028036833780820191505090505b5090508860208201526060600867ffffffffffffffff8111801561149c57600080fd5b506040519080825280601f01601f1916602001820160405280156114cf5781602001600182028036833780820191505090505b5090506114e282601860088460006127c9565b506114eb614307565b604051806080016040528087815260200188815260200186815260200184815250905060006115506040518060400160405280600681526020017f72616e646f6d0000000000000000000000000000000000000000000000000000815250838c612828565b90506060600867ffffffffffffffff8111801561156c57600080fd5b506040519080825280601f01601f19166020018201604052801561159f5781602001600182028036833780820191505090505b50905060208401517f0100000000000000000000000000000000000000000000000000000000000000810460278301537e01000000000000000000000000000000000000000000000000000000000000810460268301537d010000000000000000000000000000000000000000000000000000000000810460258301537c0100000000000000000000000000000000000000000000000000000000810460248301537b01000000000000000000000000000000000000000000000000000000810460238301537a0100000000000000000000000000000000000000000000000000008104602283015379010000000000000000000000000000000000000000000000000081046021830153780100000000000000000000000000000000000000000000000081046020830153506118c58282856001600481106116de57fe5b60200201516002876000600481106116f257fe5b60200201516040518082805190602001908083835b6020831061172a5780518252602082019150602081019050602083039250611707565b6001836020036101000a038019825116818451168082178552505050505050905001915050602060405180830381855afa15801561176c573d6000803e3d6000fd5b5050506040513d602081101561178157600080fd5b81019080805190602001909291905050508760026004811061179f57fe5b60200201516040516020018085805190602001908083835b602083106117da57805182526020820191506020810190506020830392506117b7565b6001836020036101000a03801982511681845116808217855250505050505090500184805190602001908083835b6020831061182b5780518252602082019150602081019050602083039250611808565b6001836020036101000a03801982511681845116808217855250505050505090500183815260200182805190602001908083835b60208310611882578051825260208201915060208101905060208303925061185f565b6001836020036101000a03801982511681845116808217855250505050505090500194505050505060405160208183030381529060405280519060200120612bab565b8199505050505050505050509392505050565b6000803090506000813b9050600081149250505090565b600073ffffffffffffffffffffffffffffffffffffffff16600160009054906101000a900473ffffffffffffffffffffffffffffffffffffffff1673ffffffffffffffffffffffffffffffffffffffff16148061197657506000611974600160009054906101000a900473ffffffffffffffffffffffffffffffffffffffff16611cd1565b145b15611987576119856000611cdc565b505b600160009054906101000a900473ffffffffffffffffffffffffffffffffffffffff1673ffffffffffffffffffffffffffffffffffffffff166338cc48316040518163ffffffff1660e01b8152600401602060405180830381600087803b1580156119f157600080fd5b505af1158015611a05573d6000803e3d6000fd5b505050506040513d6020811015611a1b57600080fd5b810190808051906020019092919050505073ffffffffffffffffffffffffffffffffffffffff1660008054906101000a900473ffffffffffffffffffffffffffffffffffffffff1673ffffffffffffffffffffffffffffffffffffffff1614611b6357600160009054906101000a900473ffffffffffffffffffffffffffffffffffffffff1673ffffffffffffffffffffffffffffffffffffffff166338cc48316040518163ffffffff1660e01b8152600401602060405180830381600087803b158015611ae857600080fd5b505af1158015611afc573d6000803e3d6000fd5b505050506040513d6020811015611b1257600080fd5b81019080805190602001909291905050506000806101000a81548173ffffffffffffffffffffffffffffffffffffffff021916908373ffffffffffffffffffffffffffffffffffffffff1602179055505b60008054906101000a900473ffffffffffffffffffffffffffffffffffffffff1673ffffffffffffffffffffffffffffffffffffffff1663688dcfd7826040518263ffffffff1660e01b815260040180827effffffffffffffffffffffffffffffffffffffffffffffffffffffffffffff19168152602001915050600060405180830381600087803b158015611bf857600080fd5b505af1158015611c0c573d6000803e3d6000fd5b5050505050565b600060016006424144604051602001808481526020018373ffffffffffffffffffffffffffffffffffffffff1660601b815260140182815260200193505050506040516020818303038152906040528051906020012060001c81611c7357fe5b0601905090565b6000603d819055506000603e819055506040518060200160405280600081525060409080519060200190611caf929190614287565b5060006039819055506000603f81905550565b60008160385410159050919050565b6000813b9050919050565b6000611ce6612bc7565b9050919050565b606060028054600181600116156101000203166002900480601f016020809104026020016040519081016040528092919081815260200182805460018160011615610100020316600290048015611d855780601f10611d5a57610100808354040283529160200191611d85565b820191906000526020600020905b815481529060010190602001808311611d6857829003601f168201915b5050505050905090565b6000806020600287604581518110611da357fe5b602001015160f81c60f81b60f81c60ff16016044010190506060602067ffffffffffffffff81118015611dd557600080fd5b506040519080825280601f01601f191660200182016040528015611e085781602001600182028036833780820191505090505b509050611e1a878360208460006127c9565b50600284876040516020018083805190602001908083835b60208310611e555780518252602082019150602081019050602083039250611e32565b6001836020036101000a038019825116818451168082178552505050505050905001828152602001925050506040516020818303038152906040526040518082805190602001908083835b60208310611ec35780518252602082019150602081019050602083039250611ea0565b6001836020036101000a038019825116818451168082178552505050505050905001915050602060405180830381855afa158015611f05573d6000803e3d6000fd5b5050506040513d6020811015611f1a57600080fd5b81019080805190602001909291905050506040516020018082815260200191505060405160208183030381529060405280519060200120818051906020012014611f69576000925050506124a6565b60606002886001604986010181518110611f7f57fe5b602001015160f81c60f81b60f81c60ff160167ffffffffffffffff81118015611fa757600080fd5b506040519080825280601f01601f191660200182016040528015611fda5781602001600182028036833780820191505090505b509050611fef886049850183518460006127c9565b506120ba6002826040518082805190602001908083835b602083106120295780518252602082019150602081019050602083039250612006565b6001836020036101000a038019825116818451168082178552505050505050905001915050602060405180830381855afa15801561206b573d6000803e3d6000fd5b5050506040513d602081101561208057600080fd5b8101908080519060200190929190505050878a60086020880101815181106120a457fe5b602001015160f81c60f81b60f81c60ff1661311e565b6120ca57600093505050506124a6565b6060602967ffffffffffffffff811180156120e457600080fd5b506040519080825280601f01601f1916602001820160405280156121175781602001600182028036833780820191505090505b50905061212c896020860160298460006127c9565b506060604067ffffffffffffffff8111801561214757600080fd5b506040519080825280601f01601f19166020018201604052801561217a5781602001600182028036833780820191505090505b50905060006041845160296020890101010190506121a08b6040830360408560006127c9565b5060006002836040518082805190602001908083835b602083106121d957805182526020820191506020810190506020830392506121b6565b6001836020036101000a038019825116818451168082178552505050505050905001915050602060405180830381855afa15801561221b573d6000803e3d6000fd5b5050506040513d602081101561223057600080fd5b8101908080519060200190929190505050905083816040516020018083805190602001908083835b6020831061227b5780518252602082019150602081019050602083039250612258565b6001836020036101000a0380198251168184511680821785525050505050509050018281526020019250505060405160208183030381529060405280519060200120600360008d81526020019081526020016000205414156122f357600360008c815260200190815260200160002060009055612303565b60009750505050505050506124a6565b6060604967ffffffffffffffff8111801561231d57600080fd5b506040519080825280601f01601f1916602001820160405280156123505781602001600182028036833780820191505090505b5090506123628d8960498460006127c9565b5061240b6002826040518082805190602001908083835b6020831061239c5780518252602082019150602081019050602083039250612379565b6001836020036101000a038019825116818451168082178552505050505050905001915050602060405180830381855afa1580156123de573d6000803e3d6000fd5b5050506040513d60208110156123f357600080fd5b810190808051906020019092919050505087866131cb565b612420576000985050505050505050506124a6565b6004600083815260200190815260200160002060009054906101000a900460ff1661247a5761244f8d846133b7565b6004600084815260200190815260200160002060006101000a81548160ff0219169083151502179055505b6004600083815260200190815260200160002060009054906101000a900460ff16985050505050505050505b949350505050565b60008073ffffffffffffffffffffffffffffffffffffffff16600160009054906101000a900473ffffffffffffffffffffffffffffffffffffffff1673ffffffffffffffffffffffffffffffffffffffff16148061253657506000612534600160009054906101000a900473ffffffffffffffffffffffffffffffffffffffff16611cd1565b145b15612547576125456000611cdc565b505b600160009054906101000a900473ffffffffffffffffffffffffffffffffffffffff1673ffffffffffffffffffffffffffffffffffffffff166338cc48316040518163ffffffff1660e01b8152600401602060405180830381600087803b1580156125b157600080fd5b505af11580156125c5573d6000803e3d6000fd5b505050506040513d60208110156125db57600080fd5b810190808051906020019092919050505073ffffffffffffffffffffffffffffffffffffffff1660008054906101000a900473ffffffffffffffffffffffffffffffffffffffff1673ffffffffffffffffffffffffffffffffffffffff161461272357600160009054906101000a900473ffffffffffffffffffffffffffffffffffffffff1673ffffffffffffffffffffffffffffffffffffffff166338cc48316040518163ffffffff1660e01b8152600401602060405180830381600087803b1580156126a857600080fd5b505af11580156126bc573d6000803e3d6000fd5b505050506040513d60208110156126d257600080fd5b81019080805190602001909291905050506000806101000a81548173ffffffffffffffffffffffffffffffffffffffff021916908373ffffffffffffffffffffffffffffffffffffffff1602179055505b60008054906101000a900473ffffffffffffffffffffffffffffffffffffffff1673ffffffffffffffffffffffffffffffffffffffff1663abaa5f3e6040518163ffffffff1660e01b815260040160206040518083038186803b15801561278957600080fd5b505afa15801561279d573d6000803e3d6000fd5b505050506040513d60208110156127b357600080fd5b8101908080519060200190929190505050905090565b60606000828501905080845110156127e057600080fd5b600086602001905060008460200190505b86886020010182101561281957818901518082880152506020820191506020810190506127f1565b85935050505095945050505050565b60008073ffffffffffffffffffffffffffffffffffffffff16600160009054906101000a900473ffffffffffffffffffffffffffffffffffffffff1673ffffffffffffffffffffffffffffffffffffffff1614806128b0575060006128ae600160009054906101000a900473ffffffffffffffffffffffffffffffffffffffff16611cd1565b145b156128c1576128bf6000611cdc565b505b600160009054906101000a900473ffffffffffffffffffffffffffffffffffffffff1673ffffffffffffffffffffffffffffffffffffffff166338cc48316040518163ffffffff1660e01b8152600401602060405180830381600087803b15801561292b57600080fd5b505af115801561293f573d6000803e3d6000fd5b505050506040513d602081101561295557600080fd5b810190808051906020019092919050505073ffffffffffffffffffffffffffffffffffffffff1660008054906101000a900473ffffffffffffffffffffffffffffffffffffffff1673ffffffffffffffffffffffffffffffffffffffff1614612a9d57600160009054906101000a900473ffffffffffffffffffffffffffffffffffffffff1673ffffffffffffffffffffffffffffffffffffffff166338cc48316040518163ffffffff1660e01b8152600401602060405180830381600087803b158015612a2257600080fd5b505af1158015612a36573d6000803e3d6000fd5b505050506040513d6020811015612a4c57600080fd5b81019080805190602001909291905050506000806101000a81548173ffffffffffffffffffffffffffffffffffffffff021916908373ffffffffffffffffffffffffffffffffffffffff1602179055505b6060600467ffffffffffffffff81118015612ab757600080fd5b50604051908082528060200260200182016040528015612aeb57816020015b6060815260200190600190039081612ad65790505b50905083600060048110612afb57fe5b602002015181600081518110612b0d57fe5b602002602001018190525083600160048110612b2557fe5b602002015181600181518110612b3757fe5b602002602001018190525083600260048110612b4f57fe5b602002015181600281518110612b6157fe5b602002602001018190525083600360048110612b7957fe5b602002015181600381518110612b8b57fe5b6020026020010181905250612ba1858285613843565b9150509392505050565b8060036000848152602001908152602001600020819055505050565b600080612be7731d3b2638a7cc9f2cb3d298a3da7a90b67e5506ed611cd1565b1115612c8957731d3b2638a7cc9f2cb3d298a3da7a90b67e5506ed600160006101000a81548173ffffffffffffffffffffffffffffffffffffffff021916908373ffffffffffffffffffffffffffffffffffffffff160217905550612c806040518060400160405280600b81526020017f6574685f6d61696e6e6574000000000000000000000000000000000000000000815250613da3565b6001905061311b565b6000612ca873c03a2615d5efaf5f49f60b7bb6583eaec212fdf1611cd1565b1115612d4a5773c03a2615d5efaf5f49f60b7bb6583eaec212fdf1600160006101000a81548173ffffffffffffffffffffffffffffffffffffffff021916908373ffffffffffffffffffffffffffffffffffffffff160217905550612d416040518060400160405280600c81526020017f6574685f726f707374656e330000000000000000000000000000000000000000815250613da3565b6001905061311b565b6000612d6973b7a07bcf2ba2f2703b24c0691b5278999c59ac7e611cd1565b1115612e0b5773b7a07bcf2ba2f2703b24c0691b5278999c59ac7e600160006101000a81548173ffffffffffffffffffffffffffffffffffffffff021916908373ffffffffffffffffffffffffffffffffffffffff160217905550612e026040518060400160405280600981526020017f6574685f6b6f76616e0000000000000000000000000000000000000000000000815250613da3565b6001905061311b565b6000612e2a73146500cfd35b22e4a392fe0adc06de1a1368ed48611cd1565b1115612ecc5773146500cfd35b22e4a392fe0adc06de1a1368ed48600160006101000a81548173ffffffffffffffffffffffffffffffffffffffff021916908373ffffffffffffffffffffffffffffffffffffffff160217905550612ec36040518060400160405280600b81526020017f6574685f72696e6b656279000000000000000000000000000000000000000000815250613da3565b6001905061311b565b6000612eeb73a2998efd205fb9d4b4963afb70778d6354ad3a41611cd1565b1115612f8d5773a2998efd205fb9d4b4963afb70778d6354ad3a41600160006101000a81548173ffffffffffffffffffffffffffffffffffffffff021916908373ffffffffffffffffffffffffffffffffffffffff160217905550612f846040518060400160405280600a81526020017f6574685f676f65726c6900000000000000000000000000000000000000000000815250613da3565b6001905061311b565b6000612fac736f485c8bf6fc43ea212e93bbf8ce046c7f1cb475611cd1565b111561301057736f485c8bf6fc43ea212e93bbf8ce046c7f1cb475600160006101000a81548173ffffffffffffffffffffffffffffffffffffffff021916908373ffffffffffffffffffffffffffffffffffffffff1602179055506001905061311b565b600061302f7320e12a1f859b3feae5fb2a0a32c18f5a65555bbf611cd1565b1115613093577320e12a1f859b3feae5fb2a0a32c18f5a65555bbf600160006101000a81548173ffffffffffffffffffffffffffffffffffffffff021916908373ffffffffffffffffffffffffffffffffffffffff1602179055506001905061311b565b60006130b27351efaf4c8b3c9afbd5ab9f4bbc82784ab6ef8faa611cd1565b1115613116577351efaf4c8b3c9afbd5ab9f4bbc82784ab6ef8faa600160006101000a81548173ffffffffffffffffffffffffffffffffffffffff021916908373ffffffffffffffffffffffffffffffffffffffff1602179055506001905061311b565b600090505b90565b600080600190508284511461313257600080fd5b60005b838110156131bf5784818151811061314957fe5b602001015160f81c60f81b7effffffffffffffffffffffffffffffffffffffffffffffffffffffffffffff191686826020811061318257fe5b1a60f81b7effffffffffffffffffffffffffffffffffffffffffffffffffffffffffffff1916146131b257600091505b8080600101915050613135565b50809150509392505050565b60008060008060006060602067ffffffffffffffff811180156131ed57600080fd5b506040519080825280601f01601f1916602001820160405280156132205781602001600182028036833780820191505090505b509050600060208960038151811061323457fe5b602001015160f81c60f81b60f81c60ff1603600401905061325a898260208560006127c9565b91506060602067ffffffffffffffff8111801561327657600080fd5b506040519080825280601f01601f1916602001820160405280156132a95781602001600182028036833780820191505090505b5090506022820191506132e58a60208c60018603815181106132c757fe5b602001015160f81c60f81b60f81c60ff1603840160208460006127c9565b905060208301519450602081015193506133028b601b8787613dbd565b80975081985050508573ffffffffffffffffffffffffffffffffffffffff16898051906020012060001c73ffffffffffffffffffffffffffffffffffffffff1614156133585760019750505050505050506133b0565b6133658b601c8787613dbd565b80975081985050508573ffffffffffffffffffffffffffffffffffffffff16898051906020012060001c73ffffffffffffffffffffffffffffffffffffffff16149750505050505050505b9392505050565b600080606060028560018601815181106133cd57fe5b602001015160f81c60f81b60f81c60ff160167ffffffffffffffff811180156133f557600080fd5b506040519080825280601f01601f1916602001820160405280156134285781602001600182028036833780820191505090505b50905061343a858583518460006127c9565b506060604067ffffffffffffffff8111801561345557600080fd5b506040519080825280601f01601f1916602001820160405280156134885781602001600182028036833780820191505090505b50905061349b86600460408460006127c9565b506060606267ffffffffffffffff811180156134b657600080fd5b506040519080825280601f01601f1916602001820160405280156134e95781602001600182028036833780820191505090505b509050600160f81b816000815181106134fe57fe5b60200101907effffffffffffffffffffffffffffffffffffffffffffffffffffffffffffff1916908160001a90535061353f876041880360418460016127c9565b5060606040518060400160405280602081526020017ffd94fa71bc0ba10d39d464d0d8f465efeef0a2764e3887fcc9df41ded20f505c815250905061358a81600060208560426127c9565b506136336002836040518082805190602001908083835b602083106135c457805182526020820191506020810190506020830392506135a1565b6001836020036101000a038019825116818451168082178552505050505050905001915050602060405180830381855afa158015613606573d6000803e3d6000fd5b5050506040513d602081101561361b57600080fd5b810190808051906020019092919050505085856131cb565b9450846136485760009550505050505061383d565b60606040518060600160405280604081526020016144146040913990506060604267ffffffffffffffff8111801561367f57600080fd5b506040519080825280601f01601f1916602001820160405280156136b25781602001600182028036833780820191505090505b50905060fe60f81b816000815181106136c757fe5b60200101907effffffffffffffffffffffffffffffffffffffffffffffffffffffffffffff1916908160001a9053506137068a600360418460016127c9565b50606060028b60458151811061371857fe5b602001015160f81c60f81b60f81c60ff160167ffffffffffffffff8111801561374057600080fd5b506040519080825280601f01601f1916602001820160405280156137735781602001600182028036833780820191505090505b5090506137868b604483518460006127c9565b5061382f6002836040518082805190602001908083835b602083106137c0578051825260208201915060208101905060208303925061379d565b6001836020036101000a038019825116818451168082178552505050505050905001915050602060405180830381855afa158015613802573d6000803e3d6000fd5b5050506040513d602081101561381757600080fd5b810190808051906020019092919050505082856131cb565b975087985050505050505050505b92915050565b60008073ffffffffffffffffffffffffffffffffffffffff16600160009054906101000a900473ffffffffffffffffffffffffffffffffffffffff1673ffffffffffffffffffffffffffffffffffffffff1614806138cb575060006138c9600160009054906101000a900473ffffffffffffffffffffffffffffffffffffffff16611cd1565b145b156138dc576138da6000611cdc565b505b600160009054906101000a900473ffffffffffffffffffffffffffffffffffffffff1673ffffffffffffffffffffffffffffffffffffffff166338cc48316040518163ffffffff1660e01b8152600401602060405180830381600087803b15801561394657600080fd5b505af115801561395a573d6000803e3d6000fd5b505050506040513d602081101561397057600080fd5b810190808051906020019092919050505073ffffffffffffffffffffffffffffffffffffffff1660008054906101000a900473ffffffffffffffffffffffffffffffffffffffff1673ffffffffffffffffffffffffffffffffffffffff1614613ab857600160009054906101000a900473ffffffffffffffffffffffffffffffffffffffff1673ffffffffffffffffffffffffffffffffffffffff166338cc48316040518163ffffffff1660e01b8152600401602060405180830381600087803b158015613a3d57600080fd5b505af1158015613a51573d6000803e3d6000fd5b505050506040513d6020811015613a6757600080fd5b81019080805190602001909291905050506000806101000a81548173ffffffffffffffffffffffffffffffffffffffff021916908373ffffffffffffffffffffffffffffffffffffffff1602179055505b60008060009054906101000a900473ffffffffffffffffffffffffffffffffffffffff1673ffffffffffffffffffffffffffffffffffffffff16632ef3accc86856040518363ffffffff1660e01b81526004018080602001838152602001828103825284818151815260200191508051906020019080838360005b83811015613b4e578082015181840152602081019050613b33565b50505050905090810190601f168015613b7b5780820380516001836020036101000a031916815260200191505b509350505050602060405180830381600087803b158015613b9b57600080fd5b505af1158015613baf573d6000803e3d6000fd5b505050506040513d6020811015613bc557600080fd5b81019080805190602001909291905050509050823a02670de0b6b3a764000001811115613bf8576000801b915050613d9c565b6060613c0385613e01565b905060008054906101000a900473ffffffffffffffffffffffffffffffffffffffff1673ffffffffffffffffffffffffffffffffffffffff1663c55c1cb68360008985896040518663ffffffff1660e01b8152600401808581526020018060200180602001848152602001838103835286818151815260200191508051906020019080838360005b83811015613ca6578082015181840152602081019050613c8b565b50505050905090810190601f168015613cd35780820380516001836020036101000a031916815260200191505b50838103825285818151815260200191508051906020019080838360005b83811015613d0c578082015181840152602081019050613cf1565b50505050905090810190601f168015613d395780820380516001836020036101000a031916815260200191505b5096505050505050506020604051808303818588803b158015613d5b57600080fd5b505af1158015613d6f573d6000803e3d6000fd5b50505050506040513d6020811015613d8657600080fd5b8101908080519060200190929190505050925050505b9392505050565b8060029080519060200190613db992919061432e565b5050565b60008060008060405188815287602082015286604082015285606082015260208160808360006001610bb8f192508051915050818193509350505094509492505050565b6060613e0b613e7e565b613e136143ae565b613e1f81610400613e8a565b613e2881613ed4565b60005b8351811015613e6757613e5a848281518110613e4357fe5b602002602001015183613ee290919063ffffffff16565b8080600101915050613e2b565b50613e7181613f07565b8060000151915050919050565b60405180590338823950565b6000819050600060208281613e9b57fe5b0614613eb45760208181613eab57fe5b06602003810190505b808360200181815250506040518084526000815281810160405250505050565b613edf816004613f15565b50565b613eef8260028351613f36565b613f02818361407690919063ffffffff16565b505050565b613f12816007613f15565b50565b613f32601f60058360ff16901b178361412190919063ffffffff16565b5050565b60178111613f6257613f5d8160058460ff16901b60ff16178461412190919063ffffffff16565b614071565b60ff8111613fa357613f87601860058460ff16901b178461412190919063ffffffff16565b613f9d816001856141619092919063ffffffff16565b50614070565b61ffff8111613fe557613fc9601960058460ff16901b178461412190919063ffffffff16565b613fdf816002856141619092919063ffffffff16565b5061406f565b63ffffffff81116140295761400d601a60058460ff16901b178461412190919063ffffffff16565b614023816004856141619092919063ffffffff16565b5061406e565b67ffffffffffffffff811161406d57614055601b60058460ff16901b178461412190919063ffffffff16565b61406b816008856141619092919063ffffffff16565b505b5b5b5b5b505050565b61407e6143ae565b826020015183600001515183510111156140ae576140ad8360026140a7866020015186516141c8565b026141e4565b5b60008060008451905085518051602081830101945086518101825260208701935050505b602081106140f557815183526020830192506020820191506020810390506140d2565b60006001826020036101000a039050801983511681855116818117865250508694505050505092915050565b81602001516001836000015151011115614147576141468260028460200151026141e4565b5b815180516020818301018381536001820183525050505050565b6141696143ae565b836020015184600001515183011115614197576141968460026141908760200151866141c8565b026141e4565b5b60006001836101000a0390508451805184818301018684198251161781528582018352505050849150509392505050565b6000818311156141da578290506141de565b8190505b92915050565b6060826000015190506141f78383613e8a565b6142018382614076565b50505050565b828054600181600116156101000203166002900490600052602060002090601f016020900481019282601f1061424857805160ff1916838001178555614276565b82800160010185558215614276579182015b8281111561427557825182559160200191906001019061425a565b5b50905061428391906143c8565b5090565b828054600181600116156101000203166002900490600052602060002090601f016020900481019282601f106142c857805160ff19168380011785556142f6565b828001600101855582156142f6579182015b828111156142f55782518255916020019190600101906142da565b5b50905061430391906143c8565b5090565b60405180608001604052806004905b60608152602001906001900390816143165790505090565b828054600181600116156101000203166002900490600052602060002090601f016020900481019282601f1061436f57805160ff191683800117855561439d565b8280016001018555821561439d579182015b8281111561439c578251825591602001919060010190614381565b5b5090506143aa91906143c8565b5090565b604051806040016040528060608152602001600081525090565b5b808211156143e15760008160009055506001016143c9565b509056fe436f6e747261637420696e7374616e63652068617320616c7265616479206265656e20696e697469616c697a65647fb956469c5c9b89840d55b43537e66a98dd4811ea0a27224272c2e5622911e8537a2f8e86a46baec82864e98dd01e9ccc2f8bc5dfc9cbe5a91a290498dd96e4a2646970667358221220eebd737c09fb532b8acc94712335d7d2a8843940a6adce6c4b3942c20de9af9a64736f6c634300060c0033",
  "immutableReferences": {},
  "source": "pragma solidity ^0.6.0;\n\n/// @title PolarBet\n/// @author R. van Amsterdam\n/// @notice This contract is for testing purposes only\n\nimport \"./provableAPI.sol\";\nimport \"@openzeppelin/upgrades-core/contracts/Initializable.sol\";\n\ncontract DealerV5 is usingProvable, Initializable {\n    uint256 public dealerBalance;\n    uint256 bet;\n    uint256 playedGames;\n    address player;\n\n    function initialize() public initializer {\n        dealerBalance = 10;\n        player = msg.sender;\n    }\n\n    fallback() external payable {}\n\n    receive() external payable {}\n\n    event PlayerWins(address player, uint256 profit, uint256 dealerBalance);\n\n    mapping(address => PlayerData) public playerList;\n\n    struct PlayerData {\n        address playerAddress;\n        uint256 playedGames;\n    }\n\n    modifier onlyPlayer() {\n        require(msg.sender == player);\n        _;\n    }\n\n    function addBet(uint256 _bet) public onlyPlayer {\n        require(checkIfBalanceIsEnough(_bet));\n        dealerBalance += _bet;\n        playedGames += 1;\n        playerList[msg.sender] = PlayerData(msg.sender, playedGames);\n    }\n\n    function addBet2(uint256 _bet) public onlyPlayer {\n        require(checkIfBalanceIsEnough(_bet));\n        dealerBalance += _bet * 2;\n    }\n\n    function returnBetWithProfit() public {\n        dealerBalance -= bet * 2;\n    }\n\n    function showBalance() public view returns (uint256) {\n        return dealerBalance;\n    }\n\n    function checkIfBalanceIsEnough(uint256 _bet) private view returns (bool) {\n        return dealerBalance >= _bet;\n    }\n}\n\ncontract PolarBetV5 is DealerV5 {\n    uint256 public dealerDiceResult;\n    uint256 public userDiceResult;\n    bytes32 public queryId;\n    bytes public getRandomResult;\n\n    // constructor() public {\n    //     provable_setProof(proofType_Ledger);\n    // }\n\n    function initialize2() public initializer {\n        provable_setProof(proofType_Ledger);\n    }\n\n    /// @notice Returns random result from oracle.\n    /// @dev Set random bytes as variable from Provable oracle.\n    function __callback(bytes32  _queryId,string memory _result,bytes memory _proof ) override public {\n        require(msg.sender == provable_cbAddress());\n        if (provable_randomDS_proofVerify__returnCode(_queryId,_result,_proof)== 0)\n            getRandomResult = bytes(_result);\n        else\n            getRandomResult=\"Error\";\n    }\n    \n    function GetRandom(uint8 nrbytes) public payable { // not supported in remix\n        queryId=provable_newRandomDSQuery(\n            0,          // QUERY_EXECUTION_DELAY\n            nrbytes,    // NUM_RANDOM_BYTES_REQUESTED\n            200000      // GAS_FOR_CALLBACK\n        );\n    }\n\n    function getRandomNumber() private view returns (uint8) {\n        return\n            uint8(\n                uint256(\n                    keccak256(\n                        abi.encodePacked(\n                            block.timestamp,\n                            block.coinbase,\n                            block.difficulty\n                        )\n                    )\n                ) % 6\n            ) + 1;\n    }\n\n    function rollDice() public payable {\n        dealerDiceResult = getRandomNumber();\n        GetRandom(1);\n    }\n\n    function getDiceResultOfDealer() public view returns (uint256) {\n        return dealerDiceResult;\n    }\n\n    function getDiceResultOfUser() public payable {\n        userDiceResult =\n            uint8(uint256(keccak256(abi.encodePacked(getRandomResult))) % 5) +\n            1;\n    }\n\n    function payOut() public {\n        if (dealerDiceResult < userDiceResult) {\n            returnBetWithProfit();\n            emit PlayerWins(player, bet, dealerBalance);\n        }\n        resetBetAndDiceResults();\n    }\n\n    function resetBetAndDiceResults() private {\n        dealerDiceResult = 0;\n        userDiceResult = 0;\n        getRandomResult = \"\";\n        bet = 0;\n        queryId = \"\";\n    }\n}\n\n",
  "sourcePath": "/Users/rowin/Documents/projects/Koios/polarbet/contracts/PolarBetV5.sol",
  "compiler": {
    "name": "solc",
    "version": "0.6.12+commit.27d51765.Emscripten.clang"
  },
  "schemaVersion": "3.3.3",
  "updatedAt": "2021-01-29T21:41:49.447Z",
  "networkType": "ethereum",
  "devdoc": {
    "kind": "dev",
    "methods": {
      "__callback(bytes32,string)": {
        "details": "The following `__callback` functions are just placeholders ideally      meant to be defined in child contract when proofs are used.      The function bodies simply silence compiler warnings."
      },
      "__callback(bytes32,string,bytes)": {
        "details": "Set random bytes as variable from Provable oracle."
      }
    },
    "version": 1
  },
  "userdoc": {
    "kind": "user",
    "methods": {
      "__callback(bytes32,string,bytes)": {
        "notice": "Returns random result from oracle."
      }
    },
    "version": 1
  }
}