{
  "contractName": "PolarBet",
  "abi": [
    {
      "anonymous": false,
      "inputs": [
        {
          "indexed": false,
          "internalType": "address",
          "name": "player",
          "type": "address"
        },
        {
          "indexed": false,
          "internalType": "uint256",
          "name": "profit",
          "type": "uint256"
        },
        {
          "indexed": false,
          "internalType": "uint256",
          "name": "dealerBalance",
          "type": "uint256"
        }
      ],
      "name": "PlayerWins",
      "type": "event"
    },
    {
      "inputs": [
        {
          "internalType": "uint256",
          "name": "_bet",
          "type": "uint256"
        }
      ],
      "name": "addBet",
      "outputs": [],
      "stateMutability": "nonpayable",
      "type": "function"
    },
    {
      "inputs": [],
      "name": "dealerBalance",
      "outputs": [
        {
          "internalType": "uint256",
          "name": "",
          "type": "uint256"
        }
      ],
      "stateMutability": "view",
      "type": "function",
      "constant": true
    },
    {
      "inputs": [],
      "name": "initialize",
      "outputs": [],
      "stateMutability": "nonpayable",
      "type": "function"
    },
    {
      "inputs": [
        {
          "internalType": "address",
          "name": "",
          "type": "address"
        }
      ],
      "name": "playerList",
      "outputs": [
        {
          "internalType": "address",
          "name": "playerAddress",
          "type": "address"
        },
        {
          "internalType": "uint256",
          "name": "playedGames",
          "type": "uint256"
        }
      ],
      "stateMutability": "view",
      "type": "function",
      "constant": true
    },
    {
      "inputs": [],
      "name": "queryId",
      "outputs": [
        {
          "internalType": "bytes32",
          "name": "",
          "type": "bytes32"
        }
      ],
      "stateMutability": "view",
      "type": "function",
      "constant": true
    },
    {
      "inputs": [],
      "name": "returnBetWithProfit",
      "outputs": [],
      "stateMutability": "nonpayable",
      "type": "function"
    },
    {
      "inputs": [],
      "name": "showBalance",
      "outputs": [
        {
          "internalType": "uint256",
          "name": "",
          "type": "uint256"
        }
      ],
      "stateMutability": "view",
      "type": "function",
      "constant": true
    },
    {
      "inputs": [],
      "name": "initialize2",
      "outputs": [],
      "stateMutability": "nonpayable",
      "type": "function"
    },
    {
      "inputs": [
        {
          "internalType": "bytes32",
          "name": "_myid",
          "type": "bytes32"
        },
        {
          "internalType": "string",
          "name": "_result",
          "type": "string"
        }
      ],
      "name": "__callback",
      "outputs": [],
      "stateMutability": "nonpayable",
      "type": "function"
    },
    {
      "inputs": [
        {
          "internalType": "bytes32",
          "name": "_queryId",
          "type": "bytes32"
        },
        {
          "internalType": "string",
          "name": "_result",
          "type": "string"
        },
        {
          "internalType": "bytes",
          "name": "_proof",
          "type": "bytes"
        }
      ],
      "name": "__callback",
      "outputs": [],
      "stateMutability": "nonpayable",
      "type": "function"
    },
    {
      "inputs": [
        {
          "internalType": "uint8",
          "name": "nrBytes",
          "type": "uint8"
        }
      ],
      "name": "getRandom",
      "outputs": [],
      "stateMutability": "payable",
      "type": "function",
      "payable": true
    },
    {
      "inputs": [],
      "name": "rollDice",
      "outputs": [],
      "stateMutability": "payable",
      "type": "function",
      "payable": true
    },
    {
      "inputs": [],
      "name": "getDiceResultOfDealer",
      "outputs": [
        {
          "internalType": "uint256",
          "name": "",
          "type": "uint256"
        }
      ],
      "stateMutability": "view",
      "type": "function",
      "constant": true
    },
    {
      "inputs": [],
      "name": "getDiceResultOfUser",
      "outputs": [
        {
          "internalType": "uint256",
          "name": "",
          "type": "uint256"
        }
      ],
      "stateMutability": "view",
      "type": "function",
      "constant": true
    },
    {
      "inputs": [],
      "name": "payOut",
      "outputs": [],
      "stateMutability": "nonpayable",
      "type": "function"
    }
  ],
  "bytecode": "0x608060405234801561001057600080fd5b5061410e806100206000396000f3fe6080604052600436106100e85760003560e01c80637e4a6a5e1161008a578063a994dd9411610059578063a994dd94146104bf578063c2052403146104d6578063cdaba786146104ed578063f637d88014610528576100e8565b80637e4a6a5e146104425780638129fc1c1461047357806381b2d07b1461048a578063837e7cc6146104b5576100e8565b80633f1be4d4116100c65780633f1be4d4146103aa578063472abf68146103d5578063485e7475146103ec5780635e5bad7c14610417576100e8565b806307d8b05d146100ed57806327dc297e1461016f57806338bbfa5014610241575b600080fd5b3480156100f957600080fd5b5061013c6004803603602081101561011057600080fd5b81019080803573ffffffffffffffffffffffffffffffffffffffff169060200190929190505050610553565b604051808373ffffffffffffffffffffffffffffffffffffffff1681526020018281526020019250505060405180910390f35b34801561017b57600080fd5b5061023f6004803603604081101561019257600080fd5b8101908080359060200190929190803590602001906401000000008111156101b957600080fd5b8201836020820111156101cb57600080fd5b803590602001918460018302840111640100000000831117156101ed57600080fd5b91908080601f016020809104026020016040519081016040528093929190818152602001838380828437600081840152601f19601f820116905080830192505050505050509192919290505050610597565b005b34801561024d57600080fd5b506103a86004803603606081101561026457600080fd5b81019080803590602001909291908035906020019064010000000081111561028b57600080fd5b82018360208201111561029d57600080fd5b803590602001918460018302840111640100000000831117156102bf57600080fd5b91908080601f016020809104026020016040519081016040528093929190818152602001838380828437600081840152601f19601f8201169050808301925050505050505091929192908035906020019064010000000081111561032257600080fd5b82018360208201111561033457600080fd5b8035906020019184600183028401116401000000008311171561035657600080fd5b91908080601f016020809104026020016040519081016040528093929190818152602001838380828437600081840152601f19601f8201169050808301925050505050505091929192905050506105f1565b005b3480156103b657600080fd5b506103bf610749565b6040518082815260200191505060405180910390f35b3480156103e157600080fd5b506103ea61074f565b005b3480156103f857600080fd5b5061040161085f565b6040518082815260200191505060405180910390f35b34801561042357600080fd5b5061042c610869565b6040518082815260200191505060405180910390f35b6104716004803603602081101561045857600080fd5b81019080803560ff16906020019092919050505061086f565b005b34801561047f57600080fd5b5061048861088a565b005b34801561049657600080fd5b5061049f6109d6565b6040518082815260200191505060405180910390f35b6104bd6109e0565b005b3480156104cb57600080fd5b506104d46109fd565b005b3480156104e257600080fd5b506104eb610a14565b005b3480156104f957600080fd5b506105266004803603602081101561051057600080fd5b8101908080359060200190929190505050610ab6565b005b34801561053457600080fd5b5061053d610c0f565b6040518082815260200191505060405180910390f35b603c6020528060005260406000206000915090508060000160009054906101000a900473ffffffffffffffffffffffffffffffffffffffff16908060010154905082565b6105ed8282600067ffffffffffffffff811180156105b457600080fd5b506040519080825280601f01601f1916602001820160405280156105e75781602001600182028036833780820191505090505b506105f1565b5050565b6105f9610c19565b73ffffffffffffffffffffffffffffffffffffffff163373ffffffffffffffffffffffffffffffffffffffff161461063057600080fd5b600061063d848484610f36565b60ff1614156106d65760016005836040516020018082805190602001908083835b60208310610681578051825260208201915060208101905060208303925061065e565b6001836020036101000a0380198251168184511680821785525050505050509050019150506040516020818303038152906040528051906020012060001c816106c657fe5b060160ff16603e81905550610744565b6040517f08c379a000000000000000000000000000000000000000000000000000000000815260040180806020018281038252600d8152602001807f6572726f72206d6573736167650000000000000000000000000000000000000081525060200191505060405180910390fd5b505050565b603f5481565b600560019054906101000a900460ff168061076e575061076d611066565b5b806107865750600560009054906101000a900460ff16155b6107db576040517f08c379a000000000000000000000000000000000000000000000000000000000815260040180806020018281038252602e81526020018061406b602e913960400191505060405180910390fd5b6000600560019054906101000a900460ff16159050801561082d576001600560016101000a81548160ff0219169083151502179055506001600560006101000a81548160ff0219169083151502179055505b61083a603060f81b61107d565b801561085c576000600560016101000a81548160ff0219169083151502179055505b50565b6000603d54905090565b60385481565b61088160008260ff1662030d406113a1565b603f8190555050565b600560019054906101000a900460ff16806108a957506108a8611066565b5b806108c15750600560009054906101000a900460ff16155b610916576040517f08c379a000000000000000000000000000000000000000000000000000000000815260040180806020018281038252602e81526020018061406b602e913960400191505060405180910390fd5b6000600560019054906101000a900460ff161590508015610968576001600560016101000a81548160ff0219169083151502179055506001600560006101000a81548160ff0219169083151502179055505b600a60388190555033603b60006101000a81548173ffffffffffffffffffffffffffffffffffffffff021916908373ffffffffffffffffffffffffffffffffffffffff16021790555080156109d3576000600560016101000a81548160ff0219169083151502179055505b50565b6000603854905090565b6109e86119c6565b60ff16603d819055506109fb600161086f565b565b600260395402603860008282540392505081905550565b603e54603d541015610aac57610a286109fd565b7f1346ef089488831ddd390d36e94e4a0341136af2f1357d621b103c39c4523e73603b60009054906101000a900473ffffffffffffffffffffffffffffffffffffffff16603954603854604051808473ffffffffffffffffffffffffffffffffffffffff168152602001838152602001828152602001935050505060405180910390a15b610ab4611a2d565b565b603b60009054906101000a900473ffffffffffffffffffffffffffffffffffffffff1673ffffffffffffffffffffffffffffffffffffffff163373ffffffffffffffffffffffffffffffffffffffff1614610b1057600080fd5b610b1981611a47565b610b2257600080fd5b806039819055506039546038600082825401925050819055506001603a6000828254019250508190555060405180604001604052803373ffffffffffffffffffffffffffffffffffffffff168152602001603a54815250603c60003373ffffffffffffffffffffffffffffffffffffffff1673ffffffffffffffffffffffffffffffffffffffff16815260200190815260200160002060008201518160000160006101000a81548173ffffffffffffffffffffffffffffffffffffffff021916908373ffffffffffffffffffffffffffffffffffffffff1602179055506020820151816001015590505050565b6000603e54905090565b60008073ffffffffffffffffffffffffffffffffffffffff16600160009054906101000a900473ffffffffffffffffffffffffffffffffffffffff1673ffffffffffffffffffffffffffffffffffffffff161480610ca157506000610c9f600160009054906101000a900473ffffffffffffffffffffffffffffffffffffffff16611a56565b145b15610cb257610cb06000611a61565b505b600160009054906101000a900473ffffffffffffffffffffffffffffffffffffffff1673ffffffffffffffffffffffffffffffffffffffff166338cc48316040518163ffffffff1660e01b8152600401602060405180830381600087803b158015610d1c57600080fd5b505af1158015610d30573d6000803e3d6000fd5b505050506040513d6020811015610d4657600080fd5b810190808051906020019092919050505073ffffffffffffffffffffffffffffffffffffffff1660008054906101000a900473ffffffffffffffffffffffffffffffffffffffff1673ffffffffffffffffffffffffffffffffffffffff1614610e8e57600160009054906101000a900473ffffffffffffffffffffffffffffffffffffffff1673ffffffffffffffffffffffffffffffffffffffff166338cc48316040518163ffffffff1660e01b8152600401602060405180830381600087803b158015610e1357600080fd5b505af1158015610e27573d6000803e3d6000fd5b505050506040513d6020811015610e3d57600080fd5b81019080805190602001909291905050506000806101000a81548173ffffffffffffffffffffffffffffffffffffffff021916908373ffffffffffffffffffffffffffffffffffffffff1602179055505b60008054906101000a900473ffffffffffffffffffffffffffffffffffffffff1673ffffffffffffffffffffffffffffffffffffffff1663c281d19e6040518163ffffffff1660e01b8152600401602060405180830381600087803b158015610ef657600080fd5b505af1158015610f0a573d6000803e3d6000fd5b505050506040513d6020811015610f2057600080fd5b8101908080519060200190929190505050905090565b60007f4c0000000000000000000000000000000000000000000000000000000000000082600081518110610f6657fe5b602001015160f81c60f81b7effffffffffffffffffffffffffffffffffffffffffffffffffffffffffffff1916141580610ff957507f500000000000000000000000000000000000000000000000000000000000000082600181518110610fc957fe5b602001015160f81c60f81b7effffffffffffffffffffffffffffffffffffffffffffffffffffffffffffff191614155b806110255750600160ff168260028151811061101157fe5b602001015160f81c60f81b60f81c60ff1614155b15611033576001905061105f565b6000611048838686611043611a72565b611b14565b90508061105957600291505061105f565b60009150505b9392505050565b6000803090506000813b9050600081149250505090565b600073ffffffffffffffffffffffffffffffffffffffff16600160009054906101000a900473ffffffffffffffffffffffffffffffffffffffff1673ffffffffffffffffffffffffffffffffffffffff16148061110457506000611102600160009054906101000a900473ffffffffffffffffffffffffffffffffffffffff16611a56565b145b15611115576111136000611a61565b505b600160009054906101000a900473ffffffffffffffffffffffffffffffffffffffff1673ffffffffffffffffffffffffffffffffffffffff166338cc48316040518163ffffffff1660e01b8152600401602060405180830381600087803b15801561117f57600080fd5b505af1158015611193573d6000803e3d6000fd5b505050506040513d60208110156111a957600080fd5b810190808051906020019092919050505073ffffffffffffffffffffffffffffffffffffffff1660008054906101000a900473ffffffffffffffffffffffffffffffffffffffff1673ffffffffffffffffffffffffffffffffffffffff16146112f157600160009054906101000a900473ffffffffffffffffffffffffffffffffffffffff1673ffffffffffffffffffffffffffffffffffffffff166338cc48316040518163ffffffff1660e01b8152600401602060405180830381600087803b15801561127657600080fd5b505af115801561128a573d6000803e3d6000fd5b505050506040513d60208110156112a057600080fd5b81019080805190602001909291905050506000806101000a81548173ffffffffffffffffffffffffffffffffffffffff021916908373ffffffffffffffffffffffffffffffffffffffff1602179055505b60008054906101000a900473ffffffffffffffffffffffffffffffffffffffff1673ffffffffffffffffffffffffffffffffffffffff1663688dcfd7826040518263ffffffff1660e01b815260040180827effffffffffffffffffffffffffffffffffffffffffffffffffffffffffffff19168152602001915050600060405180830381600087803b15801561138657600080fd5b505af115801561139a573d6000803e3d6000fd5b5050505050565b600080831180156113b3575060208311155b6113bc57600080fd5b600a840293506060600167ffffffffffffffff811180156113dc57600080fd5b506040519080825280601f01601f19166020018201604052801561140f5781602001600182028036833780820191505090505b5090508360f81b8160008151811061142357fe5b60200101907effffffffffffffffffffffffffffffffffffffffffffffffffffffffffffff1916908160001a9053506060602067ffffffffffffffff8111801561146c57600080fd5b506040519080825280601f01601f19166020018201604052801561149f5781602001600182028036833780820191505090505b5090506060602067ffffffffffffffff811180156114bc57600080fd5b506040519080825280601f01601f1916602001820160405280156114ef5781602001600182028036833780820191505090505b50905060006114fc612233565b9050602083524241186001430340186020840152602082528060208301526060602067ffffffffffffffff8111801561153457600080fd5b506040519080825280601f01601f1916602001820160405280156115675781602001600182028036833780820191505090505b5090508860208201526060600867ffffffffffffffff8111801561158a57600080fd5b506040519080825280601f01601f1916602001820160405280156115bd5781602001600182028036833780820191505090505b5090506115d0826018600884600061254e565b506115d9613f8c565b6040518060800160405280878152602001888152602001868152602001848152509050600061163e6040518060400160405280600681526020017f72616e646f6d0000000000000000000000000000000000000000000000000000815250838c6125ad565b90506060600867ffffffffffffffff8111801561165a57600080fd5b506040519080825280601f01601f19166020018201604052801561168d5781602001600182028036833780820191505090505b50905060208401517f0100000000000000000000000000000000000000000000000000000000000000810460278301537e01000000000000000000000000000000000000000000000000000000000000810460268301537d010000000000000000000000000000000000000000000000000000000000810460258301537c0100000000000000000000000000000000000000000000000000000000810460248301537b01000000000000000000000000000000000000000000000000000000810460238301537a0100000000000000000000000000000000000000000000000000008104602283015379010000000000000000000000000000000000000000000000000081046021830153780100000000000000000000000000000000000000000000000081046020830153506119b38282856001600481106117cc57fe5b60200201516002876000600481106117e057fe5b60200201516040518082805190602001908083835b6020831061181857805182526020820191506020810190506020830392506117f5565b6001836020036101000a038019825116818451168082178552505050505050905001915050602060405180830381855afa15801561185a573d6000803e3d6000fd5b5050506040513d602081101561186f57600080fd5b81019080805190602001909291905050508760026004811061188d57fe5b60200201516040516020018085805190602001908083835b602083106118c857805182526020820191506020810190506020830392506118a5565b6001836020036101000a03801982511681845116808217855250505050505090500184805190602001908083835b6020831061191957805182526020820191506020810190506020830392506118f6565b6001836020036101000a03801982511681845116808217855250505050505090500183815260200182805190602001908083835b60208310611970578051825260208201915060208101905060208303925061194d565b6001836020036101000a03801982511681845116808217855250505050505090500194505050505060405160208183030381529060405280519060200120612930565b8199505050505050505050509392505050565b600060016006424144604051602001808481526020018373ffffffffffffffffffffffffffffffffffffffff1660601b815260140182815260200193505050506040516020818303038152906040528051906020012060001c81611a2657fe5b0601905090565b6000603d819055506000603e819055506000603981905550565b60008160385410159050919050565b6000813b9050919050565b6000611a6b61294c565b9050919050565b606060028054600181600116156101000203166002900480601f016020809104026020016040519081016040528092919081815260200182805460018160011615610100020316600290048015611b0a5780601f10611adf57610100808354040283529160200191611b0a565b820191906000526020600020905b815481529060010190602001808311611aed57829003601f168201915b5050505050905090565b6000806020600287604581518110611b2857fe5b602001015160f81c60f81b60f81c60ff16016044010190506060602067ffffffffffffffff81118015611b5a57600080fd5b506040519080825280601f01601f191660200182016040528015611b8d5781602001600182028036833780820191505090505b509050611b9f8783602084600061254e565b50600284876040516020018083805190602001908083835b60208310611bda5780518252602082019150602081019050602083039250611bb7565b6001836020036101000a038019825116818451168082178552505050505050905001828152602001925050506040516020818303038152906040526040518082805190602001908083835b60208310611c485780518252602082019150602081019050602083039250611c25565b6001836020036101000a038019825116818451168082178552505050505050905001915050602060405180830381855afa158015611c8a573d6000803e3d6000fd5b5050506040513d6020811015611c9f57600080fd5b81019080805190602001909291905050506040516020018082815260200191505060405160208183030381529060405280519060200120818051906020012014611cee5760009250505061222b565b60606002886001604986010181518110611d0457fe5b602001015160f81c60f81b60f81c60ff160167ffffffffffffffff81118015611d2c57600080fd5b506040519080825280601f01601f191660200182016040528015611d5f5781602001600182028036833780820191505090505b509050611d748860498501835184600061254e565b50611e3f6002826040518082805190602001908083835b60208310611dae5780518252602082019150602081019050602083039250611d8b565b6001836020036101000a038019825116818451168082178552505050505050905001915050602060405180830381855afa158015611df0573d6000803e3d6000fd5b5050506040513d6020811015611e0557600080fd5b8101908080519060200190929190505050878a6008602088010181518110611e2957fe5b602001015160f81c60f81b60f81c60ff16612ea3565b611e4f576000935050505061222b565b6060602967ffffffffffffffff81118015611e6957600080fd5b506040519080825280601f01601f191660200182016040528015611e9c5781602001600182028036833780820191505090505b509050611eb18960208601602984600061254e565b506060604067ffffffffffffffff81118015611ecc57600080fd5b506040519080825280601f01601f191660200182016040528015611eff5781602001600182028036833780820191505090505b5090506000604184516029602089010101019050611f258b60408303604085600061254e565b5060006002836040518082805190602001908083835b60208310611f5e5780518252602082019150602081019050602083039250611f3b565b6001836020036101000a038019825116818451168082178552505050505050905001915050602060405180830381855afa158015611fa0573d6000803e3d6000fd5b5050506040513d6020811015611fb557600080fd5b8101908080519060200190929190505050905083816040516020018083805190602001908083835b602083106120005780518252602082019150602081019050602083039250611fdd565b6001836020036101000a0380198251168184511680821785525050505050509050018281526020019250505060405160208183030381529060405280519060200120600360008d815260200190815260200160002054141561207857600360008c815260200190815260200160002060009055612088565b600097505050505050505061222b565b6060604967ffffffffffffffff811180156120a257600080fd5b506040519080825280601f01601f1916602001820160405280156120d55781602001600182028036833780820191505090505b5090506120e78d89604984600061254e565b506121906002826040518082805190602001908083835b6020831061212157805182526020820191506020810190506020830392506120fe565b6001836020036101000a038019825116818451168082178552505050505050905001915050602060405180830381855afa158015612163573d6000803e3d6000fd5b5050506040513d602081101561217857600080fd5b81019080805190602001909291905050508786612f50565b6121a55760009850505050505050505061222b565b6004600083815260200190815260200160002060009054906101000a900460ff166121ff576121d48d8461313c565b6004600084815260200190815260200160002060006101000a81548160ff0219169083151502179055505b6004600083815260200190815260200160002060009054906101000a900460ff16985050505050505050505b949350505050565b60008073ffffffffffffffffffffffffffffffffffffffff16600160009054906101000a900473ffffffffffffffffffffffffffffffffffffffff1673ffffffffffffffffffffffffffffffffffffffff1614806122bb575060006122b9600160009054906101000a900473ffffffffffffffffffffffffffffffffffffffff16611a56565b145b156122cc576122ca6000611a61565b505b600160009054906101000a900473ffffffffffffffffffffffffffffffffffffffff1673ffffffffffffffffffffffffffffffffffffffff166338cc48316040518163ffffffff1660e01b8152600401602060405180830381600087803b15801561233657600080fd5b505af115801561234a573d6000803e3d6000fd5b505050506040513d602081101561236057600080fd5b810190808051906020019092919050505073ffffffffffffffffffffffffffffffffffffffff1660008054906101000a900473ffffffffffffffffffffffffffffffffffffffff1673ffffffffffffffffffffffffffffffffffffffff16146124a857600160009054906101000a900473ffffffffffffffffffffffffffffffffffffffff1673ffffffffffffffffffffffffffffffffffffffff166338cc48316040518163ffffffff1660e01b8152600401602060405180830381600087803b15801561242d57600080fd5b505af1158015612441573d6000803e3d6000fd5b505050506040513d602081101561245757600080fd5b81019080805190602001909291905050506000806101000a81548173ffffffffffffffffffffffffffffffffffffffff021916908373ffffffffffffffffffffffffffffffffffffffff1602179055505b60008054906101000a900473ffffffffffffffffffffffffffffffffffffffff1673ffffffffffffffffffffffffffffffffffffffff1663abaa5f3e6040518163ffffffff1660e01b815260040160206040518083038186803b15801561250e57600080fd5b505afa158015612522573d6000803e3d6000fd5b505050506040513d602081101561253857600080fd5b8101908080519060200190929190505050905090565b606060008285019050808451101561256557600080fd5b600086602001905060008460200190505b86886020010182101561259e5781890151808288015250602082019150602081019050612576565b85935050505095945050505050565b60008073ffffffffffffffffffffffffffffffffffffffff16600160009054906101000a900473ffffffffffffffffffffffffffffffffffffffff1673ffffffffffffffffffffffffffffffffffffffff16148061263557506000612633600160009054906101000a900473ffffffffffffffffffffffffffffffffffffffff16611a56565b145b15612646576126446000611a61565b505b600160009054906101000a900473ffffffffffffffffffffffffffffffffffffffff1673ffffffffffffffffffffffffffffffffffffffff166338cc48316040518163ffffffff1660e01b8152600401602060405180830381600087803b1580156126b057600080fd5b505af11580156126c4573d6000803e3d6000fd5b505050506040513d60208110156126da57600080fd5b810190808051906020019092919050505073ffffffffffffffffffffffffffffffffffffffff1660008054906101000a900473ffffffffffffffffffffffffffffffffffffffff1673ffffffffffffffffffffffffffffffffffffffff161461282257600160009054906101000a900473ffffffffffffffffffffffffffffffffffffffff1673ffffffffffffffffffffffffffffffffffffffff166338cc48316040518163ffffffff1660e01b8152600401602060405180830381600087803b1580156127a757600080fd5b505af11580156127bb573d6000803e3d6000fd5b505050506040513d60208110156127d157600080fd5b81019080805190602001909291905050506000806101000a81548173ffffffffffffffffffffffffffffffffffffffff021916908373ffffffffffffffffffffffffffffffffffffffff1602179055505b6060600467ffffffffffffffff8111801561283c57600080fd5b5060405190808252806020026020018201604052801561287057816020015b606081526020019060019003908161285b5790505b5090508360006004811061288057fe5b60200201518160008151811061289257fe5b6020026020010181905250836001600481106128aa57fe5b6020020151816001815181106128bc57fe5b6020026020010181905250836002600481106128d457fe5b6020020151816002815181106128e657fe5b6020026020010181905250836003600481106128fe57fe5b60200201518160038151811061291057fe5b60200260200101819052506129268582856135c8565b9150509392505050565b8060036000848152602001908152602001600020819055505050565b60008061296c731d3b2638a7cc9f2cb3d298a3da7a90b67e5506ed611a56565b1115612a0e57731d3b2638a7cc9f2cb3d298a3da7a90b67e5506ed600160006101000a81548173ffffffffffffffffffffffffffffffffffffffff021916908373ffffffffffffffffffffffffffffffffffffffff160217905550612a056040518060400160405280600b81526020017f6574685f6d61696e6e6574000000000000000000000000000000000000000000815250613b28565b60019050612ea0565b6000612a2d73c03a2615d5efaf5f49f60b7bb6583eaec212fdf1611a56565b1115612acf5773c03a2615d5efaf5f49f60b7bb6583eaec212fdf1600160006101000a81548173ffffffffffffffffffffffffffffffffffffffff021916908373ffffffffffffffffffffffffffffffffffffffff160217905550612ac66040518060400160405280600c81526020017f6574685f726f707374656e330000000000000000000000000000000000000000815250613b28565b60019050612ea0565b6000612aee73b7a07bcf2ba2f2703b24c0691b5278999c59ac7e611a56565b1115612b905773b7a07bcf2ba2f2703b24c0691b5278999c59ac7e600160006101000a81548173ffffffffffffffffffffffffffffffffffffffff021916908373ffffffffffffffffffffffffffffffffffffffff160217905550612b876040518060400160405280600981526020017f6574685f6b6f76616e0000000000000000000000000000000000000000000000815250613b28565b60019050612ea0565b6000612baf73146500cfd35b22e4a392fe0adc06de1a1368ed48611a56565b1115612c515773146500cfd35b22e4a392fe0adc06de1a1368ed48600160006101000a81548173ffffffffffffffffffffffffffffffffffffffff021916908373ffffffffffffffffffffffffffffffffffffffff160217905550612c486040518060400160405280600b81526020017f6574685f72696e6b656279000000000000000000000000000000000000000000815250613b28565b60019050612ea0565b6000612c7073a2998efd205fb9d4b4963afb70778d6354ad3a41611a56565b1115612d125773a2998efd205fb9d4b4963afb70778d6354ad3a41600160006101000a81548173ffffffffffffffffffffffffffffffffffffffff021916908373ffffffffffffffffffffffffffffffffffffffff160217905550612d096040518060400160405280600a81526020017f6574685f676f65726c6900000000000000000000000000000000000000000000815250613b28565b60019050612ea0565b6000612d31736f485c8bf6fc43ea212e93bbf8ce046c7f1cb475611a56565b1115612d9557736f485c8bf6fc43ea212e93bbf8ce046c7f1cb475600160006101000a81548173ffffffffffffffffffffffffffffffffffffffff021916908373ffffffffffffffffffffffffffffffffffffffff16021790555060019050612ea0565b6000612db47320e12a1f859b3feae5fb2a0a32c18f5a65555bbf611a56565b1115612e18577320e12a1f859b3feae5fb2a0a32c18f5a65555bbf600160006101000a81548173ffffffffffffffffffffffffffffffffffffffff021916908373ffffffffffffffffffffffffffffffffffffffff16021790555060019050612ea0565b6000612e377351efaf4c8b3c9afbd5ab9f4bbc82784ab6ef8faa611a56565b1115612e9b577351efaf4c8b3c9afbd5ab9f4bbc82784ab6ef8faa600160006101000a81548173ffffffffffffffffffffffffffffffffffffffff021916908373ffffffffffffffffffffffffffffffffffffffff16021790555060019050612ea0565b600090505b90565b6000806001905082845114612eb757600080fd5b60005b83811015612f4457848181518110612ece57fe5b602001015160f81c60f81b7effffffffffffffffffffffffffffffffffffffffffffffffffffffffffffff1916868260208110612f0757fe5b1a60f81b7effffffffffffffffffffffffffffffffffffffffffffffffffffffffffffff191614612f3757600091505b8080600101915050612eba565b50809150509392505050565b60008060008060006060602067ffffffffffffffff81118015612f7257600080fd5b506040519080825280601f01601f191660200182016040528015612fa55781602001600182028036833780820191505090505b5090506000602089600381518110612fb957fe5b602001015160f81c60f81b60f81c60ff16036004019050612fdf8982602085600061254e565b91506060602067ffffffffffffffff81118015612ffb57600080fd5b506040519080825280601f01601f19166020018201604052801561302e5781602001600182028036833780820191505090505b50905060228201915061306a8a60208c600186038151811061304c57fe5b602001015160f81c60f81b60f81c60ff16038401602084600061254e565b905060208301519450602081015193506130878b601b8787613b42565b80975081985050508573ffffffffffffffffffffffffffffffffffffffff16898051906020012060001c73ffffffffffffffffffffffffffffffffffffffff1614156130dd576001975050505050505050613135565b6130ea8b601c8787613b42565b80975081985050508573ffffffffffffffffffffffffffffffffffffffff16898051906020012060001c73ffffffffffffffffffffffffffffffffffffffff16149750505050505050505b9392505050565b6000806060600285600186018151811061315257fe5b602001015160f81c60f81b60f81c60ff160167ffffffffffffffff8111801561317a57600080fd5b506040519080825280601f01601f1916602001820160405280156131ad5781602001600182028036833780820191505090505b5090506131bf8585835184600061254e565b506060604067ffffffffffffffff811180156131da57600080fd5b506040519080825280601f01601f19166020018201604052801561320d5781602001600182028036833780820191505090505b509050613220866004604084600061254e565b506060606267ffffffffffffffff8111801561323b57600080fd5b506040519080825280601f01601f19166020018201604052801561326e5781602001600182028036833780820191505090505b509050600160f81b8160008151811061328357fe5b60200101907effffffffffffffffffffffffffffffffffffffffffffffffffffffffffffff1916908160001a9053506132c48760418803604184600161254e565b5060606040518060400160405280602081526020017ffd94fa71bc0ba10d39d464d0d8f465efeef0a2764e3887fcc9df41ded20f505c815250905061330f816000602085604261254e565b506133b86002836040518082805190602001908083835b602083106133495780518252602082019150602081019050602083039250613326565b6001836020036101000a038019825116818451168082178552505050505050905001915050602060405180830381855afa15801561338b573d6000803e3d6000fd5b5050506040513d60208110156133a057600080fd5b81019080805190602001909291905050508585612f50565b9450846133cd576000955050505050506135c2565b60606040518060600160405280604081526020016140996040913990506060604267ffffffffffffffff8111801561340457600080fd5b506040519080825280601f01601f1916602001820160405280156134375781602001600182028036833780820191505090505b50905060fe60f81b8160008151811061344c57fe5b60200101907effffffffffffffffffffffffffffffffffffffffffffffffffffffffffffff1916908160001a90535061348b8a6003604184600161254e565b50606060028b60458151811061349d57fe5b602001015160f81c60f81b60f81c60ff160167ffffffffffffffff811180156134c557600080fd5b506040519080825280601f01601f1916602001820160405280156134f85781602001600182028036833780820191505090505b50905061350b8b6044835184600061254e565b506135b46002836040518082805190602001908083835b602083106135455780518252602082019150602081019050602083039250613522565b6001836020036101000a038019825116818451168082178552505050505050905001915050602060405180830381855afa158015613587573d6000803e3d6000fd5b5050506040513d602081101561359c57600080fd5b81019080805190602001909291905050508285612f50565b975087985050505050505050505b92915050565b60008073ffffffffffffffffffffffffffffffffffffffff16600160009054906101000a900473ffffffffffffffffffffffffffffffffffffffff1673ffffffffffffffffffffffffffffffffffffffff1614806136505750600061364e600160009054906101000a900473ffffffffffffffffffffffffffffffffffffffff16611a56565b145b156136615761365f6000611a61565b505b600160009054906101000a900473ffffffffffffffffffffffffffffffffffffffff1673ffffffffffffffffffffffffffffffffffffffff166338cc48316040518163ffffffff1660e01b8152600401602060405180830381600087803b1580156136cb57600080fd5b505af11580156136df573d6000803e3d6000fd5b505050506040513d60208110156136f557600080fd5b810190808051906020019092919050505073ffffffffffffffffffffffffffffffffffffffff1660008054906101000a900473ffffffffffffffffffffffffffffffffffffffff1673ffffffffffffffffffffffffffffffffffffffff161461383d57600160009054906101000a900473ffffffffffffffffffffffffffffffffffffffff1673ffffffffffffffffffffffffffffffffffffffff166338cc48316040518163ffffffff1660e01b8152600401602060405180830381600087803b1580156137c257600080fd5b505af11580156137d6573d6000803e3d6000fd5b505050506040513d60208110156137ec57600080fd5b81019080805190602001909291905050506000806101000a81548173ffffffffffffffffffffffffffffffffffffffff021916908373ffffffffffffffffffffffffffffffffffffffff1602179055505b60008060009054906101000a900473ffffffffffffffffffffffffffffffffffffffff1673ffffffffffffffffffffffffffffffffffffffff16632ef3accc86856040518363ffffffff1660e01b81526004018080602001838152602001828103825284818151815260200191508051906020019080838360005b838110156138d35780820151818401526020810190506138b8565b50505050905090810190601f1680156139005780820380516001836020036101000a031916815260200191505b509350505050602060405180830381600087803b15801561392057600080fd5b505af1158015613934573d6000803e3d6000fd5b505050506040513d602081101561394a57600080fd5b81019080805190602001909291905050509050823a02670de0b6b3a76400000181111561397d576000801b915050613b21565b606061398885613b86565b905060008054906101000a900473ffffffffffffffffffffffffffffffffffffffff1673ffffffffffffffffffffffffffffffffffffffff1663c55c1cb68360008985896040518663ffffffff1660e01b8152600401808581526020018060200180602001848152602001838103835286818151815260200191508051906020019080838360005b83811015613a2b578082015181840152602081019050613a10565b50505050905090810190601f168015613a585780820380516001836020036101000a031916815260200191505b50838103825285818151815260200191508051906020019080838360005b83811015613a91578082015181840152602081019050613a76565b50505050905090810190601f168015613abe5780820380516001836020036101000a031916815260200191505b5096505050505050506020604051808303818588803b158015613ae057600080fd5b505af1158015613af4573d6000803e3d6000fd5b50505050506040513d6020811015613b0b57600080fd5b8101908080519060200190929190505050925050505b9392505050565b8060029080519060200190613b3e929190613fb3565b5050565b60008060008060405188815287602082015286604082015285606082015260208160808360006001610bb8f192508051915050818193509350505094509492505050565b6060613b90613c03565b613b98614033565b613ba481610400613c0f565b613bad81613c59565b60005b8351811015613bec57613bdf848281518110613bc857fe5b602002602001015183613c6790919063ffffffff16565b8080600101915050613bb0565b50613bf681613c8c565b8060000151915050919050565b60405180590338823950565b6000819050600060208281613c2057fe5b0614613c395760208181613c3057fe5b06602003810190505b808360200181815250506040518084526000815281810160405250505050565b613c64816004613c9a565b50565b613c748260028351613cbb565b613c878183613dfb90919063ffffffff16565b505050565b613c97816007613c9a565b50565b613cb7601f60058360ff16901b1783613ea690919063ffffffff16565b5050565b60178111613ce757613ce28160058460ff16901b60ff161784613ea690919063ffffffff16565b613df6565b60ff8111613d2857613d0c601860058460ff16901b1784613ea690919063ffffffff16565b613d2281600185613ee69092919063ffffffff16565b50613df5565b61ffff8111613d6a57613d4e601960058460ff16901b1784613ea690919063ffffffff16565b613d6481600285613ee69092919063ffffffff16565b50613df4565b63ffffffff8111613dae57613d92601a60058460ff16901b1784613ea690919063ffffffff16565b613da881600485613ee69092919063ffffffff16565b50613df3565b67ffffffffffffffff8111613df257613dda601b60058460ff16901b1784613ea690919063ffffffff16565b613df081600885613ee69092919063ffffffff16565b505b5b5b5b5b505050565b613e03614033565b82602001518360000151518351011115613e3357613e32836002613e2c86602001518651613f4d565b02613f69565b5b60008060008451905085518051602081830101945086518101825260208701935050505b60208110613e7a5781518352602083019250602082019150602081039050613e57565b60006001826020036101000a039050801983511681855116818117865250508694505050505092915050565b81602001516001836000015151011115613ecc57613ecb826002846020015102613f69565b5b815180516020818301018381536001820183525050505050565b613eee614033565b836020015184600001515183011115613f1c57613f1b846002613f15876020015186613f4d565b02613f69565b5b60006001836101000a0390508451805184818301018684198251161781528582018352505050849150509392505050565b600081831115613f5f57829050613f63565b8190505b92915050565b606082600001519050613f7c8383613c0f565b613f868382613dfb565b50505050565b60405180608001604052806004905b6060815260200190600190039081613f9b5790505090565b828054600181600116156101000203166002900490600052602060002090601f016020900481019282601f10613ff457805160ff1916838001178555614022565b82800160010185558215614022579182015b82811115614021578251825591602001919060010190614006565b5b50905061402f919061404d565b5090565b604051806040016040528060608152602001600081525090565b5b8082111561406657600081600090555060010161404e565b509056fe436f6e747261637420696e7374616e63652068617320616c7265616479206265656e20696e697469616c697a65647fb956469c5c9b89840d55b43537e66a98dd4811ea0a27224272c2e5622911e8537a2f8e86a46baec82864e98dd01e9ccc2f8bc5dfc9cbe5a91a290498dd96e4a264697066735822122080fad4bd34b841e52228a9a0111ed824ddafff1c908c0db59b6e1af11c3bb2e964736f6c634300060c0033",
  "immutableReferences": {},
  "source": "pragma solidity ^0.6.0;\nimport \"./provableAPI.sol\";\nimport \"@openzeppelin/upgrades-core/contracts/Initializable.sol\";\n\n\ncontract Dealer is usingProvable, Initializable  {\n    uint public dealerBalance;\n    uint bet;\n    uint playedGames;\n    address player;\n    \n    // constructor() public {\n    //     dealerBalance = 10;\n    //      player = msg.sender;\n    // }\n\n    function initialize() public initializer {\n        dealerBalance = 10;\n        player = msg.sender;\n    }   \n    \n    event PlayerWins(\n        address player,\n        uint profit,\n        uint dealerBalance\n        );\n    \n    mapping(address => PlayerData) public playerList;\n    \n    struct PlayerData {\n        address playerAddress;\n        uint playedGames;\n    }\n    \n    modifier onlyPlayer() {\n        require(msg.sender == player);\n        _;\n    }\n    \n    function addBet(uint _bet) public onlyPlayer {\n        require(checkIfBalanceIsEnough(_bet));\n            bet = _bet;\n            dealerBalance += bet;\n            playedGames += 1;\n            playerList[msg.sender] = PlayerData(msg.sender, playedGames);\n    }\n    \n    \n    function returnBetWithProfit() public {\n        dealerBalance -= bet * 2; \n    }\n    \n    function showBalance() public view returns (uint) {\n        return dealerBalance; \n    }\n    \n    function checkIfBalanceIsEnough(uint _bet) private view returns (bool) {\n        return dealerBalance >= _bet; \n    }\n}\n\ncontract PolarBet is Dealer {\n    uint dealerDiceResult;\n    uint userDiceResult;\n    bytes32 public queryId;\n    \n    \n    // constructor() public { \n    //     provable_setProof(proofType_Ledger); \n    // }\n\n    function initialize2() public initializer {\n        provable_setProof(proofType_Ledger); \n    }   \n    \n    \n    function __callback(bytes32  _queryId,string memory _result,bytes memory _proof ) override public {\n        require(msg.sender == provable_cbAddress());\n        if (provable_randomDS_proofVerify__returnCode(_queryId,_result,_proof)== 0)\n            userDiceResult = uint8(uint256(keccak256(abi.encodePacked(_result)))% 5) + 1;\n        else\n            revert(\"error message\");\n}\n    \n    function getRandom(uint8 nrBytes) public payable { // not supported in remix\n        queryId=provable_newRandomDSQuery(\n            0,          // QUERY_EXECUTION_DELAY\n            nrBytes,    // NUM_RANDOM_BYTES_REQUESTED\n            200000      // GAS_FOR_CALLBACK\n        );\n    }\n    \n    function getRandomNumber() private view returns (uint8) {\n        return uint8(uint256(keccak256(abi.encodePacked(block.timestamp, block.coinbase, block.difficulty)))%6) + 1;\n    }\n    \n    function rollDice() public payable {\n        dealerDiceResult = getRandomNumber();\n        getRandom(1);\n    }\n\n    function getDiceResultOfDealer() public view returns (uint) {\n        return dealerDiceResult;\n    }\n    \n    function getDiceResultOfUser() public view returns (uint) {\n        return userDiceResult;\n    }\n    \n    function payOut() public  {\n        if (dealerDiceResult < userDiceResult) {\n            returnBetWithProfit();\n            emit PlayerWins(player, bet, dealerBalance);\n        }  \n        resetBetAndDiceResults();\n    }\n    \n    function resetBetAndDiceResults() private {\n        dealerDiceResult = 0;\n        userDiceResult = 0;\n        bet = 0; \n    }\n}",
  "sourcePath": "/Users/rowin/Documents/projects/Koios/polarbet/contracts/PolarBet.sol",
  "compiler": {
    "name": "solc",
    "version": "0.6.12+commit.27d51765.Emscripten.clang"
  },
  "schemaVersion": "3.3.3",
  "updatedAt": "2021-01-05T12:42:25.497Z",
  "networkType": "ethereum",
  "devdoc": {
    "kind": "dev",
    "methods": {
      "__callback(bytes32,string)": {
        "details": "The following `__callback` functions are just placeholders ideally      meant to be defined in child contract when proofs are used.      The function bodies simply silence compiler warnings."
      }
    },
    "version": 1
  },
  "userdoc": {
    "kind": "user",
    "methods": {},
    "version": 1
  }
}